{
  "address": "0xBeec50ed16E3559afCD582cC98ed2b5F5DcA189E",
  "abi": [
    {
      "inputs": [],
      "stateMutability": "nonpayable",
      "type": "constructor"
    },
    {
      "anonymous": false,
      "inputs": [
        {
          "indexed": true,
          "internalType": "address",
          "name": "owner",
          "type": "address"
        },
        {
          "indexed": true,
          "internalType": "address",
          "name": "spender",
          "type": "address"
        },
        {
          "indexed": false,
          "internalType": "uint256",
          "name": "value",
          "type": "uint256"
        }
      ],
      "name": "Approval",
      "type": "event"
    },
    {
      "anonymous": false,
      "inputs": [
        {
          "indexed": true,
          "internalType": "address",
          "name": "from",
          "type": "address"
        },
        {
          "indexed": true,
          "internalType": "address",
          "name": "to",
          "type": "address"
        },
        {
          "indexed": false,
          "internalType": "uint256",
          "name": "value",
          "type": "uint256"
        }
      ],
      "name": "Transfer",
      "type": "event"
    },
    {
      "inputs": [
        {
          "internalType": "address",
          "name": "owner",
          "type": "address"
        },
        {
          "internalType": "address",
          "name": "spender",
          "type": "address"
        }
      ],
      "name": "allowance",
      "outputs": [
        {
          "internalType": "uint256",
          "name": "",
          "type": "uint256"
        }
      ],
      "stateMutability": "view",
      "type": "function"
    },
    {
      "inputs": [
        {
          "internalType": "address",
          "name": "spender",
          "type": "address"
        },
        {
          "internalType": "uint256",
          "name": "amount",
          "type": "uint256"
        }
      ],
      "name": "approve",
      "outputs": [
        {
          "internalType": "bool",
          "name": "",
          "type": "bool"
        }
      ],
      "stateMutability": "nonpayable",
      "type": "function"
    },
    {
      "inputs": [
        {
          "internalType": "address",
          "name": "account",
          "type": "address"
        }
      ],
      "name": "balanceOf",
      "outputs": [
        {
          "internalType": "uint256",
          "name": "",
          "type": "uint256"
        }
      ],
      "stateMutability": "view",
      "type": "function"
    },
    {
      "inputs": [],
      "name": "decimals",
      "outputs": [
        {
          "internalType": "uint8",
          "name": "",
          "type": "uint8"
        }
      ],
      "stateMutability": "view",
      "type": "function"
    },
    {
      "inputs": [
        {
          "internalType": "address",
          "name": "spender",
          "type": "address"
        },
        {
          "internalType": "uint256",
          "name": "subtractedValue",
          "type": "uint256"
        }
      ],
      "name": "decreaseAllowance",
      "outputs": [
        {
          "internalType": "bool",
          "name": "",
          "type": "bool"
        }
      ],
      "stateMutability": "nonpayable",
      "type": "function"
    },
    {
      "inputs": [
        {
          "internalType": "address",
          "name": "spender",
          "type": "address"
        },
        {
          "internalType": "uint256",
          "name": "addedValue",
          "type": "uint256"
        }
      ],
      "name": "increaseAllowance",
      "outputs": [
        {
          "internalType": "bool",
          "name": "",
          "type": "bool"
        }
      ],
      "stateMutability": "nonpayable",
      "type": "function"
    },
    {
      "inputs": [],
      "name": "name",
      "outputs": [
        {
          "internalType": "string",
          "name": "",
          "type": "string"
        }
      ],
      "stateMutability": "view",
      "type": "function"
    },
    {
      "inputs": [],
      "name": "symbol",
      "outputs": [
        {
          "internalType": "string",
          "name": "",
          "type": "string"
        }
      ],
      "stateMutability": "view",
      "type": "function"
    },
    {
      "inputs": [],
      "name": "totalSupply",
      "outputs": [
        {
          "internalType": "uint256",
          "name": "",
          "type": "uint256"
        }
      ],
      "stateMutability": "view",
      "type": "function"
    },
    {
      "inputs": [
        {
          "internalType": "address",
          "name": "recipient",
          "type": "address"
        },
        {
          "internalType": "uint256",
          "name": "amount",
          "type": "uint256"
        }
      ],
      "name": "transfer",
      "outputs": [
        {
          "internalType": "bool",
          "name": "",
          "type": "bool"
        }
      ],
      "stateMutability": "nonpayable",
      "type": "function"
    },
    {
      "inputs": [
        {
          "internalType": "address",
          "name": "sender",
          "type": "address"
        },
        {
          "internalType": "address",
          "name": "recipient",
          "type": "address"
        },
        {
          "internalType": "uint256",
          "name": "amount",
          "type": "uint256"
        }
      ],
      "name": "transferFrom",
      "outputs": [
        {
          "internalType": "bool",
          "name": "",
          "type": "bool"
        }
      ],
      "stateMutability": "nonpayable",
      "type": "function"
    },
    {
      "inputs": [],
      "name": "withdraw",
      "outputs": [],
      "stateMutability": "nonpayable",
      "type": "function"
    },
    {
      "stateMutability": "payable",
      "type": "receive"
    }
  ],
  "transactionHash": "0xe7bfb725216fc5d11bf653ffc6458075c185c944ad2851358b9bca048c2e593c",
  "args": [],
  "numDeployments": 1,
  "solcInputHash": "3fcb829bdff3dbd1d10e0f68ff789618",
  "bytecode": "0x60806040523480156200001157600080fd5b50604051806040016040528060098152602001682220a4902a37b5b2b760b91b8152506040518060400160405280600381526020016244414960e81b815250818181600390805190602001906200006a9291906200008b565b508051620000809060049060208401906200008b565b50505050506200016d565b828054620000999062000131565b90600052602060002090601f016020900481019282620000bd576000855562000108565b82601f10620000d857805160ff191683800117855562000108565b8280016001018555821562000108579182015b8281111562000108578251825591602001919060010190620000eb565b50620001169291506200011a565b5090565b5b808211156200011657600081556001016200011b565b600181811c908216806200014657607f821691505b6020821081036200016757634e487b7160e01b600052602260045260246000fd5b50919050565b610eb8806200017d6000396000f3fe6080604052600436106100cb5760003560e01c80633ccfd60b11610074578063a457c2d71161004e578063a457c2d71461023b578063a9059cbb1461025b578063dd62ed3e1461027b57600080fd5b80633ccfd60b146101db57806370a08231146101f057806395d89b411461022657600080fd5b806323b872dd116100a557806323b872dd1461017f578063313ce5671461019f57806339509351146101bb57600080fd5b806306fdde0314610105578063095ea7b31461013057806318160ddd1461016057600080fd5b366101005760006100dd601280610b96565b6100e890600a610c9d565b6100f29034610cb3565b90506100fe33826102c1565b005b600080fd5b34801561011157600080fd5b5061011a6103a5565b6040516101279190610cd5565b60405180910390f35b34801561013c57600080fd5b5061015061014b366004610d46565b610437565b6040519015158152602001610127565b34801561016c57600080fd5b506002545b604051908152602001610127565b34801561018b57600080fd5b5061015061019a366004610d70565b61044e565b3480156101ab57600080fd5b5060405160128152602001610127565b3480156101c757600080fd5b506101506101d6366004610d46565b61050d565b3480156101e757600080fd5b506100fe610549565b3480156101fc57600080fd5b5061017161020b366004610dac565b6001600160a01b031660009081526020819052604090205490565b34801561023257600080fd5b5061011a6105be565b34801561024757600080fd5b50610150610256366004610d46565b6105cd565b34801561026757600080fd5b50610150610276366004610d46565b61067e565b34801561028757600080fd5b50610171610296366004610dc7565b6001600160a01b03918216600090815260016020908152604080832093909416825291909152205490565b6001600160a01b03821661031c5760405162461bcd60e51b815260206004820152601f60248201527f45524332303a206d696e7420746f20746865207a65726f20616464726573730060448201526064015b60405180910390fd5b806002600082825461032e9190610dfa565b90915550506001600160a01b0382166000908152602081905260408120805483929061035b908490610dfa565b90915550506040518181526001600160a01b038316906000907fddf252ad1be2c89b69c2b068fc378daa952ba7f163c4a11628f55a4df523b3ef9060200160405180910390a35050565b6060600380546103b490610e12565b80601f01602080910402602001604051908101604052809291908181526020018280546103e090610e12565b801561042d5780601f106104025761010080835404028352916020019161042d565b820191906000526020600020905b81548152906001019060200180831161041057829003601f168201915b5050505050905090565b600061044433848461068b565b5060015b92915050565b600061045b8484846107e3565b6001600160a01b0384166000908152600160209081526040808320338452909152902054828110156104f55760405162461bcd60e51b815260206004820152602860248201527f45524332303a207472616e7366657220616d6f756e742065786365656473206160448201527f6c6c6f77616e63650000000000000000000000000000000000000000000000006064820152608401610313565b610502853385840361068b565b506001949350505050565b3360008181526001602090815260408083206001600160a01b03871684529091528120549091610444918590610544908690610dfa565b61068b565b336000818152602081905260409020549061056481836109fb565b6001600160a01b0381166108fc61057c601280610b96565b61058790600a610c9d565b6105919085610e4c565b6040518115909202916000818181858888f193505050501580156105b9573d6000803e3d6000fd5b505050565b6060600480546103b490610e12565b3360009081526001602090815260408083206001600160a01b0386168452909152812054828110156106675760405162461bcd60e51b815260206004820152602560248201527f45524332303a2064656372656173656420616c6c6f77616e63652062656c6f7760448201527f207a65726f0000000000000000000000000000000000000000000000000000006064820152608401610313565b610674338585840361068b565b5060019392505050565b60006104443384846107e3565b6001600160a01b0383166107065760405162461bcd60e51b8152602060048201526024808201527f45524332303a20617070726f76652066726f6d20746865207a65726f2061646460448201527f72657373000000000000000000000000000000000000000000000000000000006064820152608401610313565b6001600160a01b0382166107825760405162461bcd60e51b815260206004820152602260248201527f45524332303a20617070726f766520746f20746865207a65726f20616464726560448201527f73730000000000000000000000000000000000000000000000000000000000006064820152608401610313565b6001600160a01b0383811660008181526001602090815260408083209487168084529482529182902085905590518481527f8c5be1e5ebec7d5bd14f71427d1e84f3dd0314c0f7b2291e5b200ac8c7c3b925910160405180910390a3505050565b6001600160a01b03831661085f5760405162461bcd60e51b815260206004820152602560248201527f45524332303a207472616e736665722066726f6d20746865207a65726f20616460448201527f64726573730000000000000000000000000000000000000000000000000000006064820152608401610313565b6001600160a01b0382166108db5760405162461bcd60e51b815260206004820152602360248201527f45524332303a207472616e7366657220746f20746865207a65726f206164647260448201527f65737300000000000000000000000000000000000000000000000000000000006064820152608401610313565b6001600160a01b0383166000908152602081905260409020548181101561096a5760405162461bcd60e51b815260206004820152602660248201527f45524332303a207472616e7366657220616d6f756e742065786365656473206260448201527f616c616e636500000000000000000000000000000000000000000000000000006064820152608401610313565b6001600160a01b038085166000908152602081905260408082208585039055918516815290812080548492906109a1908490610dfa565b92505081905550826001600160a01b0316846001600160a01b03167fddf252ad1be2c89b69c2b068fc378daa952ba7f163c4a11628f55a4df523b3ef846040516109ed91815260200190565b60405180910390a350505050565b6001600160a01b038216610a775760405162461bcd60e51b815260206004820152602160248201527f45524332303a206275726e2066726f6d20746865207a65726f2061646472657360448201527f73000000000000000000000000000000000000000000000000000000000000006064820152608401610313565b6001600160a01b03821660009081526020819052604090205481811015610b065760405162461bcd60e51b815260206004820152602260248201527f45524332303a206275726e20616d6f756e7420657863656564732062616c616e60448201527f63650000000000000000000000000000000000000000000000000000000000006064820152608401610313565b6001600160a01b0383166000908152602081905260408120838303905560028054849290610b35908490610e6b565b90915550506040518281526000906001600160a01b038516907fddf252ad1be2c89b69c2b068fc378daa952ba7f163c4a11628f55a4df523b3ef9060200160405180910390a3505050565b634e487b7160e01b600052601160045260246000fd5b600060ff821660ff841680821015610bb057610bb0610b80565b90039392505050565b600181815b80851115610bf4578160001904821115610bda57610bda610b80565b80851615610be757918102915b93841c9390800290610bbe565b509250929050565b600082610c0b57506001610448565b81610c1857506000610448565b8160018114610c2e5760028114610c3857610c54565b6001915050610448565b60ff841115610c4957610c49610b80565b50506001821b610448565b5060208310610133831016604e8410600b8410161715610c77575081810a610448565b610c818383610bb9565b8060001904821115610c9557610c95610b80565b029392505050565b6000610cac60ff841683610bfc565b9392505050565b600082610cd057634e487b7160e01b600052601260045260246000fd5b500490565b600060208083528351808285015260005b81811015610d0257858101830151858201604001528201610ce6565b81811115610d14576000604083870101525b50601f01601f1916929092016040019392505050565b80356001600160a01b0381168114610d4157600080fd5b919050565b60008060408385031215610d5957600080fd5b610d6283610d2a565b946020939093013593505050565b600080600060608486031215610d8557600080fd5b610d8e84610d2a565b9250610d9c60208501610d2a565b9150604084013590509250925092565b600060208284031215610dbe57600080fd5b610cac82610d2a565b60008060408385031215610dda57600080fd5b610de383610d2a565b9150610df160208401610d2a565b90509250929050565b60008219821115610e0d57610e0d610b80565b500190565b600181811c90821680610e2657607f821691505b602082108103610e4657634e487b7160e01b600052602260045260246000fd5b50919050565b6000816000190483118215151615610e6657610e66610b80565b500290565b600082821015610e7d57610e7d610b80565b50039056fea2646970667358221220a680fc439bb3c5c2778ab038866b45f8c13e946f19c89e61c020132a92d46ce464736f6c634300080d0033",
  "devdoc": {
    "kind": "dev",
    "methods": {
      "allowance(address,address)": {
        "details": "See {IERC20-allowance}."
      },
      "approve(address,uint256)": {
        "details": "See {IERC20-approve}. Requirements: - `spender` cannot be the zero address."
      },
      "balanceOf(address)": {
        "details": "See {IERC20-balanceOf}."
      },
      "decimals()": {
        "details": "Returns the number of decimals used to get its user representation. For example, if `decimals` equals `2`, a balance of `505` tokens should be displayed to a user as `5.05` (`505 / 10 ** 2`). Tokens usually opt for a value of 18, imitating the relationship between Ether and Wei. This is the value {ERC20} uses, unless this function is overridden; NOTE: This information is only used for _display_ purposes: it in no way affects any of the arithmetic of the contract, including {IERC20-balanceOf} and {IERC20-transfer}."
      },
      "decreaseAllowance(address,uint256)": {
        "details": "Atomically decreases the allowance granted to `spender` by the caller. This is an alternative to {approve} that can be used as a mitigation for problems described in {IERC20-approve}. Emits an {Approval} event indicating the updated allowance. Requirements: - `spender` cannot be the zero address. - `spender` must have allowance for the caller of at least `subtractedValue`."
      },
      "increaseAllowance(address,uint256)": {
        "details": "Atomically increases the allowance granted to `spender` by the caller. This is an alternative to {approve} that can be used as a mitigation for problems described in {IERC20-approve}. Emits an {Approval} event indicating the updated allowance. Requirements: - `spender` cannot be the zero address."
      },
      "name()": {
        "details": "Returns the name of the token."
      },
      "symbol()": {
        "details": "Returns the symbol of the token, usually a shorter version of the name."
      },
      "totalSupply()": {
        "details": "See {IERC20-totalSupply}."
      },
      "transfer(address,uint256)": {
        "details": "See {IERC20-transfer}. Requirements: - `recipient` cannot be the zero address. - the caller must have a balance of at least `amount`."
      },
      "transferFrom(address,address,uint256)": {
        "details": "See {IERC20-transferFrom}. Emits an {Approval} event indicating the updated allowance. This is not required by the EIP. See the note at the beginning of {ERC20}. Requirements: - `sender` and `recipient` cannot be the zero address. - `sender` must have a balance of at least `amount`. - the caller must have allowance for ``sender``'s tokens of at least `amount`."
      }
    },
    "version": 1
  },
  "userdoc": {
    "kind": "user",
    "methods": {},
    "version": 1
  },
  "storageLayout": {
    "storage": [
      {
        "astId": 159,
        "contract": "contracts/DaiToken.sol:DAI",
        "label": "_balances",
        "offset": 0,
        "slot": "0",
        "type": "t_mapping(t_address,t_uint256)"
      },
      {
        "astId": 165,
        "contract": "contracts/DaiToken.sol:DAI",
        "label": "_allowances",
        "offset": 0,
        "slot": "1",
        "type": "t_mapping(t_address,t_mapping(t_address,t_uint256))"
      },
      {
        "astId": 167,
        "contract": "contracts/DaiToken.sol:DAI",
        "label": "_totalSupply",
        "offset": 0,
        "slot": "2",
        "type": "t_uint256"
      },
      {
        "astId": 169,
        "contract": "contracts/DaiToken.sol:DAI",
        "label": "_name",
        "offset": 0,
        "slot": "3",
        "type": "t_string_storage"
      },
      {
        "astId": 171,
        "contract": "contracts/DaiToken.sol:DAI",
        "label": "_symbol",
        "offset": 0,
        "slot": "4",
        "type": "t_string_storage"
      }
    ],
    "types": {
      "t_address": {
        "encoding": "inplace",
        "label": "address",
        "numberOfBytes": "20"
      },
      "t_mapping(t_address,t_mapping(t_address,t_uint256))": {
        "encoding": "mapping",
        "key": "t_address",
        "label": "mapping(address => mapping(address => uint256))",
        "numberOfBytes": "32",
        "value": "t_mapping(t_address,t_uint256)"
      },
      "t_mapping(t_address,t_uint256)": {
        "encoding": "mapping",
        "key": "t_address",
        "label": "mapping(address => uint256)",
        "numberOfBytes": "32",
        "value": "t_uint256"
      },
      "t_string_storage": {
        "encoding": "bytes",
        "label": "string",
        "numberOfBytes": "32"
      },
      "t_uint256": {
        "encoding": "inplace",
        "label": "uint256",
        "numberOfBytes": "32"
      }
    }
  }
}