{
  "address": "0x9A4f4Ee35a8FfEE459B3187A372d422790fc8aAB",
  "abi": [
    {
      "inputs": [],
      "stateMutability": "nonpayable",
      "type": "constructor"
    },
    {
      "anonymous": false,
      "inputs": [
        {
          "indexed": true,
          "internalType": "address",
          "name": "owner",
          "type": "address"
        },
        {
          "indexed": true,
          "internalType": "address",
          "name": "spender",
          "type": "address"
        },
        {
          "indexed": false,
          "internalType": "uint256",
          "name": "value",
          "type": "uint256"
        }
      ],
      "name": "Approval",
      "type": "event"
    },
    {
      "anonymous": false,
      "inputs": [
        {
          "indexed": true,
          "internalType": "address",
          "name": "from",
          "type": "address"
        },
        {
          "indexed": true,
          "internalType": "address",
          "name": "to",
          "type": "address"
        },
        {
          "indexed": false,
          "internalType": "uint256",
          "name": "value",
          "type": "uint256"
        }
      ],
      "name": "Transfer",
      "type": "event"
    },
    {
      "inputs": [
        {
          "internalType": "address",
          "name": "owner",
          "type": "address"
        },
        {
          "internalType": "address",
          "name": "spender",
          "type": "address"
        }
      ],
      "name": "allowance",
      "outputs": [
        {
          "internalType": "uint256",
          "name": "",
          "type": "uint256"
        }
      ],
      "stateMutability": "view",
      "type": "function"
    },
    {
      "inputs": [
        {
          "internalType": "address",
          "name": "spender",
          "type": "address"
        },
        {
          "internalType": "uint256",
          "name": "amount",
          "type": "uint256"
        }
      ],
      "name": "approve",
      "outputs": [
        {
          "internalType": "bool",
          "name": "",
          "type": "bool"
        }
      ],
      "stateMutability": "nonpayable",
      "type": "function"
    },
    {
      "inputs": [
        {
          "internalType": "address",
          "name": "account",
          "type": "address"
        }
      ],
      "name": "balanceOf",
      "outputs": [
        {
          "internalType": "uint256",
          "name": "",
          "type": "uint256"
        }
      ],
      "stateMutability": "view",
      "type": "function"
    },
    {
      "inputs": [],
      "name": "decimals",
      "outputs": [
        {
          "internalType": "uint8",
          "name": "",
          "type": "uint8"
        }
      ],
      "stateMutability": "pure",
      "type": "function"
    },
    {
      "inputs": [
        {
          "internalType": "address",
          "name": "spender",
          "type": "address"
        },
        {
          "internalType": "uint256",
          "name": "subtractedValue",
          "type": "uint256"
        }
      ],
      "name": "decreaseAllowance",
      "outputs": [
        {
          "internalType": "bool",
          "name": "",
          "type": "bool"
        }
      ],
      "stateMutability": "nonpayable",
      "type": "function"
    },
    {
      "inputs": [
        {
          "internalType": "address",
          "name": "spender",
          "type": "address"
        },
        {
          "internalType": "uint256",
          "name": "addedValue",
          "type": "uint256"
        }
      ],
      "name": "increaseAllowance",
      "outputs": [
        {
          "internalType": "bool",
          "name": "",
          "type": "bool"
        }
      ],
      "stateMutability": "nonpayable",
      "type": "function"
    },
    {
      "inputs": [],
      "name": "name",
      "outputs": [
        {
          "internalType": "string",
          "name": "",
          "type": "string"
        }
      ],
      "stateMutability": "view",
      "type": "function"
    },
    {
      "inputs": [],
      "name": "symbol",
      "outputs": [
        {
          "internalType": "string",
          "name": "",
          "type": "string"
        }
      ],
      "stateMutability": "view",
      "type": "function"
    },
    {
      "inputs": [],
      "name": "totalSupply",
      "outputs": [
        {
          "internalType": "uint256",
          "name": "",
          "type": "uint256"
        }
      ],
      "stateMutability": "view",
      "type": "function"
    },
    {
      "inputs": [
        {
          "internalType": "address",
          "name": "recipient",
          "type": "address"
        },
        {
          "internalType": "uint256",
          "name": "amount",
          "type": "uint256"
        }
      ],
      "name": "transfer",
      "outputs": [
        {
          "internalType": "bool",
          "name": "",
          "type": "bool"
        }
      ],
      "stateMutability": "nonpayable",
      "type": "function"
    },
    {
      "inputs": [
        {
          "internalType": "address",
          "name": "sender",
          "type": "address"
        },
        {
          "internalType": "address",
          "name": "recipient",
          "type": "address"
        },
        {
          "internalType": "uint256",
          "name": "amount",
          "type": "uint256"
        }
      ],
      "name": "transferFrom",
      "outputs": [
        {
          "internalType": "bool",
          "name": "",
          "type": "bool"
        }
      ],
      "stateMutability": "nonpayable",
      "type": "function"
    },
    {
      "inputs": [],
      "name": "withdraw",
      "outputs": [],
      "stateMutability": "nonpayable",
      "type": "function"
    },
    {
      "stateMutability": "payable",
      "type": "receive"
    }
  ],
  "transactionHash": "0xaf9e7071aa750e14f379f3e793871a10add86c9f199eeb69e3bcd38ee02d3c55",
  "args": [],
  "numDeployments": 1,
  "solcInputHash": "3fcb829bdff3dbd1d10e0f68ff789618",
  "bytecode": "0x60806040523480156200001157600080fd5b5060408051808201825260088152672aa9a21021b7b4b760c11b6020808301918252835180850190945260048452635553444360e01b90840152815191929183918391620000629160039162000083565b5080516200007890600490602084019062000083565b505050505062000165565b828054620000919062000129565b90600052602060002090601f016020900481019282620000b5576000855562000100565b82601f10620000d057805160ff191683800117855562000100565b8280016001018555821562000100579182015b8281111562000100578251825591602001919060010190620000e3565b506200010e92915062000112565b5090565b5b808211156200010e576000815560010162000113565b600181811c908216806200013e57607f821691505b6020821081036200015f57634e487b7160e01b600052602260045260246000fd5b50919050565b610eba80620001756000396000f3fe6080604052600436106100cb5760003560e01c80633ccfd60b11610074578063a457c2d71161004e578063a457c2d71461023c578063a9059cbb1461025c578063dd62ed3e1461027c57600080fd5b80633ccfd60b146101dc57806370a08231146101f157806395d89b411461022757600080fd5b806323b872dd116100a557806323b872dd14610180578063313ce567146101a057806339509351146101bc57600080fd5b806306fdde0314610106578063095ea7b31461013157806318160ddd1461016157600080fd5b366101015760006100de60066012610b98565b6100e990600a610c9f565b6100f39034610cb5565b90506100ff33826102c2565b005b600080fd5b34801561011257600080fd5b5061011b6103a6565b6040516101289190610cd7565b60405180910390f35b34801561013d57600080fd5b5061015161014c366004610d48565b610438565b6040519015158152602001610128565b34801561016d57600080fd5b506002545b604051908152602001610128565b34801561018c57600080fd5b5061015161019b366004610d72565b61044f565b3480156101ac57600080fd5b5060405160068152602001610128565b3480156101c857600080fd5b506101516101d7366004610d48565b61050e565b3480156101e857600080fd5b506100ff61054a565b3480156101fd57600080fd5b5061017261020c366004610dae565b6001600160a01b031660009081526020819052604090205490565b34801561023357600080fd5b5061011b6105c0565b34801561024857600080fd5b50610151610257366004610d48565b6105cf565b34801561026857600080fd5b50610151610277366004610d48565b610680565b34801561028857600080fd5b50610172610297366004610dc9565b6001600160a01b03918216600090815260016020908152604080832093909416825291909152205490565b6001600160a01b03821661031d5760405162461bcd60e51b815260206004820152601f60248201527f45524332303a206d696e7420746f20746865207a65726f20616464726573730060448201526064015b60405180910390fd5b806002600082825461032f9190610dfc565b90915550506001600160a01b0382166000908152602081905260408120805483929061035c908490610dfc565b90915550506040518181526001600160a01b038316906000907fddf252ad1be2c89b69c2b068fc378daa952ba7f163c4a11628f55a4df523b3ef9060200160405180910390a35050565b6060600380546103b590610e14565b80601f01602080910402602001604051908101604052809291908181526020018280546103e190610e14565b801561042e5780601f106104035761010080835404028352916020019161042e565b820191906000526020600020905b81548152906001019060200180831161041157829003601f168201915b5050505050905090565b600061044533848461068d565b5060015b92915050565b600061045c8484846107e5565b6001600160a01b0384166000908152600160209081526040808320338452909152902054828110156104f65760405162461bcd60e51b815260206004820152602860248201527f45524332303a207472616e7366657220616d6f756e742065786365656473206160448201527f6c6c6f77616e63650000000000000000000000000000000000000000000000006064820152608401610314565b610503853385840361068d565b506001949350505050565b3360008181526001602090815260408083206001600160a01b03871684529091528120549091610445918590610545908690610dfc565b61068d565b336000818152602081905260409020549061056581836109fd565b6001600160a01b0381166108fc61057e60066012610b98565b61058990600a610c9f565b6105939085610e4e565b6040518115909202916000818181858888f193505050501580156105bb573d6000803e3d6000fd5b505050565b6060600480546103b590610e14565b3360009081526001602090815260408083206001600160a01b0386168452909152812054828110156106695760405162461bcd60e51b815260206004820152602560248201527f45524332303a2064656372656173656420616c6c6f77616e63652062656c6f7760448201527f207a65726f0000000000000000000000000000000000000000000000000000006064820152608401610314565b610676338585840361068d565b5060019392505050565b60006104453384846107e5565b6001600160a01b0383166107085760405162461bcd60e51b8152602060048201526024808201527f45524332303a20617070726f76652066726f6d20746865207a65726f2061646460448201527f72657373000000000000000000000000000000000000000000000000000000006064820152608401610314565b6001600160a01b0382166107845760405162461bcd60e51b815260206004820152602260248201527f45524332303a20617070726f766520746f20746865207a65726f20616464726560448201527f73730000000000000000000000000000000000000000000000000000000000006064820152608401610314565b6001600160a01b0383811660008181526001602090815260408083209487168084529482529182902085905590518481527f8c5be1e5ebec7d5bd14f71427d1e84f3dd0314c0f7b2291e5b200ac8c7c3b925910160405180910390a3505050565b6001600160a01b0383166108615760405162461bcd60e51b815260206004820152602560248201527f45524332303a207472616e736665722066726f6d20746865207a65726f20616460448201527f64726573730000000000000000000000000000000000000000000000000000006064820152608401610314565b6001600160a01b0382166108dd5760405162461bcd60e51b815260206004820152602360248201527f45524332303a207472616e7366657220746f20746865207a65726f206164647260448201527f65737300000000000000000000000000000000000000000000000000000000006064820152608401610314565b6001600160a01b0383166000908152602081905260409020548181101561096c5760405162461bcd60e51b815260206004820152602660248201527f45524332303a207472616e7366657220616d6f756e742065786365656473206260448201527f616c616e636500000000000000000000000000000000000000000000000000006064820152608401610314565b6001600160a01b038085166000908152602081905260408082208585039055918516815290812080548492906109a3908490610dfc565b92505081905550826001600160a01b0316846001600160a01b03167fddf252ad1be2c89b69c2b068fc378daa952ba7f163c4a11628f55a4df523b3ef846040516109ef91815260200190565b60405180910390a350505050565b6001600160a01b038216610a795760405162461bcd60e51b815260206004820152602160248201527f45524332303a206275726e2066726f6d20746865207a65726f2061646472657360448201527f73000000000000000000000000000000000000000000000000000000000000006064820152608401610314565b6001600160a01b03821660009081526020819052604090205481811015610b085760405162461bcd60e51b815260206004820152602260248201527f45524332303a206275726e20616d6f756e7420657863656564732062616c616e60448201527f63650000000000000000000000000000000000000000000000000000000000006064820152608401610314565b6001600160a01b0383166000908152602081905260408120838303905560028054849290610b37908490610e6d565b90915550506040518281526000906001600160a01b038516907fddf252ad1be2c89b69c2b068fc378daa952ba7f163c4a11628f55a4df523b3ef9060200160405180910390a3505050565b634e487b7160e01b600052601160045260246000fd5b600060ff821660ff841680821015610bb257610bb2610b82565b90039392505050565b600181815b80851115610bf6578160001904821115610bdc57610bdc610b82565b80851615610be957918102915b93841c9390800290610bc0565b509250929050565b600082610c0d57506001610449565b81610c1a57506000610449565b8160018114610c305760028114610c3a57610c56565b6001915050610449565b60ff841115610c4b57610c4b610b82565b50506001821b610449565b5060208310610133831016604e8410600b8410161715610c79575081810a610449565b610c838383610bbb565b8060001904821115610c9757610c97610b82565b029392505050565b6000610cae60ff841683610bfe565b9392505050565b600082610cd257634e487b7160e01b600052601260045260246000fd5b500490565b600060208083528351808285015260005b81811015610d0457858101830151858201604001528201610ce8565b81811115610d16576000604083870101525b50601f01601f1916929092016040019392505050565b80356001600160a01b0381168114610d4357600080fd5b919050565b60008060408385031215610d5b57600080fd5b610d6483610d2c565b946020939093013593505050565b600080600060608486031215610d8757600080fd5b610d9084610d2c565b9250610d9e60208501610d2c565b9150604084013590509250925092565b600060208284031215610dc057600080fd5b610cae82610d2c565b60008060408385031215610ddc57600080fd5b610de583610d2c565b9150610df360208401610d2c565b90509250929050565b60008219821115610e0f57610e0f610b82565b500190565b600181811c90821680610e2857607f821691505b602082108103610e4857634e487b7160e01b600052602260045260246000fd5b50919050565b6000816000190483118215151615610e6857610e68610b82565b500290565b600082821015610e7f57610e7f610b82565b50039056fea26469706673582212207e0e9029f629065212929ea5e543fd08ff72836796ea1c16d1673e7b8d30365864736f6c634300080d0033",
  "devdoc": {
    "kind": "dev",
    "methods": {
      "allowance(address,address)": {
        "details": "See {IERC20-allowance}."
      },
      "approve(address,uint256)": {
        "details": "See {IERC20-approve}. Requirements: - `spender` cannot be the zero address."
      },
      "balanceOf(address)": {
        "details": "See {IERC20-balanceOf}."
      },
      "decimals()": {
        "details": "Returns the number of decimals used to get its user representation. For example, if `decimals` equals `2`, a balance of `505` tokens should be displayed to a user as `5.05` (`505 / 10 ** 2`). Tokens usually opt for a value of 18, imitating the relationship between Ether and Wei. This is the value {ERC20} uses, unless this function is overridden; NOTE: This information is only used for _display_ purposes: it in no way affects any of the arithmetic of the contract, including {IERC20-balanceOf} and {IERC20-transfer}."
      },
      "decreaseAllowance(address,uint256)": {
        "details": "Atomically decreases the allowance granted to `spender` by the caller. This is an alternative to {approve} that can be used as a mitigation for problems described in {IERC20-approve}. Emits an {Approval} event indicating the updated allowance. Requirements: - `spender` cannot be the zero address. - `spender` must have allowance for the caller of at least `subtractedValue`."
      },
      "increaseAllowance(address,uint256)": {
        "details": "Atomically increases the allowance granted to `spender` by the caller. This is an alternative to {approve} that can be used as a mitigation for problems described in {IERC20-approve}. Emits an {Approval} event indicating the updated allowance. Requirements: - `spender` cannot be the zero address."
      },
      "name()": {
        "details": "Returns the name of the token."
      },
      "symbol()": {
        "details": "Returns the symbol of the token, usually a shorter version of the name."
      },
      "totalSupply()": {
        "details": "See {IERC20-totalSupply}."
      },
      "transfer(address,uint256)": {
        "details": "See {IERC20-transfer}. Requirements: - `recipient` cannot be the zero address. - the caller must have a balance of at least `amount`."
      },
      "transferFrom(address,address,uint256)": {
        "details": "See {IERC20-transferFrom}. Emits an {Approval} event indicating the updated allowance. This is not required by the EIP. See the note at the beginning of {ERC20}. Requirements: - `sender` and `recipient` cannot be the zero address. - `sender` must have a balance of at least `amount`. - the caller must have allowance for ``sender``'s tokens of at least `amount`."
      }
    },
    "version": 1
  },
  "userdoc": {
    "kind": "user",
    "methods": {},
    "version": 1
  },
  "storageLayout": {
    "storage": [
      {
        "astId": 159,
        "contract": "contracts/USDC.sol:USDC",
        "label": "_balances",
        "offset": 0,
        "slot": "0",
        "type": "t_mapping(t_address,t_uint256)"
      },
      {
        "astId": 165,
        "contract": "contracts/USDC.sol:USDC",
        "label": "_allowances",
        "offset": 0,
        "slot": "1",
        "type": "t_mapping(t_address,t_mapping(t_address,t_uint256))"
      },
      {
        "astId": 167,
        "contract": "contracts/USDC.sol:USDC",
        "label": "_totalSupply",
        "offset": 0,
        "slot": "2",
        "type": "t_uint256"
      },
      {
        "astId": 169,
        "contract": "contracts/USDC.sol:USDC",
        "label": "_name",
        "offset": 0,
        "slot": "3",
        "type": "t_string_storage"
      },
      {
        "astId": 171,
        "contract": "contracts/USDC.sol:USDC",
        "label": "_symbol",
        "offset": 0,
        "slot": "4",
        "type": "t_string_storage"
      }
    ],
    "types": {
      "t_address": {
        "encoding": "inplace",
        "label": "address",
        "numberOfBytes": "20"
      },
      "t_mapping(t_address,t_mapping(t_address,t_uint256))": {
        "encoding": "mapping",
        "key": "t_address",
        "label": "mapping(address => mapping(address => uint256))",
        "numberOfBytes": "32",
        "value": "t_mapping(t_address,t_uint256)"
      },
      "t_mapping(t_address,t_uint256)": {
        "encoding": "mapping",
        "key": "t_address",
        "label": "mapping(address => uint256)",
        "numberOfBytes": "32",
        "value": "t_uint256"
      },
      "t_string_storage": {
        "encoding": "bytes",
        "label": "string",
        "numberOfBytes": "32"
      },
      "t_uint256": {
        "encoding": "inplace",
        "label": "uint256",
        "numberOfBytes": "32"
      }
    }
  }
}