{
  "address": "0x73F060d28685aa30bc10363f66491C2e5baEF8D0",
  "abi": [
    {
      "inputs": [
        {
          "internalType": "uint8",
          "name": "merkleTreeHeight",
          "type": "uint8"
        },
        {
          "internalType": "uint64",
          "name": "nRoots",
          "type": "uint64"
        },
        {
          "internalType": "address",
          "name": "verifierAddr",
          "type": "address"
        }
      ],
      "stateMutability": "nonpayable",
      "type": "constructor"
    },
    {
      "anonymous": false,
      "inputs": [
        {
          "indexed": true,
          "internalType": "uint64",
          "name": "height",
          "type": "uint64"
        },
        {
          "indexed": false,
          "internalType": "uint256[]",
          "name": "depositCommitments",
          "type": "uint256[]"
        }
      ],
      "name": "BlockCommitted",
      "type": "event"
    },
    {
      "anonymous": false,
      "inputs": [
        {
          "indexed": false,
          "internalType": "bytes",
          "name": "roBytes",
          "type": "bytes"
        },
        {
          "indexed": false,
          "internalType": "address",
          "name": "erc20TokenAddress",
          "type": "address"
        },
        {
          "indexed": false,
          "internalType": "address",
          "name": "from",
          "type": "address"
        }
      ],
      "name": "Erc20TokensDeposited",
      "type": "event"
    },
    {
      "anonymous": false,
      "inputs": [
        {
          "indexed": false,
          "internalType": "bytes",
          "name": "roBytes",
          "type": "bytes"
        }
      ],
      "name": "FaucetInitialized",
      "type": "event"
    },
    {
      "inputs": [],
      "name": "CAPE_BURN_MAGIC_BYTES",
      "outputs": [
        {
          "internalType": "bytes",
          "name": "",
          "type": "bytes"
        }
      ],
      "stateMutability": "view",
      "type": "function"
    },
    {
      "inputs": [],
      "name": "CAPE_BURN_MAGIC_BYTES_SIZE",
      "outputs": [
        {
          "internalType": "uint256",
          "name": "",
          "type": "uint256"
        }
      ],
      "stateMutability": "view",
      "type": "function"
    },
    {
      "inputs": [],
      "name": "CAP_NATIVE_ASSET_CODE",
      "outputs": [
        {
          "internalType": "uint256",
          "name": "",
          "type": "uint256"
        }
      ],
      "stateMutability": "view",
      "type": "function"
    },
    {
      "inputs": [],
      "name": "DOM_SEP_DOMESTIC_ASSET",
      "outputs": [
        {
          "internalType": "bytes14",
          "name": "",
          "type": "bytes14"
        }
      ],
      "stateMutability": "view",
      "type": "function"
    },
    {
      "inputs": [],
      "name": "DOM_SEP_FOREIGN_ASSET",
      "outputs": [
        {
          "internalType": "bytes13",
          "name": "",
          "type": "bytes13"
        }
      ],
      "stateMutability": "view",
      "type": "function"
    },
    {
      "inputs": [],
      "name": "MAX_NUM_PENDING_DEPOSIT",
      "outputs": [
        {
          "internalType": "uint256",
          "name": "",
          "type": "uint256"
        }
      ],
      "stateMutability": "view",
      "type": "function"
    },
    {
      "inputs": [
        {
          "internalType": "bytes32",
          "name": "",
          "type": "bytes32"
        }
      ],
      "name": "assets",
      "outputs": [
        {
          "internalType": "address",
          "name": "",
          "type": "address"
        }
      ],
      "stateMutability": "view",
      "type": "function"
    },
    {
      "inputs": [],
      "name": "blockHeight",
      "outputs": [
        {
          "internalType": "uint64",
          "name": "",
          "type": "uint64"
        }
      ],
      "stateMutability": "view",
      "type": "function"
    },
    {
      "inputs": [],
      "name": "deployer",
      "outputs": [
        {
          "internalType": "address",
          "name": "",
          "type": "address"
        }
      ],
      "stateMutability": "view",
      "type": "function"
    },
    {
      "inputs": [
        {
          "components": [
            {
              "internalType": "uint64",
              "name": "amount",
              "type": "uint64"
            },
            {
              "components": [
                {
                  "internalType": "uint256",
                  "name": "code",
                  "type": "uint256"
                },
                {
                  "components": [
                    {
                      "components": [
                        {
                          "internalType": "uint256",
                          "name": "x",
                          "type": "uint256"
                        },
                        {
                          "internalType": "uint256",
                          "name": "y",
                          "type": "uint256"
                        }
                      ],
                      "internalType": "struct EdOnBN254.EdOnBN254Point",
                      "name": "auditorPk",
                      "type": "tuple"
                    },
                    {
                      "components": [
                        {
                          "internalType": "uint256",
                          "name": "x",
                          "type": "uint256"
                        },
                        {
                          "internalType": "uint256",
                          "name": "y",
                          "type": "uint256"
                        }
                      ],
                      "internalType": "struct EdOnBN254.EdOnBN254Point",
                      "name": "credPk",
                      "type": "tuple"
                    },
                    {
                      "components": [
                        {
                          "internalType": "uint256",
                          "name": "x",
                          "type": "uint256"
                        },
                        {
                          "internalType": "uint256",
                          "name": "y",
                          "type": "uint256"
                        }
                      ],
                      "internalType": "struct EdOnBN254.EdOnBN254Point",
                      "name": "freezerPk",
                      "type": "tuple"
                    },
                    {
                      "internalType": "uint256",
                      "name": "revealMap",
                      "type": "uint256"
                    },
                    {
                      "internalType": "uint64",
                      "name": "revealThreshold",
                      "type": "uint64"
                    }
                  ],
                  "internalType": "struct AssetRegistry.AssetPolicy",
                  "name": "policy",
                  "type": "tuple"
                }
              ],
              "internalType": "struct AssetRegistry.AssetDefinition",
              "name": "assetDef",
              "type": "tuple"
            },
            {
              "components": [
                {
                  "internalType": "uint256",
                  "name": "x",
                  "type": "uint256"
                },
                {
                  "internalType": "uint256",
                  "name": "y",
                  "type": "uint256"
                }
              ],
              "internalType": "struct EdOnBN254.EdOnBN254Point",
              "name": "userAddr",
              "type": "tuple"
            },
            {
              "internalType": "bytes32",
              "name": "encKey",
              "type": "bytes32"
            },
            {
              "internalType": "bool",
              "name": "freezeFlag",
              "type": "bool"
            },
            {
              "internalType": "uint256",
              "name": "blind",
              "type": "uint256"
            }
          ],
          "internalType": "struct CAPE.RecordOpening",
          "name": "ro",
          "type": "tuple"
        },
        {
          "internalType": "address",
          "name": "erc20Address",
          "type": "address"
        }
      ],
      "name": "depositErc20",
      "outputs": [],
      "stateMutability": "nonpayable",
      "type": "function"
    },
    {
      "inputs": [],
      "name": "faucetInitialized",
      "outputs": [
        {
          "internalType": "bool",
          "name": "",
          "type": "bool"
        }
      ],
      "stateMutability": "view",
      "type": "function"
    },
    {
      "inputs": [
        {
          "components": [
            {
              "internalType": "uint256",
              "name": "x",
              "type": "uint256"
            },
            {
              "internalType": "uint256",
              "name": "y",
              "type": "uint256"
            }
          ],
          "internalType": "struct EdOnBN254.EdOnBN254Point",
          "name": "faucetManagerAddress",
          "type": "tuple"
        },
        {
          "internalType": "bytes32",
          "name": "faucetManagerEncKey",
          "type": "bytes32"
        }
      ],
      "name": "faucetSetupForTestnet",
      "outputs": [],
      "stateMutability": "nonpayable",
      "type": "function"
    },
    {
      "inputs": [],
      "name": "getRootValue",
      "outputs": [
        {
          "internalType": "uint256",
          "name": "",
          "type": "uint256"
        }
      ],
      "stateMutability": "view",
      "type": "function"
    },
    {
      "inputs": [
        {
          "components": [
            {
              "internalType": "uint256",
              "name": "code",
              "type": "uint256"
            },
            {
              "components": [
                {
                  "components": [
                    {
                      "internalType": "uint256",
                      "name": "x",
                      "type": "uint256"
                    },
                    {
                      "internalType": "uint256",
                      "name": "y",
                      "type": "uint256"
                    }
                  ],
                  "internalType": "struct EdOnBN254.EdOnBN254Point",
                  "name": "auditorPk",
                  "type": "tuple"
                },
                {
                  "components": [
                    {
                      "internalType": "uint256",
                      "name": "x",
                      "type": "uint256"
                    },
                    {
                      "internalType": "uint256",
                      "name": "y",
                      "type": "uint256"
                    }
                  ],
                  "internalType": "struct EdOnBN254.EdOnBN254Point",
                  "name": "credPk",
                  "type": "tuple"
                },
                {
                  "components": [
                    {
                      "internalType": "uint256",
                      "name": "x",
                      "type": "uint256"
                    },
                    {
                      "internalType": "uint256",
                      "name": "y",
                      "type": "uint256"
                    }
                  ],
                  "internalType": "struct EdOnBN254.EdOnBN254Point",
                  "name": "freezerPk",
                  "type": "tuple"
                },
                {
                  "internalType": "uint256",
                  "name": "revealMap",
                  "type": "uint256"
                },
                {
                  "internalType": "uint64",
                  "name": "revealThreshold",
                  "type": "uint64"
                }
              ],
              "internalType": "struct AssetRegistry.AssetPolicy",
              "name": "policy",
              "type": "tuple"
            }
          ],
          "internalType": "struct AssetRegistry.AssetDefinition",
          "name": "assetDefinition",
          "type": "tuple"
        }
      ],
      "name": "isCapeAssetRegistered",
      "outputs": [
        {
          "internalType": "bool",
          "name": "",
          "type": "bool"
        }
      ],
      "stateMutability": "view",
      "type": "function"
    },
    {
      "inputs": [
        {
          "components": [
            {
              "internalType": "uint256",
              "name": "code",
              "type": "uint256"
            },
            {
              "components": [
                {
                  "components": [
                    {
                      "internalType": "uint256",
                      "name": "x",
                      "type": "uint256"
                    },
                    {
                      "internalType": "uint256",
                      "name": "y",
                      "type": "uint256"
                    }
                  ],
                  "internalType": "struct EdOnBN254.EdOnBN254Point",
                  "name": "auditorPk",
                  "type": "tuple"
                },
                {
                  "components": [
                    {
                      "internalType": "uint256",
                      "name": "x",
                      "type": "uint256"
                    },
                    {
                      "internalType": "uint256",
                      "name": "y",
                      "type": "uint256"
                    }
                  ],
                  "internalType": "struct EdOnBN254.EdOnBN254Point",
                  "name": "credPk",
                  "type": "tuple"
                },
                {
                  "components": [
                    {
                      "internalType": "uint256",
                      "name": "x",
                      "type": "uint256"
                    },
                    {
                      "internalType": "uint256",
                      "name": "y",
                      "type": "uint256"
                    }
                  ],
                  "internalType": "struct EdOnBN254.EdOnBN254Point",
                  "name": "freezerPk",
                  "type": "tuple"
                },
                {
                  "internalType": "uint256",
                  "name": "revealMap",
                  "type": "uint256"
                },
                {
                  "internalType": "uint64",
                  "name": "revealThreshold",
                  "type": "uint64"
                }
              ],
              "internalType": "struct AssetRegistry.AssetPolicy",
              "name": "policy",
              "type": "tuple"
            }
          ],
          "internalType": "struct AssetRegistry.AssetDefinition",
          "name": "assetDefinition",
          "type": "tuple"
        }
      ],
      "name": "lookup",
      "outputs": [
        {
          "internalType": "address",
          "name": "",
          "type": "address"
        }
      ],
      "stateMutability": "view",
      "type": "function"
    },
    {
      "inputs": [],
      "name": "nativeDomesticAsset",
      "outputs": [
        {
          "components": [
            {
              "internalType": "uint256",
              "name": "code",
              "type": "uint256"
            },
            {
              "components": [
                {
                  "components": [
                    {
                      "internalType": "uint256",
                      "name": "x",
                      "type": "uint256"
                    },
                    {
                      "internalType": "uint256",
                      "name": "y",
                      "type": "uint256"
                    }
                  ],
                  "internalType": "struct EdOnBN254.EdOnBN254Point",
                  "name": "auditorPk",
                  "type": "tuple"
                },
                {
                  "components": [
                    {
                      "internalType": "uint256",
                      "name": "x",
                      "type": "uint256"
                    },
                    {
                      "internalType": "uint256",
                      "name": "y",
                      "type": "uint256"
                    }
                  ],
                  "internalType": "struct EdOnBN254.EdOnBN254Point",
                  "name": "credPk",
                  "type": "tuple"
                },
                {
                  "components": [
                    {
                      "internalType": "uint256",
                      "name": "x",
                      "type": "uint256"
                    },
                    {
                      "internalType": "uint256",
                      "name": "y",
                      "type": "uint256"
                    }
                  ],
                  "internalType": "struct EdOnBN254.EdOnBN254Point",
                  "name": "freezerPk",
                  "type": "tuple"
                },
                {
                  "internalType": "uint256",
                  "name": "revealMap",
                  "type": "uint256"
                },
                {
                  "internalType": "uint64",
                  "name": "revealThreshold",
                  "type": "uint64"
                }
              ],
              "internalType": "struct AssetRegistry.AssetPolicy",
              "name": "policy",
              "type": "tuple"
            }
          ],
          "internalType": "struct AssetRegistry.AssetDefinition",
          "name": "assetDefinition",
          "type": "tuple"
        }
      ],
      "stateMutability": "pure",
      "type": "function"
    },
    {
      "inputs": [
        {
          "internalType": "uint256",
          "name": "",
          "type": "uint256"
        }
      ],
      "name": "nullifiers",
      "outputs": [
        {
          "internalType": "bool",
          "name": "",
          "type": "bool"
        }
      ],
      "stateMutability": "view",
      "type": "function"
    },
    {
      "inputs": [
        {
          "internalType": "uint256",
          "name": "",
          "type": "uint256"
        }
      ],
      "name": "pendingDeposits",
      "outputs": [
        {
          "internalType": "uint256",
          "name": "",
          "type": "uint256"
        }
      ],
      "stateMutability": "view",
      "type": "function"
    },
    {
      "inputs": [
        {
          "internalType": "address",
          "name": "erc20Address",
          "type": "address"
        },
        {
          "components": [
            {
              "internalType": "uint256",
              "name": "code",
              "type": "uint256"
            },
            {
              "components": [
                {
                  "components": [
                    {
                      "internalType": "uint256",
                      "name": "x",
                      "type": "uint256"
                    },
                    {
                      "internalType": "uint256",
                      "name": "y",
                      "type": "uint256"
                    }
                  ],
                  "internalType": "struct EdOnBN254.EdOnBN254Point",
                  "name": "auditorPk",
                  "type": "tuple"
                },
                {
                  "components": [
                    {
                      "internalType": "uint256",
                      "name": "x",
                      "type": "uint256"
                    },
                    {
                      "internalType": "uint256",
                      "name": "y",
                      "type": "uint256"
                    }
                  ],
                  "internalType": "struct EdOnBN254.EdOnBN254Point",
                  "name": "credPk",
                  "type": "tuple"
                },
                {
                  "components": [
                    {
                      "internalType": "uint256",
                      "name": "x",
                      "type": "uint256"
                    },
                    {
                      "internalType": "uint256",
                      "name": "y",
                      "type": "uint256"
                    }
                  ],
                  "internalType": "struct EdOnBN254.EdOnBN254Point",
                  "name": "freezerPk",
                  "type": "tuple"
                },
                {
                  "internalType": "uint256",
                  "name": "revealMap",
                  "type": "uint256"
                },
                {
                  "internalType": "uint64",
                  "name": "revealThreshold",
                  "type": "uint64"
                }
              ],
              "internalType": "struct AssetRegistry.AssetPolicy",
              "name": "policy",
              "type": "tuple"
            }
          ],
          "internalType": "struct AssetRegistry.AssetDefinition",
          "name": "newAsset",
          "type": "tuple"
        }
      ],
      "name": "sponsorCapeAsset",
      "outputs": [],
      "stateMutability": "nonpayable",
      "type": "function"
    },
    {
      "inputs": [
        {
          "components": [
            {
              "components": [
                {
                  "internalType": "uint256",
                  "name": "x",
                  "type": "uint256"
                },
                {
                  "internalType": "uint256",
                  "name": "y",
                  "type": "uint256"
                }
              ],
              "internalType": "struct EdOnBN254.EdOnBN254Point",
              "name": "minerAddr",
              "type": "tuple"
            },
            {
              "internalType": "enum CAPE.NoteType[]",
              "name": "noteTypes",
              "type": "uint8[]"
            },
            {
              "components": [
                {
                  "internalType": "uint256[]",
                  "name": "inputNullifiers",
                  "type": "uint256[]"
                },
                {
                  "internalType": "uint256[]",
                  "name": "outputCommitments",
                  "type": "uint256[]"
                },
                {
                  "components": [
                    {
                      "components": [
                        {
                          "internalType": "uint256",
                          "name": "x",
                          "type": "uint256"
                        },
                        {
                          "internalType": "uint256",
                          "name": "y",
                          "type": "uint256"
                        }
                      ],
                      "internalType": "struct BN254.G1Point",
                      "name": "wire0",
                      "type": "tuple"
                    },
                    {
                      "components": [
                        {
                          "internalType": "uint256",
                          "name": "x",
                          "type": "uint256"
                        },
                        {
                          "internalType": "uint256",
                          "name": "y",
                          "type": "uint256"
                        }
                      ],
                      "internalType": "struct BN254.G1Point",
                      "name": "wire1",
                      "type": "tuple"
                    },
                    {
                      "components": [
                        {
                          "internalType": "uint256",
                          "name": "x",
                          "type": "uint256"
                        },
                        {
                          "internalType": "uint256",
                          "name": "y",
                          "type": "uint256"
                        }
                      ],
                      "internalType": "struct BN254.G1Point",
                      "name": "wire2",
                      "type": "tuple"
                    },
                    {
                      "components": [
                        {
                          "internalType": "uint256",
                          "name": "x",
                          "type": "uint256"
                        },
                        {
                          "internalType": "uint256",
                          "name": "y",
                          "type": "uint256"
                        }
                      ],
                      "internalType": "struct BN254.G1Point",
                      "name": "wire3",
                      "type": "tuple"
                    },
                    {
                      "components": [
                        {
                          "internalType": "uint256",
                          "name": "x",
                          "type": "uint256"
                        },
                        {
                          "internalType": "uint256",
                          "name": "y",
                          "type": "uint256"
                        }
                      ],
                      "internalType": "struct BN254.G1Point",
                      "name": "wire4",
                      "type": "tuple"
                    },
                    {
                      "components": [
                        {
                          "internalType": "uint256",
                          "name": "x",
                          "type": "uint256"
                        },
                        {
                          "internalType": "uint256",
                          "name": "y",
                          "type": "uint256"
                        }
                      ],
                      "internalType": "struct BN254.G1Point",
                      "name": "prodPerm",
                      "type": "tuple"
                    },
                    {
                      "components": [
                        {
                          "internalType": "uint256",
                          "name": "x",
                          "type": "uint256"
                        },
                        {
                          "internalType": "uint256",
                          "name": "y",
                          "type": "uint256"
                        }
                      ],
                      "internalType": "struct BN254.G1Point",
                      "name": "split0",
                      "type": "tuple"
                    },
                    {
                      "components": [
                        {
                          "internalType": "uint256",
                          "name": "x",
                          "type": "uint256"
                        },
                        {
                          "internalType": "uint256",
                          "name": "y",
                          "type": "uint256"
                        }
                      ],
                      "internalType": "struct BN254.G1Point",
                      "name": "split1",
                      "type": "tuple"
                    },
                    {
                      "components": [
                        {
                          "internalType": "uint256",
                          "name": "x",
                          "type": "uint256"
                        },
                        {
                          "internalType": "uint256",
                          "name": "y",
                          "type": "uint256"
                        }
                      ],
                      "internalType": "struct BN254.G1Point",
                      "name": "split2",
                      "type": "tuple"
                    },
                    {
                      "components": [
                        {
                          "internalType": "uint256",
                          "name": "x",
                          "type": "uint256"
                        },
                        {
                          "internalType": "uint256",
                          "name": "y",
                          "type": "uint256"
                        }
                      ],
                      "internalType": "struct BN254.G1Point",
                      "name": "split3",
                      "type": "tuple"
                    },
                    {
                      "components": [
                        {
                          "internalType": "uint256",
                          "name": "x",
                          "type": "uint256"
                        },
                        {
                          "internalType": "uint256",
                          "name": "y",
                          "type": "uint256"
                        }
                      ],
                      "internalType": "struct BN254.G1Point",
                      "name": "split4",
                      "type": "tuple"
                    },
                    {
                      "components": [
                        {
                          "internalType": "uint256",
                          "name": "x",
                          "type": "uint256"
                        },
                        {
                          "internalType": "uint256",
                          "name": "y",
                          "type": "uint256"
                        }
                      ],
                      "internalType": "struct BN254.G1Point",
                      "name": "zeta",
                      "type": "tuple"
                    },
                    {
                      "components": [
                        {
                          "internalType": "uint256",
                          "name": "x",
                          "type": "uint256"
                        },
                        {
                          "internalType": "uint256",
                          "name": "y",
                          "type": "uint256"
                        }
                      ],
                      "internalType": "struct BN254.G1Point",
                      "name": "zetaOmega",
                      "type": "tuple"
                    },
                    {
                      "internalType": "uint256",
                      "name": "wireEval0",
                      "type": "uint256"
                    },
                    {
                      "internalType": "uint256",
                      "name": "wireEval1",
                      "type": "uint256"
                    },
                    {
                      "internalType": "uint256",
                      "name": "wireEval2",
                      "type": "uint256"
                    },
                    {
                      "internalType": "uint256",
                      "name": "wireEval3",
                      "type": "uint256"
                    },
                    {
                      "internalType": "uint256",
                      "name": "wireEval4",
                      "type": "uint256"
                    },
                    {
                      "internalType": "uint256",
                      "name": "sigmaEval0",
                      "type": "uint256"
                    },
                    {
                      "internalType": "uint256",
                      "name": "sigmaEval1",
                      "type": "uint256"
                    },
                    {
                      "internalType": "uint256",
                      "name": "sigmaEval2",
                      "type": "uint256"
                    },
                    {
                      "internalType": "uint256",
                      "name": "sigmaEval3",
                      "type": "uint256"
                    },
                    {
                      "internalType": "uint256",
                      "name": "prodPermZetaOmegaEval",
                      "type": "uint256"
                    }
                  ],
                  "internalType": "struct IPlonkVerifier.PlonkProof",
                  "name": "proof",
                  "type": "tuple"
                },
                {
                  "components": [
                    {
                      "components": [
                        {
                          "internalType": "uint256",
                          "name": "x",
                          "type": "uint256"
                        },
                        {
                          "internalType": "uint256",
                          "name": "y",
                          "type": "uint256"
                        }
                      ],
                      "internalType": "struct EdOnBN254.EdOnBN254Point",
                      "name": "ephemeralKey",
                      "type": "tuple"
                    },
                    {
                      "internalType": "uint256[]",
                      "name": "data",
                      "type": "uint256[]"
                    }
                  ],
                  "internalType": "struct CAPE.AuditMemo",
                  "name": "auditMemo",
                  "type": "tuple"
                },
                {
                  "components": [
                    {
                      "internalType": "uint256",
                      "name": "merkleRoot",
                      "type": "uint256"
                    },
                    {
                      "internalType": "uint64",
                      "name": "fee",
                      "type": "uint64"
                    },
                    {
                      "internalType": "uint64",
                      "name": "validUntil",
                      "type": "uint64"
                    },
                    {
                      "components": [
                        {
                          "internalType": "uint256",
                          "name": "x",
                          "type": "uint256"
                        },
                        {
                          "internalType": "uint256",
                          "name": "y",
                          "type": "uint256"
                        }
                      ],
                      "internalType": "struct EdOnBN254.EdOnBN254Point",
                      "name": "txnMemoVerKey",
                      "type": "tuple"
                    },
                    {
                      "internalType": "bytes",
                      "name": "extraProofBoundData",
                      "type": "bytes"
                    }
                  ],
                  "internalType": "struct CAPE.TransferAuxInfo",
                  "name": "auxInfo",
                  "type": "tuple"
                }
              ],
              "internalType": "struct CAPE.TransferNote[]",
              "name": "transferNotes",
              "type": "tuple[]"
            },
            {
              "components": [
                {
                  "internalType": "uint256",
                  "name": "inputNullifier",
                  "type": "uint256"
                },
                {
                  "internalType": "uint256",
                  "name": "chgComm",
                  "type": "uint256"
                },
                {
                  "internalType": "uint256",
                  "name": "mintComm",
                  "type": "uint256"
                },
                {
                  "internalType": "uint64",
                  "name": "mintAmount",
                  "type": "uint64"
                },
                {
                  "components": [
                    {
                      "internalType": "uint256",
                      "name": "code",
                      "type": "uint256"
                    },
                    {
                      "components": [
                        {
                          "components": [
                            {
                              "internalType": "uint256",
                              "name": "x",
                              "type": "uint256"
                            },
                            {
                              "internalType": "uint256",
                              "name": "y",
                              "type": "uint256"
                            }
                          ],
                          "internalType": "struct EdOnBN254.EdOnBN254Point",
                          "name": "auditorPk",
                          "type": "tuple"
                        },
                        {
                          "components": [
                            {
                              "internalType": "uint256",
                              "name": "x",
                              "type": "uint256"
                            },
                            {
                              "internalType": "uint256",
                              "name": "y",
                              "type": "uint256"
                            }
                          ],
                          "internalType": "struct EdOnBN254.EdOnBN254Point",
                          "name": "credPk",
                          "type": "tuple"
                        },
                        {
                          "components": [
                            {
                              "internalType": "uint256",
                              "name": "x",
                              "type": "uint256"
                            },
                            {
                              "internalType": "uint256",
                              "name": "y",
                              "type": "uint256"
                            }
                          ],
                          "internalType": "struct EdOnBN254.EdOnBN254Point",
                          "name": "freezerPk",
                          "type": "tuple"
                        },
                        {
                          "internalType": "uint256",
                          "name": "revealMap",
                          "type": "uint256"
                        },
                        {
                          "internalType": "uint64",
                          "name": "revealThreshold",
                          "type": "uint64"
                        }
                      ],
                      "internalType": "struct AssetRegistry.AssetPolicy",
                      "name": "policy",
                      "type": "tuple"
                    }
                  ],
                  "internalType": "struct AssetRegistry.AssetDefinition",
                  "name": "mintAssetDef",
                  "type": "tuple"
                },
                {
                  "internalType": "uint256",
                  "name": "mintInternalAssetCode",
                  "type": "uint256"
                },
                {
                  "components": [
                    {
                      "components": [
                        {
                          "internalType": "uint256",
                          "name": "x",
                          "type": "uint256"
                        },
                        {
                          "internalType": "uint256",
                          "name": "y",
                          "type": "uint256"
                        }
                      ],
                      "internalType": "struct BN254.G1Point",
                      "name": "wire0",
                      "type": "tuple"
                    },
                    {
                      "components": [
                        {
                          "internalType": "uint256",
                          "name": "x",
                          "type": "uint256"
                        },
                        {
                          "internalType": "uint256",
                          "name": "y",
                          "type": "uint256"
                        }
                      ],
                      "internalType": "struct BN254.G1Point",
                      "name": "wire1",
                      "type": "tuple"
                    },
                    {
                      "components": [
                        {
                          "internalType": "uint256",
                          "name": "x",
                          "type": "uint256"
                        },
                        {
                          "internalType": "uint256",
                          "name": "y",
                          "type": "uint256"
                        }
                      ],
                      "internalType": "struct BN254.G1Point",
                      "name": "wire2",
                      "type": "tuple"
                    },
                    {
                      "components": [
                        {
                          "internalType": "uint256",
                          "name": "x",
                          "type": "uint256"
                        },
                        {
                          "internalType": "uint256",
                          "name": "y",
                          "type": "uint256"
                        }
                      ],
                      "internalType": "struct BN254.G1Point",
                      "name": "wire3",
                      "type": "tuple"
                    },
                    {
                      "components": [
                        {
                          "internalType": "uint256",
                          "name": "x",
                          "type": "uint256"
                        },
                        {
                          "internalType": "uint256",
                          "name": "y",
                          "type": "uint256"
                        }
                      ],
                      "internalType": "struct BN254.G1Point",
                      "name": "wire4",
                      "type": "tuple"
                    },
                    {
                      "components": [
                        {
                          "internalType": "uint256",
                          "name": "x",
                          "type": "uint256"
                        },
                        {
                          "internalType": "uint256",
                          "name": "y",
                          "type": "uint256"
                        }
                      ],
                      "internalType": "struct BN254.G1Point",
                      "name": "prodPerm",
                      "type": "tuple"
                    },
                    {
                      "components": [
                        {
                          "internalType": "uint256",
                          "name": "x",
                          "type": "uint256"
                        },
                        {
                          "internalType": "uint256",
                          "name": "y",
                          "type": "uint256"
                        }
                      ],
                      "internalType": "struct BN254.G1Point",
                      "name": "split0",
                      "type": "tuple"
                    },
                    {
                      "components": [
                        {
                          "internalType": "uint256",
                          "name": "x",
                          "type": "uint256"
                        },
                        {
                          "internalType": "uint256",
                          "name": "y",
                          "type": "uint256"
                        }
                      ],
                      "internalType": "struct BN254.G1Point",
                      "name": "split1",
                      "type": "tuple"
                    },
                    {
                      "components": [
                        {
                          "internalType": "uint256",
                          "name": "x",
                          "type": "uint256"
                        },
                        {
                          "internalType": "uint256",
                          "name": "y",
                          "type": "uint256"
                        }
                      ],
                      "internalType": "struct BN254.G1Point",
                      "name": "split2",
                      "type": "tuple"
                    },
                    {
                      "components": [
                        {
                          "internalType": "uint256",
                          "name": "x",
                          "type": "uint256"
                        },
                        {
                          "internalType": "uint256",
                          "name": "y",
                          "type": "uint256"
                        }
                      ],
                      "internalType": "struct BN254.G1Point",
                      "name": "split3",
                      "type": "tuple"
                    },
                    {
                      "components": [
                        {
                          "internalType": "uint256",
                          "name": "x",
                          "type": "uint256"
                        },
                        {
                          "internalType": "uint256",
                          "name": "y",
                          "type": "uint256"
                        }
                      ],
                      "internalType": "struct BN254.G1Point",
                      "name": "split4",
                      "type": "tuple"
                    },
                    {
                      "components": [
                        {
                          "internalType": "uint256",
                          "name": "x",
                          "type": "uint256"
                        },
                        {
                          "internalType": "uint256",
                          "name": "y",
                          "type": "uint256"
                        }
                      ],
                      "internalType": "struct BN254.G1Point",
                      "name": "zeta",
                      "type": "tuple"
                    },
                    {
                      "components": [
                        {
                          "internalType": "uint256",
                          "name": "x",
                          "type": "uint256"
                        },
                        {
                          "internalType": "uint256",
                          "name": "y",
                          "type": "uint256"
                        }
                      ],
                      "internalType": "struct BN254.G1Point",
                      "name": "zetaOmega",
                      "type": "tuple"
                    },
                    {
                      "internalType": "uint256",
                      "name": "wireEval0",
                      "type": "uint256"
                    },
                    {
                      "internalType": "uint256",
                      "name": "wireEval1",
                      "type": "uint256"
                    },
                    {
                      "internalType": "uint256",
                      "name": "wireEval2",
                      "type": "uint256"
                    },
                    {
                      "internalType": "uint256",
                      "name": "wireEval3",
                      "type": "uint256"
                    },
                    {
                      "internalType": "uint256",
                      "name": "wireEval4",
                      "type": "uint256"
                    },
                    {
                      "internalType": "uint256",
                      "name": "sigmaEval0",
                      "type": "uint256"
                    },
                    {
                      "internalType": "uint256",
                      "name": "sigmaEval1",
                      "type": "uint256"
                    },
                    {
                      "internalType": "uint256",
                      "name": "sigmaEval2",
                      "type": "uint256"
                    },
                    {
                      "internalType": "uint256",
                      "name": "sigmaEval3",
                      "type": "uint256"
                    },
                    {
                      "internalType": "uint256",
                      "name": "prodPermZetaOmegaEval",
                      "type": "uint256"
                    }
                  ],
                  "internalType": "struct IPlonkVerifier.PlonkProof",
                  "name": "proof",
                  "type": "tuple"
                },
                {
                  "components": [
                    {
                      "components": [
                        {
                          "internalType": "uint256",
                          "name": "x",
                          "type": "uint256"
                        },
                        {
                          "internalType": "uint256",
                          "name": "y",
                          "type": "uint256"
                        }
                      ],
                      "internalType": "struct EdOnBN254.EdOnBN254Point",
                      "name": "ephemeralKey",
                      "type": "tuple"
                    },
                    {
                      "internalType": "uint256[]",
                      "name": "data",
                      "type": "uint256[]"
                    }
                  ],
                  "internalType": "struct CAPE.AuditMemo",
                  "name": "auditMemo",
                  "type": "tuple"
                },
                {
                  "components": [
                    {
                      "internalType": "uint256",
                      "name": "merkleRoot",
                      "type": "uint256"
                    },
                    {
                      "internalType": "uint64",
                      "name": "fee",
                      "type": "uint64"
                    },
                    {
                      "components": [
                        {
                          "internalType": "uint256",
                          "name": "x",
                          "type": "uint256"
                        },
                        {
                          "internalType": "uint256",
                          "name": "y",
                          "type": "uint256"
                        }
                      ],
                      "internalType": "struct EdOnBN254.EdOnBN254Point",
                      "name": "txnMemoVerKey",
                      "type": "tuple"
                    }
                  ],
                  "internalType": "struct CAPE.MintAuxInfo",
                  "name": "auxInfo",
                  "type": "tuple"
                }
              ],
              "internalType": "struct CAPE.MintNote[]",
              "name": "mintNotes",
              "type": "tuple[]"
            },
            {
              "components": [
                {
                  "internalType": "uint256[]",
                  "name": "inputNullifiers",
                  "type": "uint256[]"
                },
                {
                  "internalType": "uint256[]",
                  "name": "outputCommitments",
                  "type": "uint256[]"
                },
                {
                  "components": [
                    {
                      "components": [
                        {
                          "internalType": "uint256",
                          "name": "x",
                          "type": "uint256"
                        },
                        {
                          "internalType": "uint256",
                          "name": "y",
                          "type": "uint256"
                        }
                      ],
                      "internalType": "struct BN254.G1Point",
                      "name": "wire0",
                      "type": "tuple"
                    },
                    {
                      "components": [
                        {
                          "internalType": "uint256",
                          "name": "x",
                          "type": "uint256"
                        },
                        {
                          "internalType": "uint256",
                          "name": "y",
                          "type": "uint256"
                        }
                      ],
                      "internalType": "struct BN254.G1Point",
                      "name": "wire1",
                      "type": "tuple"
                    },
                    {
                      "components": [
                        {
                          "internalType": "uint256",
                          "name": "x",
                          "type": "uint256"
                        },
                        {
                          "internalType": "uint256",
                          "name": "y",
                          "type": "uint256"
                        }
                      ],
                      "internalType": "struct BN254.G1Point",
                      "name": "wire2",
                      "type": "tuple"
                    },
                    {
                      "components": [
                        {
                          "internalType": "uint256",
                          "name": "x",
                          "type": "uint256"
                        },
                        {
                          "internalType": "uint256",
                          "name": "y",
                          "type": "uint256"
                        }
                      ],
                      "internalType": "struct BN254.G1Point",
                      "name": "wire3",
                      "type": "tuple"
                    },
                    {
                      "components": [
                        {
                          "internalType": "uint256",
                          "name": "x",
                          "type": "uint256"
                        },
                        {
                          "internalType": "uint256",
                          "name": "y",
                          "type": "uint256"
                        }
                      ],
                      "internalType": "struct BN254.G1Point",
                      "name": "wire4",
                      "type": "tuple"
                    },
                    {
                      "components": [
                        {
                          "internalType": "uint256",
                          "name": "x",
                          "type": "uint256"
                        },
                        {
                          "internalType": "uint256",
                          "name": "y",
                          "type": "uint256"
                        }
                      ],
                      "internalType": "struct BN254.G1Point",
                      "name": "prodPerm",
                      "type": "tuple"
                    },
                    {
                      "components": [
                        {
                          "internalType": "uint256",
                          "name": "x",
                          "type": "uint256"
                        },
                        {
                          "internalType": "uint256",
                          "name": "y",
                          "type": "uint256"
                        }
                      ],
                      "internalType": "struct BN254.G1Point",
                      "name": "split0",
                      "type": "tuple"
                    },
                    {
                      "components": [
                        {
                          "internalType": "uint256",
                          "name": "x",
                          "type": "uint256"
                        },
                        {
                          "internalType": "uint256",
                          "name": "y",
                          "type": "uint256"
                        }
                      ],
                      "internalType": "struct BN254.G1Point",
                      "name": "split1",
                      "type": "tuple"
                    },
                    {
                      "components": [
                        {
                          "internalType": "uint256",
                          "name": "x",
                          "type": "uint256"
                        },
                        {
                          "internalType": "uint256",
                          "name": "y",
                          "type": "uint256"
                        }
                      ],
                      "internalType": "struct BN254.G1Point",
                      "name": "split2",
                      "type": "tuple"
                    },
                    {
                      "components": [
                        {
                          "internalType": "uint256",
                          "name": "x",
                          "type": "uint256"
                        },
                        {
                          "internalType": "uint256",
                          "name": "y",
                          "type": "uint256"
                        }
                      ],
                      "internalType": "struct BN254.G1Point",
                      "name": "split3",
                      "type": "tuple"
                    },
                    {
                      "components": [
                        {
                          "internalType": "uint256",
                          "name": "x",
                          "type": "uint256"
                        },
                        {
                          "internalType": "uint256",
                          "name": "y",
                          "type": "uint256"
                        }
                      ],
                      "internalType": "struct BN254.G1Point",
                      "name": "split4",
                      "type": "tuple"
                    },
                    {
                      "components": [
                        {
                          "internalType": "uint256",
                          "name": "x",
                          "type": "uint256"
                        },
                        {
                          "internalType": "uint256",
                          "name": "y",
                          "type": "uint256"
                        }
                      ],
                      "internalType": "struct BN254.G1Point",
                      "name": "zeta",
                      "type": "tuple"
                    },
                    {
                      "components": [
                        {
                          "internalType": "uint256",
                          "name": "x",
                          "type": "uint256"
                        },
                        {
                          "internalType": "uint256",
                          "name": "y",
                          "type": "uint256"
                        }
                      ],
                      "internalType": "struct BN254.G1Point",
                      "name": "zetaOmega",
                      "type": "tuple"
                    },
                    {
                      "internalType": "uint256",
                      "name": "wireEval0",
                      "type": "uint256"
                    },
                    {
                      "internalType": "uint256",
                      "name": "wireEval1",
                      "type": "uint256"
                    },
                    {
                      "internalType": "uint256",
                      "name": "wireEval2",
                      "type": "uint256"
                    },
                    {
                      "internalType": "uint256",
                      "name": "wireEval3",
                      "type": "uint256"
                    },
                    {
                      "internalType": "uint256",
                      "name": "wireEval4",
                      "type": "uint256"
                    },
                    {
                      "internalType": "uint256",
                      "name": "sigmaEval0",
                      "type": "uint256"
                    },
                    {
                      "internalType": "uint256",
                      "name": "sigmaEval1",
                      "type": "uint256"
                    },
                    {
                      "internalType": "uint256",
                      "name": "sigmaEval2",
                      "type": "uint256"
                    },
                    {
                      "internalType": "uint256",
                      "name": "sigmaEval3",
                      "type": "uint256"
                    },
                    {
                      "internalType": "uint256",
                      "name": "prodPermZetaOmegaEval",
                      "type": "uint256"
                    }
                  ],
                  "internalType": "struct IPlonkVerifier.PlonkProof",
                  "name": "proof",
                  "type": "tuple"
                },
                {
                  "components": [
                    {
                      "internalType": "uint256",
                      "name": "merkleRoot",
                      "type": "uint256"
                    },
                    {
                      "internalType": "uint64",
                      "name": "fee",
                      "type": "uint64"
                    },
                    {
                      "components": [
                        {
                          "internalType": "uint256",
                          "name": "x",
                          "type": "uint256"
                        },
                        {
                          "internalType": "uint256",
                          "name": "y",
                          "type": "uint256"
                        }
                      ],
                      "internalType": "struct EdOnBN254.EdOnBN254Point",
                      "name": "txnMemoVerKey",
                      "type": "tuple"
                    }
                  ],
                  "internalType": "struct CAPE.FreezeAuxInfo",
                  "name": "auxInfo",
                  "type": "tuple"
                }
              ],
              "internalType": "struct CAPE.FreezeNote[]",
              "name": "freezeNotes",
              "type": "tuple[]"
            },
            {
              "components": [
                {
                  "components": [
                    {
                      "internalType": "uint256[]",
                      "name": "inputNullifiers",
                      "type": "uint256[]"
                    },
                    {
                      "internalType": "uint256[]",
                      "name": "outputCommitments",
                      "type": "uint256[]"
                    },
                    {
                      "components": [
                        {
                          "components": [
                            {
                              "internalType": "uint256",
                              "name": "x",
                              "type": "uint256"
                            },
                            {
                              "internalType": "uint256",
                              "name": "y",
                              "type": "uint256"
                            }
                          ],
                          "internalType": "struct BN254.G1Point",
                          "name": "wire0",
                          "type": "tuple"
                        },
                        {
                          "components": [
                            {
                              "internalType": "uint256",
                              "name": "x",
                              "type": "uint256"
                            },
                            {
                              "internalType": "uint256",
                              "name": "y",
                              "type": "uint256"
                            }
                          ],
                          "internalType": "struct BN254.G1Point",
                          "name": "wire1",
                          "type": "tuple"
                        },
                        {
                          "components": [
                            {
                              "internalType": "uint256",
                              "name": "x",
                              "type": "uint256"
                            },
                            {
                              "internalType": "uint256",
                              "name": "y",
                              "type": "uint256"
                            }
                          ],
                          "internalType": "struct BN254.G1Point",
                          "name": "wire2",
                          "type": "tuple"
                        },
                        {
                          "components": [
                            {
                              "internalType": "uint256",
                              "name": "x",
                              "type": "uint256"
                            },
                            {
                              "internalType": "uint256",
                              "name": "y",
                              "type": "uint256"
                            }
                          ],
                          "internalType": "struct BN254.G1Point",
                          "name": "wire3",
                          "type": "tuple"
                        },
                        {
                          "components": [
                            {
                              "internalType": "uint256",
                              "name": "x",
                              "type": "uint256"
                            },
                            {
                              "internalType": "uint256",
                              "name": "y",
                              "type": "uint256"
                            }
                          ],
                          "internalType": "struct BN254.G1Point",
                          "name": "wire4",
                          "type": "tuple"
                        },
                        {
                          "components": [
                            {
                              "internalType": "uint256",
                              "name": "x",
                              "type": "uint256"
                            },
                            {
                              "internalType": "uint256",
                              "name": "y",
                              "type": "uint256"
                            }
                          ],
                          "internalType": "struct BN254.G1Point",
                          "name": "prodPerm",
                          "type": "tuple"
                        },
                        {
                          "components": [
                            {
                              "internalType": "uint256",
                              "name": "x",
                              "type": "uint256"
                            },
                            {
                              "internalType": "uint256",
                              "name": "y",
                              "type": "uint256"
                            }
                          ],
                          "internalType": "struct BN254.G1Point",
                          "name": "split0",
                          "type": "tuple"
                        },
                        {
                          "components": [
                            {
                              "internalType": "uint256",
                              "name": "x",
                              "type": "uint256"
                            },
                            {
                              "internalType": "uint256",
                              "name": "y",
                              "type": "uint256"
                            }
                          ],
                          "internalType": "struct BN254.G1Point",
                          "name": "split1",
                          "type": "tuple"
                        },
                        {
                          "components": [
                            {
                              "internalType": "uint256",
                              "name": "x",
                              "type": "uint256"
                            },
                            {
                              "internalType": "uint256",
                              "name": "y",
                              "type": "uint256"
                            }
                          ],
                          "internalType": "struct BN254.G1Point",
                          "name": "split2",
                          "type": "tuple"
                        },
                        {
                          "components": [
                            {
                              "internalType": "uint256",
                              "name": "x",
                              "type": "uint256"
                            },
                            {
                              "internalType": "uint256",
                              "name": "y",
                              "type": "uint256"
                            }
                          ],
                          "internalType": "struct BN254.G1Point",
                          "name": "split3",
                          "type": "tuple"
                        },
                        {
                          "components": [
                            {
                              "internalType": "uint256",
                              "name": "x",
                              "type": "uint256"
                            },
                            {
                              "internalType": "uint256",
                              "name": "y",
                              "type": "uint256"
                            }
                          ],
                          "internalType": "struct BN254.G1Point",
                          "name": "split4",
                          "type": "tuple"
                        },
                        {
                          "components": [
                            {
                              "internalType": "uint256",
                              "name": "x",
                              "type": "uint256"
                            },
                            {
                              "internalType": "uint256",
                              "name": "y",
                              "type": "uint256"
                            }
                          ],
                          "internalType": "struct BN254.G1Point",
                          "name": "zeta",
                          "type": "tuple"
                        },
                        {
                          "components": [
                            {
                              "internalType": "uint256",
                              "name": "x",
                              "type": "uint256"
                            },
                            {
                              "internalType": "uint256",
                              "name": "y",
                              "type": "uint256"
                            }
                          ],
                          "internalType": "struct BN254.G1Point",
                          "name": "zetaOmega",
                          "type": "tuple"
                        },
                        {
                          "internalType": "uint256",
                          "name": "wireEval0",
                          "type": "uint256"
                        },
                        {
                          "internalType": "uint256",
                          "name": "wireEval1",
                          "type": "uint256"
                        },
                        {
                          "internalType": "uint256",
                          "name": "wireEval2",
                          "type": "uint256"
                        },
                        {
                          "internalType": "uint256",
                          "name": "wireEval3",
                          "type": "uint256"
                        },
                        {
                          "internalType": "uint256",
                          "name": "wireEval4",
                          "type": "uint256"
                        },
                        {
                          "internalType": "uint256",
                          "name": "sigmaEval0",
                          "type": "uint256"
                        },
                        {
                          "internalType": "uint256",
                          "name": "sigmaEval1",
                          "type": "uint256"
                        },
                        {
                          "internalType": "uint256",
                          "name": "sigmaEval2",
                          "type": "uint256"
                        },
                        {
                          "internalType": "uint256",
                          "name": "sigmaEval3",
                          "type": "uint256"
                        },
                        {
                          "internalType": "uint256",
                          "name": "prodPermZetaOmegaEval",
                          "type": "uint256"
                        }
                      ],
                      "internalType": "struct IPlonkVerifier.PlonkProof",
                      "name": "proof",
                      "type": "tuple"
                    },
                    {
                      "components": [
                        {
                          "components": [
                            {
                              "internalType": "uint256",
                              "name": "x",
                              "type": "uint256"
                            },
                            {
                              "internalType": "uint256",
                              "name": "y",
                              "type": "uint256"
                            }
                          ],
                          "internalType": "struct EdOnBN254.EdOnBN254Point",
                          "name": "ephemeralKey",
                          "type": "tuple"
                        },
                        {
                          "internalType": "uint256[]",
                          "name": "data",
                          "type": "uint256[]"
                        }
                      ],
                      "internalType": "struct CAPE.AuditMemo",
                      "name": "auditMemo",
                      "type": "tuple"
                    },
                    {
                      "components": [
                        {
                          "internalType": "uint256",
                          "name": "merkleRoot",
                          "type": "uint256"
                        },
                        {
                          "internalType": "uint64",
                          "name": "fee",
                          "type": "uint64"
                        },
                        {
                          "internalType": "uint64",
                          "name": "validUntil",
                          "type": "uint64"
                        },
                        {
                          "components": [
                            {
                              "internalType": "uint256",
                              "name": "x",
                              "type": "uint256"
                            },
                            {
                              "internalType": "uint256",
                              "name": "y",
                              "type": "uint256"
                            }
                          ],
                          "internalType": "struct EdOnBN254.EdOnBN254Point",
                          "name": "txnMemoVerKey",
                          "type": "tuple"
                        },
                        {
                          "internalType": "bytes",
                          "name": "extraProofBoundData",
                          "type": "bytes"
                        }
                      ],
                      "internalType": "struct CAPE.TransferAuxInfo",
                      "name": "auxInfo",
                      "type": "tuple"
                    }
                  ],
                  "internalType": "struct CAPE.TransferNote",
                  "name": "transferNote",
                  "type": "tuple"
                },
                {
                  "components": [
                    {
                      "internalType": "uint64",
                      "name": "amount",
                      "type": "uint64"
                    },
                    {
                      "components": [
                        {
                          "internalType": "uint256",
                          "name": "code",
                          "type": "uint256"
                        },
                        {
                          "components": [
                            {
                              "components": [
                                {
                                  "internalType": "uint256",
                                  "name": "x",
                                  "type": "uint256"
                                },
                                {
                                  "internalType": "uint256",
                                  "name": "y",
                                  "type": "uint256"
                                }
                              ],
                              "internalType": "struct EdOnBN254.EdOnBN254Point",
                              "name": "auditorPk",
                              "type": "tuple"
                            },
                            {
                              "components": [
                                {
                                  "internalType": "uint256",
                                  "name": "x",
                                  "type": "uint256"
                                },
                                {
                                  "internalType": "uint256",
                                  "name": "y",
                                  "type": "uint256"
                                }
                              ],
                              "internalType": "struct EdOnBN254.EdOnBN254Point",
                              "name": "credPk",
                              "type": "tuple"
                            },
                            {
                              "components": [
                                {
                                  "internalType": "uint256",
                                  "name": "x",
                                  "type": "uint256"
                                },
                                {
                                  "internalType": "uint256",
                                  "name": "y",
                                  "type": "uint256"
                                }
                              ],
                              "internalType": "struct EdOnBN254.EdOnBN254Point",
                              "name": "freezerPk",
                              "type": "tuple"
                            },
                            {
                              "internalType": "uint256",
                              "name": "revealMap",
                              "type": "uint256"
                            },
                            {
                              "internalType": "uint64",
                              "name": "revealThreshold",
                              "type": "uint64"
                            }
                          ],
                          "internalType": "struct AssetRegistry.AssetPolicy",
                          "name": "policy",
                          "type": "tuple"
                        }
                      ],
                      "internalType": "struct AssetRegistry.AssetDefinition",
                      "name": "assetDef",
                      "type": "tuple"
                    },
                    {
                      "components": [
                        {
                          "internalType": "uint256",
                          "name": "x",
                          "type": "uint256"
                        },
                        {
                          "internalType": "uint256",
                          "name": "y",
                          "type": "uint256"
                        }
                      ],
                      "internalType": "struct EdOnBN254.EdOnBN254Point",
                      "name": "userAddr",
                      "type": "tuple"
                    },
                    {
                      "internalType": "bytes32",
                      "name": "encKey",
                      "type": "bytes32"
                    },
                    {
                      "internalType": "bool",
                      "name": "freezeFlag",
                      "type": "bool"
                    },
                    {
                      "internalType": "uint256",
                      "name": "blind",
                      "type": "uint256"
                    }
                  ],
                  "internalType": "struct CAPE.RecordOpening",
                  "name": "recordOpening",
                  "type": "tuple"
                }
              ],
              "internalType": "struct CAPE.BurnNote[]",
              "name": "burnNotes",
              "type": "tuple[]"
            }
          ],
          "internalType": "struct CAPE.CapeBlock",
          "name": "newBlock",
          "type": "tuple"
        }
      ],
      "name": "submitCapeBlock",
      "outputs": [],
      "stateMutability": "nonpayable",
      "type": "function"
    },
    {
      "inputs": [
        {
          "components": [
            {
              "components": [
                {
                  "internalType": "uint256",
                  "name": "x",
                  "type": "uint256"
                },
                {
                  "internalType": "uint256",
                  "name": "y",
                  "type": "uint256"
                }
              ],
              "internalType": "struct EdOnBN254.EdOnBN254Point",
              "name": "minerAddr",
              "type": "tuple"
            },
            {
              "internalType": "enum CAPE.NoteType[]",
              "name": "noteTypes",
              "type": "uint8[]"
            },
            {
              "components": [
                {
                  "internalType": "uint256[]",
                  "name": "inputNullifiers",
                  "type": "uint256[]"
                },
                {
                  "internalType": "uint256[]",
                  "name": "outputCommitments",
                  "type": "uint256[]"
                },
                {
                  "components": [
                    {
                      "components": [
                        {
                          "internalType": "uint256",
                          "name": "x",
                          "type": "uint256"
                        },
                        {
                          "internalType": "uint256",
                          "name": "y",
                          "type": "uint256"
                        }
                      ],
                      "internalType": "struct BN254.G1Point",
                      "name": "wire0",
                      "type": "tuple"
                    },
                    {
                      "components": [
                        {
                          "internalType": "uint256",
                          "name": "x",
                          "type": "uint256"
                        },
                        {
                          "internalType": "uint256",
                          "name": "y",
                          "type": "uint256"
                        }
                      ],
                      "internalType": "struct BN254.G1Point",
                      "name": "wire1",
                      "type": "tuple"
                    },
                    {
                      "components": [
                        {
                          "internalType": "uint256",
                          "name": "x",
                          "type": "uint256"
                        },
                        {
                          "internalType": "uint256",
                          "name": "y",
                          "type": "uint256"
                        }
                      ],
                      "internalType": "struct BN254.G1Point",
                      "name": "wire2",
                      "type": "tuple"
                    },
                    {
                      "components": [
                        {
                          "internalType": "uint256",
                          "name": "x",
                          "type": "uint256"
                        },
                        {
                          "internalType": "uint256",
                          "name": "y",
                          "type": "uint256"
                        }
                      ],
                      "internalType": "struct BN254.G1Point",
                      "name": "wire3",
                      "type": "tuple"
                    },
                    {
                      "components": [
                        {
                          "internalType": "uint256",
                          "name": "x",
                          "type": "uint256"
                        },
                        {
                          "internalType": "uint256",
                          "name": "y",
                          "type": "uint256"
                        }
                      ],
                      "internalType": "struct BN254.G1Point",
                      "name": "wire4",
                      "type": "tuple"
                    },
                    {
                      "components": [
                        {
                          "internalType": "uint256",
                          "name": "x",
                          "type": "uint256"
                        },
                        {
                          "internalType": "uint256",
                          "name": "y",
                          "type": "uint256"
                        }
                      ],
                      "internalType": "struct BN254.G1Point",
                      "name": "prodPerm",
                      "type": "tuple"
                    },
                    {
                      "components": [
                        {
                          "internalType": "uint256",
                          "name": "x",
                          "type": "uint256"
                        },
                        {
                          "internalType": "uint256",
                          "name": "y",
                          "type": "uint256"
                        }
                      ],
                      "internalType": "struct BN254.G1Point",
                      "name": "split0",
                      "type": "tuple"
                    },
                    {
                      "components": [
                        {
                          "internalType": "uint256",
                          "name": "x",
                          "type": "uint256"
                        },
                        {
                          "internalType": "uint256",
                          "name": "y",
                          "type": "uint256"
                        }
                      ],
                      "internalType": "struct BN254.G1Point",
                      "name": "split1",
                      "type": "tuple"
                    },
                    {
                      "components": [
                        {
                          "internalType": "uint256",
                          "name": "x",
                          "type": "uint256"
                        },
                        {
                          "internalType": "uint256",
                          "name": "y",
                          "type": "uint256"
                        }
                      ],
                      "internalType": "struct BN254.G1Point",
                      "name": "split2",
                      "type": "tuple"
                    },
                    {
                      "components": [
                        {
                          "internalType": "uint256",
                          "name": "x",
                          "type": "uint256"
                        },
                        {
                          "internalType": "uint256",
                          "name": "y",
                          "type": "uint256"
                        }
                      ],
                      "internalType": "struct BN254.G1Point",
                      "name": "split3",
                      "type": "tuple"
                    },
                    {
                      "components": [
                        {
                          "internalType": "uint256",
                          "name": "x",
                          "type": "uint256"
                        },
                        {
                          "internalType": "uint256",
                          "name": "y",
                          "type": "uint256"
                        }
                      ],
                      "internalType": "struct BN254.G1Point",
                      "name": "split4",
                      "type": "tuple"
                    },
                    {
                      "components": [
                        {
                          "internalType": "uint256",
                          "name": "x",
                          "type": "uint256"
                        },
                        {
                          "internalType": "uint256",
                          "name": "y",
                          "type": "uint256"
                        }
                      ],
                      "internalType": "struct BN254.G1Point",
                      "name": "zeta",
                      "type": "tuple"
                    },
                    {
                      "components": [
                        {
                          "internalType": "uint256",
                          "name": "x",
                          "type": "uint256"
                        },
                        {
                          "internalType": "uint256",
                          "name": "y",
                          "type": "uint256"
                        }
                      ],
                      "internalType": "struct BN254.G1Point",
                      "name": "zetaOmega",
                      "type": "tuple"
                    },
                    {
                      "internalType": "uint256",
                      "name": "wireEval0",
                      "type": "uint256"
                    },
                    {
                      "internalType": "uint256",
                      "name": "wireEval1",
                      "type": "uint256"
                    },
                    {
                      "internalType": "uint256",
                      "name": "wireEval2",
                      "type": "uint256"
                    },
                    {
                      "internalType": "uint256",
                      "name": "wireEval3",
                      "type": "uint256"
                    },
                    {
                      "internalType": "uint256",
                      "name": "wireEval4",
                      "type": "uint256"
                    },
                    {
                      "internalType": "uint256",
                      "name": "sigmaEval0",
                      "type": "uint256"
                    },
                    {
                      "internalType": "uint256",
                      "name": "sigmaEval1",
                      "type": "uint256"
                    },
                    {
                      "internalType": "uint256",
                      "name": "sigmaEval2",
                      "type": "uint256"
                    },
                    {
                      "internalType": "uint256",
                      "name": "sigmaEval3",
                      "type": "uint256"
                    },
                    {
                      "internalType": "uint256",
                      "name": "prodPermZetaOmegaEval",
                      "type": "uint256"
                    }
                  ],
                  "internalType": "struct IPlonkVerifier.PlonkProof",
                  "name": "proof",
                  "type": "tuple"
                },
                {
                  "components": [
                    {
                      "components": [
                        {
                          "internalType": "uint256",
                          "name": "x",
                          "type": "uint256"
                        },
                        {
                          "internalType": "uint256",
                          "name": "y",
                          "type": "uint256"
                        }
                      ],
                      "internalType": "struct EdOnBN254.EdOnBN254Point",
                      "name": "ephemeralKey",
                      "type": "tuple"
                    },
                    {
                      "internalType": "uint256[]",
                      "name": "data",
                      "type": "uint256[]"
                    }
                  ],
                  "internalType": "struct CAPE.AuditMemo",
                  "name": "auditMemo",
                  "type": "tuple"
                },
                {
                  "components": [
                    {
                      "internalType": "uint256",
                      "name": "merkleRoot",
                      "type": "uint256"
                    },
                    {
                      "internalType": "uint64",
                      "name": "fee",
                      "type": "uint64"
                    },
                    {
                      "internalType": "uint64",
                      "name": "validUntil",
                      "type": "uint64"
                    },
                    {
                      "components": [
                        {
                          "internalType": "uint256",
                          "name": "x",
                          "type": "uint256"
                        },
                        {
                          "internalType": "uint256",
                          "name": "y",
                          "type": "uint256"
                        }
                      ],
                      "internalType": "struct EdOnBN254.EdOnBN254Point",
                      "name": "txnMemoVerKey",
                      "type": "tuple"
                    },
                    {
                      "internalType": "bytes",
                      "name": "extraProofBoundData",
                      "type": "bytes"
                    }
                  ],
                  "internalType": "struct CAPE.TransferAuxInfo",
                  "name": "auxInfo",
                  "type": "tuple"
                }
              ],
              "internalType": "struct CAPE.TransferNote[]",
              "name": "transferNotes",
              "type": "tuple[]"
            },
            {
              "components": [
                {
                  "internalType": "uint256",
                  "name": "inputNullifier",
                  "type": "uint256"
                },
                {
                  "internalType": "uint256",
                  "name": "chgComm",
                  "type": "uint256"
                },
                {
                  "internalType": "uint256",
                  "name": "mintComm",
                  "type": "uint256"
                },
                {
                  "internalType": "uint64",
                  "name": "mintAmount",
                  "type": "uint64"
                },
                {
                  "components": [
                    {
                      "internalType": "uint256",
                      "name": "code",
                      "type": "uint256"
                    },
                    {
                      "components": [
                        {
                          "components": [
                            {
                              "internalType": "uint256",
                              "name": "x",
                              "type": "uint256"
                            },
                            {
                              "internalType": "uint256",
                              "name": "y",
                              "type": "uint256"
                            }
                          ],
                          "internalType": "struct EdOnBN254.EdOnBN254Point",
                          "name": "auditorPk",
                          "type": "tuple"
                        },
                        {
                          "components": [
                            {
                              "internalType": "uint256",
                              "name": "x",
                              "type": "uint256"
                            },
                            {
                              "internalType": "uint256",
                              "name": "y",
                              "type": "uint256"
                            }
                          ],
                          "internalType": "struct EdOnBN254.EdOnBN254Point",
                          "name": "credPk",
                          "type": "tuple"
                        },
                        {
                          "components": [
                            {
                              "internalType": "uint256",
                              "name": "x",
                              "type": "uint256"
                            },
                            {
                              "internalType": "uint256",
                              "name": "y",
                              "type": "uint256"
                            }
                          ],
                          "internalType": "struct EdOnBN254.EdOnBN254Point",
                          "name": "freezerPk",
                          "type": "tuple"
                        },
                        {
                          "internalType": "uint256",
                          "name": "revealMap",
                          "type": "uint256"
                        },
                        {
                          "internalType": "uint64",
                          "name": "revealThreshold",
                          "type": "uint64"
                        }
                      ],
                      "internalType": "struct AssetRegistry.AssetPolicy",
                      "name": "policy",
                      "type": "tuple"
                    }
                  ],
                  "internalType": "struct AssetRegistry.AssetDefinition",
                  "name": "mintAssetDef",
                  "type": "tuple"
                },
                {
                  "internalType": "uint256",
                  "name": "mintInternalAssetCode",
                  "type": "uint256"
                },
                {
                  "components": [
                    {
                      "components": [
                        {
                          "internalType": "uint256",
                          "name": "x",
                          "type": "uint256"
                        },
                        {
                          "internalType": "uint256",
                          "name": "y",
                          "type": "uint256"
                        }
                      ],
                      "internalType": "struct BN254.G1Point",
                      "name": "wire0",
                      "type": "tuple"
                    },
                    {
                      "components": [
                        {
                          "internalType": "uint256",
                          "name": "x",
                          "type": "uint256"
                        },
                        {
                          "internalType": "uint256",
                          "name": "y",
                          "type": "uint256"
                        }
                      ],
                      "internalType": "struct BN254.G1Point",
                      "name": "wire1",
                      "type": "tuple"
                    },
                    {
                      "components": [
                        {
                          "internalType": "uint256",
                          "name": "x",
                          "type": "uint256"
                        },
                        {
                          "internalType": "uint256",
                          "name": "y",
                          "type": "uint256"
                        }
                      ],
                      "internalType": "struct BN254.G1Point",
                      "name": "wire2",
                      "type": "tuple"
                    },
                    {
                      "components": [
                        {
                          "internalType": "uint256",
                          "name": "x",
                          "type": "uint256"
                        },
                        {
                          "internalType": "uint256",
                          "name": "y",
                          "type": "uint256"
                        }
                      ],
                      "internalType": "struct BN254.G1Point",
                      "name": "wire3",
                      "type": "tuple"
                    },
                    {
                      "components": [
                        {
                          "internalType": "uint256",
                          "name": "x",
                          "type": "uint256"
                        },
                        {
                          "internalType": "uint256",
                          "name": "y",
                          "type": "uint256"
                        }
                      ],
                      "internalType": "struct BN254.G1Point",
                      "name": "wire4",
                      "type": "tuple"
                    },
                    {
                      "components": [
                        {
                          "internalType": "uint256",
                          "name": "x",
                          "type": "uint256"
                        },
                        {
                          "internalType": "uint256",
                          "name": "y",
                          "type": "uint256"
                        }
                      ],
                      "internalType": "struct BN254.G1Point",
                      "name": "prodPerm",
                      "type": "tuple"
                    },
                    {
                      "components": [
                        {
                          "internalType": "uint256",
                          "name": "x",
                          "type": "uint256"
                        },
                        {
                          "internalType": "uint256",
                          "name": "y",
                          "type": "uint256"
                        }
                      ],
                      "internalType": "struct BN254.G1Point",
                      "name": "split0",
                      "type": "tuple"
                    },
                    {
                      "components": [
                        {
                          "internalType": "uint256",
                          "name": "x",
                          "type": "uint256"
                        },
                        {
                          "internalType": "uint256",
                          "name": "y",
                          "type": "uint256"
                        }
                      ],
                      "internalType": "struct BN254.G1Point",
                      "name": "split1",
                      "type": "tuple"
                    },
                    {
                      "components": [
                        {
                          "internalType": "uint256",
                          "name": "x",
                          "type": "uint256"
                        },
                        {
                          "internalType": "uint256",
                          "name": "y",
                          "type": "uint256"
                        }
                      ],
                      "internalType": "struct BN254.G1Point",
                      "name": "split2",
                      "type": "tuple"
                    },
                    {
                      "components": [
                        {
                          "internalType": "uint256",
                          "name": "x",
                          "type": "uint256"
                        },
                        {
                          "internalType": "uint256",
                          "name": "y",
                          "type": "uint256"
                        }
                      ],
                      "internalType": "struct BN254.G1Point",
                      "name": "split3",
                      "type": "tuple"
                    },
                    {
                      "components": [
                        {
                          "internalType": "uint256",
                          "name": "x",
                          "type": "uint256"
                        },
                        {
                          "internalType": "uint256",
                          "name": "y",
                          "type": "uint256"
                        }
                      ],
                      "internalType": "struct BN254.G1Point",
                      "name": "split4",
                      "type": "tuple"
                    },
                    {
                      "components": [
                        {
                          "internalType": "uint256",
                          "name": "x",
                          "type": "uint256"
                        },
                        {
                          "internalType": "uint256",
                          "name": "y",
                          "type": "uint256"
                        }
                      ],
                      "internalType": "struct BN254.G1Point",
                      "name": "zeta",
                      "type": "tuple"
                    },
                    {
                      "components": [
                        {
                          "internalType": "uint256",
                          "name": "x",
                          "type": "uint256"
                        },
                        {
                          "internalType": "uint256",
                          "name": "y",
                          "type": "uint256"
                        }
                      ],
                      "internalType": "struct BN254.G1Point",
                      "name": "zetaOmega",
                      "type": "tuple"
                    },
                    {
                      "internalType": "uint256",
                      "name": "wireEval0",
                      "type": "uint256"
                    },
                    {
                      "internalType": "uint256",
                      "name": "wireEval1",
                      "type": "uint256"
                    },
                    {
                      "internalType": "uint256",
                      "name": "wireEval2",
                      "type": "uint256"
                    },
                    {
                      "internalType": "uint256",
                      "name": "wireEval3",
                      "type": "uint256"
                    },
                    {
                      "internalType": "uint256",
                      "name": "wireEval4",
                      "type": "uint256"
                    },
                    {
                      "internalType": "uint256",
                      "name": "sigmaEval0",
                      "type": "uint256"
                    },
                    {
                      "internalType": "uint256",
                      "name": "sigmaEval1",
                      "type": "uint256"
                    },
                    {
                      "internalType": "uint256",
                      "name": "sigmaEval2",
                      "type": "uint256"
                    },
                    {
                      "internalType": "uint256",
                      "name": "sigmaEval3",
                      "type": "uint256"
                    },
                    {
                      "internalType": "uint256",
                      "name": "prodPermZetaOmegaEval",
                      "type": "uint256"
                    }
                  ],
                  "internalType": "struct IPlonkVerifier.PlonkProof",
                  "name": "proof",
                  "type": "tuple"
                },
                {
                  "components": [
                    {
                      "components": [
                        {
                          "internalType": "uint256",
                          "name": "x",
                          "type": "uint256"
                        },
                        {
                          "internalType": "uint256",
                          "name": "y",
                          "type": "uint256"
                        }
                      ],
                      "internalType": "struct EdOnBN254.EdOnBN254Point",
                      "name": "ephemeralKey",
                      "type": "tuple"
                    },
                    {
                      "internalType": "uint256[]",
                      "name": "data",
                      "type": "uint256[]"
                    }
                  ],
                  "internalType": "struct CAPE.AuditMemo",
                  "name": "auditMemo",
                  "type": "tuple"
                },
                {
                  "components": [
                    {
                      "internalType": "uint256",
                      "name": "merkleRoot",
                      "type": "uint256"
                    },
                    {
                      "internalType": "uint64",
                      "name": "fee",
                      "type": "uint64"
                    },
                    {
                      "components": [
                        {
                          "internalType": "uint256",
                          "name": "x",
                          "type": "uint256"
                        },
                        {
                          "internalType": "uint256",
                          "name": "y",
                          "type": "uint256"
                        }
                      ],
                      "internalType": "struct EdOnBN254.EdOnBN254Point",
                      "name": "txnMemoVerKey",
                      "type": "tuple"
                    }
                  ],
                  "internalType": "struct CAPE.MintAuxInfo",
                  "name": "auxInfo",
                  "type": "tuple"
                }
              ],
              "internalType": "struct CAPE.MintNote[]",
              "name": "mintNotes",
              "type": "tuple[]"
            },
            {
              "components": [
                {
                  "internalType": "uint256[]",
                  "name": "inputNullifiers",
                  "type": "uint256[]"
                },
                {
                  "internalType": "uint256[]",
                  "name": "outputCommitments",
                  "type": "uint256[]"
                },
                {
                  "components": [
                    {
                      "components": [
                        {
                          "internalType": "uint256",
                          "name": "x",
                          "type": "uint256"
                        },
                        {
                          "internalType": "uint256",
                          "name": "y",
                          "type": "uint256"
                        }
                      ],
                      "internalType": "struct BN254.G1Point",
                      "name": "wire0",
                      "type": "tuple"
                    },
                    {
                      "components": [
                        {
                          "internalType": "uint256",
                          "name": "x",
                          "type": "uint256"
                        },
                        {
                          "internalType": "uint256",
                          "name": "y",
                          "type": "uint256"
                        }
                      ],
                      "internalType": "struct BN254.G1Point",
                      "name": "wire1",
                      "type": "tuple"
                    },
                    {
                      "components": [
                        {
                          "internalType": "uint256",
                          "name": "x",
                          "type": "uint256"
                        },
                        {
                          "internalType": "uint256",
                          "name": "y",
                          "type": "uint256"
                        }
                      ],
                      "internalType": "struct BN254.G1Point",
                      "name": "wire2",
                      "type": "tuple"
                    },
                    {
                      "components": [
                        {
                          "internalType": "uint256",
                          "name": "x",
                          "type": "uint256"
                        },
                        {
                          "internalType": "uint256",
                          "name": "y",
                          "type": "uint256"
                        }
                      ],
                      "internalType": "struct BN254.G1Point",
                      "name": "wire3",
                      "type": "tuple"
                    },
                    {
                      "components": [
                        {
                          "internalType": "uint256",
                          "name": "x",
                          "type": "uint256"
                        },
                        {
                          "internalType": "uint256",
                          "name": "y",
                          "type": "uint256"
                        }
                      ],
                      "internalType": "struct BN254.G1Point",
                      "name": "wire4",
                      "type": "tuple"
                    },
                    {
                      "components": [
                        {
                          "internalType": "uint256",
                          "name": "x",
                          "type": "uint256"
                        },
                        {
                          "internalType": "uint256",
                          "name": "y",
                          "type": "uint256"
                        }
                      ],
                      "internalType": "struct BN254.G1Point",
                      "name": "prodPerm",
                      "type": "tuple"
                    },
                    {
                      "components": [
                        {
                          "internalType": "uint256",
                          "name": "x",
                          "type": "uint256"
                        },
                        {
                          "internalType": "uint256",
                          "name": "y",
                          "type": "uint256"
                        }
                      ],
                      "internalType": "struct BN254.G1Point",
                      "name": "split0",
                      "type": "tuple"
                    },
                    {
                      "components": [
                        {
                          "internalType": "uint256",
                          "name": "x",
                          "type": "uint256"
                        },
                        {
                          "internalType": "uint256",
                          "name": "y",
                          "type": "uint256"
                        }
                      ],
                      "internalType": "struct BN254.G1Point",
                      "name": "split1",
                      "type": "tuple"
                    },
                    {
                      "components": [
                        {
                          "internalType": "uint256",
                          "name": "x",
                          "type": "uint256"
                        },
                        {
                          "internalType": "uint256",
                          "name": "y",
                          "type": "uint256"
                        }
                      ],
                      "internalType": "struct BN254.G1Point",
                      "name": "split2",
                      "type": "tuple"
                    },
                    {
                      "components": [
                        {
                          "internalType": "uint256",
                          "name": "x",
                          "type": "uint256"
                        },
                        {
                          "internalType": "uint256",
                          "name": "y",
                          "type": "uint256"
                        }
                      ],
                      "internalType": "struct BN254.G1Point",
                      "name": "split3",
                      "type": "tuple"
                    },
                    {
                      "components": [
                        {
                          "internalType": "uint256",
                          "name": "x",
                          "type": "uint256"
                        },
                        {
                          "internalType": "uint256",
                          "name": "y",
                          "type": "uint256"
                        }
                      ],
                      "internalType": "struct BN254.G1Point",
                      "name": "split4",
                      "type": "tuple"
                    },
                    {
                      "components": [
                        {
                          "internalType": "uint256",
                          "name": "x",
                          "type": "uint256"
                        },
                        {
                          "internalType": "uint256",
                          "name": "y",
                          "type": "uint256"
                        }
                      ],
                      "internalType": "struct BN254.G1Point",
                      "name": "zeta",
                      "type": "tuple"
                    },
                    {
                      "components": [
                        {
                          "internalType": "uint256",
                          "name": "x",
                          "type": "uint256"
                        },
                        {
                          "internalType": "uint256",
                          "name": "y",
                          "type": "uint256"
                        }
                      ],
                      "internalType": "struct BN254.G1Point",
                      "name": "zetaOmega",
                      "type": "tuple"
                    },
                    {
                      "internalType": "uint256",
                      "name": "wireEval0",
                      "type": "uint256"
                    },
                    {
                      "internalType": "uint256",
                      "name": "wireEval1",
                      "type": "uint256"
                    },
                    {
                      "internalType": "uint256",
                      "name": "wireEval2",
                      "type": "uint256"
                    },
                    {
                      "internalType": "uint256",
                      "name": "wireEval3",
                      "type": "uint256"
                    },
                    {
                      "internalType": "uint256",
                      "name": "wireEval4",
                      "type": "uint256"
                    },
                    {
                      "internalType": "uint256",
                      "name": "sigmaEval0",
                      "type": "uint256"
                    },
                    {
                      "internalType": "uint256",
                      "name": "sigmaEval1",
                      "type": "uint256"
                    },
                    {
                      "internalType": "uint256",
                      "name": "sigmaEval2",
                      "type": "uint256"
                    },
                    {
                      "internalType": "uint256",
                      "name": "sigmaEval3",
                      "type": "uint256"
                    },
                    {
                      "internalType": "uint256",
                      "name": "prodPermZetaOmegaEval",
                      "type": "uint256"
                    }
                  ],
                  "internalType": "struct IPlonkVerifier.PlonkProof",
                  "name": "proof",
                  "type": "tuple"
                },
                {
                  "components": [
                    {
                      "internalType": "uint256",
                      "name": "merkleRoot",
                      "type": "uint256"
                    },
                    {
                      "internalType": "uint64",
                      "name": "fee",
                      "type": "uint64"
                    },
                    {
                      "components": [
                        {
                          "internalType": "uint256",
                          "name": "x",
                          "type": "uint256"
                        },
                        {
                          "internalType": "uint256",
                          "name": "y",
                          "type": "uint256"
                        }
                      ],
                      "internalType": "struct EdOnBN254.EdOnBN254Point",
                      "name": "txnMemoVerKey",
                      "type": "tuple"
                    }
                  ],
                  "internalType": "struct CAPE.FreezeAuxInfo",
                  "name": "auxInfo",
                  "type": "tuple"
                }
              ],
              "internalType": "struct CAPE.FreezeNote[]",
              "name": "freezeNotes",
              "type": "tuple[]"
            },
            {
              "components": [
                {
                  "components": [
                    {
                      "internalType": "uint256[]",
                      "name": "inputNullifiers",
                      "type": "uint256[]"
                    },
                    {
                      "internalType": "uint256[]",
                      "name": "outputCommitments",
                      "type": "uint256[]"
                    },
                    {
                      "components": [
                        {
                          "components": [
                            {
                              "internalType": "uint256",
                              "name": "x",
                              "type": "uint256"
                            },
                            {
                              "internalType": "uint256",
                              "name": "y",
                              "type": "uint256"
                            }
                          ],
                          "internalType": "struct BN254.G1Point",
                          "name": "wire0",
                          "type": "tuple"
                        },
                        {
                          "components": [
                            {
                              "internalType": "uint256",
                              "name": "x",
                              "type": "uint256"
                            },
                            {
                              "internalType": "uint256",
                              "name": "y",
                              "type": "uint256"
                            }
                          ],
                          "internalType": "struct BN254.G1Point",
                          "name": "wire1",
                          "type": "tuple"
                        },
                        {
                          "components": [
                            {
                              "internalType": "uint256",
                              "name": "x",
                              "type": "uint256"
                            },
                            {
                              "internalType": "uint256",
                              "name": "y",
                              "type": "uint256"
                            }
                          ],
                          "internalType": "struct BN254.G1Point",
                          "name": "wire2",
                          "type": "tuple"
                        },
                        {
                          "components": [
                            {
                              "internalType": "uint256",
                              "name": "x",
                              "type": "uint256"
                            },
                            {
                              "internalType": "uint256",
                              "name": "y",
                              "type": "uint256"
                            }
                          ],
                          "internalType": "struct BN254.G1Point",
                          "name": "wire3",
                          "type": "tuple"
                        },
                        {
                          "components": [
                            {
                              "internalType": "uint256",
                              "name": "x",
                              "type": "uint256"
                            },
                            {
                              "internalType": "uint256",
                              "name": "y",
                              "type": "uint256"
                            }
                          ],
                          "internalType": "struct BN254.G1Point",
                          "name": "wire4",
                          "type": "tuple"
                        },
                        {
                          "components": [
                            {
                              "internalType": "uint256",
                              "name": "x",
                              "type": "uint256"
                            },
                            {
                              "internalType": "uint256",
                              "name": "y",
                              "type": "uint256"
                            }
                          ],
                          "internalType": "struct BN254.G1Point",
                          "name": "prodPerm",
                          "type": "tuple"
                        },
                        {
                          "components": [
                            {
                              "internalType": "uint256",
                              "name": "x",
                              "type": "uint256"
                            },
                            {
                              "internalType": "uint256",
                              "name": "y",
                              "type": "uint256"
                            }
                          ],
                          "internalType": "struct BN254.G1Point",
                          "name": "split0",
                          "type": "tuple"
                        },
                        {
                          "components": [
                            {
                              "internalType": "uint256",
                              "name": "x",
                              "type": "uint256"
                            },
                            {
                              "internalType": "uint256",
                              "name": "y",
                              "type": "uint256"
                            }
                          ],
                          "internalType": "struct BN254.G1Point",
                          "name": "split1",
                          "type": "tuple"
                        },
                        {
                          "components": [
                            {
                              "internalType": "uint256",
                              "name": "x",
                              "type": "uint256"
                            },
                            {
                              "internalType": "uint256",
                              "name": "y",
                              "type": "uint256"
                            }
                          ],
                          "internalType": "struct BN254.G1Point",
                          "name": "split2",
                          "type": "tuple"
                        },
                        {
                          "components": [
                            {
                              "internalType": "uint256",
                              "name": "x",
                              "type": "uint256"
                            },
                            {
                              "internalType": "uint256",
                              "name": "y",
                              "type": "uint256"
                            }
                          ],
                          "internalType": "struct BN254.G1Point",
                          "name": "split3",
                          "type": "tuple"
                        },
                        {
                          "components": [
                            {
                              "internalType": "uint256",
                              "name": "x",
                              "type": "uint256"
                            },
                            {
                              "internalType": "uint256",
                              "name": "y",
                              "type": "uint256"
                            }
                          ],
                          "internalType": "struct BN254.G1Point",
                          "name": "split4",
                          "type": "tuple"
                        },
                        {
                          "components": [
                            {
                              "internalType": "uint256",
                              "name": "x",
                              "type": "uint256"
                            },
                            {
                              "internalType": "uint256",
                              "name": "y",
                              "type": "uint256"
                            }
                          ],
                          "internalType": "struct BN254.G1Point",
                          "name": "zeta",
                          "type": "tuple"
                        },
                        {
                          "components": [
                            {
                              "internalType": "uint256",
                              "name": "x",
                              "type": "uint256"
                            },
                            {
                              "internalType": "uint256",
                              "name": "y",
                              "type": "uint256"
                            }
                          ],
                          "internalType": "struct BN254.G1Point",
                          "name": "zetaOmega",
                          "type": "tuple"
                        },
                        {
                          "internalType": "uint256",
                          "name": "wireEval0",
                          "type": "uint256"
                        },
                        {
                          "internalType": "uint256",
                          "name": "wireEval1",
                          "type": "uint256"
                        },
                        {
                          "internalType": "uint256",
                          "name": "wireEval2",
                          "type": "uint256"
                        },
                        {
                          "internalType": "uint256",
                          "name": "wireEval3",
                          "type": "uint256"
                        },
                        {
                          "internalType": "uint256",
                          "name": "wireEval4",
                          "type": "uint256"
                        },
                        {
                          "internalType": "uint256",
                          "name": "sigmaEval0",
                          "type": "uint256"
                        },
                        {
                          "internalType": "uint256",
                          "name": "sigmaEval1",
                          "type": "uint256"
                        },
                        {
                          "internalType": "uint256",
                          "name": "sigmaEval2",
                          "type": "uint256"
                        },
                        {
                          "internalType": "uint256",
                          "name": "sigmaEval3",
                          "type": "uint256"
                        },
                        {
                          "internalType": "uint256",
                          "name": "prodPermZetaOmegaEval",
                          "type": "uint256"
                        }
                      ],
                      "internalType": "struct IPlonkVerifier.PlonkProof",
                      "name": "proof",
                      "type": "tuple"
                    },
                    {
                      "components": [
                        {
                          "components": [
                            {
                              "internalType": "uint256",
                              "name": "x",
                              "type": "uint256"
                            },
                            {
                              "internalType": "uint256",
                              "name": "y",
                              "type": "uint256"
                            }
                          ],
                          "internalType": "struct EdOnBN254.EdOnBN254Point",
                          "name": "ephemeralKey",
                          "type": "tuple"
                        },
                        {
                          "internalType": "uint256[]",
                          "name": "data",
                          "type": "uint256[]"
                        }
                      ],
                      "internalType": "struct CAPE.AuditMemo",
                      "name": "auditMemo",
                      "type": "tuple"
                    },
                    {
                      "components": [
                        {
                          "internalType": "uint256",
                          "name": "merkleRoot",
                          "type": "uint256"
                        },
                        {
                          "internalType": "uint64",
                          "name": "fee",
                          "type": "uint64"
                        },
                        {
                          "internalType": "uint64",
                          "name": "validUntil",
                          "type": "uint64"
                        },
                        {
                          "components": [
                            {
                              "internalType": "uint256",
                              "name": "x",
                              "type": "uint256"
                            },
                            {
                              "internalType": "uint256",
                              "name": "y",
                              "type": "uint256"
                            }
                          ],
                          "internalType": "struct EdOnBN254.EdOnBN254Point",
                          "name": "txnMemoVerKey",
                          "type": "tuple"
                        },
                        {
                          "internalType": "bytes",
                          "name": "extraProofBoundData",
                          "type": "bytes"
                        }
                      ],
                      "internalType": "struct CAPE.TransferAuxInfo",
                      "name": "auxInfo",
                      "type": "tuple"
                    }
                  ],
                  "internalType": "struct CAPE.TransferNote",
                  "name": "transferNote",
                  "type": "tuple"
                },
                {
                  "components": [
                    {
                      "internalType": "uint64",
                      "name": "amount",
                      "type": "uint64"
                    },
                    {
                      "components": [
                        {
                          "internalType": "uint256",
                          "name": "code",
                          "type": "uint256"
                        },
                        {
                          "components": [
                            {
                              "components": [
                                {
                                  "internalType": "uint256",
                                  "name": "x",
                                  "type": "uint256"
                                },
                                {
                                  "internalType": "uint256",
                                  "name": "y",
                                  "type": "uint256"
                                }
                              ],
                              "internalType": "struct EdOnBN254.EdOnBN254Point",
                              "name": "auditorPk",
                              "type": "tuple"
                            },
                            {
                              "components": [
                                {
                                  "internalType": "uint256",
                                  "name": "x",
                                  "type": "uint256"
                                },
                                {
                                  "internalType": "uint256",
                                  "name": "y",
                                  "type": "uint256"
                                }
                              ],
                              "internalType": "struct EdOnBN254.EdOnBN254Point",
                              "name": "credPk",
                              "type": "tuple"
                            },
                            {
                              "components": [
                                {
                                  "internalType": "uint256",
                                  "name": "x",
                                  "type": "uint256"
                                },
                                {
                                  "internalType": "uint256",
                                  "name": "y",
                                  "type": "uint256"
                                }
                              ],
                              "internalType": "struct EdOnBN254.EdOnBN254Point",
                              "name": "freezerPk",
                              "type": "tuple"
                            },
                            {
                              "internalType": "uint256",
                              "name": "revealMap",
                              "type": "uint256"
                            },
                            {
                              "internalType": "uint64",
                              "name": "revealThreshold",
                              "type": "uint64"
                            }
                          ],
                          "internalType": "struct AssetRegistry.AssetPolicy",
                          "name": "policy",
                          "type": "tuple"
                        }
                      ],
                      "internalType": "struct AssetRegistry.AssetDefinition",
                      "name": "assetDef",
                      "type": "tuple"
                    },
                    {
                      "components": [
                        {
                          "internalType": "uint256",
                          "name": "x",
                          "type": "uint256"
                        },
                        {
                          "internalType": "uint256",
                          "name": "y",
                          "type": "uint256"
                        }
                      ],
                      "internalType": "struct EdOnBN254.EdOnBN254Point",
                      "name": "userAddr",
                      "type": "tuple"
                    },
                    {
                      "internalType": "bytes32",
                      "name": "encKey",
                      "type": "bytes32"
                    },
                    {
                      "internalType": "bool",
                      "name": "freezeFlag",
                      "type": "bool"
                    },
                    {
                      "internalType": "uint256",
                      "name": "blind",
                      "type": "uint256"
                    }
                  ],
                  "internalType": "struct CAPE.RecordOpening",
                  "name": "recordOpening",
                  "type": "tuple"
                }
              ],
              "internalType": "struct CAPE.BurnNote[]",
              "name": "burnNotes",
              "type": "tuple[]"
            }
          ],
          "internalType": "struct CAPE.CapeBlock",
          "name": "newBlock",
          "type": "tuple"
        },
        {
          "internalType": "bytes",
          "name": "extraData",
          "type": "bytes"
        }
      ],
      "name": "submitCapeBlockWithMemos",
      "outputs": [],
      "stateMutability": "nonpayable",
      "type": "function"
    }
  ],
  "transactionHash": "0x5dbe6e9b737b5f2eae80f8cb43e12ebc6b6be29e69f247bf08287beebff87699",
  "args": [
    24,
    1000,
    "0x4a2cA664e080d5d513EceFDf6b62386A6C5140f6"
  ],
  "solcInputHash": "4562b65aed9d47b1fb3c1971213274b0",
  "bytecode": "0x60806040523480156200001157600080fd5b5060405162005c2938038062005c298339810160408190526200003491620001d2565b60008055600180546001600160481b0319166801000000000000000060ff86160217815582906001600160401b03821611620000b65760405162461bcd60e51b815260206004820152601860248201527f41206c65617374203220726f6f74732072657175697265640000000000000000604482015260640160405180910390fd5b806001600160401b03166001600160401b03811115620000da57620000da62000241565b60405190808252806020026020018201604052801562000104578160200160208202803683370190505b5080516200011b916003916020909101906200016b565b50506001600755600980546001600160a01b039092166801000000000000000002600160401b600160e01b03199092169190911790555050600b80546001600160a01b0319163317905562000257565b828054828255906000526020600020908101928215620001a9579160200282015b82811115620001a95782518255916020019190600101906200018c565b50620001b7929150620001bb565b5090565b5b80821115620001b75760008155600101620001bc565b600080600060608486031215620001e857600080fd5b835160ff81168114620001fa57600080fd5b60208501519093506001600160401b03811681146200021857600080fd5b60408501519092506001600160a01b03811681146200023657600080fd5b809150509250925092565b634e487b7160e01b600052604160045260246000fd5b6159c280620002676000396000f3fe608060405234801561001057600080fd5b50600436106101075760003560e01c806311829f931461010c5780631db6b2531461014d57806331a87f401461017e5780636444c8d1146101a15780636de84060146101b357806371991029146101c857806379cf6f5c146101f35780637c307c83146101fb5780638e983f1114610210578063951b8361146102235780639dd584b9146102365780639fda5b661461023e578063a33ba96c14610267578063a793279414610297578063b12f7e7b146102aa578063b4e28f1a146102bd578063d21e82ab146102c5578063d5f39488146102e8578063e9e5ca4c146102fb578063f44ff7121461030e578063fe3cc3f814610339575b600080fd5b6101376040518060400160405280600c81526020016b22b9a9a1a0a82290313ab93760a11b81525081565b6040516101449190613fea565b60405180910390f35b6101656d1113d35154d51250d7d054d4d15560921b81565b6040516001600160901b03199091168152602001610144565b61019161018c36600461421f565b61034d565b6040519015158152602001610144565b6000545b604051908152602001610144565b6101bb61036a565b60405161014491906142ab565b6101db6101d636600461421f565b610398565b6040516001600160a01b039091168152602001610144565b6101a5600181565b61020e61020936600461435d565b6103e1565b005b61020e61021e366004614cf0565b610559565b61020e610231366004614d86565b610567565b6101a5600a81565b6101db61024c366004614db2565b6006602052600090815260409020546001600160a01b031681565b61027e6c1193d4915251d397d054d4d155609a1b81565b6040516001600160981b03199091168152602001610144565b6101a56102a5366004614db2565b610669565b61020e6102b8366004614dcb565b61068a565b6101a5600c81565b6101916102d3366004614db2565b60086020526000908152604090205460ff1681565b600b546101db906001600160a01b031681565b61020e610309366004614df6565b61085a565b600954610321906001600160401b031681565b6040516001600160401b039091168152602001610144565b600b5461019190600160a01b900460ff1681565b60008061035983610398565b6001600160a01b0316141592915050565b610372613cbf565b600180825260208083018051518201839052805182015182018390525160400151015290565b600080826040516020016103ac91906142ab565b60408051601f198184030181529181528151602092830120600090815260069092529020546001600160a01b03169392505050565b6002600754141561040d5760405162461bcd60e51b815260040161040490614e2a565b60405180910390fd5b600260075560208201516104209061034d565b61046c5760405162461bcd60e51b815260206004820152601f60248201527f417373657420646566696e6974696f6e206e6f742072656769737465726564006044820152606401610404565b600a8054106104bd5760405162461bcd60e51b815260206004820152601e60248201527f50656e64696e67206465706f736974732071756575652069732066756c6c00006044820152606401610404565b600a6104c88361105f565b8154600181018355600092835260209092209091015581516104f8908290339030906001600160401b0316611245565b7fe77062441218c146925a31d2ebba4cb3fd6ea3069cdf81c28822c31e3a8ca98e8260405160200161052a9190614e61565b60408051601f19818403018152908290526105489184903390614ec3565b60405180910390a150506001600755565b6105628361085a565b505050565b6001600160a01b0382166105b15760405162461bcd60e51b8152602060048201526011602482015270426164206173736574206164647265737360781b6044820152606401610404565b6105ba8161034d565b156106025760405162461bcd60e51b8152602060048201526018602482015277105cdcd95d08185b1c9958591e481c9959da5cdd195c995960421b6044820152606401610404565b805161060f9083336112d9565b60008160405160200161062291906142ab565b60408051808303601f19018152918152815160209283012060009081526006909252902080546001600160a01b0319166001600160a01b0394909416939093179092555050565b600a818154811061067957600080fd5b600091825260209091200154905081565b600b546001600160a01b031633146106e15760405162461bcd60e51b815260206004820152601a60248201527927b7363c9034b73b37b1b0b1363290313c903232b83637bcb2b960311b6044820152606401610404565b600b54600160a01b900460ff16156107335760405162461bcd60e51b8152602060048201526015602482015274046617563657420616c72656164792073657420757605c1b6044820152606401610404565b60006040518060c0016040528060026001600160401b036107549190614f22565b6001600160401b0316815260200161076a61036a565b81526020810185905260408082018590526000606083018190526080909201829052805160018082528183019092529293509091908160200160208202803683370190505090506107ba8261105f565b816000815181106107cd576107cd614f48565b6020026020010181815250506107e28161138d565b6107ed6000546114a0565b7fc27eb5ac1e750e98e913252f09c9b96d224b2ef9117e3a3cd446d5ecdd94aa8c8260405160200161081f9190614e61565b60408051601f198184030181529082905261083991613fea565b60405180910390a15050600b805460ff60a01b1916600160a01b1790555050565b6002600754141561087d5760405162461bcd60e51b815260040161040490614e2a565b6002600755600a546000906108a490610895846115de565b61089f9190614f5e565b611703565b6020830151519091506000816001600160401b038111156108c7576108c7613ffd565b60405190808252806020026020018201604052801561090057816020015b6108ed613cde565b8152602001906001900390816108e55790505b5090506000826001600160401b0381111561091d5761091d613ffd565b60405190808252806020026020018201604052801561095057816020015b606081526020019060019003908161093b5790505b5090506000836001600160401b0381111561096d5761096d613ffd565b6040519080825280602002602001820160405280156109a657816020015b610993613ddd565b81526020019060019003908161098b5790505b5090506000846001600160401b038111156109c3576109c3613ffd565b6040519080825280602002602001820160405280156109f657816020015b60608152602001906001900390816109e15790505b50905060008060008060005b89811015610e6a5760008c602001518281518110610a2257610a22614f48565b6020026020010151905060006003811115610a3f57610a3f614f76565b816003811115610a5157610a51614f76565b1415610b965760008d604001518781518110610a6f57610a6f614f48565b60200260200101519050600187610a869190614f5e565b9650610a99816080015160000151611775565b610aa2816117c7565b6009546080820151604001516001600160401b0391821691161015610af85760405162461bcd60e51b815260206004820152600c60248201526b45787069726564206e6f746560a01b6044820152606401610404565b8051610b0390611824565b6020810151610b13908e90611868565b610b1c816118eb565b8e8781518110610b2e57610b2e614f48565b602002602001018e8881518110610b4757610b47614f48565b602002602001018e8981518110610b6057610b60614f48565b602002602001018e8a81518110610b7957610b79614f48565b602002602001018490528490528490528490525050505050610e57565b6001816003811115610baa57610baa614f76565b1415610c3d5760008d606001518681518110610bc857610bc8614f48565b60200260200101519050600186610bdf9190614f5e565b9550610bf381610100015160000151611775565b610c098160800151600001518260a00151611d42565b8051610c1490611dcb565b6020810151610c24908e90611e43565b6040810151610c34908e90611e43565b610b1c81611e7d565b6002816003811115610c5157610c51614f76565b1415610cbd5760008d608001518581518110610c6f57610c6f614f48565b60200260200101519050600185610c869190614f5e565b9450610c99816060015160000151611775565b8051610ca490611824565b6020810151610cb4908e90611868565b610b1c816123ab565b6003816003811115610cd157610cd1614f76565b1415610e1a5760008d60a001518481518110610cef57610cef614f48565b60200260200101519050600184610d069190614f5e565b81516080015151909450610d1990611775565b610d2281612691565b805151610d2e90611824565b60005b81516020015151811015610d8d5780600114610d7b57610d7b8260000151602001518281518110610d6457610d64614f48565b60200260200101518f611e4390919063ffffffff16565b80610d8581614f8c565b915050610d31565b50610d978161272c565b8e8781518110610da957610da9614f48565b602002602001018e8881518110610dc257610dc2614f48565b602002602001018e8981518110610ddb57610ddb614f48565b602002602001018e8a81518110610df457610df4614f48565b6020026020010184905284905284905284905250505050610e148161275c565b50610e57565b60405162461bcd60e51b8152602060048201526012602482015271436170653a20756e726561636861626c652160701b6044820152606401610404565b5080610e6281614f8c565b915050610a02565b508815610f37576009546040516341857feb60e11b8152600160401b9091046001600160a01b03169063830affd690610ead908b908b908b908b90600401615231565b602060405180830381865afa158015610eca573d6000803e3d6000fd5b505050506040513d601f19601f82011682018060405250810190610eee919061543d565b610f375760405162461bcd60e51b815260206004820152601a60248201527921b0b8329d103130ba31b4103b32b934b33c903330b4b632b21760311b6044820152606401610404565b60005b600a54811015610f8657610f74600a8281548110610f5a57610f5a614f48565b90600052602060002001548c611e4390919063ffffffff16565b80610f7e81614f8c565b915050610f3a565b5060208a015115610fa7578951610f9c9061138d565b610fa76000546114a0565b6009805460019190600090610fc69084906001600160401b031661545a565b92506101000a8154816001600160401b0302191690836001600160401b03160217905550600960009054906101000a90046001600160401b03166001600160401b03167fb747848be51f8176d64543f9b615250d050460e73ee0daba83d9bb63b01d2f93600a6040516110399190615485565b60405180910390a261104d600a6000613ed9565b50506001600755505050505050505050565b600061100082602001516020015160600151106110bb5760405162461bcd60e51b815260206004820152601a60248201527952657665616c206d61702065786365656473203132206269747360301b6044820152606401610404565b600082608001516110cd5760006110d0565b60015b60ff168360200151602001516060015160026110ec91906154cc565b6110f69190614f5e565b604080516101e08101825260a080870151825286516001600160401b0390811660208085019190915280890180515185870152898601805151606087015251820151608080870191909152815183015151519486019490945280518201515182015160c086015280518201518201515160e0860152805182015182015182015161010086015280518201518601515161012086015280518201518601518201516101408601526101608501879052510151909101511661018082015260006101a082018190526101c0820152905163462a401b60e11b81529192509073d4693168f855dc9095C6C2b43D82Ded36C9Eb28390638c548036906111fc9084906004016154eb565b602060405180830381865af4158015611219573d6000803e3d6000fd5b505050506040513d601f19601f8201168201806040525081019061123d919061551d565b949350505050565b60006040516323b872dd60e01b81526001600160a01b03851660048201526001600160a01b038416602482015282604482015260008060648360008a5af191505061128f816127a8565b6112d25760405162461bcd60e51b81526020600482015260146024820152731514905394d1915497d19493d357d1905253115160621b6044820152606401610404565b5050505050565b60006112e583836127ef565b905061133e6c1193d4915251d397d054d4d155609a1b8260405160200161130d929190615536565b60408051601f1981840301815282825280516020918201209083015201604051602081830303815290604052612858565b84146113875760405162461bcd60e51b815260206004820152601860248201527757726f6e6720666f726569676e20617373657420636f646560401b6044820152606401610404565b50505050565b805160018054600091600160401b90910460ff16906113ad908490614f5e565b6113b89060036154cc565b6113c291906154cc565b6113cd906002614f5e565b6001600160401b038111156113e4576113e4613ffd565b60405190808252806020026020018201604052801561141d57816020015b61140a613ef7565b8152602001906001900390816114025790505b509050600061142b826128d8565b90508060005b85518163ffffffff16101561147f5761146b848484898563ffffffff168151811061145e5761145e614f48565b6020026020010151612d35565b91508061147781615567565b915050611431565b5061149383836001600160401b03166130ec565b6000556112d2838361328b565b60008181526004602052604090205460ff16156114f55760405162461bcd60e51b8152602060048201526013602482015272526f6f7420616c72656164792065786973747360681b6044820152606401610404565b60055460038054600092600492849290916001600160401b031690811061151e5761151e614f48565b60009182526020808320919091015483528201929092526040019020805460ff19169115159190911790556005546003805483926001600160401b031690811061156a5761156a614f48565b6000918252602080832090910192909255828152600490915260409020805460ff1916600190811790915560035460055490916115b0916001600160401b03169061545a565b6115ba919061558b565b6005805467ffffffffffffffff19166001600160401b039290921691909117905550565b60008082606001515160026115f391906154cc565b905060005b836040015151811015611647578360400151818151811061161b5761161b614f48565b60200260200101516020015151826116339190614f5e565b91508061163f81614f8c565b9150506115f8565b5060005b8360a00151518110156116a95760018460a00151828151811061167057611670614f48565b602002602001015160000151602001515161168b91906155b1565b6116959083614f5e565b9150806116a181614f8c565b91505061164b565b5060005b8360800151518110156116fc57836080015181815181106116d0576116d0614f48565b60200260200101516020015151826116e89190614f5e565b9150806116f481614f8c565b9150506116ad565b5092915050565b6040805180820190915260608152600060208201526040518060400160405280836001600160401b0381111561173b5761173b613ffd565b604051908082528060200260200182016040528015611764578160200160208202803683370190505b508152600060209091015292915050565b60008181526004602052604090205460ff166117c45760405162461bcd60e51b815260206004820152600e60248201526d149bdbdd081b9bdd08199bdd5b9960921b6044820152606401610404565b50565b6117d88160800151608001516134b0565b156117c45760405162461bcd60e51b815260206004820152601c60248201527b4275726e2070726566697820696e207472616e73666572206e6f746560201b6044820152606401610404565b60005b81518110156118645761185282828151811061184557611845614f48565b6020026020010151611dcb565b8061185c81614f8c565b915050611827565b5050565b60005b81518110156118d05781818151811061188657611886614f48565b602002602001015183600001518460200151836118a39190614f5e565b815181106118b3576118b3614f48565b6020908102919091010152806118c881614f8c565b91505061186b565b508051826020018181516118e49190614f5e565b9052505050565b6118f3613cde565b60606118fd613ddd565b6060736A3D04C49A058E23dB67b61Dcf3736f21a9Eea0763b95a6ecc816322e6017b600089515160208b01515160015460405160e086901b6001600160e01b031916815261195b94939291600160401b900460ff16906004016155c8565b602060405180830381865af4158015611978573d6000803e3d6000fd5b505050506040513d601f19601f8201168201806040525081019061199c919061551d565b6040518263ffffffff1660e01b81526004016119ba91815260200190565b6104c060405180830381865af41580156119d8573d6000803e3d6000fd5b505050506040513d601f19601f820116820180604052508101906119fc919061561d565b9350846060015160200151518560200151518660000151516004611a209190614f5e565b611a2a9190614f5e565b611a35906002614f5e565b611a3f9190614f5e565b6001600160401b03811115611a5657611a56613ffd565b604051908082528060200260200182016040528015611a7f578160200160208202803683370190505b50925084608001516000015183600081518110611a9e57611a9e614f48565b602002602001018181525050600183600181518110611abf57611abf614f48565b6020026020010181815250508460800151604001516001600160401b031683600281518110611af057611af0614f48565b6020026020010181815250508460800151602001516001600160401b031683600381518110611b2157611b21614f48565b6020908102919091010152600460005b865151811015611b91578651805182908110611b4f57611b4f614f48565b6020026020010151858284611b649190614f5e565b81518110611b7457611b74614f48565b602090810291909101015280611b8981614f8c565b915050611b31565b50855151611b9f9082614f5e565b905060005b866020015151811015611c095786602001518181518110611bc757611bc7614f48565b6020026020010151858284611bdc9190614f5e565b81518110611bec57611bec614f48565b602090810291909101015280611c0181614f8c565b915050611ba4565b50602086015151611c1a9082614f5e565b905085606001516000015160000151848281518110611c3b57611c3b614f48565b602090810291909101810191909152606087015151015184611c5e836001614f5e565b81518110611c6e57611c6e614f48565b6020908102919091010152611c84600282614f5e565b905060005b86606001516020015151811015611cf6578660600151602001518181518110611cb457611cb4614f48565b6020026020010151858284611cc99190614f5e565b81518110611cd957611cd9614f48565b602090810291909101015280611cee81614f8c565b915050611c89565b505084604001519150611d108560800151606001516134fe565b856080015160800151604051602001611d2a9291906157ad565b60405160208183030381529060405290509193509193565b611d816d1113d35154d51250d7d054d4d15560921b611d6083613564565b6040516001600160901b03199092166020830152602e820152604e0161130d565b82146118645760405162461bcd60e51b815260206004820152601960248201527857726f6e6720646f6d657374696320617373657420636f646560381b6044820152606401610404565b60008181526008602052604090205460ff1615611e285760405162461bcd60e51b815260206004820152601b60248201527a139d5b1b1a599a595c88185b1c9958591e481c1d589b1a5cda1959602a1b6044820152606401610404565b6000908152600860205260409020805460ff19166001179055565b808260000151836020015181518110611e5e57611e5e614f48565b6020026020010181815250506001826020018181516118e49190614f5e565b611e85613cde565b6060611e8f613ddd565b6060736A3D04C49A058E23dB67b61Dcf3736f21a9Eea0763b95a6ecc816322e6017b6001806002600160089054906101000a900460ff166040518563ffffffff1660e01b8152600401611ee594939291906155c8565b602060405180830381865af4158015611f02573d6000803e3d6000fd5b505050506040513d601f19601f82011682018060405250810190611f26919061551d565b6040518263ffffffff1660e01b8152600401611f4491815260200190565b6104c060405180830381865af4158015611f62573d6000803e3d6000fd5b505050506040513d601f19601f82011682018060405250810190611f86919061561d565b93508460e0015160200151516013611f9e9190614f5e565b6001600160401b03811115611fb557611fb5613ffd565b604051908082528060200260200182016040528015611fde578160200160208202803683370190505b5092508461010001516000015183600081518110611ffe57611ffe614f48565b60200260200101818152505060018360018151811061201f5761201f614f48565b60200260200101818152505084600001518360028151811061204357612043614f48565b602002602001018181525050846101000151602001516001600160401b03168360038151811061207557612075614f48565b60200260200101818152505084604001518360048151811061209957612099614f48565b6020026020010181815250508460200151836005815181106120bd576120bd614f48565b60200260200101818152505084606001516001600160401b0316836006815181106120ea576120ea614f48565b6020026020010181815250508460800151600001518360078151811061211257612112614f48565b6020026020010181815250508460a001518360088151811061213657612136614f48565b602002602001018181525050846080015160200151606001518360098151811061216257612162614f48565b602002602001018181525050846080015160200151600001516000015183600a8151811061219257612192614f48565b602002602001018181525050846080015160200151600001516020015183600b815181106121c2576121c2614f48565b602002602001018181525050846080015160200151602001516000015183600c815181106121f2576121f2614f48565b602002602001018181525050846080015160200151602001516020015183600d8151811061222257612222614f48565b602002602001018181525050846080015160200151604001516000015183600e8151811061225257612252614f48565b602002602001018181525050846080015160200151604001516020015183600f8151811061228257612282614f48565b602002602001018181525050846080015160200151608001516001600160401b0316836010815181106122b7576122b7614f48565b602090810291909101015260e085015151518351849060119081106122de576122de614f48565b6020026020010181815250508460e0015160000151602001518360128151811061230a5761230a614f48565b6020908102919091010152601360005b8660e001516020015151811015612387578660e0015160200151818151811061234557612345614f48565b602002602001015185828461235a9190614f5e565b8151811061236a5761236a614f48565b60209081029190910101528061237f81614f8c565b91505061231a565b50508460c0015191506123a2856101000151604001516134fe565b90509193509193565b6123b3613cde565b60606123bd613ddd565b6060736A3D04C49A058E23dB67b61Dcf3736f21a9Eea0763b95a6ecc816322e6017b600289515160208b01515160015460405160e086901b6001600160e01b031916815261241b94939291600160401b900460ff16906004016155c8565b602060405180830381865af4158015612438573d6000803e3d6000fd5b505050506040513d601f19601f8201168201806040525081019061245c919061551d565b6040518263ffffffff1660e01b815260040161247a91815260200190565b6104c060405180830381865af4158015612498573d6000803e3d6000fd5b505050506040513d601f19601f820116820180604052508101906124bc919061561d565b602086015151865151919550906124d4906003614f5e565b6124de9190614f5e565b6001600160401b038111156124f5576124f5613ffd565b60405190808252806020026020018201604052801561251e578160200160208202803683370190505b5092508460600151600001518360008151811061253d5761253d614f48565b60200260200101818152505060018360018151811061255e5761255e614f48565b6020026020010181815250508460600151602001516001600160401b03168360028151811061258f5761258f614f48565b6020908102919091010152600360005b8651518110156125ff5786518051829081106125bd576125bd614f48565b60200260200101518582846125d29190614f5e565b815181106125e2576125e2614f48565b6020908102919091010152806125f781614f8c565b91505061259f565b5085515161260d9082614f5e565b905060005b866020015151811015612677578660200151818151811061263557612635614f48565b602002602001015185828461264a9190614f5e565b8151811061265a5761265a614f48565b60209081029190910101528061266f81614f8c565b915050612612565b5050846040015191506123a28560600151604001516134fe565b805160809081015101516126a4816134b0565b6126df5760405162461bcd60e51b815260206004820152600c60248201526b426164206275726e2074616760a01b6044820152606401610404565b6126e88261369f565b6118645760405162461bcd60e51b8152602060048201526015602482015274109859081c9958dbdc990818dbdb5b5a5d1b595b9d605a1b6044820152606401610404565b612734613cde565b606061273e613ddd565b606061274d85600001516118eb565b93509350935093509193509193565b600061276f826020015160200151610398565b9050600061278a83600001516080015160800151600c6136f9565b905061056282828560200151600001516001600160401b031661375e565b60003d826127ba57806000803e806000fd5b80602081146127d25780156127e357600092506127e8565b816000803e600051151592506127e8565b600192505b5050919050565b6040516c04573534341504520455243323609c1b6020820152606083811b6001600160601b0319908116602d8401526b73706f6e736f72656420627960a01b604184015283821b16604d8301529060610160405160208183030381529060405290505b92915050565b6000805b82518110156128d25760008051602061596d8339815191526101008309915060008051602061596d83398151915283826001865161289a91906155b1565b6128a491906155b1565b815181106128b4576128b4614f48565b016020015160f81c83089150806128ca81614f8c565b91505061285c565b50919050565b6001546000906001600160401b031661299257604080516080810182526000808252602082018190529181018290526060810182905283519091849161292057612920614f48565b602002602001018190525060405180608001604052806000815260200160006001600160401b0316815260200160006001600160401b0316815260200160006001600160401b03168152508260018151811061297e5761297e614f48565b602002602001018190525060019050919050565b60408051608081018252600080825260208201819052918101829052606081018290528351909184916129c7576129c7614f48565b602090810291909101810191909152604080516080810182526000808052600284527fac33ff75c19e70fe83507db0d683fd3465c996598dc972688b7ace676c89077b5482529281018390529081018290526060810191909152825183906001908110612a3657612a36614f48565b60200260200101819052506040518060800160405280600260006001815260200190815260200160002054815260200160006001600160401b0316815260200160006001600160401b0316815260200160006001600160401b031681525082600281518110612aa757612aa7614f48565b60209081029190910181019190915260408051608081018252600260008181529084527f679795a0195a1b76cdebb7c51d74e058aee92919b8c3389af86ef24535e8a28c5482529281018390529081018290526060810191909152825183906003908110612b1757612b17614f48565b602090810291909101015260018054600091612b3b916001600160401b03166157d3565b90506000612b4a60038361558b565b9050600460035b600154612b6990600160401b900460ff1660036157fb565b612b74906001615824565b60ff16826001600160401b03161015612ced57612ba5828460ff166002811115612ba057612ba0614f76565b6137d7565b86836001600160401b031681518110612bc057612bc0614f48565b602090810291909101810191909152604080516080810182526001600160401b038416600090815260028452828120548252928101839052908101829052606081019190915286612c1284600161545a565b6001600160401b031681518110612c2b57612c2b614f48565b6020026020010181905250604051806080016040528060026000846001612c52919061545a565b6001600160401b0316815260208082019290925260409081016000908120548452918301829052820181905260609091015286612c9084600261545a565b6001600160401b031681518110612ca957612ca9614f48565b6020908102919091010152612cbf600385614f22565b9350612ccc60038561558b565b9250612cd960038361545a565b9150612ce660028261545a565b9050612b51565b612d06828460ff166002811115612ba057612ba0614f76565b86836001600160401b031681518110612d2157612d21614f48565b602090810291909101015250949350505050565b600154600090612d5090600160401b900460ff166003615925565b6001546001600160401b031610612d9d5760405162461bcd60e51b81526020600482015260116024820152702a3432903a3932b29034b990333ab6361760791b6044820152606401610404565b6001546001600160401b03166000858083835b612ddb8b856001600160401b031681518110612dce57612dce614f48565b6020026020010151613936565b612e2a57612de9828661394c565b8594509092509050612e168b846001600160401b0384166002811115612e1157612e11614f76565b6139a7565b9350612e2360018661545a565b9450612db0565b6000612e378a600161545a565b90506001600160401b03861615612e5657612e536001876157d3565b95505b60018054612e6e9190600160401b900460ff16615934565b60ff16866001600160401b03161015612f5f5760405180608001604052806000815260200160006001600160401b0316815260200160006001600160401b0316815260200160006001600160401b03168152508c826001600160401b031681518110612edc57612edc614f48565b6020026020010181905250612f2e8c856001600160401b031681518110612f0557612f05614f48565b602002602001015182846001600160401b03166002811115612f2957612f29614f76565b613a84565b925082612f3c60018261545a565b9050612f4960018761545a565b9550612f55838761394c565b9093509150612e56565b600154604051631c0b758d60e31b81526000600482018190526001600160401b039092166024820152604481018b905273d4693168f855dc9095C6C2b43D82Ded36C9Eb2839063e05bac6890606401602060405180830381865af4158015612fcb573d6000803e3d6000fd5b505050506040513d601f19601f82011682018060405250810190612fef919061551d565b9050604051806080016040528082815260200160006001600160401b0316815260200160006001600160401b0316815260200160006001600160401b03168152508d836001600160401b03168151811061304b5761304b614f48565b60200260200101819052506130988d866001600160401b03168151811061307457613074614f48565b602002602001015183856001600160401b03166002811115612f2957612f29614f76565b6001805481906000906130b59083906001600160401b031661545a565b92506101000a8154816001600160401b0302191690836001600160401b031602179055508198505050505050505050949350505050565b60008083838151811061310157613101614f48565b6020026020010151905061311481613b0b565b1561312157519050612852565b600061313a8583602001516001600160401b03166130ec565b905060006131558684604001516001600160401b03166130ec565b905060006131708785606001516001600160401b03166130ec565b9050828785602001516001600160401b03168151811061319257613192614f48565b60200260200101516000018181525050818785604001516001600160401b0316815181106131c2576131c2614f48565b60200260200101516000018181525050808785606001516001600160401b0316815181106131f2576131f2614f48565b602090810291909101015152604051631c0b758d60e31b815260048101849052602481018390526044810182905273d4693168f855dc9095C6C2b43D82Ded36C9Eb2839063e05bac6890606401602060405180830381865af415801561325c573d6000803e3d6000fd5b505050506040513d601f19601f82011682018060405250810190613280919061551d565b945050505050612852565b6001546000906132a690600160401b900460ff1660026157fb565b6132b1906001615824565b60ff16905081600080805b600154600160401b900460ff1681101561345457600087856001600160401b0316815181106132ed576132ed614f48565b602002602001015190506133198882606001516001600160401b031681518110612dce57612dce614f48565b6133375780606001519450806020015193508060400151925061338d565b6133598882604001516001600160401b031681518110612dce57612dce614f48565b6133775780604001519450806020015193508060600151925061338d565b8060200151945080604001519350806060015192505b600061339a8360026154cc565b6133a56001896157d3565b6001600160401b03166133b891906155b1565b905060006133c76001836155b1565b905089856001600160401b0316815181106133e4576133e4614f48565b602002602001015160000151600260008481526020019081526020016000208190555089866001600160401b03168151811061342257613422614f48565b60209081029190910181015151600092835260029091526040909120555081905061344c81614f8c565b9150506132bc565b5085836001600160401b03168151811061347057613470614f48565b602090810291909101810151516000805260029091527fac33ff75c19e70fe83507db0d683fd3465c996598dc972688b7ace676c89077b55505050505050565b6000600c825110156134c457506000919050565b6128526134d4836000600c613b4e565b6040518060400160405280600c81526020016b22b9a9a1a0a82290313ab93760a11b815250613c5b565b60606000613523836020015160008051602061596d83398151915260019190911b1090565b61352e5750600160ff1b5b825161353b908217613564565b60405160200161354d91815260200190565b604051602081830303815290604052915050919050565b60008190506008817eff00ff00ff00ff00ff00ff00ff00ff00ff00ff00ff00ff00ff00ff00ff00ff16901b6008827fff00ff00ff00ff00ff00ff00ff00ff00ff00ff00ff00ff00ff00ff00ff00ff0016901c1790506010817dffff0000ffff0000ffff0000ffff0000ffff0000ffff0000ffff0000ffff16901b6010827dffff0000ffff0000ffff0000ffff0000ffff0000ffff0000ffff0000ffff1916901c1790506020817bffffffff00000000ffffffff00000000ffffffff00000000ffffffff16901b6020827bffffffff00000000ffffffff00000000ffffffff00000000ffffffff1916901c17905060408167ffffffffffffffff67ffffffffffffffff60801b0116901b60408267ffffffffffffffff67ffffffffffffffff60801b011916901c179050608081901b608082901c179050919050565b600060028260000151602001515110156136bb57506000919050565b60006136ca836020015161105f565b90508260000151602001516001815181106136e7576136e7614f48565b60200260200101518114915050919050565b6000613706826014614f5e565b8351101561374e5760405162461bcd60e51b8152602060048201526015602482015274746f416464726573735f6f75744f66426f756e647360581b6044820152606401610404565b500160200151600160601b900490565b600060405163a9059cbb60e01b81526001600160a01b03841660048201528260248201526000806044836000895af1915050613799816127a8565b6113875760405162461bcd60e51b815260206004820152600f60248201526e1514905394d1915497d19052531151608a1b6044820152606401610404565b6137df613ef7565b6137e7613ef7565b60008360028111156137fb576137fb614f76565b14156138645760405180608001604052806000815260200160038661382091906157d3565b6001600160401b031681526020016138396002876157d3565b6001600160401b031681526020016138526001876157d3565b6001600160401b03169052905061392f565b600183600281111561387857613878614f76565b14156138b65760405180608001604052806000815260200160028661389d91906157d3565b6001600160401b031681526020016138396003876157d3565b60028360028111156138ca576138ca614f76565b141561392f576040518060800160405280600081526020016002866138ef91906157d3565b6001600160401b031681526020016139086001876157d3565b6001600160401b031681526020016139216003876157d3565b6001600160401b0316905290505b9392505050565b8051600090158015612852575061285282613b0b565b6001805460009182918291829161396e908790600160401b900460ff166157d3565b61397891906157d3565b613983906003615957565b905061398f8187614f22565b915061399b818761558b565b96919550909350505050565b600080808360028111156139bd576139bd614f76565b14156139f15784846001600160401b0316815181106139de576139de614f48565b602002602001015160200151905061123d565b6001836002811115613a0557613a05614f76565b1415613a395784846001600160401b031681518110613a2657613a26614f48565b602002602001015160400151905061123d565b6002836002811115613a4d57613a4d614f76565b141561123d5784846001600160401b031681518110613a6e57613a6e614f48565b6020026020010151606001519050949350505050565b6000816002811115613a9857613a98614f76565b1415613ab157506001600160401b031660209190910152565b6001816002811115613ac557613ac5614f76565b1415613ade57506001600160401b031660409190910152565b6002816002811115613af257613af2614f76565b141561056257506001600160401b031660609190910152565b600081602001516001600160401b03166000148015613b35575060408201516001600160401b0316155b8015612852575050606001516001600160401b03161590565b606081613b5c81601f614f5e565b1015613b9b5760405162461bcd60e51b815260206004820152600e60248201526d736c6963655f6f766572666c6f7760901b6044820152606401610404565b613ba58284614f5e565b84511015613be95760405162461bcd60e51b8152602060048201526011602482015270736c6963655f6f75744f66426f756e647360781b6044820152606401610404565b606082158015613c085760405191506000825260208201604052613c52565b6040519150601f8416801560200281840101858101878315602002848b0101015b81831015613c41578051835260209283019201613c29565b5050858452601f01601f1916604052505b50949350505050565b815181516000916001918114808314613c775760009250613cb5565b600160208701838101602088015b600284838510011415613cb0578051835114613ca45760009650600093505b60209283019201613c85565b505050505b5090949350505050565b604051806040016040528060008152602001613cd9613f1e565b905290565b6040518061028001604052806000815260200160008152602001613d00613f5f565b8152602001613d0d613f5f565b8152602001613d1a613f5f565b8152602001613d27613f5f565b8152602001613d34613f5f565b8152602001613d41613f5f565b8152602001613d4e613f5f565b8152602001613d5b613f5f565b8152602001613d68613f5f565b8152602001613d75613f5f565b8152602001613d82613f5f565b8152602001613d8f613f5f565b8152602001613d9c613f5f565b8152602001613da9613f5f565b8152602001613db6613f5f565b8152602001613dc3613f5f565b8152602001613dd0613f5f565b8152602001613cd9613f5f565b604051806102e00160405280613df1613f5f565b8152602001613dfe613f5f565b8152602001613e0b613f5f565b8152602001613e18613f5f565b8152602001613e25613f5f565b8152602001613e32613f5f565b8152602001613e3f613f5f565b8152602001613e4c613f5f565b8152602001613e59613f5f565b8152602001613e66613f5f565b8152602001613e73613f5f565b8152602001613e80613f5f565b8152602001613e8d613f5f565b8152602001600081526020016000815260200160008152602001600081526020016000815260200160008152602001600081526020016000815260200160008152602001600081525090565b50805460008255906000526020600020908101906117c49190613f79565b60408051608081018252600080825260208201819052918101829052606081019190915290565b6040518060a00160405280613f31613f5f565b8152602001613f3e613f5f565b8152602001613f4b613f5f565b815260006020820181905260409091015290565b604051806040016040528060008152602001600081525090565b5b80821115613f8e5760008155600101613f7a565b5090565b60005b83811015613fad578181015183820152602001613f95565b838111156113875750506000910152565b60008151808452613fd6816020860160208601613f92565b601f01601f19169290920160200192915050565b60208152600061392f6020830184613fbe565b634e487b7160e01b600052604160045260246000fd5b604080519081016001600160401b038111828210171561403557614035613ffd565b60405290565b60405160a081016001600160401b038111828210171561403557614035613ffd565b60405160c081016001600160401b038111828210171561403557614035613ffd565b6040516102e081016001600160401b038111828210171561403557614035613ffd565b60405161012081016001600160401b038111828210171561403557614035613ffd565b604051608081016001600160401b038111828210171561403557614035613ffd565b60405161028081016001600160401b038111828210171561403557614035613ffd565b604051601f8201601f191681016001600160401b038111828210171561413257614132613ffd565b604052919050565b60006040828403121561414c57600080fd5b614154614013565b9050813581526020820135602082015292915050565b80356001600160401b038116811461418157600080fd5b919050565b600081830361012081121561419a57600080fd5b6141a2614013565b91508235825261010080601f19830112156141bc57600080fd5b6141c461403b565b91506141d3856020860161413a565b82526141e2856060860161413a565b60208301526141f48560a0860161413a565b604083015260e0840135606083015261420e81850161416a565b608083015250602082015292915050565b6000610120828403121561423257600080fd5b61392f8383614186565b80518252602090810151910152565b80518252602081015161426260208401825161423c565b6020810151614274606085018261423c565b50604081015161428760a085018261423c565b50606081015160e08401526001600160401b03608082015116610100840152505050565b6101208101612852828461424b565b80151581146117c457600080fd5b60006101e082840312156142db57600080fd5b6142e361405d565b90506142ee8261416a565b81526142fd8360208401614186565b602082015261431083610140840161413a565b604082015261018082013560608201526101a082013561432f816142ba565b60808201526101c0919091013560a0820152919050565b80356001600160a01b038116811461418157600080fd5b600080610200838503121561437157600080fd5b61437b84846142c8565b915061438a6101e08401614346565b90509250929050565b60006001600160401b038211156143ac576143ac613ffd565b5060051b60200190565b600082601f8301126143c757600080fd5b813560206143dc6143d783614393565b61410a565b82815260059290921b840181019181810190868411156143fb57600080fd5b8286015b84811015614424578035600481106144175760008081fd5b83529183019183016143ff565b509695505050505050565b600082601f83011261444057600080fd5b813560206144506143d783614393565b82815260059290921b8401810191818101908684111561446f57600080fd5b8286015b848110156144245780358352918301918301614473565b6000610480828403121561449d57600080fd5b6144a561407f565b90506144b1838361413a565b81526144c0836040840161413a565b60208201526144d2836080840161413a565b60408201526144e48360c0840161413a565b60608201526101006144f88482850161413a565b608083015261014061450c8582860161413a565b60a08401526101806145208682870161413a565b60c08501526101c06145348782880161413a565b60e08601526102006145488882890161413a565b85870152610240945061455d8886890161413a565b61012087015261028061457289828a0161413a565b858801526102c0945061458789868a0161413a565b61016088015261459b896103008a0161413a565b848801526103408801356101a0880152610360880135838801526103808801356101e08801526103a0880135828801526103c08801356102208801526103e08801358688015261040088013561026088015261042088013581880152505050506104408401356102a084015261046084013581840152505092915050565b60006060828403121561462b57600080fd5b614633614013565b905061463f838361413a565b815260408201356001600160401b0381111561465a57600080fd5b6146668482850161442f565b60208301525092915050565b600060c0828403121561468457600080fd5b61468c61403b565b905081358152602061469f81840161416a565b818301526146af6040840161416a565b60408301526146c1846060850161413a565b606083015260a08301356001600160401b03808211156146e057600080fd5b818501915085601f8301126146f457600080fd5b81358181111561470657614706613ffd565b614718601f8201601f1916850161410a565b9150808252868482850101111561472e57600080fd5b808484018584013760008482840101525080608085015250505092915050565b6000610500828403121561476157600080fd5b61476961403b565b905081356001600160401b038082111561478257600080fd5b61478e8583860161442f565b835260208401359150808211156147a457600080fd5b6147b08583860161442f565b60208401526147c2856040860161448a565b60408401526104c08401359150808211156147dc57600080fd5b6147e885838601614619565b60608401526104e084013591508082111561480257600080fd5b5061480f84828501614672565b60808301525092915050565b600082601f83011261482c57600080fd5b8135602061483c6143d783614393565b82815260059290921b8401810191818101908684111561485b57600080fd5b8286015b848110156144245780356001600160401b0381111561487e5760008081fd5b61488c8986838b010161474e565b84525091830191830161485f565b6000608082840312156148ac57600080fd5b604051606081018181106001600160401b03821117156148ce576148ce613ffd565b604052823581529050806148e46020840161416a565b60208201526148f6846040850161413a565b60408201525092915050565b600082601f83011261491357600080fd5b813560206149236143d783614393565b82815260059290921b8401810191818101908684111561494257600080fd5b8286015b848110156144245780356001600160401b03808211156149665760008081fd5b908801906106e0828b03601f190112156149805760008081fd5b6149886140a2565b8683013581526040808401358883015260608085013582840152608091506149b182860161416a565b9083015260a06149c38d868301614186565b828401526101c08501358184015250506149e18b6101e0850161448a565b60c0820152610660830135828111156149fa5760008081fd5b614a088c8983870101614619565b60e083015250614a1c8b610680850161489a565b61010082015285525050918301918301614946565b600082601f830112614a4257600080fd5b81356020614a526143d783614393565b82815260059290921b84018101918181019086841115614a7157600080fd5b8286015b848110156144245780356001600160401b0380821115614a955760008081fd5b90880190610540828b03601f19011215614aaf5760008081fd5b614ab76140c5565b8683013582811115614ac95760008081fd5b614ad78c898387010161442f565b82525060408084013583811115614aee5760008081fd5b614afc8d8a8388010161442f565b898401525060609250614b118c84860161448a565b90820152614b238b6104e0850161489a565b91810191909152845250918301918301614a75565b600082601f830112614b4957600080fd5b81356020614b596143d783614393565b82815260059290921b84018101918181019086841115614b7857600080fd5b8286015b848110156144245780356001600160401b0380821115614b9c5760008081fd5b90880190610200828b03601f19011215614bb65760008081fd5b614bbe614013565b8683013582811115614bd05760008081fd5b614bde8c898387010161474e565b825250614bee8b604085016142c8565b8188015285525050918301918301614b7c565b600060e08284031215614c1357600080fd5b614c1b61405d565b9050614c27838361413a565b815260408201356001600160401b0380821115614c4357600080fd5b614c4f858386016143b6565b60208401526060840135915080821115614c6857600080fd5b614c748583860161481b565b60408401526080840135915080821115614c8d57600080fd5b614c9985838601614902565b606084015260a0840135915080821115614cb257600080fd5b614cbe85838601614a31565b608084015260c0840135915080821115614cd757600080fd5b50614ce484828501614b38565b60a08301525092915050565b600080600060408486031215614d0557600080fd5b83356001600160401b0380821115614d1c57600080fd5b614d2887838801614c01565b94506020860135915080821115614d3e57600080fd5b818601915086601f830112614d5257600080fd5b813581811115614d6157600080fd5b876020828501011115614d7357600080fd5b6020830194508093505050509250925092565b6000806101408385031215614d9a57600080fd5b614da383614346565b915061438a8460208501614186565b600060208284031215614dc457600080fd5b5035919050565b60008060608385031215614dde57600080fd5b614de8848461413a565b946040939093013593505050565b600060208284031215614e0857600080fd5b81356001600160401b03811115614e1e57600080fd5b61123d84828501614c01565b6020808252601f908201527f5265656e7472616e637947756172643a207265656e7472616e742063616c6c00604082015260600190565b81516001600160401b031681526020808301516101e0830191614e869084018261424b565b506040830151614e9a61014084018261423c565b506060830151610180830152608083015115156101a083015260a0909201516101c09091015290565b606081526000614ed66060830186613fbe565b6001600160a01b0394851660208401529290931660409091015292915050565b634e487b7160e01b600052601260045260246000fd5b634e487b7160e01b600052601160045260246000fd5b60006001600160401b0380841680614f3c57614f3c614ef6565b92169190910492915050565b634e487b7160e01b600052603260045260246000fd5b60008219821115614f7157614f71614f0c565b500190565b634e487b7160e01b600052602160045260246000fd5b6000600019821415614fa057614fa0614f0c565b5060010190565b600081518084526020808501808196508360051b810191508286016000805b86811015615015578385038a52825180518087529087019087870190845b8181101561500057835183529289019291890191600101614fe4565b50509a87019a95505091850191600101614fc6565b509298975050505050505050565b600081518084526020840193506020830160005b828110156151d257815161504c87825161423c565b6020810151604061505f818a018361423c565b820151905060806150728982018361423c565b6060830151915060c0615087818b018461423c565b9083015191506101009061509d8a83018461423c565b60a084015192506101406150b3818c018561423c565b908401519250610180906150c98b83018561423c565b60e085015193506101c06150df818d018661423c565b928501519350610200926150f58c85018661423c565b610120860151945061024061510c818e018761423c565b918601519450610280916151228d84018761423c565b61016087015195506102c0615139818f018861423c565b84880151965061514d6103008f018861423c565b6101a08801516103408f0152918701516103608e01526101e08701516103808e0152938601516103a08d01526102208601516103c08d0152928501516103e08c01526102608501516104008c01528401516104208b0152506102a08301516104408a015290910151610460880152506104809095019460209190910190600101615037565b5093949350505050565b600081518084526020808501808196508360051b8101915082860160005b85811015615224578284038952615212848351613fbe565b988501989350908401906001016151fa565b5091979650505050505050565b608080825285518282018190526000919060a090818501906020808b01865b838110156153f45781518051865283810151848701526040808201516152788289018261423c565b5050606081015161528b8988018261423c565b508781015160c061529e8189018361423c565b8883015191506101006152b3818a018461423c565b908301519150610140906152c98983018461423c565b60e084015192506101806152df818b018561423c565b9084015192506101c0906152f58a83018561423c565b610120850151935061020061530c818c018661423c565b928501519350610240926153228b85018661423c565b61016086015194506153386102808c018661423c565b81860151945061534c6102c08c018661423c565b6101a086015194506153626103008c018661423c565b8286015194506153766103408c018661423c565b6101e0860151945061538c6103808c018661423c565b85015193506153a29150506103c089018361423c565b61022083015191506153b861040089018361423c565b82015190506153cb61044088018261423c565b5061026001516153df61048087018261423c565b506104c0949094019390820190600101615250565b505086830390870152506154088189614fa7565b92505050828103604084015261541e8186615023565b9050828103606084015261543281856151dc565b979650505050505050565b60006020828403121561544f57600080fd5b815161392f816142ba565b60006001600160401b0380831681851680830382111561547c5761547c614f0c565b01949350505050565b6020808252825482820181905260008481528281209092916040850190845b818110156154c0578354835260019384019392850192016154a4565b50909695505050505050565b60008160001904831182151516156154e6576154e6614f0c565b500290565b6101e08101818360005b600f8110156155145781518352602092830192909101906001016154f5565b50505092915050565b60006020828403121561552f57600080fd5b5051919050565b6001600160981b031983168152815160009061555981600d850160208701613f92565b91909101600d019392505050565b600063ffffffff8083168181141561558157615581614f0c565b6001019392505050565b60006001600160401b03808416806155a5576155a5614ef6565b92169190910692915050565b6000828210156155c3576155c3614f0c565b500390565b60ff948516815292841660208401529083166040830152909116606082015260800190565b6000604082840312156155ff57600080fd5b615607614013565b9050815181526020820151602082015292915050565b60006104c0828403121561563057600080fd5b6156386140e7565b825181526020830151602082015261565384604085016155ed565b604082015261566584608085016155ed565b60608201526156778460c085016155ed565b608082015261010061568b858286016155ed565b60a083015261014061569f868287016155ed565b60c08401526101806156b3878288016155ed565b60e08501526101c06156c7888289016155ed565b8486015261020093506156dc888589016155ed565b6101208601526102406156f189828a016155ed565b84870152615703896102808a016155ed565b610160870152615717896102c08a016155ed565b83870152615729896103008a016155ed565b6101a087015261573d896103408a016155ed565b8287015261574f896103808a016155ed565b6101e0870152615763896103c08a016155ed565b85870152615775896104008a016155ed565b610220870152615789896104408a016155ed565b8187015250505050506157a08461048085016155ed565b6102608201529392505050565b600083516157bf818460208801613f92565b83519083019061547c818360208801613f92565b60006001600160401b03838116908316818110156157f3576157f3614f0c565b039392505050565b600060ff821660ff84168160ff048111821515161561581c5761581c614f0c565b029392505050565b600060ff821660ff84168060ff0382111561584157615841614f0c565b019392505050565b600181815b8085111561588457816000190482111561586a5761586a614f0c565b8085161561587757918102915b93841c939080029061584e565b509250929050565b60008261589b57506001612852565b816158a857506000612852565b81600181146158be57600281146158c8576158e4565b6001915050612852565b60ff8411156158d9576158d9614f0c565b50506001821b612852565b5060208310610133831016604e8410600b8410161715615907575081810a612852565b6159118383615849565b806000190482111561581c5761581c614f0c565b600061392f60ff84168361588c565b600060ff821660ff84168082101561594e5761594e614f0c565b90039392505050565b600061392f6001600160401b0384168361588c56fe30644e72e131a029b85045b68181585d2833e84879b9709143e1f593f0000001a264697066735822122023ab593df8bcbd93170de6504c556ab2e31461c4f41fa07537461f3ab12b422164736f6c634300080a0033",
  "deployedBytecode": "0x608060405234801561001057600080fd5b50600436106101075760003560e01c806311829f931461010c5780631db6b2531461014d57806331a87f401461017e5780636444c8d1146101a15780636de84060146101b357806371991029146101c857806379cf6f5c146101f35780637c307c83146101fb5780638e983f1114610210578063951b8361146102235780639dd584b9146102365780639fda5b661461023e578063a33ba96c14610267578063a793279414610297578063b12f7e7b146102aa578063b4e28f1a146102bd578063d21e82ab146102c5578063d5f39488146102e8578063e9e5ca4c146102fb578063f44ff7121461030e578063fe3cc3f814610339575b600080fd5b6101376040518060400160405280600c81526020016b22b9a9a1a0a82290313ab93760a11b81525081565b6040516101449190613fea565b60405180910390f35b6101656d1113d35154d51250d7d054d4d15560921b81565b6040516001600160901b03199091168152602001610144565b61019161018c36600461421f565b61034d565b6040519015158152602001610144565b6000545b604051908152602001610144565b6101bb61036a565b60405161014491906142ab565b6101db6101d636600461421f565b610398565b6040516001600160a01b039091168152602001610144565b6101a5600181565b61020e61020936600461435d565b6103e1565b005b61020e61021e366004614cf0565b610559565b61020e610231366004614d86565b610567565b6101a5600a81565b6101db61024c366004614db2565b6006602052600090815260409020546001600160a01b031681565b61027e6c1193d4915251d397d054d4d155609a1b81565b6040516001600160981b03199091168152602001610144565b6101a56102a5366004614db2565b610669565b61020e6102b8366004614dcb565b61068a565b6101a5600c81565b6101916102d3366004614db2565b60086020526000908152604090205460ff1681565b600b546101db906001600160a01b031681565b61020e610309366004614df6565b61085a565b600954610321906001600160401b031681565b6040516001600160401b039091168152602001610144565b600b5461019190600160a01b900460ff1681565b60008061035983610398565b6001600160a01b0316141592915050565b610372613cbf565b600180825260208083018051518201839052805182015182018390525160400151015290565b600080826040516020016103ac91906142ab565b60408051601f198184030181529181528151602092830120600090815260069092529020546001600160a01b03169392505050565b6002600754141561040d5760405162461bcd60e51b815260040161040490614e2a565b60405180910390fd5b600260075560208201516104209061034d565b61046c5760405162461bcd60e51b815260206004820152601f60248201527f417373657420646566696e6974696f6e206e6f742072656769737465726564006044820152606401610404565b600a8054106104bd5760405162461bcd60e51b815260206004820152601e60248201527f50656e64696e67206465706f736974732071756575652069732066756c6c00006044820152606401610404565b600a6104c88361105f565b8154600181018355600092835260209092209091015581516104f8908290339030906001600160401b0316611245565b7fe77062441218c146925a31d2ebba4cb3fd6ea3069cdf81c28822c31e3a8ca98e8260405160200161052a9190614e61565b60408051601f19818403018152908290526105489184903390614ec3565b60405180910390a150506001600755565b6105628361085a565b505050565b6001600160a01b0382166105b15760405162461bcd60e51b8152602060048201526011602482015270426164206173736574206164647265737360781b6044820152606401610404565b6105ba8161034d565b156106025760405162461bcd60e51b8152602060048201526018602482015277105cdcd95d08185b1c9958591e481c9959da5cdd195c995960421b6044820152606401610404565b805161060f9083336112d9565b60008160405160200161062291906142ab565b60408051808303601f19018152918152815160209283012060009081526006909252902080546001600160a01b0319166001600160a01b0394909416939093179092555050565b600a818154811061067957600080fd5b600091825260209091200154905081565b600b546001600160a01b031633146106e15760405162461bcd60e51b815260206004820152601a60248201527927b7363c9034b73b37b1b0b1363290313c903232b83637bcb2b960311b6044820152606401610404565b600b54600160a01b900460ff16156107335760405162461bcd60e51b8152602060048201526015602482015274046617563657420616c72656164792073657420757605c1b6044820152606401610404565b60006040518060c0016040528060026001600160401b036107549190614f22565b6001600160401b0316815260200161076a61036a565b81526020810185905260408082018590526000606083018190526080909201829052805160018082528183019092529293509091908160200160208202803683370190505090506107ba8261105f565b816000815181106107cd576107cd614f48565b6020026020010181815250506107e28161138d565b6107ed6000546114a0565b7fc27eb5ac1e750e98e913252f09c9b96d224b2ef9117e3a3cd446d5ecdd94aa8c8260405160200161081f9190614e61565b60408051601f198184030181529082905261083991613fea565b60405180910390a15050600b805460ff60a01b1916600160a01b1790555050565b6002600754141561087d5760405162461bcd60e51b815260040161040490614e2a565b6002600755600a546000906108a490610895846115de565b61089f9190614f5e565b611703565b6020830151519091506000816001600160401b038111156108c7576108c7613ffd565b60405190808252806020026020018201604052801561090057816020015b6108ed613cde565b8152602001906001900390816108e55790505b5090506000826001600160401b0381111561091d5761091d613ffd565b60405190808252806020026020018201604052801561095057816020015b606081526020019060019003908161093b5790505b5090506000836001600160401b0381111561096d5761096d613ffd565b6040519080825280602002602001820160405280156109a657816020015b610993613ddd565b81526020019060019003908161098b5790505b5090506000846001600160401b038111156109c3576109c3613ffd565b6040519080825280602002602001820160405280156109f657816020015b60608152602001906001900390816109e15790505b50905060008060008060005b89811015610e6a5760008c602001518281518110610a2257610a22614f48565b6020026020010151905060006003811115610a3f57610a3f614f76565b816003811115610a5157610a51614f76565b1415610b965760008d604001518781518110610a6f57610a6f614f48565b60200260200101519050600187610a869190614f5e565b9650610a99816080015160000151611775565b610aa2816117c7565b6009546080820151604001516001600160401b0391821691161015610af85760405162461bcd60e51b815260206004820152600c60248201526b45787069726564206e6f746560a01b6044820152606401610404565b8051610b0390611824565b6020810151610b13908e90611868565b610b1c816118eb565b8e8781518110610b2e57610b2e614f48565b602002602001018e8881518110610b4757610b47614f48565b602002602001018e8981518110610b6057610b60614f48565b602002602001018e8a81518110610b7957610b79614f48565b602002602001018490528490528490528490525050505050610e57565b6001816003811115610baa57610baa614f76565b1415610c3d5760008d606001518681518110610bc857610bc8614f48565b60200260200101519050600186610bdf9190614f5e565b9550610bf381610100015160000151611775565b610c098160800151600001518260a00151611d42565b8051610c1490611dcb565b6020810151610c24908e90611e43565b6040810151610c34908e90611e43565b610b1c81611e7d565b6002816003811115610c5157610c51614f76565b1415610cbd5760008d608001518581518110610c6f57610c6f614f48565b60200260200101519050600185610c869190614f5e565b9450610c99816060015160000151611775565b8051610ca490611824565b6020810151610cb4908e90611868565b610b1c816123ab565b6003816003811115610cd157610cd1614f76565b1415610e1a5760008d60a001518481518110610cef57610cef614f48565b60200260200101519050600184610d069190614f5e565b81516080015151909450610d1990611775565b610d2281612691565b805151610d2e90611824565b60005b81516020015151811015610d8d5780600114610d7b57610d7b8260000151602001518281518110610d6457610d64614f48565b60200260200101518f611e4390919063ffffffff16565b80610d8581614f8c565b915050610d31565b50610d978161272c565b8e8781518110610da957610da9614f48565b602002602001018e8881518110610dc257610dc2614f48565b602002602001018e8981518110610ddb57610ddb614f48565b602002602001018e8a81518110610df457610df4614f48565b6020026020010184905284905284905284905250505050610e148161275c565b50610e57565b60405162461bcd60e51b8152602060048201526012602482015271436170653a20756e726561636861626c652160701b6044820152606401610404565b5080610e6281614f8c565b915050610a02565b508815610f37576009546040516341857feb60e11b8152600160401b9091046001600160a01b03169063830affd690610ead908b908b908b908b90600401615231565b602060405180830381865afa158015610eca573d6000803e3d6000fd5b505050506040513d601f19601f82011682018060405250810190610eee919061543d565b610f375760405162461bcd60e51b815260206004820152601a60248201527921b0b8329d103130ba31b4103b32b934b33c903330b4b632b21760311b6044820152606401610404565b60005b600a54811015610f8657610f74600a8281548110610f5a57610f5a614f48565b90600052602060002001548c611e4390919063ffffffff16565b80610f7e81614f8c565b915050610f3a565b5060208a015115610fa7578951610f9c9061138d565b610fa76000546114a0565b6009805460019190600090610fc69084906001600160401b031661545a565b92506101000a8154816001600160401b0302191690836001600160401b03160217905550600960009054906101000a90046001600160401b03166001600160401b03167fb747848be51f8176d64543f9b615250d050460e73ee0daba83d9bb63b01d2f93600a6040516110399190615485565b60405180910390a261104d600a6000613ed9565b50506001600755505050505050505050565b600061100082602001516020015160600151106110bb5760405162461bcd60e51b815260206004820152601a60248201527952657665616c206d61702065786365656473203132206269747360301b6044820152606401610404565b600082608001516110cd5760006110d0565b60015b60ff168360200151602001516060015160026110ec91906154cc565b6110f69190614f5e565b604080516101e08101825260a080870151825286516001600160401b0390811660208085019190915280890180515185870152898601805151606087015251820151608080870191909152815183015151519486019490945280518201515182015160c086015280518201518201515160e0860152805182015182015182015161010086015280518201518601515161012086015280518201518601518201516101408601526101608501879052510151909101511661018082015260006101a082018190526101c0820152905163462a401b60e11b81529192509073__$2783a64b147d5f689049cabc192a316d9d$__90638c548036906111fc9084906004016154eb565b602060405180830381865af4158015611219573d6000803e3d6000fd5b505050506040513d601f19601f8201168201806040525081019061123d919061551d565b949350505050565b60006040516323b872dd60e01b81526001600160a01b03851660048201526001600160a01b038416602482015282604482015260008060648360008a5af191505061128f816127a8565b6112d25760405162461bcd60e51b81526020600482015260146024820152731514905394d1915497d19493d357d1905253115160621b6044820152606401610404565b5050505050565b60006112e583836127ef565b905061133e6c1193d4915251d397d054d4d155609a1b8260405160200161130d929190615536565b60408051601f1981840301815282825280516020918201209083015201604051602081830303815290604052612858565b84146113875760405162461bcd60e51b815260206004820152601860248201527757726f6e6720666f726569676e20617373657420636f646560401b6044820152606401610404565b50505050565b805160018054600091600160401b90910460ff16906113ad908490614f5e565b6113b89060036154cc565b6113c291906154cc565b6113cd906002614f5e565b6001600160401b038111156113e4576113e4613ffd565b60405190808252806020026020018201604052801561141d57816020015b61140a613ef7565b8152602001906001900390816114025790505b509050600061142b826128d8565b90508060005b85518163ffffffff16101561147f5761146b848484898563ffffffff168151811061145e5761145e614f48565b6020026020010151612d35565b91508061147781615567565b915050611431565b5061149383836001600160401b03166130ec565b6000556112d2838361328b565b60008181526004602052604090205460ff16156114f55760405162461bcd60e51b8152602060048201526013602482015272526f6f7420616c72656164792065786973747360681b6044820152606401610404565b60055460038054600092600492849290916001600160401b031690811061151e5761151e614f48565b60009182526020808320919091015483528201929092526040019020805460ff19169115159190911790556005546003805483926001600160401b031690811061156a5761156a614f48565b6000918252602080832090910192909255828152600490915260409020805460ff1916600190811790915560035460055490916115b0916001600160401b03169061545a565b6115ba919061558b565b6005805467ffffffffffffffff19166001600160401b039290921691909117905550565b60008082606001515160026115f391906154cc565b905060005b836040015151811015611647578360400151818151811061161b5761161b614f48565b60200260200101516020015151826116339190614f5e565b91508061163f81614f8c565b9150506115f8565b5060005b8360a00151518110156116a95760018460a00151828151811061167057611670614f48565b602002602001015160000151602001515161168b91906155b1565b6116959083614f5e565b9150806116a181614f8c565b91505061164b565b5060005b8360800151518110156116fc57836080015181815181106116d0576116d0614f48565b60200260200101516020015151826116e89190614f5e565b9150806116f481614f8c565b9150506116ad565b5092915050565b6040805180820190915260608152600060208201526040518060400160405280836001600160401b0381111561173b5761173b613ffd565b604051908082528060200260200182016040528015611764578160200160208202803683370190505b508152600060209091015292915050565b60008181526004602052604090205460ff166117c45760405162461bcd60e51b815260206004820152600e60248201526d149bdbdd081b9bdd08199bdd5b9960921b6044820152606401610404565b50565b6117d88160800151608001516134b0565b156117c45760405162461bcd60e51b815260206004820152601c60248201527b4275726e2070726566697820696e207472616e73666572206e6f746560201b6044820152606401610404565b60005b81518110156118645761185282828151811061184557611845614f48565b6020026020010151611dcb565b8061185c81614f8c565b915050611827565b5050565b60005b81518110156118d05781818151811061188657611886614f48565b602002602001015183600001518460200151836118a39190614f5e565b815181106118b3576118b3614f48565b6020908102919091010152806118c881614f8c565b91505061186b565b508051826020018181516118e49190614f5e565b9052505050565b6118f3613cde565b60606118fd613ddd565b606073__$83dbcae801b35109718c5df795b4aa345f$__63b95a6ecc816322e6017b600089515160208b01515160015460405160e086901b6001600160e01b031916815261195b94939291600160401b900460ff16906004016155c8565b602060405180830381865af4158015611978573d6000803e3d6000fd5b505050506040513d601f19601f8201168201806040525081019061199c919061551d565b6040518263ffffffff1660e01b81526004016119ba91815260200190565b6104c060405180830381865af41580156119d8573d6000803e3d6000fd5b505050506040513d601f19601f820116820180604052508101906119fc919061561d565b9350846060015160200151518560200151518660000151516004611a209190614f5e565b611a2a9190614f5e565b611a35906002614f5e565b611a3f9190614f5e565b6001600160401b03811115611a5657611a56613ffd565b604051908082528060200260200182016040528015611a7f578160200160208202803683370190505b50925084608001516000015183600081518110611a9e57611a9e614f48565b602002602001018181525050600183600181518110611abf57611abf614f48565b6020026020010181815250508460800151604001516001600160401b031683600281518110611af057611af0614f48565b6020026020010181815250508460800151602001516001600160401b031683600381518110611b2157611b21614f48565b6020908102919091010152600460005b865151811015611b91578651805182908110611b4f57611b4f614f48565b6020026020010151858284611b649190614f5e565b81518110611b7457611b74614f48565b602090810291909101015280611b8981614f8c565b915050611b31565b50855151611b9f9082614f5e565b905060005b866020015151811015611c095786602001518181518110611bc757611bc7614f48565b6020026020010151858284611bdc9190614f5e565b81518110611bec57611bec614f48565b602090810291909101015280611c0181614f8c565b915050611ba4565b50602086015151611c1a9082614f5e565b905085606001516000015160000151848281518110611c3b57611c3b614f48565b602090810291909101810191909152606087015151015184611c5e836001614f5e565b81518110611c6e57611c6e614f48565b6020908102919091010152611c84600282614f5e565b905060005b86606001516020015151811015611cf6578660600151602001518181518110611cb457611cb4614f48565b6020026020010151858284611cc99190614f5e565b81518110611cd957611cd9614f48565b602090810291909101015280611cee81614f8c565b915050611c89565b505084604001519150611d108560800151606001516134fe565b856080015160800151604051602001611d2a9291906157ad565b60405160208183030381529060405290509193509193565b611d816d1113d35154d51250d7d054d4d15560921b611d6083613564565b6040516001600160901b03199092166020830152602e820152604e0161130d565b82146118645760405162461bcd60e51b815260206004820152601960248201527857726f6e6720646f6d657374696320617373657420636f646560381b6044820152606401610404565b60008181526008602052604090205460ff1615611e285760405162461bcd60e51b815260206004820152601b60248201527a139d5b1b1a599a595c88185b1c9958591e481c1d589b1a5cda1959602a1b6044820152606401610404565b6000908152600860205260409020805460ff19166001179055565b808260000151836020015181518110611e5e57611e5e614f48565b6020026020010181815250506001826020018181516118e49190614f5e565b611e85613cde565b6060611e8f613ddd565b606073__$83dbcae801b35109718c5df795b4aa345f$__63b95a6ecc816322e6017b6001806002600160089054906101000a900460ff166040518563ffffffff1660e01b8152600401611ee594939291906155c8565b602060405180830381865af4158015611f02573d6000803e3d6000fd5b505050506040513d601f19601f82011682018060405250810190611f26919061551d565b6040518263ffffffff1660e01b8152600401611f4491815260200190565b6104c060405180830381865af4158015611f62573d6000803e3d6000fd5b505050506040513d601f19601f82011682018060405250810190611f86919061561d565b93508460e0015160200151516013611f9e9190614f5e565b6001600160401b03811115611fb557611fb5613ffd565b604051908082528060200260200182016040528015611fde578160200160208202803683370190505b5092508461010001516000015183600081518110611ffe57611ffe614f48565b60200260200101818152505060018360018151811061201f5761201f614f48565b60200260200101818152505084600001518360028151811061204357612043614f48565b602002602001018181525050846101000151602001516001600160401b03168360038151811061207557612075614f48565b60200260200101818152505084604001518360048151811061209957612099614f48565b6020026020010181815250508460200151836005815181106120bd576120bd614f48565b60200260200101818152505084606001516001600160401b0316836006815181106120ea576120ea614f48565b6020026020010181815250508460800151600001518360078151811061211257612112614f48565b6020026020010181815250508460a001518360088151811061213657612136614f48565b602002602001018181525050846080015160200151606001518360098151811061216257612162614f48565b602002602001018181525050846080015160200151600001516000015183600a8151811061219257612192614f48565b602002602001018181525050846080015160200151600001516020015183600b815181106121c2576121c2614f48565b602002602001018181525050846080015160200151602001516000015183600c815181106121f2576121f2614f48565b602002602001018181525050846080015160200151602001516020015183600d8151811061222257612222614f48565b602002602001018181525050846080015160200151604001516000015183600e8151811061225257612252614f48565b602002602001018181525050846080015160200151604001516020015183600f8151811061228257612282614f48565b602002602001018181525050846080015160200151608001516001600160401b0316836010815181106122b7576122b7614f48565b602090810291909101015260e085015151518351849060119081106122de576122de614f48565b6020026020010181815250508460e0015160000151602001518360128151811061230a5761230a614f48565b6020908102919091010152601360005b8660e001516020015151811015612387578660e0015160200151818151811061234557612345614f48565b602002602001015185828461235a9190614f5e565b8151811061236a5761236a614f48565b60209081029190910101528061237f81614f8c565b91505061231a565b50508460c0015191506123a2856101000151604001516134fe565b90509193509193565b6123b3613cde565b60606123bd613ddd565b606073__$83dbcae801b35109718c5df795b4aa345f$__63b95a6ecc816322e6017b600289515160208b01515160015460405160e086901b6001600160e01b031916815261241b94939291600160401b900460ff16906004016155c8565b602060405180830381865af4158015612438573d6000803e3d6000fd5b505050506040513d601f19601f8201168201806040525081019061245c919061551d565b6040518263ffffffff1660e01b815260040161247a91815260200190565b6104c060405180830381865af4158015612498573d6000803e3d6000fd5b505050506040513d601f19601f820116820180604052508101906124bc919061561d565b602086015151865151919550906124d4906003614f5e565b6124de9190614f5e565b6001600160401b038111156124f5576124f5613ffd565b60405190808252806020026020018201604052801561251e578160200160208202803683370190505b5092508460600151600001518360008151811061253d5761253d614f48565b60200260200101818152505060018360018151811061255e5761255e614f48565b6020026020010181815250508460600151602001516001600160401b03168360028151811061258f5761258f614f48565b6020908102919091010152600360005b8651518110156125ff5786518051829081106125bd576125bd614f48565b60200260200101518582846125d29190614f5e565b815181106125e2576125e2614f48565b6020908102919091010152806125f781614f8c565b91505061259f565b5085515161260d9082614f5e565b905060005b866020015151811015612677578660200151818151811061263557612635614f48565b602002602001015185828461264a9190614f5e565b8151811061265a5761265a614f48565b60209081029190910101528061266f81614f8c565b915050612612565b5050846040015191506123a28560600151604001516134fe565b805160809081015101516126a4816134b0565b6126df5760405162461bcd60e51b815260206004820152600c60248201526b426164206275726e2074616760a01b6044820152606401610404565b6126e88261369f565b6118645760405162461bcd60e51b8152602060048201526015602482015274109859081c9958dbdc990818dbdb5b5a5d1b595b9d605a1b6044820152606401610404565b612734613cde565b606061273e613ddd565b606061274d85600001516118eb565b93509350935093509193509193565b600061276f826020015160200151610398565b9050600061278a83600001516080015160800151600c6136f9565b905061056282828560200151600001516001600160401b031661375e565b60003d826127ba57806000803e806000fd5b80602081146127d25780156127e357600092506127e8565b816000803e600051151592506127e8565b600192505b5050919050565b6040516c04573534341504520455243323609c1b6020820152606083811b6001600160601b0319908116602d8401526b73706f6e736f72656420627960a01b604184015283821b16604d8301529060610160405160208183030381529060405290505b92915050565b6000805b82518110156128d25760008051602061596d8339815191526101008309915060008051602061596d83398151915283826001865161289a91906155b1565b6128a491906155b1565b815181106128b4576128b4614f48565b016020015160f81c83089150806128ca81614f8c565b91505061285c565b50919050565b6001546000906001600160401b031661299257604080516080810182526000808252602082018190529181018290526060810182905283519091849161292057612920614f48565b602002602001018190525060405180608001604052806000815260200160006001600160401b0316815260200160006001600160401b0316815260200160006001600160401b03168152508260018151811061297e5761297e614f48565b602002602001018190525060019050919050565b60408051608081018252600080825260208201819052918101829052606081018290528351909184916129c7576129c7614f48565b602090810291909101810191909152604080516080810182526000808052600284527fac33ff75c19e70fe83507db0d683fd3465c996598dc972688b7ace676c89077b5482529281018390529081018290526060810191909152825183906001908110612a3657612a36614f48565b60200260200101819052506040518060800160405280600260006001815260200190815260200160002054815260200160006001600160401b0316815260200160006001600160401b0316815260200160006001600160401b031681525082600281518110612aa757612aa7614f48565b60209081029190910181019190915260408051608081018252600260008181529084527f679795a0195a1b76cdebb7c51d74e058aee92919b8c3389af86ef24535e8a28c5482529281018390529081018290526060810191909152825183906003908110612b1757612b17614f48565b602090810291909101015260018054600091612b3b916001600160401b03166157d3565b90506000612b4a60038361558b565b9050600460035b600154612b6990600160401b900460ff1660036157fb565b612b74906001615824565b60ff16826001600160401b03161015612ced57612ba5828460ff166002811115612ba057612ba0614f76565b6137d7565b86836001600160401b031681518110612bc057612bc0614f48565b602090810291909101810191909152604080516080810182526001600160401b038416600090815260028452828120548252928101839052908101829052606081019190915286612c1284600161545a565b6001600160401b031681518110612c2b57612c2b614f48565b6020026020010181905250604051806080016040528060026000846001612c52919061545a565b6001600160401b0316815260208082019290925260409081016000908120548452918301829052820181905260609091015286612c9084600261545a565b6001600160401b031681518110612ca957612ca9614f48565b6020908102919091010152612cbf600385614f22565b9350612ccc60038561558b565b9250612cd960038361545a565b9150612ce660028261545a565b9050612b51565b612d06828460ff166002811115612ba057612ba0614f76565b86836001600160401b031681518110612d2157612d21614f48565b602090810291909101015250949350505050565b600154600090612d5090600160401b900460ff166003615925565b6001546001600160401b031610612d9d5760405162461bcd60e51b81526020600482015260116024820152702a3432903a3932b29034b990333ab6361760791b6044820152606401610404565b6001546001600160401b03166000858083835b612ddb8b856001600160401b031681518110612dce57612dce614f48565b6020026020010151613936565b612e2a57612de9828661394c565b8594509092509050612e168b846001600160401b0384166002811115612e1157612e11614f76565b6139a7565b9350612e2360018661545a565b9450612db0565b6000612e378a600161545a565b90506001600160401b03861615612e5657612e536001876157d3565b95505b60018054612e6e9190600160401b900460ff16615934565b60ff16866001600160401b03161015612f5f5760405180608001604052806000815260200160006001600160401b0316815260200160006001600160401b0316815260200160006001600160401b03168152508c826001600160401b031681518110612edc57612edc614f48565b6020026020010181905250612f2e8c856001600160401b031681518110612f0557612f05614f48565b602002602001015182846001600160401b03166002811115612f2957612f29614f76565b613a84565b925082612f3c60018261545a565b9050612f4960018761545a565b9550612f55838761394c565b9093509150612e56565b600154604051631c0b758d60e31b81526000600482018190526001600160401b039092166024820152604481018b905273__$2783a64b147d5f689049cabc192a316d9d$__9063e05bac6890606401602060405180830381865af4158015612fcb573d6000803e3d6000fd5b505050506040513d601f19601f82011682018060405250810190612fef919061551d565b9050604051806080016040528082815260200160006001600160401b0316815260200160006001600160401b0316815260200160006001600160401b03168152508d836001600160401b03168151811061304b5761304b614f48565b60200260200101819052506130988d866001600160401b03168151811061307457613074614f48565b602002602001015183856001600160401b03166002811115612f2957612f29614f76565b6001805481906000906130b59083906001600160401b031661545a565b92506101000a8154816001600160401b0302191690836001600160401b031602179055508198505050505050505050949350505050565b60008083838151811061310157613101614f48565b6020026020010151905061311481613b0b565b1561312157519050612852565b600061313a8583602001516001600160401b03166130ec565b905060006131558684604001516001600160401b03166130ec565b905060006131708785606001516001600160401b03166130ec565b9050828785602001516001600160401b03168151811061319257613192614f48565b60200260200101516000018181525050818785604001516001600160401b0316815181106131c2576131c2614f48565b60200260200101516000018181525050808785606001516001600160401b0316815181106131f2576131f2614f48565b602090810291909101015152604051631c0b758d60e31b815260048101849052602481018390526044810182905273__$2783a64b147d5f689049cabc192a316d9d$__9063e05bac6890606401602060405180830381865af415801561325c573d6000803e3d6000fd5b505050506040513d601f19601f82011682018060405250810190613280919061551d565b945050505050612852565b6001546000906132a690600160401b900460ff1660026157fb565b6132b1906001615824565b60ff16905081600080805b600154600160401b900460ff1681101561345457600087856001600160401b0316815181106132ed576132ed614f48565b602002602001015190506133198882606001516001600160401b031681518110612dce57612dce614f48565b6133375780606001519450806020015193508060400151925061338d565b6133598882604001516001600160401b031681518110612dce57612dce614f48565b6133775780604001519450806020015193508060600151925061338d565b8060200151945080604001519350806060015192505b600061339a8360026154cc565b6133a56001896157d3565b6001600160401b03166133b891906155b1565b905060006133c76001836155b1565b905089856001600160401b0316815181106133e4576133e4614f48565b602002602001015160000151600260008481526020019081526020016000208190555089866001600160401b03168151811061342257613422614f48565b60209081029190910181015151600092835260029091526040909120555081905061344c81614f8c565b9150506132bc565b5085836001600160401b03168151811061347057613470614f48565b602090810291909101810151516000805260029091527fac33ff75c19e70fe83507db0d683fd3465c996598dc972688b7ace676c89077b55505050505050565b6000600c825110156134c457506000919050565b6128526134d4836000600c613b4e565b6040518060400160405280600c81526020016b22b9a9a1a0a82290313ab93760a11b815250613c5b565b60606000613523836020015160008051602061596d83398151915260019190911b1090565b61352e5750600160ff1b5b825161353b908217613564565b60405160200161354d91815260200190565b604051602081830303815290604052915050919050565b60008190506008817eff00ff00ff00ff00ff00ff00ff00ff00ff00ff00ff00ff00ff00ff00ff00ff16901b6008827fff00ff00ff00ff00ff00ff00ff00ff00ff00ff00ff00ff00ff00ff00ff00ff0016901c1790506010817dffff0000ffff0000ffff0000ffff0000ffff0000ffff0000ffff0000ffff16901b6010827dffff0000ffff0000ffff0000ffff0000ffff0000ffff0000ffff0000ffff1916901c1790506020817bffffffff00000000ffffffff00000000ffffffff00000000ffffffff16901b6020827bffffffff00000000ffffffff00000000ffffffff00000000ffffffff1916901c17905060408167ffffffffffffffff67ffffffffffffffff60801b0116901b60408267ffffffffffffffff67ffffffffffffffff60801b011916901c179050608081901b608082901c179050919050565b600060028260000151602001515110156136bb57506000919050565b60006136ca836020015161105f565b90508260000151602001516001815181106136e7576136e7614f48565b60200260200101518114915050919050565b6000613706826014614f5e565b8351101561374e5760405162461bcd60e51b8152602060048201526015602482015274746f416464726573735f6f75744f66426f756e647360581b6044820152606401610404565b500160200151600160601b900490565b600060405163a9059cbb60e01b81526001600160a01b03841660048201528260248201526000806044836000895af1915050613799816127a8565b6113875760405162461bcd60e51b815260206004820152600f60248201526e1514905394d1915497d19052531151608a1b6044820152606401610404565b6137df613ef7565b6137e7613ef7565b60008360028111156137fb576137fb614f76565b14156138645760405180608001604052806000815260200160038661382091906157d3565b6001600160401b031681526020016138396002876157d3565b6001600160401b031681526020016138526001876157d3565b6001600160401b03169052905061392f565b600183600281111561387857613878614f76565b14156138b65760405180608001604052806000815260200160028661389d91906157d3565b6001600160401b031681526020016138396003876157d3565b60028360028111156138ca576138ca614f76565b141561392f576040518060800160405280600081526020016002866138ef91906157d3565b6001600160401b031681526020016139086001876157d3565b6001600160401b031681526020016139216003876157d3565b6001600160401b0316905290505b9392505050565b8051600090158015612852575061285282613b0b565b6001805460009182918291829161396e908790600160401b900460ff166157d3565b61397891906157d3565b613983906003615957565b905061398f8187614f22565b915061399b818761558b565b96919550909350505050565b600080808360028111156139bd576139bd614f76565b14156139f15784846001600160401b0316815181106139de576139de614f48565b602002602001015160200151905061123d565b6001836002811115613a0557613a05614f76565b1415613a395784846001600160401b031681518110613a2657613a26614f48565b602002602001015160400151905061123d565b6002836002811115613a4d57613a4d614f76565b141561123d5784846001600160401b031681518110613a6e57613a6e614f48565b6020026020010151606001519050949350505050565b6000816002811115613a9857613a98614f76565b1415613ab157506001600160401b031660209190910152565b6001816002811115613ac557613ac5614f76565b1415613ade57506001600160401b031660409190910152565b6002816002811115613af257613af2614f76565b141561056257506001600160401b031660609190910152565b600081602001516001600160401b03166000148015613b35575060408201516001600160401b0316155b8015612852575050606001516001600160401b03161590565b606081613b5c81601f614f5e565b1015613b9b5760405162461bcd60e51b815260206004820152600e60248201526d736c6963655f6f766572666c6f7760901b6044820152606401610404565b613ba58284614f5e565b84511015613be95760405162461bcd60e51b8152602060048201526011602482015270736c6963655f6f75744f66426f756e647360781b6044820152606401610404565b606082158015613c085760405191506000825260208201604052613c52565b6040519150601f8416801560200281840101858101878315602002848b0101015b81831015613c41578051835260209283019201613c29565b5050858452601f01601f1916604052505b50949350505050565b815181516000916001918114808314613c775760009250613cb5565b600160208701838101602088015b600284838510011415613cb0578051835114613ca45760009650600093505b60209283019201613c85565b505050505b5090949350505050565b604051806040016040528060008152602001613cd9613f1e565b905290565b6040518061028001604052806000815260200160008152602001613d00613f5f565b8152602001613d0d613f5f565b8152602001613d1a613f5f565b8152602001613d27613f5f565b8152602001613d34613f5f565b8152602001613d41613f5f565b8152602001613d4e613f5f565b8152602001613d5b613f5f565b8152602001613d68613f5f565b8152602001613d75613f5f565b8152602001613d82613f5f565b8152602001613d8f613f5f565b8152602001613d9c613f5f565b8152602001613da9613f5f565b8152602001613db6613f5f565b8152602001613dc3613f5f565b8152602001613dd0613f5f565b8152602001613cd9613f5f565b604051806102e00160405280613df1613f5f565b8152602001613dfe613f5f565b8152602001613e0b613f5f565b8152602001613e18613f5f565b8152602001613e25613f5f565b8152602001613e32613f5f565b8152602001613e3f613f5f565b8152602001613e4c613f5f565b8152602001613e59613f5f565b8152602001613e66613f5f565b8152602001613e73613f5f565b8152602001613e80613f5f565b8152602001613e8d613f5f565b8152602001600081526020016000815260200160008152602001600081526020016000815260200160008152602001600081526020016000815260200160008152602001600081525090565b50805460008255906000526020600020908101906117c49190613f79565b60408051608081018252600080825260208201819052918101829052606081019190915290565b6040518060a00160405280613f31613f5f565b8152602001613f3e613f5f565b8152602001613f4b613f5f565b815260006020820181905260409091015290565b604051806040016040528060008152602001600081525090565b5b80821115613f8e5760008155600101613f7a565b5090565b60005b83811015613fad578181015183820152602001613f95565b838111156113875750506000910152565b60008151808452613fd6816020860160208601613f92565b601f01601f19169290920160200192915050565b60208152600061392f6020830184613fbe565b634e487b7160e01b600052604160045260246000fd5b604080519081016001600160401b038111828210171561403557614035613ffd565b60405290565b60405160a081016001600160401b038111828210171561403557614035613ffd565b60405160c081016001600160401b038111828210171561403557614035613ffd565b6040516102e081016001600160401b038111828210171561403557614035613ffd565b60405161012081016001600160401b038111828210171561403557614035613ffd565b604051608081016001600160401b038111828210171561403557614035613ffd565b60405161028081016001600160401b038111828210171561403557614035613ffd565b604051601f8201601f191681016001600160401b038111828210171561413257614132613ffd565b604052919050565b60006040828403121561414c57600080fd5b614154614013565b9050813581526020820135602082015292915050565b80356001600160401b038116811461418157600080fd5b919050565b600081830361012081121561419a57600080fd5b6141a2614013565b91508235825261010080601f19830112156141bc57600080fd5b6141c461403b565b91506141d3856020860161413a565b82526141e2856060860161413a565b60208301526141f48560a0860161413a565b604083015260e0840135606083015261420e81850161416a565b608083015250602082015292915050565b6000610120828403121561423257600080fd5b61392f8383614186565b80518252602090810151910152565b80518252602081015161426260208401825161423c565b6020810151614274606085018261423c565b50604081015161428760a085018261423c565b50606081015160e08401526001600160401b03608082015116610100840152505050565b6101208101612852828461424b565b80151581146117c457600080fd5b60006101e082840312156142db57600080fd5b6142e361405d565b90506142ee8261416a565b81526142fd8360208401614186565b602082015261431083610140840161413a565b604082015261018082013560608201526101a082013561432f816142ba565b60808201526101c0919091013560a0820152919050565b80356001600160a01b038116811461418157600080fd5b600080610200838503121561437157600080fd5b61437b84846142c8565b915061438a6101e08401614346565b90509250929050565b60006001600160401b038211156143ac576143ac613ffd565b5060051b60200190565b600082601f8301126143c757600080fd5b813560206143dc6143d783614393565b61410a565b82815260059290921b840181019181810190868411156143fb57600080fd5b8286015b84811015614424578035600481106144175760008081fd5b83529183019183016143ff565b509695505050505050565b600082601f83011261444057600080fd5b813560206144506143d783614393565b82815260059290921b8401810191818101908684111561446f57600080fd5b8286015b848110156144245780358352918301918301614473565b6000610480828403121561449d57600080fd5b6144a561407f565b90506144b1838361413a565b81526144c0836040840161413a565b60208201526144d2836080840161413a565b60408201526144e48360c0840161413a565b60608201526101006144f88482850161413a565b608083015261014061450c8582860161413a565b60a08401526101806145208682870161413a565b60c08501526101c06145348782880161413a565b60e08601526102006145488882890161413a565b85870152610240945061455d8886890161413a565b61012087015261028061457289828a0161413a565b858801526102c0945061458789868a0161413a565b61016088015261459b896103008a0161413a565b848801526103408801356101a0880152610360880135838801526103808801356101e08801526103a0880135828801526103c08801356102208801526103e08801358688015261040088013561026088015261042088013581880152505050506104408401356102a084015261046084013581840152505092915050565b60006060828403121561462b57600080fd5b614633614013565b905061463f838361413a565b815260408201356001600160401b0381111561465a57600080fd5b6146668482850161442f565b60208301525092915050565b600060c0828403121561468457600080fd5b61468c61403b565b905081358152602061469f81840161416a565b818301526146af6040840161416a565b60408301526146c1846060850161413a565b606083015260a08301356001600160401b03808211156146e057600080fd5b818501915085601f8301126146f457600080fd5b81358181111561470657614706613ffd565b614718601f8201601f1916850161410a565b9150808252868482850101111561472e57600080fd5b808484018584013760008482840101525080608085015250505092915050565b6000610500828403121561476157600080fd5b61476961403b565b905081356001600160401b038082111561478257600080fd5b61478e8583860161442f565b835260208401359150808211156147a457600080fd5b6147b08583860161442f565b60208401526147c2856040860161448a565b60408401526104c08401359150808211156147dc57600080fd5b6147e885838601614619565b60608401526104e084013591508082111561480257600080fd5b5061480f84828501614672565b60808301525092915050565b600082601f83011261482c57600080fd5b8135602061483c6143d783614393565b82815260059290921b8401810191818101908684111561485b57600080fd5b8286015b848110156144245780356001600160401b0381111561487e5760008081fd5b61488c8986838b010161474e565b84525091830191830161485f565b6000608082840312156148ac57600080fd5b604051606081018181106001600160401b03821117156148ce576148ce613ffd565b604052823581529050806148e46020840161416a565b60208201526148f6846040850161413a565b60408201525092915050565b600082601f83011261491357600080fd5b813560206149236143d783614393565b82815260059290921b8401810191818101908684111561494257600080fd5b8286015b848110156144245780356001600160401b03808211156149665760008081fd5b908801906106e0828b03601f190112156149805760008081fd5b6149886140a2565b8683013581526040808401358883015260608085013582840152608091506149b182860161416a565b9083015260a06149c38d868301614186565b828401526101c08501358184015250506149e18b6101e0850161448a565b60c0820152610660830135828111156149fa5760008081fd5b614a088c8983870101614619565b60e083015250614a1c8b610680850161489a565b61010082015285525050918301918301614946565b600082601f830112614a4257600080fd5b81356020614a526143d783614393565b82815260059290921b84018101918181019086841115614a7157600080fd5b8286015b848110156144245780356001600160401b0380821115614a955760008081fd5b90880190610540828b03601f19011215614aaf5760008081fd5b614ab76140c5565b8683013582811115614ac95760008081fd5b614ad78c898387010161442f565b82525060408084013583811115614aee5760008081fd5b614afc8d8a8388010161442f565b898401525060609250614b118c84860161448a565b90820152614b238b6104e0850161489a565b91810191909152845250918301918301614a75565b600082601f830112614b4957600080fd5b81356020614b596143d783614393565b82815260059290921b84018101918181019086841115614b7857600080fd5b8286015b848110156144245780356001600160401b0380821115614b9c5760008081fd5b90880190610200828b03601f19011215614bb65760008081fd5b614bbe614013565b8683013582811115614bd05760008081fd5b614bde8c898387010161474e565b825250614bee8b604085016142c8565b8188015285525050918301918301614b7c565b600060e08284031215614c1357600080fd5b614c1b61405d565b9050614c27838361413a565b815260408201356001600160401b0380821115614c4357600080fd5b614c4f858386016143b6565b60208401526060840135915080821115614c6857600080fd5b614c748583860161481b565b60408401526080840135915080821115614c8d57600080fd5b614c9985838601614902565b606084015260a0840135915080821115614cb257600080fd5b614cbe85838601614a31565b608084015260c0840135915080821115614cd757600080fd5b50614ce484828501614b38565b60a08301525092915050565b600080600060408486031215614d0557600080fd5b83356001600160401b0380821115614d1c57600080fd5b614d2887838801614c01565b94506020860135915080821115614d3e57600080fd5b818601915086601f830112614d5257600080fd5b813581811115614d6157600080fd5b876020828501011115614d7357600080fd5b6020830194508093505050509250925092565b6000806101408385031215614d9a57600080fd5b614da383614346565b915061438a8460208501614186565b600060208284031215614dc457600080fd5b5035919050565b60008060608385031215614dde57600080fd5b614de8848461413a565b946040939093013593505050565b600060208284031215614e0857600080fd5b81356001600160401b03811115614e1e57600080fd5b61123d84828501614c01565b6020808252601f908201527f5265656e7472616e637947756172643a207265656e7472616e742063616c6c00604082015260600190565b81516001600160401b031681526020808301516101e0830191614e869084018261424b565b506040830151614e9a61014084018261423c565b506060830151610180830152608083015115156101a083015260a0909201516101c09091015290565b606081526000614ed66060830186613fbe565b6001600160a01b0394851660208401529290931660409091015292915050565b634e487b7160e01b600052601260045260246000fd5b634e487b7160e01b600052601160045260246000fd5b60006001600160401b0380841680614f3c57614f3c614ef6565b92169190910492915050565b634e487b7160e01b600052603260045260246000fd5b60008219821115614f7157614f71614f0c565b500190565b634e487b7160e01b600052602160045260246000fd5b6000600019821415614fa057614fa0614f0c565b5060010190565b600081518084526020808501808196508360051b810191508286016000805b86811015615015578385038a52825180518087529087019087870190845b8181101561500057835183529289019291890191600101614fe4565b50509a87019a95505091850191600101614fc6565b509298975050505050505050565b600081518084526020840193506020830160005b828110156151d257815161504c87825161423c565b6020810151604061505f818a018361423c565b820151905060806150728982018361423c565b6060830151915060c0615087818b018461423c565b9083015191506101009061509d8a83018461423c565b60a084015192506101406150b3818c018561423c565b908401519250610180906150c98b83018561423c565b60e085015193506101c06150df818d018661423c565b928501519350610200926150f58c85018661423c565b610120860151945061024061510c818e018761423c565b918601519450610280916151228d84018761423c565b61016087015195506102c0615139818f018861423c565b84880151965061514d6103008f018861423c565b6101a08801516103408f0152918701516103608e01526101e08701516103808e0152938601516103a08d01526102208601516103c08d0152928501516103e08c01526102608501516104008c01528401516104208b0152506102a08301516104408a015290910151610460880152506104809095019460209190910190600101615037565b5093949350505050565b600081518084526020808501808196508360051b8101915082860160005b85811015615224578284038952615212848351613fbe565b988501989350908401906001016151fa565b5091979650505050505050565b608080825285518282018190526000919060a090818501906020808b01865b838110156153f45781518051865283810151848701526040808201516152788289018261423c565b5050606081015161528b8988018261423c565b508781015160c061529e8189018361423c565b8883015191506101006152b3818a018461423c565b908301519150610140906152c98983018461423c565b60e084015192506101806152df818b018561423c565b9084015192506101c0906152f58a83018561423c565b610120850151935061020061530c818c018661423c565b928501519350610240926153228b85018661423c565b61016086015194506153386102808c018661423c565b81860151945061534c6102c08c018661423c565b6101a086015194506153626103008c018661423c565b8286015194506153766103408c018661423c565b6101e0860151945061538c6103808c018661423c565b85015193506153a29150506103c089018361423c565b61022083015191506153b861040089018361423c565b82015190506153cb61044088018261423c565b5061026001516153df61048087018261423c565b506104c0949094019390820190600101615250565b505086830390870152506154088189614fa7565b92505050828103604084015261541e8186615023565b9050828103606084015261543281856151dc565b979650505050505050565b60006020828403121561544f57600080fd5b815161392f816142ba565b60006001600160401b0380831681851680830382111561547c5761547c614f0c565b01949350505050565b6020808252825482820181905260008481528281209092916040850190845b818110156154c0578354835260019384019392850192016154a4565b50909695505050505050565b60008160001904831182151516156154e6576154e6614f0c565b500290565b6101e08101818360005b600f8110156155145781518352602092830192909101906001016154f5565b50505092915050565b60006020828403121561552f57600080fd5b5051919050565b6001600160981b031983168152815160009061555981600d850160208701613f92565b91909101600d019392505050565b600063ffffffff8083168181141561558157615581614f0c565b6001019392505050565b60006001600160401b03808416806155a5576155a5614ef6565b92169190910692915050565b6000828210156155c3576155c3614f0c565b500390565b60ff948516815292841660208401529083166040830152909116606082015260800190565b6000604082840312156155ff57600080fd5b615607614013565b9050815181526020820151602082015292915050565b60006104c0828403121561563057600080fd5b6156386140e7565b825181526020830151602082015261565384604085016155ed565b604082015261566584608085016155ed565b60608201526156778460c085016155ed565b608082015261010061568b858286016155ed565b60a083015261014061569f868287016155ed565b60c08401526101806156b3878288016155ed565b60e08501526101c06156c7888289016155ed565b8486015261020093506156dc888589016155ed565b6101208601526102406156f189828a016155ed565b84870152615703896102808a016155ed565b610160870152615717896102c08a016155ed565b83870152615729896103008a016155ed565b6101a087015261573d896103408a016155ed565b8287015261574f896103808a016155ed565b6101e0870152615763896103c08a016155ed565b85870152615775896104008a016155ed565b610220870152615789896104408a016155ed565b8187015250505050506157a08461048085016155ed565b6102608201529392505050565b600083516157bf818460208801613f92565b83519083019061547c818360208801613f92565b60006001600160401b03838116908316818110156157f3576157f3614f0c565b039392505050565b600060ff821660ff84168160ff048111821515161561581c5761581c614f0c565b029392505050565b600060ff821660ff84168060ff0382111561584157615841614f0c565b019392505050565b600181815b8085111561588457816000190482111561586a5761586a614f0c565b8085161561587757918102915b93841c939080029061584e565b509250929050565b60008261589b57506001612852565b816158a857506000612852565b81600181146158be57600281146158c8576158e4565b6001915050612852565b60ff8411156158d9576158d9614f0c565b50506001821b612852565b5060208310610133831016604e8410600b8410161715615907575081810a612852565b6159118383615849565b806000190482111561581c5761581c614f0c565b600061392f60ff84168361588c565b600060ff821660ff84168082101561594e5761594e614f0c565b90039392505050565b600061392f6001600160401b0384168361588c56fe30644e72e131a029b85045b68181585d2833e84879b9709143e1f593f0000001a264697066735822122023ab593df8bcbd93170de6504c556ab2e31461c4f41fa07537461f3ab12b422164736f6c634300080a0033",
  "libraries": {
    "RescueLib": "0xd4693168f855dc9095C6C2b43D82Ded36C9Eb283",
    "VerifyingKeys": "0x6A3D04C49A058E23dB67b61Dcf3736f21a9Eea07"
  },
  "devdoc": {
    "kind": "dev",
    "methods": {
      "constructor": {
        "params": {
          "merkleTreeHeight": "height of the merkle tree that stores the asset record commitments",
          "nRoots": "number of the most recent roots of the records merkle tree to be stored",
          "verifierAddr": "address of the Plonk Verifier contract"
        }
      },
      "depositErc20((uint64,(uint256,((uint256,uint256),(uint256,uint256),(uint256,uint256),uint256,uint64)),(uint256,uint256),bytes32,bool,uint256),address)": {
        "params": {
          "erc20Address": "address of the ERC20 token corresponding to the deposit.",
          "ro": "record opening that will be inserted in the records merkle tree once the deposit is validated."
        }
      },
      "faucetSetupForTestnet((uint256,uint256),bytes32)": {
        "params": {
          "faucetManagerAddress": "address of public key of faucet manager for CAP native token (testnet only!)",
          "faucetManagerEncKey": "public key of faucet manager for CAP native token (testnet only!)"
        }
      },
      "isCapeAssetRegistered((uint256,((uint256,uint256),(uint256,uint256),(uint256,uint256),uint256,uint64)))": {
        "params": {
          "assetDefinition": "an asset definition"
        },
        "returns": {
          "_0": "True if the asset type is registered, false otherwise."
        }
      },
      "lookup((uint256,((uint256,uint256),(uint256,uint256),(uint256,uint256),uint256,uint64)))": {
        "params": {
          "assetDefinition": "an asset definition"
        },
        "returns": {
          "_0": "An ERC-20 address"
        }
      },
      "sponsorCapeAsset(address,(uint256,((uint256,uint256),(uint256,uint256),(uint256,uint256),uint256,uint64)))": {
        "params": {
          "erc20Address": "An ERC-20 token address",
          "newAsset": "An asset type to be registered in the contract"
        }
      },
      "submitCapeBlock(((uint256,uint256),uint8[],(uint256[],uint256[],((uint256,uint256),(uint256,uint256),(uint256,uint256),(uint256,uint256),(uint256,uint256),(uint256,uint256),(uint256,uint256),(uint256,uint256),(uint256,uint256),(uint256,uint256),(uint256,uint256),(uint256,uint256),(uint256,uint256),uint256,uint256,uint256,uint256,uint256,uint256,uint256,uint256,uint256,uint256),((uint256,uint256),uint256[]),(uint256,uint64,uint64,(uint256,uint256),bytes))[],(uint256,uint256,uint256,uint64,(uint256,((uint256,uint256),(uint256,uint256),(uint256,uint256),uint256,uint64)),uint256,((uint256,uint256),(uint256,uint256),(uint256,uint256),(uint256,uint256),(uint256,uint256),(uint256,uint256),(uint256,uint256),(uint256,uint256),(uint256,uint256),(uint256,uint256),(uint256,uint256),(uint256,uint256),(uint256,uint256),uint256,uint256,uint256,uint256,uint256,uint256,uint256,uint256,uint256,uint256),((uint256,uint256),uint256[]),(uint256,uint64,(uint256,uint256)))[],(uint256[],uint256[],((uint256,uint256),(uint256,uint256),(uint256,uint256),(uint256,uint256),(uint256,uint256),(uint256,uint256),(uint256,uint256),(uint256,uint256),(uint256,uint256),(uint256,uint256),(uint256,uint256),(uint256,uint256),(uint256,uint256),uint256,uint256,uint256,uint256,uint256,uint256,uint256,uint256,uint256,uint256),(uint256,uint64,(uint256,uint256)))[],((uint256[],uint256[],((uint256,uint256),(uint256,uint256),(uint256,uint256),(uint256,uint256),(uint256,uint256),(uint256,uint256),(uint256,uint256),(uint256,uint256),(uint256,uint256),(uint256,uint256),(uint256,uint256),(uint256,uint256),(uint256,uint256),uint256,uint256,uint256,uint256,uint256,uint256,uint256,uint256,uint256,uint256),((uint256,uint256),uint256[]),(uint256,uint64,uint64,(uint256,uint256),bytes)),(uint64,(uint256,((uint256,uint256),(uint256,uint256),(uint256,uint256),uint256,uint64)),(uint256,uint256),bytes32,bool,uint256))[]))": {
        "params": {
          "newBlock": "block to be processed by the CAPE contract."
        }
      },
      "submitCapeBlockWithMemos(((uint256,uint256),uint8[],(uint256[],uint256[],((uint256,uint256),(uint256,uint256),(uint256,uint256),(uint256,uint256),(uint256,uint256),(uint256,uint256),(uint256,uint256),(uint256,uint256),(uint256,uint256),(uint256,uint256),(uint256,uint256),(uint256,uint256),(uint256,uint256),uint256,uint256,uint256,uint256,uint256,uint256,uint256,uint256,uint256,uint256),((uint256,uint256),uint256[]),(uint256,uint64,uint64,(uint256,uint256),bytes))[],(uint256,uint256,uint256,uint64,(uint256,((uint256,uint256),(uint256,uint256),(uint256,uint256),uint256,uint64)),uint256,((uint256,uint256),(uint256,uint256),(uint256,uint256),(uint256,uint256),(uint256,uint256),(uint256,uint256),(uint256,uint256),(uint256,uint256),(uint256,uint256),(uint256,uint256),(uint256,uint256),(uint256,uint256),(uint256,uint256),uint256,uint256,uint256,uint256,uint256,uint256,uint256,uint256,uint256,uint256),((uint256,uint256),uint256[]),(uint256,uint64,(uint256,uint256)))[],(uint256[],uint256[],((uint256,uint256),(uint256,uint256),(uint256,uint256),(uint256,uint256),(uint256,uint256),(uint256,uint256),(uint256,uint256),(uint256,uint256),(uint256,uint256),(uint256,uint256),(uint256,uint256),(uint256,uint256),(uint256,uint256),uint256,uint256,uint256,uint256,uint256,uint256,uint256,uint256,uint256,uint256),(uint256,uint64,(uint256,uint256)))[],((uint256[],uint256[],((uint256,uint256),(uint256,uint256),(uint256,uint256),(uint256,uint256),(uint256,uint256),(uint256,uint256),(uint256,uint256),(uint256,uint256),(uint256,uint256),(uint256,uint256),(uint256,uint256),(uint256,uint256),(uint256,uint256),uint256,uint256,uint256,uint256,uint256,uint256,uint256,uint256,uint256,uint256),((uint256,uint256),uint256[]),(uint256,uint64,uint64,(uint256,uint256),bytes)),(uint64,(uint256,((uint256,uint256),(uint256,uint256),(uint256,uint256),uint256,uint64)),(uint256,uint256),bytes32,bool,uint256))[]),bytes)": {
        "params": {
          "extraData": "extra data to be stored in calldata, this data is ignored by the contract function.",
          "newBlock": "block to be processed by the CAPE contract."
        }
      }
    },
    "version": 1
  },
  "userdoc": {
    "kind": "user",
    "methods": {
      "constructor": {
        "notice": "CAPE contract constructor method"
      },
      "depositErc20((uint64,(uint256,((uint256,uint256),(uint256,uint256),(uint256,uint256),uint256,uint64)),(uint256,uint256),bytes32,bool,uint256),address)": {
        "notice": "allows to wrap some erc20 tokens into some CAPE asset defined in the record opening"
      },
      "faucetSetupForTestnet((uint256,uint256),bytes32)": {
        "notice": "Allocate native token faucet to a manager for testnet only"
      },
      "isCapeAssetRegistered((uint256,((uint256,uint256),(uint256,uint256),(uint256,uint256),uint256,uint64)))": {
        "notice": "Is the given asset definition registered?"
      },
      "lookup((uint256,((uint256,uint256),(uint256,uint256),(uint256,uint256),uint256,uint64)))": {
        "notice": "Fetch the ERC-20 token address corresponding to the given asset definition."
      },
      "nativeDomesticAsset()": {
        "notice": "Return the CAP-native asset definition."
      },
      "sponsorCapeAsset(address,(uint256,((uint256,uint256),(uint256,uint256),(uint256,uint256),uint256,uint64)))": {
        "notice": "Create and register a new asset type associated with an ERC-20 token. Will revert if the asset type is already registered or the ERC-20 token address is zero."
      },
      "submitCapeBlock(((uint256,uint256),uint8[],(uint256[],uint256[],((uint256,uint256),(uint256,uint256),(uint256,uint256),(uint256,uint256),(uint256,uint256),(uint256,uint256),(uint256,uint256),(uint256,uint256),(uint256,uint256),(uint256,uint256),(uint256,uint256),(uint256,uint256),(uint256,uint256),uint256,uint256,uint256,uint256,uint256,uint256,uint256,uint256,uint256,uint256),((uint256,uint256),uint256[]),(uint256,uint64,uint64,(uint256,uint256),bytes))[],(uint256,uint256,uint256,uint64,(uint256,((uint256,uint256),(uint256,uint256),(uint256,uint256),uint256,uint64)),uint256,((uint256,uint256),(uint256,uint256),(uint256,uint256),(uint256,uint256),(uint256,uint256),(uint256,uint256),(uint256,uint256),(uint256,uint256),(uint256,uint256),(uint256,uint256),(uint256,uint256),(uint256,uint256),(uint256,uint256),uint256,uint256,uint256,uint256,uint256,uint256,uint256,uint256,uint256,uint256),((uint256,uint256),uint256[]),(uint256,uint64,(uint256,uint256)))[],(uint256[],uint256[],((uint256,uint256),(uint256,uint256),(uint256,uint256),(uint256,uint256),(uint256,uint256),(uint256,uint256),(uint256,uint256),(uint256,uint256),(uint256,uint256),(uint256,uint256),(uint256,uint256),(uint256,uint256),(uint256,uint256),uint256,uint256,uint256,uint256,uint256,uint256,uint256,uint256,uint256,uint256),(uint256,uint64,(uint256,uint256)))[],((uint256[],uint256[],((uint256,uint256),(uint256,uint256),(uint256,uint256),(uint256,uint256),(uint256,uint256),(uint256,uint256),(uint256,uint256),(uint256,uint256),(uint256,uint256),(uint256,uint256),(uint256,uint256),(uint256,uint256),(uint256,uint256),uint256,uint256,uint256,uint256,uint256,uint256,uint256,uint256,uint256,uint256),((uint256,uint256),uint256[]),(uint256,uint64,uint64,(uint256,uint256),bytes)),(uint64,(uint256,((uint256,uint256),(uint256,uint256),(uint256,uint256),uint256,uint64)),(uint256,uint256),bytes32,bool,uint256))[]))": {
        "notice": "Submit a new block to the CAPE contract. Transactions are validated and the blockchain state is updated. Moreover *BURN* transactions trigger the unwrapping of cape asset records into erc20 tokens."
      },
      "submitCapeBlockWithMemos(((uint256,uint256),uint8[],(uint256[],uint256[],((uint256,uint256),(uint256,uint256),(uint256,uint256),(uint256,uint256),(uint256,uint256),(uint256,uint256),(uint256,uint256),(uint256,uint256),(uint256,uint256),(uint256,uint256),(uint256,uint256),(uint256,uint256),(uint256,uint256),uint256,uint256,uint256,uint256,uint256,uint256,uint256,uint256,uint256,uint256),((uint256,uint256),uint256[]),(uint256,uint64,uint64,(uint256,uint256),bytes))[],(uint256,uint256,uint256,uint64,(uint256,((uint256,uint256),(uint256,uint256),(uint256,uint256),uint256,uint64)),uint256,((uint256,uint256),(uint256,uint256),(uint256,uint256),(uint256,uint256),(uint256,uint256),(uint256,uint256),(uint256,uint256),(uint256,uint256),(uint256,uint256),(uint256,uint256),(uint256,uint256),(uint256,uint256),(uint256,uint256),uint256,uint256,uint256,uint256,uint256,uint256,uint256,uint256,uint256,uint256),((uint256,uint256),uint256[]),(uint256,uint64,(uint256,uint256)))[],(uint256[],uint256[],((uint256,uint256),(uint256,uint256),(uint256,uint256),(uint256,uint256),(uint256,uint256),(uint256,uint256),(uint256,uint256),(uint256,uint256),(uint256,uint256),(uint256,uint256),(uint256,uint256),(uint256,uint256),(uint256,uint256),uint256,uint256,uint256,uint256,uint256,uint256,uint256,uint256,uint256,uint256),(uint256,uint64,(uint256,uint256)))[],((uint256[],uint256[],((uint256,uint256),(uint256,uint256),(uint256,uint256),(uint256,uint256),(uint256,uint256),(uint256,uint256),(uint256,uint256),(uint256,uint256),(uint256,uint256),(uint256,uint256),(uint256,uint256),(uint256,uint256),(uint256,uint256),uint256,uint256,uint256,uint256,uint256,uint256,uint256,uint256,uint256,uint256),((uint256,uint256),uint256[]),(uint256,uint64,uint64,(uint256,uint256),bytes)),(uint64,(uint256,((uint256,uint256),(uint256,uint256),(uint256,uint256),uint256,uint64)),(uint256,uint256),bytes32,bool,uint256))[]),bytes)": {
        "notice": "Submit a new block with extra data to the CAPE contract."
      }
    },
    "version": 1
  },
  "storageLayout": {
    "storage": [
      {
        "astId": 3636,
        "contract": "contracts/CAPE.sol:CAPE",
        "label": "_rootValue",
        "offset": 0,
        "slot": "0",
        "type": "t_uint256"
      },
      {
        "astId": 3638,
        "contract": "contracts/CAPE.sol:CAPE",
        "label": "_numLeaves",
        "offset": 0,
        "slot": "1",
        "type": "t_uint64"
      },
      {
        "astId": 3640,
        "contract": "contracts/CAPE.sol:CAPE",
        "label": "_merkleTreeHeight",
        "offset": 8,
        "slot": "1",
        "type": "t_uint8"
      },
      {
        "astId": 3644,
        "contract": "contracts/CAPE.sol:CAPE",
        "label": "_flattenedFrontier",
        "offset": 0,
        "slot": "2",
        "type": "t_mapping(t_uint256,t_uint256)"
      },
      {
        "astId": 5458,
        "contract": "contracts/CAPE.sol:CAPE",
        "label": "_roots",
        "offset": 0,
        "slot": "3",
        "type": "t_array(t_uint256)dyn_storage"
      },
      {
        "astId": 5462,
        "contract": "contracts/CAPE.sol:CAPE",
        "label": "_rootsMap",
        "offset": 0,
        "slot": "4",
        "type": "t_mapping(t_uint256,t_bool)"
      },
      {
        "astId": 5464,
        "contract": "contracts/CAPE.sol:CAPE",
        "label": "_writeHead",
        "offset": 0,
        "slot": "5",
        "type": "t_uint64"
      },
      {
        "astId": 1222,
        "contract": "contracts/CAPE.sol:CAPE",
        "label": "assets",
        "offset": 0,
        "slot": "6",
        "type": "t_mapping(t_bytes32,t_address)"
      },
      {
        "astId": 10,
        "contract": "contracts/CAPE.sol:CAPE",
        "label": "_status",
        "offset": 0,
        "slot": "7",
        "type": "t_uint256"
      },
      {
        "astId": 1511,
        "contract": "contracts/CAPE.sol:CAPE",
        "label": "nullifiers",
        "offset": 0,
        "slot": "8",
        "type": "t_mapping(t_uint256,t_bool)"
      },
      {
        "astId": 1513,
        "contract": "contracts/CAPE.sol:CAPE",
        "label": "blockHeight",
        "offset": 0,
        "slot": "9",
        "type": "t_uint64"
      },
      {
        "astId": 1516,
        "contract": "contracts/CAPE.sol:CAPE",
        "label": "_verifier",
        "offset": 8,
        "slot": "9",
        "type": "t_contract(IPlonkVerifier)5731"
      },
      {
        "astId": 1519,
        "contract": "contracts/CAPE.sol:CAPE",
        "label": "pendingDeposits",
        "offset": 0,
        "slot": "10",
        "type": "t_array(t_uint256)dyn_storage"
      },
      {
        "astId": 1521,
        "contract": "contracts/CAPE.sol:CAPE",
        "label": "deployer",
        "offset": 0,
        "slot": "11",
        "type": "t_address"
      },
      {
        "astId": 1523,
        "contract": "contracts/CAPE.sol:CAPE",
        "label": "faucetInitialized",
        "offset": 20,
        "slot": "11",
        "type": "t_bool"
      }
    ],
    "types": {
      "t_address": {
        "encoding": "inplace",
        "label": "address",
        "numberOfBytes": "20"
      },
      "t_array(t_uint256)dyn_storage": {
        "base": "t_uint256",
        "encoding": "dynamic_array",
        "label": "uint256[]",
        "numberOfBytes": "32"
      },
      "t_bool": {
        "encoding": "inplace",
        "label": "bool",
        "numberOfBytes": "1"
      },
      "t_bytes32": {
        "encoding": "inplace",
        "label": "bytes32",
        "numberOfBytes": "32"
      },
      "t_contract(IPlonkVerifier)5731": {
        "encoding": "inplace",
        "label": "contract IPlonkVerifier",
        "numberOfBytes": "20"
      },
      "t_mapping(t_bytes32,t_address)": {
        "encoding": "mapping",
        "key": "t_bytes32",
        "label": "mapping(bytes32 => address)",
        "numberOfBytes": "32",
        "value": "t_address"
      },
      "t_mapping(t_uint256,t_bool)": {
        "encoding": "mapping",
        "key": "t_uint256",
        "label": "mapping(uint256 => bool)",
        "numberOfBytes": "32",
        "value": "t_bool"
      },
      "t_mapping(t_uint256,t_uint256)": {
        "encoding": "mapping",
        "key": "t_uint256",
        "label": "mapping(uint256 => uint256)",
        "numberOfBytes": "32",
        "value": "t_uint256"
      },
      "t_uint256": {
        "encoding": "inplace",
        "label": "uint256",
        "numberOfBytes": "32"
      },
      "t_uint64": {
        "encoding": "inplace",
        "label": "uint64",
        "numberOfBytes": "8"
      },
      "t_uint8": {
        "encoding": "inplace",
        "label": "uint8",
        "numberOfBytes": "1"
      }
    }
  }
}