{
  "address": "0xAc42e297B896dB2CD0c2C1b47e348b7f489E70f1",
  "abi": [
    {
      "inputs": [
        {
          "internalType": "uint64",
          "name": "nRoots",
          "type": "uint64"
        },
        {
          "internalType": "address",
          "name": "verifierAddr",
          "type": "address"
        },
        {
          "internalType": "address",
          "name": "recordsMerkleTreeAddr",
          "type": "address"
        }
      ],
      "stateMutability": "nonpayable",
      "type": "constructor"
    },
    {
      "anonymous": false,
      "inputs": [
        {
          "indexed": false,
          "internalType": "address",
          "name": "erc20Address",
          "type": "address"
        },
        {
          "indexed": false,
          "internalType": "uint256",
          "name": "assetDefinitionCode",
          "type": "uint256"
        }
      ],
      "name": "AssetSponsored",
      "type": "event"
    },
    {
      "anonymous": false,
      "inputs": [
        {
          "indexed": true,
          "internalType": "uint64",
          "name": "height",
          "type": "uint64"
        },
        {
          "indexed": false,
          "internalType": "uint256[]",
          "name": "depositCommitments",
          "type": "uint256[]"
        },
        {
          "indexed": false,
          "internalType": "bytes",
          "name": "minerAddr",
          "type": "bytes"
        },
        {
          "indexed": false,
          "internalType": "bytes",
          "name": "noteTypes",
          "type": "bytes"
        },
        {
          "indexed": false,
          "internalType": "bytes",
          "name": "transferNotes",
          "type": "bytes"
        },
        {
          "indexed": false,
          "internalType": "bytes",
          "name": "mintNotes",
          "type": "bytes"
        },
        {
          "indexed": false,
          "internalType": "bytes",
          "name": "freezeNotes",
          "type": "bytes"
        },
        {
          "indexed": false,
          "internalType": "bytes",
          "name": "burnNotes",
          "type": "bytes"
        }
      ],
      "name": "BlockCommitted",
      "type": "event"
    },
    {
      "anonymous": false,
      "inputs": [
        {
          "indexed": false,
          "internalType": "bytes",
          "name": "roBytes",
          "type": "bytes"
        },
        {
          "indexed": false,
          "internalType": "address",
          "name": "erc20TokenAddress",
          "type": "address"
        },
        {
          "indexed": false,
          "internalType": "address",
          "name": "from",
          "type": "address"
        }
      ],
      "name": "Erc20TokensDeposited",
      "type": "event"
    },
    {
      "anonymous": false,
      "inputs": [
        {
          "indexed": false,
          "internalType": "bytes",
          "name": "roBytes",
          "type": "bytes"
        }
      ],
      "name": "FaucetInitialized",
      "type": "event"
    },
    {
      "inputs": [],
      "name": "CAPE_BURN_MAGIC_BYTES",
      "outputs": [
        {
          "internalType": "bytes",
          "name": "",
          "type": "bytes"
        }
      ],
      "stateMutability": "view",
      "type": "function"
    },
    {
      "inputs": [],
      "name": "CAPE_BURN_MAGIC_BYTES_SIZE",
      "outputs": [
        {
          "internalType": "uint256",
          "name": "",
          "type": "uint256"
        }
      ],
      "stateMutability": "view",
      "type": "function"
    },
    {
      "inputs": [],
      "name": "CAP_NATIVE_ASSET_CODE",
      "outputs": [
        {
          "internalType": "uint256",
          "name": "",
          "type": "uint256"
        }
      ],
      "stateMutability": "view",
      "type": "function"
    },
    {
      "inputs": [],
      "name": "DOM_SEP_DOMESTIC_ASSET",
      "outputs": [
        {
          "internalType": "bytes14",
          "name": "",
          "type": "bytes14"
        }
      ],
      "stateMutability": "view",
      "type": "function"
    },
    {
      "inputs": [],
      "name": "DOM_SEP_FOREIGN_ASSET",
      "outputs": [
        {
          "internalType": "bytes13",
          "name": "",
          "type": "bytes13"
        }
      ],
      "stateMutability": "view",
      "type": "function"
    },
    {
      "inputs": [],
      "name": "MAX_NUM_PENDING_DEPOSIT",
      "outputs": [
        {
          "internalType": "uint256",
          "name": "",
          "type": "uint256"
        }
      ],
      "stateMutability": "view",
      "type": "function"
    },
    {
      "inputs": [
        {
          "internalType": "bytes32",
          "name": "",
          "type": "bytes32"
        }
      ],
      "name": "assets",
      "outputs": [
        {
          "internalType": "address",
          "name": "",
          "type": "address"
        }
      ],
      "stateMutability": "view",
      "type": "function"
    },
    {
      "inputs": [],
      "name": "blockHeight",
      "outputs": [
        {
          "internalType": "uint64",
          "name": "",
          "type": "uint64"
        }
      ],
      "stateMutability": "view",
      "type": "function"
    },
    {
      "inputs": [],
      "name": "deployer",
      "outputs": [
        {
          "internalType": "address",
          "name": "",
          "type": "address"
        }
      ],
      "stateMutability": "view",
      "type": "function"
    },
    {
      "inputs": [
        {
          "components": [
            {
              "internalType": "uint128",
              "name": "amount",
              "type": "uint128"
            },
            {
              "components": [
                {
                  "internalType": "uint256",
                  "name": "code",
                  "type": "uint256"
                },
                {
                  "components": [
                    {
                      "components": [
                        {
                          "internalType": "uint256",
                          "name": "x",
                          "type": "uint256"
                        },
                        {
                          "internalType": "uint256",
                          "name": "y",
                          "type": "uint256"
                        }
                      ],
                      "internalType": "struct EdOnBN254.EdOnBN254Point",
                      "name": "auditorPk",
                      "type": "tuple"
                    },
                    {
                      "components": [
                        {
                          "internalType": "uint256",
                          "name": "x",
                          "type": "uint256"
                        },
                        {
                          "internalType": "uint256",
                          "name": "y",
                          "type": "uint256"
                        }
                      ],
                      "internalType": "struct EdOnBN254.EdOnBN254Point",
                      "name": "credPk",
                      "type": "tuple"
                    },
                    {
                      "components": [
                        {
                          "internalType": "uint256",
                          "name": "x",
                          "type": "uint256"
                        },
                        {
                          "internalType": "uint256",
                          "name": "y",
                          "type": "uint256"
                        }
                      ],
                      "internalType": "struct EdOnBN254.EdOnBN254Point",
                      "name": "freezerPk",
                      "type": "tuple"
                    },
                    {
                      "internalType": "uint256",
                      "name": "revealMap",
                      "type": "uint256"
                    },
                    {
                      "internalType": "uint128",
                      "name": "revealThreshold",
                      "type": "uint128"
                    }
                  ],
                  "internalType": "struct AssetRegistry.AssetPolicy",
                  "name": "policy",
                  "type": "tuple"
                }
              ],
              "internalType": "struct AssetRegistry.AssetDefinition",
              "name": "assetDef",
              "type": "tuple"
            },
            {
              "components": [
                {
                  "internalType": "uint256",
                  "name": "x",
                  "type": "uint256"
                },
                {
                  "internalType": "uint256",
                  "name": "y",
                  "type": "uint256"
                }
              ],
              "internalType": "struct EdOnBN254.EdOnBN254Point",
              "name": "userAddr",
              "type": "tuple"
            },
            {
              "internalType": "bytes32",
              "name": "encKey",
              "type": "bytes32"
            },
            {
              "internalType": "bool",
              "name": "freezeFlag",
              "type": "bool"
            },
            {
              "internalType": "uint256",
              "name": "blind",
              "type": "uint256"
            }
          ],
          "internalType": "struct CAPE.RecordOpening",
          "name": "ro",
          "type": "tuple"
        },
        {
          "internalType": "address",
          "name": "erc20Address",
          "type": "address"
        }
      ],
      "name": "depositErc20",
      "outputs": [],
      "stateMutability": "nonpayable",
      "type": "function"
    },
    {
      "inputs": [],
      "name": "faucetInitialized",
      "outputs": [
        {
          "internalType": "bool",
          "name": "",
          "type": "bool"
        }
      ],
      "stateMutability": "view",
      "type": "function"
    },
    {
      "inputs": [
        {
          "components": [
            {
              "internalType": "uint256",
              "name": "x",
              "type": "uint256"
            },
            {
              "internalType": "uint256",
              "name": "y",
              "type": "uint256"
            }
          ],
          "internalType": "struct EdOnBN254.EdOnBN254Point",
          "name": "faucetManagerAddress",
          "type": "tuple"
        },
        {
          "internalType": "bytes32",
          "name": "faucetManagerEncKey",
          "type": "bytes32"
        }
      ],
      "name": "faucetSetupForTestnet",
      "outputs": [],
      "stateMutability": "nonpayable",
      "type": "function"
    },
    {
      "inputs": [],
      "name": "getRootValue",
      "outputs": [
        {
          "internalType": "uint256",
          "name": "",
          "type": "uint256"
        }
      ],
      "stateMutability": "view",
      "type": "function"
    },
    {
      "inputs": [
        {
          "components": [
            {
              "internalType": "uint256",
              "name": "code",
              "type": "uint256"
            },
            {
              "components": [
                {
                  "components": [
                    {
                      "internalType": "uint256",
                      "name": "x",
                      "type": "uint256"
                    },
                    {
                      "internalType": "uint256",
                      "name": "y",
                      "type": "uint256"
                    }
                  ],
                  "internalType": "struct EdOnBN254.EdOnBN254Point",
                  "name": "auditorPk",
                  "type": "tuple"
                },
                {
                  "components": [
                    {
                      "internalType": "uint256",
                      "name": "x",
                      "type": "uint256"
                    },
                    {
                      "internalType": "uint256",
                      "name": "y",
                      "type": "uint256"
                    }
                  ],
                  "internalType": "struct EdOnBN254.EdOnBN254Point",
                  "name": "credPk",
                  "type": "tuple"
                },
                {
                  "components": [
                    {
                      "internalType": "uint256",
                      "name": "x",
                      "type": "uint256"
                    },
                    {
                      "internalType": "uint256",
                      "name": "y",
                      "type": "uint256"
                    }
                  ],
                  "internalType": "struct EdOnBN254.EdOnBN254Point",
                  "name": "freezerPk",
                  "type": "tuple"
                },
                {
                  "internalType": "uint256",
                  "name": "revealMap",
                  "type": "uint256"
                },
                {
                  "internalType": "uint128",
                  "name": "revealThreshold",
                  "type": "uint128"
                }
              ],
              "internalType": "struct AssetRegistry.AssetPolicy",
              "name": "policy",
              "type": "tuple"
            }
          ],
          "internalType": "struct AssetRegistry.AssetDefinition",
          "name": "assetDefinition",
          "type": "tuple"
        }
      ],
      "name": "isCapeAssetRegistered",
      "outputs": [
        {
          "internalType": "bool",
          "name": "",
          "type": "bool"
        }
      ],
      "stateMutability": "view",
      "type": "function"
    },
    {
      "inputs": [
        {
          "components": [
            {
              "internalType": "uint256",
              "name": "code",
              "type": "uint256"
            },
            {
              "components": [
                {
                  "components": [
                    {
                      "internalType": "uint256",
                      "name": "x",
                      "type": "uint256"
                    },
                    {
                      "internalType": "uint256",
                      "name": "y",
                      "type": "uint256"
                    }
                  ],
                  "internalType": "struct EdOnBN254.EdOnBN254Point",
                  "name": "auditorPk",
                  "type": "tuple"
                },
                {
                  "components": [
                    {
                      "internalType": "uint256",
                      "name": "x",
                      "type": "uint256"
                    },
                    {
                      "internalType": "uint256",
                      "name": "y",
                      "type": "uint256"
                    }
                  ],
                  "internalType": "struct EdOnBN254.EdOnBN254Point",
                  "name": "credPk",
                  "type": "tuple"
                },
                {
                  "components": [
                    {
                      "internalType": "uint256",
                      "name": "x",
                      "type": "uint256"
                    },
                    {
                      "internalType": "uint256",
                      "name": "y",
                      "type": "uint256"
                    }
                  ],
                  "internalType": "struct EdOnBN254.EdOnBN254Point",
                  "name": "freezerPk",
                  "type": "tuple"
                },
                {
                  "internalType": "uint256",
                  "name": "revealMap",
                  "type": "uint256"
                },
                {
                  "internalType": "uint128",
                  "name": "revealThreshold",
                  "type": "uint128"
                }
              ],
              "internalType": "struct AssetRegistry.AssetPolicy",
              "name": "policy",
              "type": "tuple"
            }
          ],
          "internalType": "struct AssetRegistry.AssetDefinition",
          "name": "assetDefinition",
          "type": "tuple"
        }
      ],
      "name": "lookup",
      "outputs": [
        {
          "internalType": "address",
          "name": "",
          "type": "address"
        }
      ],
      "stateMutability": "view",
      "type": "function"
    },
    {
      "inputs": [],
      "name": "nativeDomesticAsset",
      "outputs": [
        {
          "components": [
            {
              "internalType": "uint256",
              "name": "code",
              "type": "uint256"
            },
            {
              "components": [
                {
                  "components": [
                    {
                      "internalType": "uint256",
                      "name": "x",
                      "type": "uint256"
                    },
                    {
                      "internalType": "uint256",
                      "name": "y",
                      "type": "uint256"
                    }
                  ],
                  "internalType": "struct EdOnBN254.EdOnBN254Point",
                  "name": "auditorPk",
                  "type": "tuple"
                },
                {
                  "components": [
                    {
                      "internalType": "uint256",
                      "name": "x",
                      "type": "uint256"
                    },
                    {
                      "internalType": "uint256",
                      "name": "y",
                      "type": "uint256"
                    }
                  ],
                  "internalType": "struct EdOnBN254.EdOnBN254Point",
                  "name": "credPk",
                  "type": "tuple"
                },
                {
                  "components": [
                    {
                      "internalType": "uint256",
                      "name": "x",
                      "type": "uint256"
                    },
                    {
                      "internalType": "uint256",
                      "name": "y",
                      "type": "uint256"
                    }
                  ],
                  "internalType": "struct EdOnBN254.EdOnBN254Point",
                  "name": "freezerPk",
                  "type": "tuple"
                },
                {
                  "internalType": "uint256",
                  "name": "revealMap",
                  "type": "uint256"
                },
                {
                  "internalType": "uint128",
                  "name": "revealThreshold",
                  "type": "uint128"
                }
              ],
              "internalType": "struct AssetRegistry.AssetPolicy",
              "name": "policy",
              "type": "tuple"
            }
          ],
          "internalType": "struct AssetRegistry.AssetDefinition",
          "name": "assetDefinition",
          "type": "tuple"
        }
      ],
      "stateMutability": "pure",
      "type": "function"
    },
    {
      "inputs": [
        {
          "internalType": "uint256",
          "name": "",
          "type": "uint256"
        }
      ],
      "name": "nullifiers",
      "outputs": [
        {
          "internalType": "bool",
          "name": "",
          "type": "bool"
        }
      ],
      "stateMutability": "view",
      "type": "function"
    },
    {
      "inputs": [
        {
          "internalType": "uint256",
          "name": "",
          "type": "uint256"
        }
      ],
      "name": "pendingDeposits",
      "outputs": [
        {
          "internalType": "uint256",
          "name": "",
          "type": "uint256"
        }
      ],
      "stateMutability": "view",
      "type": "function"
    },
    {
      "inputs": [
        {
          "internalType": "address",
          "name": "erc20Address",
          "type": "address"
        },
        {
          "components": [
            {
              "internalType": "uint256",
              "name": "code",
              "type": "uint256"
            },
            {
              "components": [
                {
                  "components": [
                    {
                      "internalType": "uint256",
                      "name": "x",
                      "type": "uint256"
                    },
                    {
                      "internalType": "uint256",
                      "name": "y",
                      "type": "uint256"
                    }
                  ],
                  "internalType": "struct EdOnBN254.EdOnBN254Point",
                  "name": "auditorPk",
                  "type": "tuple"
                },
                {
                  "components": [
                    {
                      "internalType": "uint256",
                      "name": "x",
                      "type": "uint256"
                    },
                    {
                      "internalType": "uint256",
                      "name": "y",
                      "type": "uint256"
                    }
                  ],
                  "internalType": "struct EdOnBN254.EdOnBN254Point",
                  "name": "credPk",
                  "type": "tuple"
                },
                {
                  "components": [
                    {
                      "internalType": "uint256",
                      "name": "x",
                      "type": "uint256"
                    },
                    {
                      "internalType": "uint256",
                      "name": "y",
                      "type": "uint256"
                    }
                  ],
                  "internalType": "struct EdOnBN254.EdOnBN254Point",
                  "name": "freezerPk",
                  "type": "tuple"
                },
                {
                  "internalType": "uint256",
                  "name": "revealMap",
                  "type": "uint256"
                },
                {
                  "internalType": "uint128",
                  "name": "revealThreshold",
                  "type": "uint128"
                }
              ],
              "internalType": "struct AssetRegistry.AssetPolicy",
              "name": "policy",
              "type": "tuple"
            }
          ],
          "internalType": "struct AssetRegistry.AssetDefinition",
          "name": "newAsset",
          "type": "tuple"
        }
      ],
      "name": "sponsorCapeAsset",
      "outputs": [],
      "stateMutability": "nonpayable",
      "type": "function"
    },
    {
      "inputs": [
        {
          "components": [
            {
              "components": [
                {
                  "internalType": "uint256",
                  "name": "x",
                  "type": "uint256"
                },
                {
                  "internalType": "uint256",
                  "name": "y",
                  "type": "uint256"
                }
              ],
              "internalType": "struct EdOnBN254.EdOnBN254Point",
              "name": "minerAddr",
              "type": "tuple"
            },
            {
              "internalType": "enum CAPE.NoteType[]",
              "name": "noteTypes",
              "type": "uint8[]"
            },
            {
              "components": [
                {
                  "internalType": "uint256[]",
                  "name": "inputNullifiers",
                  "type": "uint256[]"
                },
                {
                  "internalType": "uint256[]",
                  "name": "outputCommitments",
                  "type": "uint256[]"
                },
                {
                  "components": [
                    {
                      "components": [
                        {
                          "internalType": "uint256",
                          "name": "x",
                          "type": "uint256"
                        },
                        {
                          "internalType": "uint256",
                          "name": "y",
                          "type": "uint256"
                        }
                      ],
                      "internalType": "struct BN254.G1Point",
                      "name": "wire0",
                      "type": "tuple"
                    },
                    {
                      "components": [
                        {
                          "internalType": "uint256",
                          "name": "x",
                          "type": "uint256"
                        },
                        {
                          "internalType": "uint256",
                          "name": "y",
                          "type": "uint256"
                        }
                      ],
                      "internalType": "struct BN254.G1Point",
                      "name": "wire1",
                      "type": "tuple"
                    },
                    {
                      "components": [
                        {
                          "internalType": "uint256",
                          "name": "x",
                          "type": "uint256"
                        },
                        {
                          "internalType": "uint256",
                          "name": "y",
                          "type": "uint256"
                        }
                      ],
                      "internalType": "struct BN254.G1Point",
                      "name": "wire2",
                      "type": "tuple"
                    },
                    {
                      "components": [
                        {
                          "internalType": "uint256",
                          "name": "x",
                          "type": "uint256"
                        },
                        {
                          "internalType": "uint256",
                          "name": "y",
                          "type": "uint256"
                        }
                      ],
                      "internalType": "struct BN254.G1Point",
                      "name": "wire3",
                      "type": "tuple"
                    },
                    {
                      "components": [
                        {
                          "internalType": "uint256",
                          "name": "x",
                          "type": "uint256"
                        },
                        {
                          "internalType": "uint256",
                          "name": "y",
                          "type": "uint256"
                        }
                      ],
                      "internalType": "struct BN254.G1Point",
                      "name": "wire4",
                      "type": "tuple"
                    },
                    {
                      "components": [
                        {
                          "internalType": "uint256",
                          "name": "x",
                          "type": "uint256"
                        },
                        {
                          "internalType": "uint256",
                          "name": "y",
                          "type": "uint256"
                        }
                      ],
                      "internalType": "struct BN254.G1Point",
                      "name": "prodPerm",
                      "type": "tuple"
                    },
                    {
                      "components": [
                        {
                          "internalType": "uint256",
                          "name": "x",
                          "type": "uint256"
                        },
                        {
                          "internalType": "uint256",
                          "name": "y",
                          "type": "uint256"
                        }
                      ],
                      "internalType": "struct BN254.G1Point",
                      "name": "split0",
                      "type": "tuple"
                    },
                    {
                      "components": [
                        {
                          "internalType": "uint256",
                          "name": "x",
                          "type": "uint256"
                        },
                        {
                          "internalType": "uint256",
                          "name": "y",
                          "type": "uint256"
                        }
                      ],
                      "internalType": "struct BN254.G1Point",
                      "name": "split1",
                      "type": "tuple"
                    },
                    {
                      "components": [
                        {
                          "internalType": "uint256",
                          "name": "x",
                          "type": "uint256"
                        },
                        {
                          "internalType": "uint256",
                          "name": "y",
                          "type": "uint256"
                        }
                      ],
                      "internalType": "struct BN254.G1Point",
                      "name": "split2",
                      "type": "tuple"
                    },
                    {
                      "components": [
                        {
                          "internalType": "uint256",
                          "name": "x",
                          "type": "uint256"
                        },
                        {
                          "internalType": "uint256",
                          "name": "y",
                          "type": "uint256"
                        }
                      ],
                      "internalType": "struct BN254.G1Point",
                      "name": "split3",
                      "type": "tuple"
                    },
                    {
                      "components": [
                        {
                          "internalType": "uint256",
                          "name": "x",
                          "type": "uint256"
                        },
                        {
                          "internalType": "uint256",
                          "name": "y",
                          "type": "uint256"
                        }
                      ],
                      "internalType": "struct BN254.G1Point",
                      "name": "split4",
                      "type": "tuple"
                    },
                    {
                      "components": [
                        {
                          "internalType": "uint256",
                          "name": "x",
                          "type": "uint256"
                        },
                        {
                          "internalType": "uint256",
                          "name": "y",
                          "type": "uint256"
                        }
                      ],
                      "internalType": "struct BN254.G1Point",
                      "name": "zeta",
                      "type": "tuple"
                    },
                    {
                      "components": [
                        {
                          "internalType": "uint256",
                          "name": "x",
                          "type": "uint256"
                        },
                        {
                          "internalType": "uint256",
                          "name": "y",
                          "type": "uint256"
                        }
                      ],
                      "internalType": "struct BN254.G1Point",
                      "name": "zetaOmega",
                      "type": "tuple"
                    },
                    {
                      "internalType": "uint256",
                      "name": "wireEval0",
                      "type": "uint256"
                    },
                    {
                      "internalType": "uint256",
                      "name": "wireEval1",
                      "type": "uint256"
                    },
                    {
                      "internalType": "uint256",
                      "name": "wireEval2",
                      "type": "uint256"
                    },
                    {
                      "internalType": "uint256",
                      "name": "wireEval3",
                      "type": "uint256"
                    },
                    {
                      "internalType": "uint256",
                      "name": "wireEval4",
                      "type": "uint256"
                    },
                    {
                      "internalType": "uint256",
                      "name": "sigmaEval0",
                      "type": "uint256"
                    },
                    {
                      "internalType": "uint256",
                      "name": "sigmaEval1",
                      "type": "uint256"
                    },
                    {
                      "internalType": "uint256",
                      "name": "sigmaEval2",
                      "type": "uint256"
                    },
                    {
                      "internalType": "uint256",
                      "name": "sigmaEval3",
                      "type": "uint256"
                    },
                    {
                      "internalType": "uint256",
                      "name": "prodPermZetaOmegaEval",
                      "type": "uint256"
                    }
                  ],
                  "internalType": "struct IPlonkVerifier.PlonkProof",
                  "name": "proof",
                  "type": "tuple"
                },
                {
                  "components": [
                    {
                      "components": [
                        {
                          "internalType": "uint256",
                          "name": "x",
                          "type": "uint256"
                        },
                        {
                          "internalType": "uint256",
                          "name": "y",
                          "type": "uint256"
                        }
                      ],
                      "internalType": "struct EdOnBN254.EdOnBN254Point",
                      "name": "ephemeralKey",
                      "type": "tuple"
                    },
                    {
                      "internalType": "uint256[]",
                      "name": "data",
                      "type": "uint256[]"
                    }
                  ],
                  "internalType": "struct CAPE.AuditMemo",
                  "name": "auditMemo",
                  "type": "tuple"
                },
                {
                  "components": [
                    {
                      "internalType": "uint256",
                      "name": "merkleRoot",
                      "type": "uint256"
                    },
                    {
                      "internalType": "uint128",
                      "name": "fee",
                      "type": "uint128"
                    },
                    {
                      "internalType": "uint64",
                      "name": "validUntil",
                      "type": "uint64"
                    },
                    {
                      "components": [
                        {
                          "internalType": "uint256",
                          "name": "x",
                          "type": "uint256"
                        },
                        {
                          "internalType": "uint256",
                          "name": "y",
                          "type": "uint256"
                        }
                      ],
                      "internalType": "struct EdOnBN254.EdOnBN254Point",
                      "name": "txnMemoVerKey",
                      "type": "tuple"
                    },
                    {
                      "internalType": "bytes",
                      "name": "extraProofBoundData",
                      "type": "bytes"
                    }
                  ],
                  "internalType": "struct CAPE.TransferAuxInfo",
                  "name": "auxInfo",
                  "type": "tuple"
                }
              ],
              "internalType": "struct CAPE.TransferNote[]",
              "name": "transferNotes",
              "type": "tuple[]"
            },
            {
              "components": [
                {
                  "internalType": "uint256",
                  "name": "inputNullifier",
                  "type": "uint256"
                },
                {
                  "internalType": "uint256",
                  "name": "chgComm",
                  "type": "uint256"
                },
                {
                  "internalType": "uint256",
                  "name": "mintComm",
                  "type": "uint256"
                },
                {
                  "internalType": "uint128",
                  "name": "mintAmount",
                  "type": "uint128"
                },
                {
                  "components": [
                    {
                      "internalType": "uint256",
                      "name": "code",
                      "type": "uint256"
                    },
                    {
                      "components": [
                        {
                          "components": [
                            {
                              "internalType": "uint256",
                              "name": "x",
                              "type": "uint256"
                            },
                            {
                              "internalType": "uint256",
                              "name": "y",
                              "type": "uint256"
                            }
                          ],
                          "internalType": "struct EdOnBN254.EdOnBN254Point",
                          "name": "auditorPk",
                          "type": "tuple"
                        },
                        {
                          "components": [
                            {
                              "internalType": "uint256",
                              "name": "x",
                              "type": "uint256"
                            },
                            {
                              "internalType": "uint256",
                              "name": "y",
                              "type": "uint256"
                            }
                          ],
                          "internalType": "struct EdOnBN254.EdOnBN254Point",
                          "name": "credPk",
                          "type": "tuple"
                        },
                        {
                          "components": [
                            {
                              "internalType": "uint256",
                              "name": "x",
                              "type": "uint256"
                            },
                            {
                              "internalType": "uint256",
                              "name": "y",
                              "type": "uint256"
                            }
                          ],
                          "internalType": "struct EdOnBN254.EdOnBN254Point",
                          "name": "freezerPk",
                          "type": "tuple"
                        },
                        {
                          "internalType": "uint256",
                          "name": "revealMap",
                          "type": "uint256"
                        },
                        {
                          "internalType": "uint128",
                          "name": "revealThreshold",
                          "type": "uint128"
                        }
                      ],
                      "internalType": "struct AssetRegistry.AssetPolicy",
                      "name": "policy",
                      "type": "tuple"
                    }
                  ],
                  "internalType": "struct AssetRegistry.AssetDefinition",
                  "name": "mintAssetDef",
                  "type": "tuple"
                },
                {
                  "internalType": "uint256",
                  "name": "mintInternalAssetCode",
                  "type": "uint256"
                },
                {
                  "components": [
                    {
                      "components": [
                        {
                          "internalType": "uint256",
                          "name": "x",
                          "type": "uint256"
                        },
                        {
                          "internalType": "uint256",
                          "name": "y",
                          "type": "uint256"
                        }
                      ],
                      "internalType": "struct BN254.G1Point",
                      "name": "wire0",
                      "type": "tuple"
                    },
                    {
                      "components": [
                        {
                          "internalType": "uint256",
                          "name": "x",
                          "type": "uint256"
                        },
                        {
                          "internalType": "uint256",
                          "name": "y",
                          "type": "uint256"
                        }
                      ],
                      "internalType": "struct BN254.G1Point",
                      "name": "wire1",
                      "type": "tuple"
                    },
                    {
                      "components": [
                        {
                          "internalType": "uint256",
                          "name": "x",
                          "type": "uint256"
                        },
                        {
                          "internalType": "uint256",
                          "name": "y",
                          "type": "uint256"
                        }
                      ],
                      "internalType": "struct BN254.G1Point",
                      "name": "wire2",
                      "type": "tuple"
                    },
                    {
                      "components": [
                        {
                          "internalType": "uint256",
                          "name": "x",
                          "type": "uint256"
                        },
                        {
                          "internalType": "uint256",
                          "name": "y",
                          "type": "uint256"
                        }
                      ],
                      "internalType": "struct BN254.G1Point",
                      "name": "wire3",
                      "type": "tuple"
                    },
                    {
                      "components": [
                        {
                          "internalType": "uint256",
                          "name": "x",
                          "type": "uint256"
                        },
                        {
                          "internalType": "uint256",
                          "name": "y",
                          "type": "uint256"
                        }
                      ],
                      "internalType": "struct BN254.G1Point",
                      "name": "wire4",
                      "type": "tuple"
                    },
                    {
                      "components": [
                        {
                          "internalType": "uint256",
                          "name": "x",
                          "type": "uint256"
                        },
                        {
                          "internalType": "uint256",
                          "name": "y",
                          "type": "uint256"
                        }
                      ],
                      "internalType": "struct BN254.G1Point",
                      "name": "prodPerm",
                      "type": "tuple"
                    },
                    {
                      "components": [
                        {
                          "internalType": "uint256",
                          "name": "x",
                          "type": "uint256"
                        },
                        {
                          "internalType": "uint256",
                          "name": "y",
                          "type": "uint256"
                        }
                      ],
                      "internalType": "struct BN254.G1Point",
                      "name": "split0",
                      "type": "tuple"
                    },
                    {
                      "components": [
                        {
                          "internalType": "uint256",
                          "name": "x",
                          "type": "uint256"
                        },
                        {
                          "internalType": "uint256",
                          "name": "y",
                          "type": "uint256"
                        }
                      ],
                      "internalType": "struct BN254.G1Point",
                      "name": "split1",
                      "type": "tuple"
                    },
                    {
                      "components": [
                        {
                          "internalType": "uint256",
                          "name": "x",
                          "type": "uint256"
                        },
                        {
                          "internalType": "uint256",
                          "name": "y",
                          "type": "uint256"
                        }
                      ],
                      "internalType": "struct BN254.G1Point",
                      "name": "split2",
                      "type": "tuple"
                    },
                    {
                      "components": [
                        {
                          "internalType": "uint256",
                          "name": "x",
                          "type": "uint256"
                        },
                        {
                          "internalType": "uint256",
                          "name": "y",
                          "type": "uint256"
                        }
                      ],
                      "internalType": "struct BN254.G1Point",
                      "name": "split3",
                      "type": "tuple"
                    },
                    {
                      "components": [
                        {
                          "internalType": "uint256",
                          "name": "x",
                          "type": "uint256"
                        },
                        {
                          "internalType": "uint256",
                          "name": "y",
                          "type": "uint256"
                        }
                      ],
                      "internalType": "struct BN254.G1Point",
                      "name": "split4",
                      "type": "tuple"
                    },
                    {
                      "components": [
                        {
                          "internalType": "uint256",
                          "name": "x",
                          "type": "uint256"
                        },
                        {
                          "internalType": "uint256",
                          "name": "y",
                          "type": "uint256"
                        }
                      ],
                      "internalType": "struct BN254.G1Point",
                      "name": "zeta",
                      "type": "tuple"
                    },
                    {
                      "components": [
                        {
                          "internalType": "uint256",
                          "name": "x",
                          "type": "uint256"
                        },
                        {
                          "internalType": "uint256",
                          "name": "y",
                          "type": "uint256"
                        }
                      ],
                      "internalType": "struct BN254.G1Point",
                      "name": "zetaOmega",
                      "type": "tuple"
                    },
                    {
                      "internalType": "uint256",
                      "name": "wireEval0",
                      "type": "uint256"
                    },
                    {
                      "internalType": "uint256",
                      "name": "wireEval1",
                      "type": "uint256"
                    },
                    {
                      "internalType": "uint256",
                      "name": "wireEval2",
                      "type": "uint256"
                    },
                    {
                      "internalType": "uint256",
                      "name": "wireEval3",
                      "type": "uint256"
                    },
                    {
                      "internalType": "uint256",
                      "name": "wireEval4",
                      "type": "uint256"
                    },
                    {
                      "internalType": "uint256",
                      "name": "sigmaEval0",
                      "type": "uint256"
                    },
                    {
                      "internalType": "uint256",
                      "name": "sigmaEval1",
                      "type": "uint256"
                    },
                    {
                      "internalType": "uint256",
                      "name": "sigmaEval2",
                      "type": "uint256"
                    },
                    {
                      "internalType": "uint256",
                      "name": "sigmaEval3",
                      "type": "uint256"
                    },
                    {
                      "internalType": "uint256",
                      "name": "prodPermZetaOmegaEval",
                      "type": "uint256"
                    }
                  ],
                  "internalType": "struct IPlonkVerifier.PlonkProof",
                  "name": "proof",
                  "type": "tuple"
                },
                {
                  "components": [
                    {
                      "components": [
                        {
                          "internalType": "uint256",
                          "name": "x",
                          "type": "uint256"
                        },
                        {
                          "internalType": "uint256",
                          "name": "y",
                          "type": "uint256"
                        }
                      ],
                      "internalType": "struct EdOnBN254.EdOnBN254Point",
                      "name": "ephemeralKey",
                      "type": "tuple"
                    },
                    {
                      "internalType": "uint256[]",
                      "name": "data",
                      "type": "uint256[]"
                    }
                  ],
                  "internalType": "struct CAPE.AuditMemo",
                  "name": "auditMemo",
                  "type": "tuple"
                },
                {
                  "components": [
                    {
                      "internalType": "uint256",
                      "name": "merkleRoot",
                      "type": "uint256"
                    },
                    {
                      "internalType": "uint128",
                      "name": "fee",
                      "type": "uint128"
                    },
                    {
                      "components": [
                        {
                          "internalType": "uint256",
                          "name": "x",
                          "type": "uint256"
                        },
                        {
                          "internalType": "uint256",
                          "name": "y",
                          "type": "uint256"
                        }
                      ],
                      "internalType": "struct EdOnBN254.EdOnBN254Point",
                      "name": "txnMemoVerKey",
                      "type": "tuple"
                    }
                  ],
                  "internalType": "struct CAPE.MintAuxInfo",
                  "name": "auxInfo",
                  "type": "tuple"
                }
              ],
              "internalType": "struct CAPE.MintNote[]",
              "name": "mintNotes",
              "type": "tuple[]"
            },
            {
              "components": [
                {
                  "internalType": "uint256[]",
                  "name": "inputNullifiers",
                  "type": "uint256[]"
                },
                {
                  "internalType": "uint256[]",
                  "name": "outputCommitments",
                  "type": "uint256[]"
                },
                {
                  "components": [
                    {
                      "components": [
                        {
                          "internalType": "uint256",
                          "name": "x",
                          "type": "uint256"
                        },
                        {
                          "internalType": "uint256",
                          "name": "y",
                          "type": "uint256"
                        }
                      ],
                      "internalType": "struct BN254.G1Point",
                      "name": "wire0",
                      "type": "tuple"
                    },
                    {
                      "components": [
                        {
                          "internalType": "uint256",
                          "name": "x",
                          "type": "uint256"
                        },
                        {
                          "internalType": "uint256",
                          "name": "y",
                          "type": "uint256"
                        }
                      ],
                      "internalType": "struct BN254.G1Point",
                      "name": "wire1",
                      "type": "tuple"
                    },
                    {
                      "components": [
                        {
                          "internalType": "uint256",
                          "name": "x",
                          "type": "uint256"
                        },
                        {
                          "internalType": "uint256",
                          "name": "y",
                          "type": "uint256"
                        }
                      ],
                      "internalType": "struct BN254.G1Point",
                      "name": "wire2",
                      "type": "tuple"
                    },
                    {
                      "components": [
                        {
                          "internalType": "uint256",
                          "name": "x",
                          "type": "uint256"
                        },
                        {
                          "internalType": "uint256",
                          "name": "y",
                          "type": "uint256"
                        }
                      ],
                      "internalType": "struct BN254.G1Point",
                      "name": "wire3",
                      "type": "tuple"
                    },
                    {
                      "components": [
                        {
                          "internalType": "uint256",
                          "name": "x",
                          "type": "uint256"
                        },
                        {
                          "internalType": "uint256",
                          "name": "y",
                          "type": "uint256"
                        }
                      ],
                      "internalType": "struct BN254.G1Point",
                      "name": "wire4",
                      "type": "tuple"
                    },
                    {
                      "components": [
                        {
                          "internalType": "uint256",
                          "name": "x",
                          "type": "uint256"
                        },
                        {
                          "internalType": "uint256",
                          "name": "y",
                          "type": "uint256"
                        }
                      ],
                      "internalType": "struct BN254.G1Point",
                      "name": "prodPerm",
                      "type": "tuple"
                    },
                    {
                      "components": [
                        {
                          "internalType": "uint256",
                          "name": "x",
                          "type": "uint256"
                        },
                        {
                          "internalType": "uint256",
                          "name": "y",
                          "type": "uint256"
                        }
                      ],
                      "internalType": "struct BN254.G1Point",
                      "name": "split0",
                      "type": "tuple"
                    },
                    {
                      "components": [
                        {
                          "internalType": "uint256",
                          "name": "x",
                          "type": "uint256"
                        },
                        {
                          "internalType": "uint256",
                          "name": "y",
                          "type": "uint256"
                        }
                      ],
                      "internalType": "struct BN254.G1Point",
                      "name": "split1",
                      "type": "tuple"
                    },
                    {
                      "components": [
                        {
                          "internalType": "uint256",
                          "name": "x",
                          "type": "uint256"
                        },
                        {
                          "internalType": "uint256",
                          "name": "y",
                          "type": "uint256"
                        }
                      ],
                      "internalType": "struct BN254.G1Point",
                      "name": "split2",
                      "type": "tuple"
                    },
                    {
                      "components": [
                        {
                          "internalType": "uint256",
                          "name": "x",
                          "type": "uint256"
                        },
                        {
                          "internalType": "uint256",
                          "name": "y",
                          "type": "uint256"
                        }
                      ],
                      "internalType": "struct BN254.G1Point",
                      "name": "split3",
                      "type": "tuple"
                    },
                    {
                      "components": [
                        {
                          "internalType": "uint256",
                          "name": "x",
                          "type": "uint256"
                        },
                        {
                          "internalType": "uint256",
                          "name": "y",
                          "type": "uint256"
                        }
                      ],
                      "internalType": "struct BN254.G1Point",
                      "name": "split4",
                      "type": "tuple"
                    },
                    {
                      "components": [
                        {
                          "internalType": "uint256",
                          "name": "x",
                          "type": "uint256"
                        },
                        {
                          "internalType": "uint256",
                          "name": "y",
                          "type": "uint256"
                        }
                      ],
                      "internalType": "struct BN254.G1Point",
                      "name": "zeta",
                      "type": "tuple"
                    },
                    {
                      "components": [
                        {
                          "internalType": "uint256",
                          "name": "x",
                          "type": "uint256"
                        },
                        {
                          "internalType": "uint256",
                          "name": "y",
                          "type": "uint256"
                        }
                      ],
                      "internalType": "struct BN254.G1Point",
                      "name": "zetaOmega",
                      "type": "tuple"
                    },
                    {
                      "internalType": "uint256",
                      "name": "wireEval0",
                      "type": "uint256"
                    },
                    {
                      "internalType": "uint256",
                      "name": "wireEval1",
                      "type": "uint256"
                    },
                    {
                      "internalType": "uint256",
                      "name": "wireEval2",
                      "type": "uint256"
                    },
                    {
                      "internalType": "uint256",
                      "name": "wireEval3",
                      "type": "uint256"
                    },
                    {
                      "internalType": "uint256",
                      "name": "wireEval4",
                      "type": "uint256"
                    },
                    {
                      "internalType": "uint256",
                      "name": "sigmaEval0",
                      "type": "uint256"
                    },
                    {
                      "internalType": "uint256",
                      "name": "sigmaEval1",
                      "type": "uint256"
                    },
                    {
                      "internalType": "uint256",
                      "name": "sigmaEval2",
                      "type": "uint256"
                    },
                    {
                      "internalType": "uint256",
                      "name": "sigmaEval3",
                      "type": "uint256"
                    },
                    {
                      "internalType": "uint256",
                      "name": "prodPermZetaOmegaEval",
                      "type": "uint256"
                    }
                  ],
                  "internalType": "struct IPlonkVerifier.PlonkProof",
                  "name": "proof",
                  "type": "tuple"
                },
                {
                  "components": [
                    {
                      "internalType": "uint256",
                      "name": "merkleRoot",
                      "type": "uint256"
                    },
                    {
                      "internalType": "uint128",
                      "name": "fee",
                      "type": "uint128"
                    },
                    {
                      "components": [
                        {
                          "internalType": "uint256",
                          "name": "x",
                          "type": "uint256"
                        },
                        {
                          "internalType": "uint256",
                          "name": "y",
                          "type": "uint256"
                        }
                      ],
                      "internalType": "struct EdOnBN254.EdOnBN254Point",
                      "name": "txnMemoVerKey",
                      "type": "tuple"
                    }
                  ],
                  "internalType": "struct CAPE.FreezeAuxInfo",
                  "name": "auxInfo",
                  "type": "tuple"
                }
              ],
              "internalType": "struct CAPE.FreezeNote[]",
              "name": "freezeNotes",
              "type": "tuple[]"
            },
            {
              "components": [
                {
                  "components": [
                    {
                      "internalType": "uint256[]",
                      "name": "inputNullifiers",
                      "type": "uint256[]"
                    },
                    {
                      "internalType": "uint256[]",
                      "name": "outputCommitments",
                      "type": "uint256[]"
                    },
                    {
                      "components": [
                        {
                          "components": [
                            {
                              "internalType": "uint256",
                              "name": "x",
                              "type": "uint256"
                            },
                            {
                              "internalType": "uint256",
                              "name": "y",
                              "type": "uint256"
                            }
                          ],
                          "internalType": "struct BN254.G1Point",
                          "name": "wire0",
                          "type": "tuple"
                        },
                        {
                          "components": [
                            {
                              "internalType": "uint256",
                              "name": "x",
                              "type": "uint256"
                            },
                            {
                              "internalType": "uint256",
                              "name": "y",
                              "type": "uint256"
                            }
                          ],
                          "internalType": "struct BN254.G1Point",
                          "name": "wire1",
                          "type": "tuple"
                        },
                        {
                          "components": [
                            {
                              "internalType": "uint256",
                              "name": "x",
                              "type": "uint256"
                            },
                            {
                              "internalType": "uint256",
                              "name": "y",
                              "type": "uint256"
                            }
                          ],
                          "internalType": "struct BN254.G1Point",
                          "name": "wire2",
                          "type": "tuple"
                        },
                        {
                          "components": [
                            {
                              "internalType": "uint256",
                              "name": "x",
                              "type": "uint256"
                            },
                            {
                              "internalType": "uint256",
                              "name": "y",
                              "type": "uint256"
                            }
                          ],
                          "internalType": "struct BN254.G1Point",
                          "name": "wire3",
                          "type": "tuple"
                        },
                        {
                          "components": [
                            {
                              "internalType": "uint256",
                              "name": "x",
                              "type": "uint256"
                            },
                            {
                              "internalType": "uint256",
                              "name": "y",
                              "type": "uint256"
                            }
                          ],
                          "internalType": "struct BN254.G1Point",
                          "name": "wire4",
                          "type": "tuple"
                        },
                        {
                          "components": [
                            {
                              "internalType": "uint256",
                              "name": "x",
                              "type": "uint256"
                            },
                            {
                              "internalType": "uint256",
                              "name": "y",
                              "type": "uint256"
                            }
                          ],
                          "internalType": "struct BN254.G1Point",
                          "name": "prodPerm",
                          "type": "tuple"
                        },
                        {
                          "components": [
                            {
                              "internalType": "uint256",
                              "name": "x",
                              "type": "uint256"
                            },
                            {
                              "internalType": "uint256",
                              "name": "y",
                              "type": "uint256"
                            }
                          ],
                          "internalType": "struct BN254.G1Point",
                          "name": "split0",
                          "type": "tuple"
                        },
                        {
                          "components": [
                            {
                              "internalType": "uint256",
                              "name": "x",
                              "type": "uint256"
                            },
                            {
                              "internalType": "uint256",
                              "name": "y",
                              "type": "uint256"
                            }
                          ],
                          "internalType": "struct BN254.G1Point",
                          "name": "split1",
                          "type": "tuple"
                        },
                        {
                          "components": [
                            {
                              "internalType": "uint256",
                              "name": "x",
                              "type": "uint256"
                            },
                            {
                              "internalType": "uint256",
                              "name": "y",
                              "type": "uint256"
                            }
                          ],
                          "internalType": "struct BN254.G1Point",
                          "name": "split2",
                          "type": "tuple"
                        },
                        {
                          "components": [
                            {
                              "internalType": "uint256",
                              "name": "x",
                              "type": "uint256"
                            },
                            {
                              "internalType": "uint256",
                              "name": "y",
                              "type": "uint256"
                            }
                          ],
                          "internalType": "struct BN254.G1Point",
                          "name": "split3",
                          "type": "tuple"
                        },
                        {
                          "components": [
                            {
                              "internalType": "uint256",
                              "name": "x",
                              "type": "uint256"
                            },
                            {
                              "internalType": "uint256",
                              "name": "y",
                              "type": "uint256"
                            }
                          ],
                          "internalType": "struct BN254.G1Point",
                          "name": "split4",
                          "type": "tuple"
                        },
                        {
                          "components": [
                            {
                              "internalType": "uint256",
                              "name": "x",
                              "type": "uint256"
                            },
                            {
                              "internalType": "uint256",
                              "name": "y",
                              "type": "uint256"
                            }
                          ],
                          "internalType": "struct BN254.G1Point",
                          "name": "zeta",
                          "type": "tuple"
                        },
                        {
                          "components": [
                            {
                              "internalType": "uint256",
                              "name": "x",
                              "type": "uint256"
                            },
                            {
                              "internalType": "uint256",
                              "name": "y",
                              "type": "uint256"
                            }
                          ],
                          "internalType": "struct BN254.G1Point",
                          "name": "zetaOmega",
                          "type": "tuple"
                        },
                        {
                          "internalType": "uint256",
                          "name": "wireEval0",
                          "type": "uint256"
                        },
                        {
                          "internalType": "uint256",
                          "name": "wireEval1",
                          "type": "uint256"
                        },
                        {
                          "internalType": "uint256",
                          "name": "wireEval2",
                          "type": "uint256"
                        },
                        {
                          "internalType": "uint256",
                          "name": "wireEval3",
                          "type": "uint256"
                        },
                        {
                          "internalType": "uint256",
                          "name": "wireEval4",
                          "type": "uint256"
                        },
                        {
                          "internalType": "uint256",
                          "name": "sigmaEval0",
                          "type": "uint256"
                        },
                        {
                          "internalType": "uint256",
                          "name": "sigmaEval1",
                          "type": "uint256"
                        },
                        {
                          "internalType": "uint256",
                          "name": "sigmaEval2",
                          "type": "uint256"
                        },
                        {
                          "internalType": "uint256",
                          "name": "sigmaEval3",
                          "type": "uint256"
                        },
                        {
                          "internalType": "uint256",
                          "name": "prodPermZetaOmegaEval",
                          "type": "uint256"
                        }
                      ],
                      "internalType": "struct IPlonkVerifier.PlonkProof",
                      "name": "proof",
                      "type": "tuple"
                    },
                    {
                      "components": [
                        {
                          "components": [
                            {
                              "internalType": "uint256",
                              "name": "x",
                              "type": "uint256"
                            },
                            {
                              "internalType": "uint256",
                              "name": "y",
                              "type": "uint256"
                            }
                          ],
                          "internalType": "struct EdOnBN254.EdOnBN254Point",
                          "name": "ephemeralKey",
                          "type": "tuple"
                        },
                        {
                          "internalType": "uint256[]",
                          "name": "data",
                          "type": "uint256[]"
                        }
                      ],
                      "internalType": "struct CAPE.AuditMemo",
                      "name": "auditMemo",
                      "type": "tuple"
                    },
                    {
                      "components": [
                        {
                          "internalType": "uint256",
                          "name": "merkleRoot",
                          "type": "uint256"
                        },
                        {
                          "internalType": "uint128",
                          "name": "fee",
                          "type": "uint128"
                        },
                        {
                          "internalType": "uint64",
                          "name": "validUntil",
                          "type": "uint64"
                        },
                        {
                          "components": [
                            {
                              "internalType": "uint256",
                              "name": "x",
                              "type": "uint256"
                            },
                            {
                              "internalType": "uint256",
                              "name": "y",
                              "type": "uint256"
                            }
                          ],
                          "internalType": "struct EdOnBN254.EdOnBN254Point",
                          "name": "txnMemoVerKey",
                          "type": "tuple"
                        },
                        {
                          "internalType": "bytes",
                          "name": "extraProofBoundData",
                          "type": "bytes"
                        }
                      ],
                      "internalType": "struct CAPE.TransferAuxInfo",
                      "name": "auxInfo",
                      "type": "tuple"
                    }
                  ],
                  "internalType": "struct CAPE.TransferNote",
                  "name": "transferNote",
                  "type": "tuple"
                },
                {
                  "components": [
                    {
                      "internalType": "uint128",
                      "name": "amount",
                      "type": "uint128"
                    },
                    {
                      "components": [
                        {
                          "internalType": "uint256",
                          "name": "code",
                          "type": "uint256"
                        },
                        {
                          "components": [
                            {
                              "components": [
                                {
                                  "internalType": "uint256",
                                  "name": "x",
                                  "type": "uint256"
                                },
                                {
                                  "internalType": "uint256",
                                  "name": "y",
                                  "type": "uint256"
                                }
                              ],
                              "internalType": "struct EdOnBN254.EdOnBN254Point",
                              "name": "auditorPk",
                              "type": "tuple"
                            },
                            {
                              "components": [
                                {
                                  "internalType": "uint256",
                                  "name": "x",
                                  "type": "uint256"
                                },
                                {
                                  "internalType": "uint256",
                                  "name": "y",
                                  "type": "uint256"
                                }
                              ],
                              "internalType": "struct EdOnBN254.EdOnBN254Point",
                              "name": "credPk",
                              "type": "tuple"
                            },
                            {
                              "components": [
                                {
                                  "internalType": "uint256",
                                  "name": "x",
                                  "type": "uint256"
                                },
                                {
                                  "internalType": "uint256",
                                  "name": "y",
                                  "type": "uint256"
                                }
                              ],
                              "internalType": "struct EdOnBN254.EdOnBN254Point",
                              "name": "freezerPk",
                              "type": "tuple"
                            },
                            {
                              "internalType": "uint256",
                              "name": "revealMap",
                              "type": "uint256"
                            },
                            {
                              "internalType": "uint128",
                              "name": "revealThreshold",
                              "type": "uint128"
                            }
                          ],
                          "internalType": "struct AssetRegistry.AssetPolicy",
                          "name": "policy",
                          "type": "tuple"
                        }
                      ],
                      "internalType": "struct AssetRegistry.AssetDefinition",
                      "name": "assetDef",
                      "type": "tuple"
                    },
                    {
                      "components": [
                        {
                          "internalType": "uint256",
                          "name": "x",
                          "type": "uint256"
                        },
                        {
                          "internalType": "uint256",
                          "name": "y",
                          "type": "uint256"
                        }
                      ],
                      "internalType": "struct EdOnBN254.EdOnBN254Point",
                      "name": "userAddr",
                      "type": "tuple"
                    },
                    {
                      "internalType": "bytes32",
                      "name": "encKey",
                      "type": "bytes32"
                    },
                    {
                      "internalType": "bool",
                      "name": "freezeFlag",
                      "type": "bool"
                    },
                    {
                      "internalType": "uint256",
                      "name": "blind",
                      "type": "uint256"
                    }
                  ],
                  "internalType": "struct CAPE.RecordOpening",
                  "name": "recordOpening",
                  "type": "tuple"
                }
              ],
              "internalType": "struct CAPE.BurnNote[]",
              "name": "burnNotes",
              "type": "tuple[]"
            }
          ],
          "internalType": "struct CAPE.CapeBlock",
          "name": "newBlock",
          "type": "tuple"
        }
      ],
      "name": "submitCapeBlock",
      "outputs": [],
      "stateMutability": "nonpayable",
      "type": "function"
    },
    {
      "inputs": [
        {
          "components": [
            {
              "components": [
                {
                  "internalType": "uint256",
                  "name": "x",
                  "type": "uint256"
                },
                {
                  "internalType": "uint256",
                  "name": "y",
                  "type": "uint256"
                }
              ],
              "internalType": "struct EdOnBN254.EdOnBN254Point",
              "name": "minerAddr",
              "type": "tuple"
            },
            {
              "internalType": "enum CAPE.NoteType[]",
              "name": "noteTypes",
              "type": "uint8[]"
            },
            {
              "components": [
                {
                  "internalType": "uint256[]",
                  "name": "inputNullifiers",
                  "type": "uint256[]"
                },
                {
                  "internalType": "uint256[]",
                  "name": "outputCommitments",
                  "type": "uint256[]"
                },
                {
                  "components": [
                    {
                      "components": [
                        {
                          "internalType": "uint256",
                          "name": "x",
                          "type": "uint256"
                        },
                        {
                          "internalType": "uint256",
                          "name": "y",
                          "type": "uint256"
                        }
                      ],
                      "internalType": "struct BN254.G1Point",
                      "name": "wire0",
                      "type": "tuple"
                    },
                    {
                      "components": [
                        {
                          "internalType": "uint256",
                          "name": "x",
                          "type": "uint256"
                        },
                        {
                          "internalType": "uint256",
                          "name": "y",
                          "type": "uint256"
                        }
                      ],
                      "internalType": "struct BN254.G1Point",
                      "name": "wire1",
                      "type": "tuple"
                    },
                    {
                      "components": [
                        {
                          "internalType": "uint256",
                          "name": "x",
                          "type": "uint256"
                        },
                        {
                          "internalType": "uint256",
                          "name": "y",
                          "type": "uint256"
                        }
                      ],
                      "internalType": "struct BN254.G1Point",
                      "name": "wire2",
                      "type": "tuple"
                    },
                    {
                      "components": [
                        {
                          "internalType": "uint256",
                          "name": "x",
                          "type": "uint256"
                        },
                        {
                          "internalType": "uint256",
                          "name": "y",
                          "type": "uint256"
                        }
                      ],
                      "internalType": "struct BN254.G1Point",
                      "name": "wire3",
                      "type": "tuple"
                    },
                    {
                      "components": [
                        {
                          "internalType": "uint256",
                          "name": "x",
                          "type": "uint256"
                        },
                        {
                          "internalType": "uint256",
                          "name": "y",
                          "type": "uint256"
                        }
                      ],
                      "internalType": "struct BN254.G1Point",
                      "name": "wire4",
                      "type": "tuple"
                    },
                    {
                      "components": [
                        {
                          "internalType": "uint256",
                          "name": "x",
                          "type": "uint256"
                        },
                        {
                          "internalType": "uint256",
                          "name": "y",
                          "type": "uint256"
                        }
                      ],
                      "internalType": "struct BN254.G1Point",
                      "name": "prodPerm",
                      "type": "tuple"
                    },
                    {
                      "components": [
                        {
                          "internalType": "uint256",
                          "name": "x",
                          "type": "uint256"
                        },
                        {
                          "internalType": "uint256",
                          "name": "y",
                          "type": "uint256"
                        }
                      ],
                      "internalType": "struct BN254.G1Point",
                      "name": "split0",
                      "type": "tuple"
                    },
                    {
                      "components": [
                        {
                          "internalType": "uint256",
                          "name": "x",
                          "type": "uint256"
                        },
                        {
                          "internalType": "uint256",
                          "name": "y",
                          "type": "uint256"
                        }
                      ],
                      "internalType": "struct BN254.G1Point",
                      "name": "split1",
                      "type": "tuple"
                    },
                    {
                      "components": [
                        {
                          "internalType": "uint256",
                          "name": "x",
                          "type": "uint256"
                        },
                        {
                          "internalType": "uint256",
                          "name": "y",
                          "type": "uint256"
                        }
                      ],
                      "internalType": "struct BN254.G1Point",
                      "name": "split2",
                      "type": "tuple"
                    },
                    {
                      "components": [
                        {
                          "internalType": "uint256",
                          "name": "x",
                          "type": "uint256"
                        },
                        {
                          "internalType": "uint256",
                          "name": "y",
                          "type": "uint256"
                        }
                      ],
                      "internalType": "struct BN254.G1Point",
                      "name": "split3",
                      "type": "tuple"
                    },
                    {
                      "components": [
                        {
                          "internalType": "uint256",
                          "name": "x",
                          "type": "uint256"
                        },
                        {
                          "internalType": "uint256",
                          "name": "y",
                          "type": "uint256"
                        }
                      ],
                      "internalType": "struct BN254.G1Point",
                      "name": "split4",
                      "type": "tuple"
                    },
                    {
                      "components": [
                        {
                          "internalType": "uint256",
                          "name": "x",
                          "type": "uint256"
                        },
                        {
                          "internalType": "uint256",
                          "name": "y",
                          "type": "uint256"
                        }
                      ],
                      "internalType": "struct BN254.G1Point",
                      "name": "zeta",
                      "type": "tuple"
                    },
                    {
                      "components": [
                        {
                          "internalType": "uint256",
                          "name": "x",
                          "type": "uint256"
                        },
                        {
                          "internalType": "uint256",
                          "name": "y",
                          "type": "uint256"
                        }
                      ],
                      "internalType": "struct BN254.G1Point",
                      "name": "zetaOmega",
                      "type": "tuple"
                    },
                    {
                      "internalType": "uint256",
                      "name": "wireEval0",
                      "type": "uint256"
                    },
                    {
                      "internalType": "uint256",
                      "name": "wireEval1",
                      "type": "uint256"
                    },
                    {
                      "internalType": "uint256",
                      "name": "wireEval2",
                      "type": "uint256"
                    },
                    {
                      "internalType": "uint256",
                      "name": "wireEval3",
                      "type": "uint256"
                    },
                    {
                      "internalType": "uint256",
                      "name": "wireEval4",
                      "type": "uint256"
                    },
                    {
                      "internalType": "uint256",
                      "name": "sigmaEval0",
                      "type": "uint256"
                    },
                    {
                      "internalType": "uint256",
                      "name": "sigmaEval1",
                      "type": "uint256"
                    },
                    {
                      "internalType": "uint256",
                      "name": "sigmaEval2",
                      "type": "uint256"
                    },
                    {
                      "internalType": "uint256",
                      "name": "sigmaEval3",
                      "type": "uint256"
                    },
                    {
                      "internalType": "uint256",
                      "name": "prodPermZetaOmegaEval",
                      "type": "uint256"
                    }
                  ],
                  "internalType": "struct IPlonkVerifier.PlonkProof",
                  "name": "proof",
                  "type": "tuple"
                },
                {
                  "components": [
                    {
                      "components": [
                        {
                          "internalType": "uint256",
                          "name": "x",
                          "type": "uint256"
                        },
                        {
                          "internalType": "uint256",
                          "name": "y",
                          "type": "uint256"
                        }
                      ],
                      "internalType": "struct EdOnBN254.EdOnBN254Point",
                      "name": "ephemeralKey",
                      "type": "tuple"
                    },
                    {
                      "internalType": "uint256[]",
                      "name": "data",
                      "type": "uint256[]"
                    }
                  ],
                  "internalType": "struct CAPE.AuditMemo",
                  "name": "auditMemo",
                  "type": "tuple"
                },
                {
                  "components": [
                    {
                      "internalType": "uint256",
                      "name": "merkleRoot",
                      "type": "uint256"
                    },
                    {
                      "internalType": "uint128",
                      "name": "fee",
                      "type": "uint128"
                    },
                    {
                      "internalType": "uint64",
                      "name": "validUntil",
                      "type": "uint64"
                    },
                    {
                      "components": [
                        {
                          "internalType": "uint256",
                          "name": "x",
                          "type": "uint256"
                        },
                        {
                          "internalType": "uint256",
                          "name": "y",
                          "type": "uint256"
                        }
                      ],
                      "internalType": "struct EdOnBN254.EdOnBN254Point",
                      "name": "txnMemoVerKey",
                      "type": "tuple"
                    },
                    {
                      "internalType": "bytes",
                      "name": "extraProofBoundData",
                      "type": "bytes"
                    }
                  ],
                  "internalType": "struct CAPE.TransferAuxInfo",
                  "name": "auxInfo",
                  "type": "tuple"
                }
              ],
              "internalType": "struct CAPE.TransferNote[]",
              "name": "transferNotes",
              "type": "tuple[]"
            },
            {
              "components": [
                {
                  "internalType": "uint256",
                  "name": "inputNullifier",
                  "type": "uint256"
                },
                {
                  "internalType": "uint256",
                  "name": "chgComm",
                  "type": "uint256"
                },
                {
                  "internalType": "uint256",
                  "name": "mintComm",
                  "type": "uint256"
                },
                {
                  "internalType": "uint128",
                  "name": "mintAmount",
                  "type": "uint128"
                },
                {
                  "components": [
                    {
                      "internalType": "uint256",
                      "name": "code",
                      "type": "uint256"
                    },
                    {
                      "components": [
                        {
                          "components": [
                            {
                              "internalType": "uint256",
                              "name": "x",
                              "type": "uint256"
                            },
                            {
                              "internalType": "uint256",
                              "name": "y",
                              "type": "uint256"
                            }
                          ],
                          "internalType": "struct EdOnBN254.EdOnBN254Point",
                          "name": "auditorPk",
                          "type": "tuple"
                        },
                        {
                          "components": [
                            {
                              "internalType": "uint256",
                              "name": "x",
                              "type": "uint256"
                            },
                            {
                              "internalType": "uint256",
                              "name": "y",
                              "type": "uint256"
                            }
                          ],
                          "internalType": "struct EdOnBN254.EdOnBN254Point",
                          "name": "credPk",
                          "type": "tuple"
                        },
                        {
                          "components": [
                            {
                              "internalType": "uint256",
                              "name": "x",
                              "type": "uint256"
                            },
                            {
                              "internalType": "uint256",
                              "name": "y",
                              "type": "uint256"
                            }
                          ],
                          "internalType": "struct EdOnBN254.EdOnBN254Point",
                          "name": "freezerPk",
                          "type": "tuple"
                        },
                        {
                          "internalType": "uint256",
                          "name": "revealMap",
                          "type": "uint256"
                        },
                        {
                          "internalType": "uint128",
                          "name": "revealThreshold",
                          "type": "uint128"
                        }
                      ],
                      "internalType": "struct AssetRegistry.AssetPolicy",
                      "name": "policy",
                      "type": "tuple"
                    }
                  ],
                  "internalType": "struct AssetRegistry.AssetDefinition",
                  "name": "mintAssetDef",
                  "type": "tuple"
                },
                {
                  "internalType": "uint256",
                  "name": "mintInternalAssetCode",
                  "type": "uint256"
                },
                {
                  "components": [
                    {
                      "components": [
                        {
                          "internalType": "uint256",
                          "name": "x",
                          "type": "uint256"
                        },
                        {
                          "internalType": "uint256",
                          "name": "y",
                          "type": "uint256"
                        }
                      ],
                      "internalType": "struct BN254.G1Point",
                      "name": "wire0",
                      "type": "tuple"
                    },
                    {
                      "components": [
                        {
                          "internalType": "uint256",
                          "name": "x",
                          "type": "uint256"
                        },
                        {
                          "internalType": "uint256",
                          "name": "y",
                          "type": "uint256"
                        }
                      ],
                      "internalType": "struct BN254.G1Point",
                      "name": "wire1",
                      "type": "tuple"
                    },
                    {
                      "components": [
                        {
                          "internalType": "uint256",
                          "name": "x",
                          "type": "uint256"
                        },
                        {
                          "internalType": "uint256",
                          "name": "y",
                          "type": "uint256"
                        }
                      ],
                      "internalType": "struct BN254.G1Point",
                      "name": "wire2",
                      "type": "tuple"
                    },
                    {
                      "components": [
                        {
                          "internalType": "uint256",
                          "name": "x",
                          "type": "uint256"
                        },
                        {
                          "internalType": "uint256",
                          "name": "y",
                          "type": "uint256"
                        }
                      ],
                      "internalType": "struct BN254.G1Point",
                      "name": "wire3",
                      "type": "tuple"
                    },
                    {
                      "components": [
                        {
                          "internalType": "uint256",
                          "name": "x",
                          "type": "uint256"
                        },
                        {
                          "internalType": "uint256",
                          "name": "y",
                          "type": "uint256"
                        }
                      ],
                      "internalType": "struct BN254.G1Point",
                      "name": "wire4",
                      "type": "tuple"
                    },
                    {
                      "components": [
                        {
                          "internalType": "uint256",
                          "name": "x",
                          "type": "uint256"
                        },
                        {
                          "internalType": "uint256",
                          "name": "y",
                          "type": "uint256"
                        }
                      ],
                      "internalType": "struct BN254.G1Point",
                      "name": "prodPerm",
                      "type": "tuple"
                    },
                    {
                      "components": [
                        {
                          "internalType": "uint256",
                          "name": "x",
                          "type": "uint256"
                        },
                        {
                          "internalType": "uint256",
                          "name": "y",
                          "type": "uint256"
                        }
                      ],
                      "internalType": "struct BN254.G1Point",
                      "name": "split0",
                      "type": "tuple"
                    },
                    {
                      "components": [
                        {
                          "internalType": "uint256",
                          "name": "x",
                          "type": "uint256"
                        },
                        {
                          "internalType": "uint256",
                          "name": "y",
                          "type": "uint256"
                        }
                      ],
                      "internalType": "struct BN254.G1Point",
                      "name": "split1",
                      "type": "tuple"
                    },
                    {
                      "components": [
                        {
                          "internalType": "uint256",
                          "name": "x",
                          "type": "uint256"
                        },
                        {
                          "internalType": "uint256",
                          "name": "y",
                          "type": "uint256"
                        }
                      ],
                      "internalType": "struct BN254.G1Point",
                      "name": "split2",
                      "type": "tuple"
                    },
                    {
                      "components": [
                        {
                          "internalType": "uint256",
                          "name": "x",
                          "type": "uint256"
                        },
                        {
                          "internalType": "uint256",
                          "name": "y",
                          "type": "uint256"
                        }
                      ],
                      "internalType": "struct BN254.G1Point",
                      "name": "split3",
                      "type": "tuple"
                    },
                    {
                      "components": [
                        {
                          "internalType": "uint256",
                          "name": "x",
                          "type": "uint256"
                        },
                        {
                          "internalType": "uint256",
                          "name": "y",
                          "type": "uint256"
                        }
                      ],
                      "internalType": "struct BN254.G1Point",
                      "name": "split4",
                      "type": "tuple"
                    },
                    {
                      "components": [
                        {
                          "internalType": "uint256",
                          "name": "x",
                          "type": "uint256"
                        },
                        {
                          "internalType": "uint256",
                          "name": "y",
                          "type": "uint256"
                        }
                      ],
                      "internalType": "struct BN254.G1Point",
                      "name": "zeta",
                      "type": "tuple"
                    },
                    {
                      "components": [
                        {
                          "internalType": "uint256",
                          "name": "x",
                          "type": "uint256"
                        },
                        {
                          "internalType": "uint256",
                          "name": "y",
                          "type": "uint256"
                        }
                      ],
                      "internalType": "struct BN254.G1Point",
                      "name": "zetaOmega",
                      "type": "tuple"
                    },
                    {
                      "internalType": "uint256",
                      "name": "wireEval0",
                      "type": "uint256"
                    },
                    {
                      "internalType": "uint256",
                      "name": "wireEval1",
                      "type": "uint256"
                    },
                    {
                      "internalType": "uint256",
                      "name": "wireEval2",
                      "type": "uint256"
                    },
                    {
                      "internalType": "uint256",
                      "name": "wireEval3",
                      "type": "uint256"
                    },
                    {
                      "internalType": "uint256",
                      "name": "wireEval4",
                      "type": "uint256"
                    },
                    {
                      "internalType": "uint256",
                      "name": "sigmaEval0",
                      "type": "uint256"
                    },
                    {
                      "internalType": "uint256",
                      "name": "sigmaEval1",
                      "type": "uint256"
                    },
                    {
                      "internalType": "uint256",
                      "name": "sigmaEval2",
                      "type": "uint256"
                    },
                    {
                      "internalType": "uint256",
                      "name": "sigmaEval3",
                      "type": "uint256"
                    },
                    {
                      "internalType": "uint256",
                      "name": "prodPermZetaOmegaEval",
                      "type": "uint256"
                    }
                  ],
                  "internalType": "struct IPlonkVerifier.PlonkProof",
                  "name": "proof",
                  "type": "tuple"
                },
                {
                  "components": [
                    {
                      "components": [
                        {
                          "internalType": "uint256",
                          "name": "x",
                          "type": "uint256"
                        },
                        {
                          "internalType": "uint256",
                          "name": "y",
                          "type": "uint256"
                        }
                      ],
                      "internalType": "struct EdOnBN254.EdOnBN254Point",
                      "name": "ephemeralKey",
                      "type": "tuple"
                    },
                    {
                      "internalType": "uint256[]",
                      "name": "data",
                      "type": "uint256[]"
                    }
                  ],
                  "internalType": "struct CAPE.AuditMemo",
                  "name": "auditMemo",
                  "type": "tuple"
                },
                {
                  "components": [
                    {
                      "internalType": "uint256",
                      "name": "merkleRoot",
                      "type": "uint256"
                    },
                    {
                      "internalType": "uint128",
                      "name": "fee",
                      "type": "uint128"
                    },
                    {
                      "components": [
                        {
                          "internalType": "uint256",
                          "name": "x",
                          "type": "uint256"
                        },
                        {
                          "internalType": "uint256",
                          "name": "y",
                          "type": "uint256"
                        }
                      ],
                      "internalType": "struct EdOnBN254.EdOnBN254Point",
                      "name": "txnMemoVerKey",
                      "type": "tuple"
                    }
                  ],
                  "internalType": "struct CAPE.MintAuxInfo",
                  "name": "auxInfo",
                  "type": "tuple"
                }
              ],
              "internalType": "struct CAPE.MintNote[]",
              "name": "mintNotes",
              "type": "tuple[]"
            },
            {
              "components": [
                {
                  "internalType": "uint256[]",
                  "name": "inputNullifiers",
                  "type": "uint256[]"
                },
                {
                  "internalType": "uint256[]",
                  "name": "outputCommitments",
                  "type": "uint256[]"
                },
                {
                  "components": [
                    {
                      "components": [
                        {
                          "internalType": "uint256",
                          "name": "x",
                          "type": "uint256"
                        },
                        {
                          "internalType": "uint256",
                          "name": "y",
                          "type": "uint256"
                        }
                      ],
                      "internalType": "struct BN254.G1Point",
                      "name": "wire0",
                      "type": "tuple"
                    },
                    {
                      "components": [
                        {
                          "internalType": "uint256",
                          "name": "x",
                          "type": "uint256"
                        },
                        {
                          "internalType": "uint256",
                          "name": "y",
                          "type": "uint256"
                        }
                      ],
                      "internalType": "struct BN254.G1Point",
                      "name": "wire1",
                      "type": "tuple"
                    },
                    {
                      "components": [
                        {
                          "internalType": "uint256",
                          "name": "x",
                          "type": "uint256"
                        },
                        {
                          "internalType": "uint256",
                          "name": "y",
                          "type": "uint256"
                        }
                      ],
                      "internalType": "struct BN254.G1Point",
                      "name": "wire2",
                      "type": "tuple"
                    },
                    {
                      "components": [
                        {
                          "internalType": "uint256",
                          "name": "x",
                          "type": "uint256"
                        },
                        {
                          "internalType": "uint256",
                          "name": "y",
                          "type": "uint256"
                        }
                      ],
                      "internalType": "struct BN254.G1Point",
                      "name": "wire3",
                      "type": "tuple"
                    },
                    {
                      "components": [
                        {
                          "internalType": "uint256",
                          "name": "x",
                          "type": "uint256"
                        },
                        {
                          "internalType": "uint256",
                          "name": "y",
                          "type": "uint256"
                        }
                      ],
                      "internalType": "struct BN254.G1Point",
                      "name": "wire4",
                      "type": "tuple"
                    },
                    {
                      "components": [
                        {
                          "internalType": "uint256",
                          "name": "x",
                          "type": "uint256"
                        },
                        {
                          "internalType": "uint256",
                          "name": "y",
                          "type": "uint256"
                        }
                      ],
                      "internalType": "struct BN254.G1Point",
                      "name": "prodPerm",
                      "type": "tuple"
                    },
                    {
                      "components": [
                        {
                          "internalType": "uint256",
                          "name": "x",
                          "type": "uint256"
                        },
                        {
                          "internalType": "uint256",
                          "name": "y",
                          "type": "uint256"
                        }
                      ],
                      "internalType": "struct BN254.G1Point",
                      "name": "split0",
                      "type": "tuple"
                    },
                    {
                      "components": [
                        {
                          "internalType": "uint256",
                          "name": "x",
                          "type": "uint256"
                        },
                        {
                          "internalType": "uint256",
                          "name": "y",
                          "type": "uint256"
                        }
                      ],
                      "internalType": "struct BN254.G1Point",
                      "name": "split1",
                      "type": "tuple"
                    },
                    {
                      "components": [
                        {
                          "internalType": "uint256",
                          "name": "x",
                          "type": "uint256"
                        },
                        {
                          "internalType": "uint256",
                          "name": "y",
                          "type": "uint256"
                        }
                      ],
                      "internalType": "struct BN254.G1Point",
                      "name": "split2",
                      "type": "tuple"
                    },
                    {
                      "components": [
                        {
                          "internalType": "uint256",
                          "name": "x",
                          "type": "uint256"
                        },
                        {
                          "internalType": "uint256",
                          "name": "y",
                          "type": "uint256"
                        }
                      ],
                      "internalType": "struct BN254.G1Point",
                      "name": "split3",
                      "type": "tuple"
                    },
                    {
                      "components": [
                        {
                          "internalType": "uint256",
                          "name": "x",
                          "type": "uint256"
                        },
                        {
                          "internalType": "uint256",
                          "name": "y",
                          "type": "uint256"
                        }
                      ],
                      "internalType": "struct BN254.G1Point",
                      "name": "split4",
                      "type": "tuple"
                    },
                    {
                      "components": [
                        {
                          "internalType": "uint256",
                          "name": "x",
                          "type": "uint256"
                        },
                        {
                          "internalType": "uint256",
                          "name": "y",
                          "type": "uint256"
                        }
                      ],
                      "internalType": "struct BN254.G1Point",
                      "name": "zeta",
                      "type": "tuple"
                    },
                    {
                      "components": [
                        {
                          "internalType": "uint256",
                          "name": "x",
                          "type": "uint256"
                        },
                        {
                          "internalType": "uint256",
                          "name": "y",
                          "type": "uint256"
                        }
                      ],
                      "internalType": "struct BN254.G1Point",
                      "name": "zetaOmega",
                      "type": "tuple"
                    },
                    {
                      "internalType": "uint256",
                      "name": "wireEval0",
                      "type": "uint256"
                    },
                    {
                      "internalType": "uint256",
                      "name": "wireEval1",
                      "type": "uint256"
                    },
                    {
                      "internalType": "uint256",
                      "name": "wireEval2",
                      "type": "uint256"
                    },
                    {
                      "internalType": "uint256",
                      "name": "wireEval3",
                      "type": "uint256"
                    },
                    {
                      "internalType": "uint256",
                      "name": "wireEval4",
                      "type": "uint256"
                    },
                    {
                      "internalType": "uint256",
                      "name": "sigmaEval0",
                      "type": "uint256"
                    },
                    {
                      "internalType": "uint256",
                      "name": "sigmaEval1",
                      "type": "uint256"
                    },
                    {
                      "internalType": "uint256",
                      "name": "sigmaEval2",
                      "type": "uint256"
                    },
                    {
                      "internalType": "uint256",
                      "name": "sigmaEval3",
                      "type": "uint256"
                    },
                    {
                      "internalType": "uint256",
                      "name": "prodPermZetaOmegaEval",
                      "type": "uint256"
                    }
                  ],
                  "internalType": "struct IPlonkVerifier.PlonkProof",
                  "name": "proof",
                  "type": "tuple"
                },
                {
                  "components": [
                    {
                      "internalType": "uint256",
                      "name": "merkleRoot",
                      "type": "uint256"
                    },
                    {
                      "internalType": "uint128",
                      "name": "fee",
                      "type": "uint128"
                    },
                    {
                      "components": [
                        {
                          "internalType": "uint256",
                          "name": "x",
                          "type": "uint256"
                        },
                        {
                          "internalType": "uint256",
                          "name": "y",
                          "type": "uint256"
                        }
                      ],
                      "internalType": "struct EdOnBN254.EdOnBN254Point",
                      "name": "txnMemoVerKey",
                      "type": "tuple"
                    }
                  ],
                  "internalType": "struct CAPE.FreezeAuxInfo",
                  "name": "auxInfo",
                  "type": "tuple"
                }
              ],
              "internalType": "struct CAPE.FreezeNote[]",
              "name": "freezeNotes",
              "type": "tuple[]"
            },
            {
              "components": [
                {
                  "components": [
                    {
                      "internalType": "uint256[]",
                      "name": "inputNullifiers",
                      "type": "uint256[]"
                    },
                    {
                      "internalType": "uint256[]",
                      "name": "outputCommitments",
                      "type": "uint256[]"
                    },
                    {
                      "components": [
                        {
                          "components": [
                            {
                              "internalType": "uint256",
                              "name": "x",
                              "type": "uint256"
                            },
                            {
                              "internalType": "uint256",
                              "name": "y",
                              "type": "uint256"
                            }
                          ],
                          "internalType": "struct BN254.G1Point",
                          "name": "wire0",
                          "type": "tuple"
                        },
                        {
                          "components": [
                            {
                              "internalType": "uint256",
                              "name": "x",
                              "type": "uint256"
                            },
                            {
                              "internalType": "uint256",
                              "name": "y",
                              "type": "uint256"
                            }
                          ],
                          "internalType": "struct BN254.G1Point",
                          "name": "wire1",
                          "type": "tuple"
                        },
                        {
                          "components": [
                            {
                              "internalType": "uint256",
                              "name": "x",
                              "type": "uint256"
                            },
                            {
                              "internalType": "uint256",
                              "name": "y",
                              "type": "uint256"
                            }
                          ],
                          "internalType": "struct BN254.G1Point",
                          "name": "wire2",
                          "type": "tuple"
                        },
                        {
                          "components": [
                            {
                              "internalType": "uint256",
                              "name": "x",
                              "type": "uint256"
                            },
                            {
                              "internalType": "uint256",
                              "name": "y",
                              "type": "uint256"
                            }
                          ],
                          "internalType": "struct BN254.G1Point",
                          "name": "wire3",
                          "type": "tuple"
                        },
                        {
                          "components": [
                            {
                              "internalType": "uint256",
                              "name": "x",
                              "type": "uint256"
                            },
                            {
                              "internalType": "uint256",
                              "name": "y",
                              "type": "uint256"
                            }
                          ],
                          "internalType": "struct BN254.G1Point",
                          "name": "wire4",
                          "type": "tuple"
                        },
                        {
                          "components": [
                            {
                              "internalType": "uint256",
                              "name": "x",
                              "type": "uint256"
                            },
                            {
                              "internalType": "uint256",
                              "name": "y",
                              "type": "uint256"
                            }
                          ],
                          "internalType": "struct BN254.G1Point",
                          "name": "prodPerm",
                          "type": "tuple"
                        },
                        {
                          "components": [
                            {
                              "internalType": "uint256",
                              "name": "x",
                              "type": "uint256"
                            },
                            {
                              "internalType": "uint256",
                              "name": "y",
                              "type": "uint256"
                            }
                          ],
                          "internalType": "struct BN254.G1Point",
                          "name": "split0",
                          "type": "tuple"
                        },
                        {
                          "components": [
                            {
                              "internalType": "uint256",
                              "name": "x",
                              "type": "uint256"
                            },
                            {
                              "internalType": "uint256",
                              "name": "y",
                              "type": "uint256"
                            }
                          ],
                          "internalType": "struct BN254.G1Point",
                          "name": "split1",
                          "type": "tuple"
                        },
                        {
                          "components": [
                            {
                              "internalType": "uint256",
                              "name": "x",
                              "type": "uint256"
                            },
                            {
                              "internalType": "uint256",
                              "name": "y",
                              "type": "uint256"
                            }
                          ],
                          "internalType": "struct BN254.G1Point",
                          "name": "split2",
                          "type": "tuple"
                        },
                        {
                          "components": [
                            {
                              "internalType": "uint256",
                              "name": "x",
                              "type": "uint256"
                            },
                            {
                              "internalType": "uint256",
                              "name": "y",
                              "type": "uint256"
                            }
                          ],
                          "internalType": "struct BN254.G1Point",
                          "name": "split3",
                          "type": "tuple"
                        },
                        {
                          "components": [
                            {
                              "internalType": "uint256",
                              "name": "x",
                              "type": "uint256"
                            },
                            {
                              "internalType": "uint256",
                              "name": "y",
                              "type": "uint256"
                            }
                          ],
                          "internalType": "struct BN254.G1Point",
                          "name": "split4",
                          "type": "tuple"
                        },
                        {
                          "components": [
                            {
                              "internalType": "uint256",
                              "name": "x",
                              "type": "uint256"
                            },
                            {
                              "internalType": "uint256",
                              "name": "y",
                              "type": "uint256"
                            }
                          ],
                          "internalType": "struct BN254.G1Point",
                          "name": "zeta",
                          "type": "tuple"
                        },
                        {
                          "components": [
                            {
                              "internalType": "uint256",
                              "name": "x",
                              "type": "uint256"
                            },
                            {
                              "internalType": "uint256",
                              "name": "y",
                              "type": "uint256"
                            }
                          ],
                          "internalType": "struct BN254.G1Point",
                          "name": "zetaOmega",
                          "type": "tuple"
                        },
                        {
                          "internalType": "uint256",
                          "name": "wireEval0",
                          "type": "uint256"
                        },
                        {
                          "internalType": "uint256",
                          "name": "wireEval1",
                          "type": "uint256"
                        },
                        {
                          "internalType": "uint256",
                          "name": "wireEval2",
                          "type": "uint256"
                        },
                        {
                          "internalType": "uint256",
                          "name": "wireEval3",
                          "type": "uint256"
                        },
                        {
                          "internalType": "uint256",
                          "name": "wireEval4",
                          "type": "uint256"
                        },
                        {
                          "internalType": "uint256",
                          "name": "sigmaEval0",
                          "type": "uint256"
                        },
                        {
                          "internalType": "uint256",
                          "name": "sigmaEval1",
                          "type": "uint256"
                        },
                        {
                          "internalType": "uint256",
                          "name": "sigmaEval2",
                          "type": "uint256"
                        },
                        {
                          "internalType": "uint256",
                          "name": "sigmaEval3",
                          "type": "uint256"
                        },
                        {
                          "internalType": "uint256",
                          "name": "prodPermZetaOmegaEval",
                          "type": "uint256"
                        }
                      ],
                      "internalType": "struct IPlonkVerifier.PlonkProof",
                      "name": "proof",
                      "type": "tuple"
                    },
                    {
                      "components": [
                        {
                          "components": [
                            {
                              "internalType": "uint256",
                              "name": "x",
                              "type": "uint256"
                            },
                            {
                              "internalType": "uint256",
                              "name": "y",
                              "type": "uint256"
                            }
                          ],
                          "internalType": "struct EdOnBN254.EdOnBN254Point",
                          "name": "ephemeralKey",
                          "type": "tuple"
                        },
                        {
                          "internalType": "uint256[]",
                          "name": "data",
                          "type": "uint256[]"
                        }
                      ],
                      "internalType": "struct CAPE.AuditMemo",
                      "name": "auditMemo",
                      "type": "tuple"
                    },
                    {
                      "components": [
                        {
                          "internalType": "uint256",
                          "name": "merkleRoot",
                          "type": "uint256"
                        },
                        {
                          "internalType": "uint128",
                          "name": "fee",
                          "type": "uint128"
                        },
                        {
                          "internalType": "uint64",
                          "name": "validUntil",
                          "type": "uint64"
                        },
                        {
                          "components": [
                            {
                              "internalType": "uint256",
                              "name": "x",
                              "type": "uint256"
                            },
                            {
                              "internalType": "uint256",
                              "name": "y",
                              "type": "uint256"
                            }
                          ],
                          "internalType": "struct EdOnBN254.EdOnBN254Point",
                          "name": "txnMemoVerKey",
                          "type": "tuple"
                        },
                        {
                          "internalType": "bytes",
                          "name": "extraProofBoundData",
                          "type": "bytes"
                        }
                      ],
                      "internalType": "struct CAPE.TransferAuxInfo",
                      "name": "auxInfo",
                      "type": "tuple"
                    }
                  ],
                  "internalType": "struct CAPE.TransferNote",
                  "name": "transferNote",
                  "type": "tuple"
                },
                {
                  "components": [
                    {
                      "internalType": "uint128",
                      "name": "amount",
                      "type": "uint128"
                    },
                    {
                      "components": [
                        {
                          "internalType": "uint256",
                          "name": "code",
                          "type": "uint256"
                        },
                        {
                          "components": [
                            {
                              "components": [
                                {
                                  "internalType": "uint256",
                                  "name": "x",
                                  "type": "uint256"
                                },
                                {
                                  "internalType": "uint256",
                                  "name": "y",
                                  "type": "uint256"
                                }
                              ],
                              "internalType": "struct EdOnBN254.EdOnBN254Point",
                              "name": "auditorPk",
                              "type": "tuple"
                            },
                            {
                              "components": [
                                {
                                  "internalType": "uint256",
                                  "name": "x",
                                  "type": "uint256"
                                },
                                {
                                  "internalType": "uint256",
                                  "name": "y",
                                  "type": "uint256"
                                }
                              ],
                              "internalType": "struct EdOnBN254.EdOnBN254Point",
                              "name": "credPk",
                              "type": "tuple"
                            },
                            {
                              "components": [
                                {
                                  "internalType": "uint256",
                                  "name": "x",
                                  "type": "uint256"
                                },
                                {
                                  "internalType": "uint256",
                                  "name": "y",
                                  "type": "uint256"
                                }
                              ],
                              "internalType": "struct EdOnBN254.EdOnBN254Point",
                              "name": "freezerPk",
                              "type": "tuple"
                            },
                            {
                              "internalType": "uint256",
                              "name": "revealMap",
                              "type": "uint256"
                            },
                            {
                              "internalType": "uint128",
                              "name": "revealThreshold",
                              "type": "uint128"
                            }
                          ],
                          "internalType": "struct AssetRegistry.AssetPolicy",
                          "name": "policy",
                          "type": "tuple"
                        }
                      ],
                      "internalType": "struct AssetRegistry.AssetDefinition",
                      "name": "assetDef",
                      "type": "tuple"
                    },
                    {
                      "components": [
                        {
                          "internalType": "uint256",
                          "name": "x",
                          "type": "uint256"
                        },
                        {
                          "internalType": "uint256",
                          "name": "y",
                          "type": "uint256"
                        }
                      ],
                      "internalType": "struct EdOnBN254.EdOnBN254Point",
                      "name": "userAddr",
                      "type": "tuple"
                    },
                    {
                      "internalType": "bytes32",
                      "name": "encKey",
                      "type": "bytes32"
                    },
                    {
                      "internalType": "bool",
                      "name": "freezeFlag",
                      "type": "bool"
                    },
                    {
                      "internalType": "uint256",
                      "name": "blind",
                      "type": "uint256"
                    }
                  ],
                  "internalType": "struct CAPE.RecordOpening",
                  "name": "recordOpening",
                  "type": "tuple"
                }
              ],
              "internalType": "struct CAPE.BurnNote[]",
              "name": "burnNotes",
              "type": "tuple[]"
            }
          ],
          "internalType": "struct CAPE.CapeBlock",
          "name": "newBlock",
          "type": "tuple"
        },
        {
          "internalType": "bytes",
          "name": "",
          "type": "bytes"
        }
      ],
      "name": "submitCapeBlockWithMemos",
      "outputs": [],
      "stateMutability": "nonpayable",
      "type": "function"
    }
  ],
  "transactionHash": "0x4e1878240e50b2f7b8c400239f72f79b936d258e6559377af3f75e2ff38ca7ed",
  "args": [
    40,
    "0xf3F7e77eF94ED5002117De761850b71f15Fa065F",
    "0xabCCAC63B8d4844D1aE9E555f8C6c975Ac879777"
  ],
  "numDeployments": 1,
  "solcInputHash": "72a14774796fae5d4ac4d3b6f26df06c",
  "bytecode": "0x60806040523480156200001157600080fd5b5060405162005ae538038062005ae58339810160408190526200003491620001d9565b826001816001600160401b031611620000935760405162461bcd60e51b815260206004820152601860248201527f41206c65617374203220726f6f74732072657175697265640000000000000000604482015260640160405180910390fd5b806001600160401b03166001600160401b03811115620000b757620000b762000230565b604051908082528060200260200182016040528015620000e1578160200160208202803683370190505b508051620000f89160009160209091019062000155565b50506001600455600680546001600160a01b039384166801000000000000000002600160401b600160e01b031990911617905560078054919092166001600160a01b03199182161790915560098054909116331790555062000246565b82805482825590600052602060002090810192821562000193579160200282015b828111156200019357825182559160200191906001019062000176565b50620001a1929150620001a5565b5090565b5b80821115620001a15760008155600101620001a6565b80516001600160a01b0381168114620001d457600080fd5b919050565b600080600060608486031215620001ef57600080fd5b83516001600160401b03811681146200020757600080fd5b92506200021760208501620001bc565b91506200022760408501620001bc565b90509250925092565b634e487b7160e01b600052604160045260246000fd5b61588f80620002566000396000f3fe608060405234801561001057600080fd5b50600436106101775760003560e01c8063a33ba96c116100d8578063d21e82ab1161008c578063f148fb4a11610066578063f148fb4a14610395578063f44ff712146103a8578063fe3cc3f8146103d557600080fd5b8063d21e82ab1461033c578063d56c1ea11461036f578063d5f394881461038257600080fd5b8063b12f7e7b116100bd578063b12f7e7b1461030e578063b4e28f1a14610321578063cb390b981461032957600080fd5b8063a33ba96c146102bf578063a7932794146102fb57600080fd5b80636868dd1f1161012f57806379cf6f5c1161011457806379cf6f5c1461026e5780639dd584b9146102765780639fda5b661461027e57600080fd5b80636868dd1f146102465780636de840601461025957600080fd5b806311829f931161016057806311829f93146101a45780631db6b253146101e55780636444c8d11461023057600080fd5b80630a2121451461017c57806310b4e3a114610191575b600080fd5b61018f61018a366004613c3b565b6103e9565b005b61018f61019f36600461466d565b610557565b6101cf6040518060400160405280600c81526020016b22b9a9a1a0a82290313ab93760a11b81525081565b6040516101dc919061475c565b60405180910390f35b61020c7f444f4d45535449435f415353455400000000000000000000000000000000000081565b60405171ffffffffffffffffffffffffffffffffffff1990911681526020016101dc565b610238610565565b6040519081526020016101dc565b61018f610254366004614776565b6105f1565b6102616107fd565b6040516101dc919061481b565b610238600181565b610238600a81565b6102a761028c36600461482a565b6003602052600090815260409020546001600160a01b031681565b6040516001600160a01b0390911681526020016101dc565b6102d66c1193d4915251d397d054d4d155609a1b81565b60405172ffffffffffffffffffffffffffffffffffffff1990911681526020016101dc565b61023861030936600461482a565b61082b565b61018f61031c366004614843565b61084c565b610238600c81565b61018f61033736600461486e565b610b0e565b61035f61034a36600461482a565b60056020526000908152604090205460ff1681565b60405190151581526020016101dc565b6102a761037d3660046148a3565b611431565b6009546102a7906001600160a01b031681565b61035f6103a33660046148a3565b61147a565b6006546103bc9067ffffffffffffffff1681565b60405167ffffffffffffffff90911681526020016101dc565b60095461035f90600160a01b900460ff1681565b6001600160a01b0382166104445760405162461bcd60e51b815260206004820152601160248201527f426164206173736574206164647265737300000000000000000000000000000060448201526064015b60405180910390fd5b61044d8161147a565b1561049a5760405162461bcd60e51b815260206004820152601860248201527f417373657420616c726561647920726567697374657265640000000000000000604482015260640161043b565b6104ae816000015183338460200151611497565b6000816040516020016104c1919061481b565b60408051808303601f19018152828252805160209182012060008181526003835283902080547fffffffffffffffffffffffff0000000000000000000000000000000000000000166001600160a01b03891690811790915586519085529184019190915292507f0538524c1d0e6bf3f9f91710406853761e09b531b4fed8629307955608c82611910160405180910390a1505050565b61056083610b0e565b505050565b600754604080517f6444c8d100000000000000000000000000000000000000000000000000000000815290516000926001600160a01b031691636444c8d19160048083019260209291908290030181865afa1580156105c8573d6000803e3d6000fd5b505050506040513d601f19601f820116820180604052508101906105ec91906148c0565b905090565b6002600454036106435760405162461bcd60e51b815260206004820152601f60248201527f5265656e7472616e637947756172643a207265656e7472616e742063616c6c00604482015260640161043b565b600260045560208201516106569061147a565b6106a25760405162461bcd60e51b815260206004820152601f60248201527f417373657420646566696e6974696f6e206e6f74207265676973746572656400604482015260640161043b565b806001600160a01b03166106b98360200151611431565b6001600160a01b03161461070f5760405162461bcd60e51b815260206004820152601360248201527f57726f6e67204552433230206164647265737300000000000000000000000000604482015260640161043b565b600854600a116107615760405162461bcd60e51b815260206004820152601e60248201527f50656e64696e67206465706f736974732071756575652069732066756c6c0000604482015260640161043b565b600861076c83611552565b81546001810183556000928352602090922090910155815161079c908290339030906001600160801b0316611754565b7fe77062441218c146925a31d2ebba4cb3fd6ea3069cdf81c28822c31e3a8ca98e826040516020016107ce9190614935565b60408051601f19818403018152908290526107ec9184903390614944565b60405180910390a150506001600455565b6108056134b0565b600180825260208083018051518201839052805182015182018390525160400151015290565b6008818154811061083b57600080fd5b600091825260209091200154905081565b6009546001600160a01b031633146108a65760405162461bcd60e51b815260206004820152601a60248201527f4f6e6c7920696e766f6361626c65206279206465706c6f796572000000000000604482015260640161043b565b600954600160a01b900460ff16156109005760405162461bcd60e51b815260206004820152601560248201527f46617563657420616c7265616479207365742075700000000000000000000000604482015260640161043b565b60006040518060c0016040528060026001600160801b0361092191906149a3565b6001600160801b031681526020016109376107fd565b815260208101859052604080820185905260006060830181905260809092018290528051600180825281830190925292935090919081602001602082028036833701905050905061098782611552565b8160008151811061099a5761099a6149c9565b602090810291909101015260075460405163330ee6a760e01b81526001600160a01b039091169063330ee6a7906109d5908490600401614a1a565b600060405180830381600087803b1580156109ef57600080fd5b505af1158015610a03573d6000803e3d6000fd5b50505050610a86600760009054906101000a90046001600160a01b03166001600160a01b0316636444c8d16040518163ffffffff1660e01b8152600401602060405180830381865afa158015610a5d573d6000803e3d6000fd5b505050506040513d601f19601f82011682018060405250810190610a8191906148c0565b611803565b7fc27eb5ac1e750e98e913252f09c9b96d224b2ef9117e3a3cd446d5ecdd94aa8c82604051602001610ab89190614935565b60408051601f1981840301815290829052610ad29161475c565b60405180910390a15050600980547fffffffffffffffffffffff00ffffffffffffffffffffffffffffffffffffffff16600160a01b1790555050565b600260045403610b605760405162461bcd60e51b815260206004820152601f60248201527f5265656e7472616e637947756172643a207265656e7472616e742063616c6c00604482015260640161043b565b6002600455600854600090610b8790610b788461194b565b610b829190614a2d565b611a70565b60208301515190915060008167ffffffffffffffff811115610bab57610bab613a16565b604051908082528060200260200182016040528015610be457816020015b610bd16134cf565b815260200190600190039081610bc95790505b50905060008267ffffffffffffffff811115610c0257610c02613a16565b604051908082528060200260200182016040528015610c3557816020015b6060815260200190600190039081610c205790505b50905060008367ffffffffffffffff811115610c5357610c53613a16565b604051908082528060200260200182016040528015610c8c57816020015b610c79613748565b815260200190600190039081610c715790505b50905060008467ffffffffffffffff811115610caa57610caa613a16565b604051908082528060200260200182016040528015610cdd57816020015b6060815260200190600190039081610cc85790505b509050600080808088158015610cf35750600854155b15610d405760405162461bcd60e51b815260206004820152601760248201527f426c6f636b206d757374206265206e6f6e2d656d707479000000000000000000604482015260640161043b565b60005b898110156111c45760008c602001518281518110610d6357610d636149c9565b6020026020010151905060006003811115610d8057610d80614a45565b816003811115610d9257610d92614a45565b03610ee85760008d604001518781518110610daf57610daf6149c9565b60200260200101519050600187610dc69190614a2d565b9650610dd9816080015160000151611ae3565b610de281611b44565b60065460808201516040015167ffffffffffffffff91821691161015610e4a5760405162461bcd60e51b815260206004820152600c60248201527f45787069726564206e6f74650000000000000000000000000000000000000000604482015260640161043b565b8051610e5590611ba2565b6020810151610e65908e90611be6565b610e6e81611c69565b8e8781518110610e8057610e806149c9565b602002602001018e8881518110610e9957610e996149c9565b602002602001018e8981518110610eb257610eb26149c9565b602002602001018e8a81518110610ecb57610ecb6149c9565b6020026020010184905284905284905284905250505050506111b1565b6001816003811115610efc57610efc614a45565b03610f8e5760008d606001518681518110610f1957610f196149c9565b60200260200101519050600186610f309190614a2d565b9550610f4481610100015160000151611ae3565b610f5a8160800151600001518260a00151612150565b8051610f65906121f7565b6020810151610f75908e90612271565b6040810151610f85908e90612271565b610e6e816122ab565b6002816003811115610fa257610fa2614a45565b0361100d5760008d608001518581518110610fbf57610fbf6149c9565b60200260200101519050600185610fd69190614a2d565b9450610fe9816060015160000151611ae3565b8051610ff490611ba2565b6020810151611004908e90611be6565b610e6e81612873565b600381600381111561102157611021614a45565b036111695760008d60a00151848151811061103e5761103e6149c9565b602002602001015190506001846110559190614a2d565b8151608001515190945061106890611ae3565b61107181612be8565b80515161107d90611ba2565b60005b815160200151518110156110dc57806001146110ca576110ca82600001516020015182815181106110b3576110b36149c9565b60200260200101518f61227190919063ffffffff16565b806110d481614a5b565b915050611080565b506110e681612c9c565b8e87815181106110f8576110f86149c9565b602002602001018e8881518110611111576111116149c9565b602002602001018e898151811061112a5761112a6149c9565b602002602001018e8a81518110611143576111436149c9565b602002602001018490528490528490528490525050505061116381612ccc565b506111b1565b60405162461bcd60e51b815260206004820152601260248201527f436170653a20756e726561636861626c65210000000000000000000000000000604482015260640161043b565b50806111bc81614a5b565b915050610d43565b5088156112b2576006546040517f830affd6000000000000000000000000000000000000000000000000000000008152680100000000000000009091046001600160a01b03169063830affd690611225908b908b908b908b90600401614d30565b602060405180830381865afa158015611242573d6000803e3d6000fd5b505050506040513d601f19601f820116820180604052508101906112669190614f9e565b6112b25760405162461bcd60e51b815260206004820152601a60248201527f436170653a20626174636820766572696679206661696c65642e000000000000604482015260640161043b565b60005b600854811015611301576112ef600882815481106112d5576112d56149c9565b90600052602060002001548c61227190919063ffffffff16565b806112f981614a5b565b9150506112b5565b5060208a0151156113c4576007548a5160405163330ee6a760e01b81526001600160a01b039092169163330ee6a79161133c91600401614a1a565b600060405180830381600087803b15801561135657600080fd5b505af115801561136a573d6000803e3d6000fd5b505050506113c4600760009054906101000a90046001600160a01b03166001600160a01b0316636444c8d16040518163ffffffff1660e01b8152600401602060405180830381865afa158015610a5d573d6000803e3d6000fd5b60068054600191906000906113e490849067ffffffffffffffff16614fbb565b92506101000a81548167ffffffffffffffff021916908367ffffffffffffffff1602179055506114138b612d18565b61141f6008600061394d565b50506001600455505050505050505050565b60008082604051602001611445919061481b565b60408051601f198184030181529181528151602092830120600090815260039092529020546001600160a01b03169392505050565b60008061148683611431565b6001600160a01b0316141592915050565b60006114a4848484612e3e565b90506114fd6c1193d4915251d397d054d4d155609a1b826040516020016114cc929190614fe7565b60408051601f1981840301815282825280516020918201209083015201604051602081830303815290604052612e90565b851461154b5760405162461bcd60e51b815260206004820152601860248201527f57726f6e6720666f726569676e20617373657420636f64650000000000000000604482015260640161043b565b5050505050565b600061100082602001516020015160600151106115b15760405162461bcd60e51b815260206004820152601a60248201527f52657665616c206d617020657863656564732031322062697473000000000000604482015260640161043b565b600082608001516115c35760006115c6565b60015b60ff168360200151602001516060015160026115e29190615023565b6115ec9190614a2d565b604080516101e08101825260a080870151825286516001600160801b0390811660208085019190915280890180515185870152898601805151606087015251820151608080870191909152815183015151519486019490945280518201515182015160c086015280518201518201515160e0860152805182015182015182015161010086015280518201518601515161012086015280518201518601518201516101408601526101608501879052510151909101511661018082015260006101a082018190526101c082015290517f8c548036000000000000000000000000000000000000000000000000000000008152919250907365544E31DDee5CEdBee2D2cbA1eD341F361141bf90638c5480369061170b908490600401615042565b602060405180830381865af4158015611728573d6000803e3d6000fd5b505050506040513d601f19601f8201168201806040525081019061174c91906148c0565b949350505050565b60006040517f23b872dd0000000000000000000000000000000000000000000000000000000081526001600160a01b03851660048201526001600160a01b038416602482015282604482015260008060648360008a5af19150506117b781612f34565b61154b5760405162461bcd60e51b815260206004820152601460248201527f5452414e534645525f46524f4d5f4641494c4544000000000000000000000000604482015260640161043b565b60008181526001602052604090205460ff16156118625760405162461bcd60e51b815260206004820152601360248201527f526f6f7420616c72656164792065786973747300000000000000000000000000604482015260640161043b565b6002546000805490916001918391829167ffffffffffffffff90911690811061188d5761188d6149c9565b60009182526020808320919091015483528201929092526040018120805460ff191692151592909217909155600254815483929167ffffffffffffffff169081106118da576118da6149c9565b600091825260208083209091019290925582815260019182905260408120805460ff19168317905554600254909161191c9167ffffffffffffffff1690614fbb565b6119269190615074565b6002805467ffffffffffffffff191667ffffffffffffffff9290921691909117905550565b60008082606001515160026119609190615023565b905060005b8360400151518110156119b45783604001518181518110611988576119886149c9565b60200260200101516020015151826119a09190614a2d565b9150806119ac81614a5b565b915050611965565b5060005b8360a0015151811015611a165760018460a0015182815181106119dd576119dd6149c9565b60200260200101516000015160200151516119f8919061509b565b611a029083614a2d565b915080611a0e81614a5b565b9150506119b8565b5060005b836080015151811015611a695783608001518181518110611a3d57611a3d6149c9565b6020026020010151602001515182611a559190614a2d565b915080611a6181614a5b565b915050611a1a565b5092915050565b60408051808201909152606081526000602082015260405180604001604052808367ffffffffffffffff811115611aa957611aa9613a16565b604051908082528060200260200182016040528015611ad2578160200160208202803683370190505b508152600060209091015292915050565b60008181526001602052604090205460ff16611b415760405162461bcd60e51b815260206004820152600e60248201527f526f6f74206e6f7420666f756e64000000000000000000000000000000000000604482015260640161043b565b50565b611b55816080015160800151612f7b565b15611b415760405162461bcd60e51b815260206004820152601c60248201527f4275726e2070726566697820696e207472616e73666572206e6f746500000000604482015260640161043b565b60005b8151811015611be257611bd0828281518110611bc357611bc36149c9565b60200260200101516121f7565b80611bda81614a5b565b915050611ba5565b5050565b60005b8151811015611c4e57818181518110611c0457611c046149c9565b60200260200101518360000151846020015183611c219190614a2d565b81518110611c3157611c316149c9565b602090810291909101015280611c4681614a5b565b915050611be9565b50805182602001818151611c629190614a2d565b9052505050565b611c716134cf565b6060611c7b613748565b606073b91F732F69a6a6B0A113ED2DD2685e1FeBf7313763b95a6ecc816322e6017b60008951516020808c015151600754604080516319efb11d60e01b8152905192936001600160a01b03909216926319efb11d926004808401939192918290030181865afa158015611cf2573d6000803e3d6000fd5b505050506040513d601f19601f82011682018060405250810190611d1691906150b2565b60405160e086901b7fffffffff0000000000000000000000000000000000000000000000000000000016815260ff9485166004820152928416602484015290831660448301529091166064820152608401602060405180830381865af4158015611d84573d6000803e3d6000fd5b505050506040513d601f19601f82011682018060405250810190611da891906148c0565b6040518263ffffffff1660e01b8152600401611dc691815260200190565b6104c060405180830381865af4158015611de4573d6000803e3d6000fd5b505050506040513d601f19601f82011682018060405250810190611e089190615105565b9350846060015160200151518560200151518660000151516004611e2c9190614a2d565b611e369190614a2d565b611e41906002614a2d565b611e4b9190614a2d565b67ffffffffffffffff811115611e6357611e63613a16565b604051908082528060200260200182016040528015611e8c578160200160208202803683370190505b50925084608001516000015183600081518110611eab57611eab6149c9565b602002602001018181525050600183600181518110611ecc57611ecc6149c9565b60200260200101818152505084608001516040015167ffffffffffffffff1683600281518110611efe57611efe6149c9565b6020026020010181815250508460800151602001516001600160801b031683600381518110611f2f57611f2f6149c9565b6020908102919091010152600460005b865151811015611f9f578651805182908110611f5d57611f5d6149c9565b6020026020010151858284611f729190614a2d565b81518110611f8257611f826149c9565b602090810291909101015280611f9781614a5b565b915050611f3f565b50855151611fad9082614a2d565b905060005b8660200151518110156120175786602001518181518110611fd557611fd56149c9565b6020026020010151858284611fea9190614a2d565b81518110611ffa57611ffa6149c9565b60209081029190910101528061200f81614a5b565b915050611fb2565b506020860151516120289082614a2d565b905085606001516000015160000151848281518110612049576120496149c9565b60209081029190910181019190915260608701515101518461206c836001614a2d565b8151811061207c5761207c6149c9565b6020908102919091010152612092600282614a2d565b905060005b866060015160200151518110156121045786606001516020015181815181106120c2576120c26149c9565b60200260200101518582846120d79190614a2d565b815181106120e7576120e76149c9565b6020908102919091010152806120fc81614a5b565b915050612097565b50508460400151915061211e856080015160600151612fcf565b856080015160800151604051602001612138929190615295565b60405160208183030381529060405290509193509193565b6121a97f444f4d45535449435f415353455400000000000000000000000000000000000061217d83613063565b60405171ffffffffffffffffffffffffffffffffffff199092166020830152602e820152604e016114cc565b8214611be25760405162461bcd60e51b815260206004820152601960248201527f57726f6e6720646f6d657374696320617373657420636f646500000000000000604482015260640161043b565b60008181526005602052604090205460ff16156122565760405162461bcd60e51b815260206004820152601b60248201527f4e756c6c696669657220616c7265616479207075626c69736865640000000000604482015260640161043b565b6000908152600560205260409020805460ff19166001179055565b80826000015183602001518151811061228c5761228c6149c9565b602002602001018181525050600182602001818151611c629190614a2d565b6122b36134cf565b60606122bd613748565b606073b91F732F69a6a6B0A113ED2DD2685e1FeBf7313763b95a6ecc816322e6017b6001806002600760009054906101000a90046001600160a01b03166001600160a01b03166319efb11d6040518163ffffffff1660e01b8152600401602060405180830381865afa158015612337573d6000803e3d6000fd5b505050506040513d601f19601f8201168201806040525081019061235b91906150b2565b60405160e086901b7fffffffff0000000000000000000000000000000000000000000000000000000016815260ff9485166004820152928416602484015290831660448301529091166064820152608401602060405180830381865af41580156123c9573d6000803e3d6000fd5b505050506040513d601f19601f820116820180604052508101906123ed91906148c0565b6040518263ffffffff1660e01b815260040161240b91815260200190565b6104c060405180830381865af4158015612429573d6000803e3d6000fd5b505050506040513d601f19601f8201168201806040525081019061244d9190615105565b93508460e00151602001515160136124659190614a2d565b67ffffffffffffffff81111561247d5761247d613a16565b6040519080825280602002602001820160405280156124a6578160200160208202803683370190505b50925084610100015160000151836000815181106124c6576124c66149c9565b6020026020010181815250506001836001815181106124e7576124e76149c9565b60200260200101818152505084600001518360028151811061250b5761250b6149c9565b602002602001018181525050846101000151602001516001600160801b03168360038151811061253d5761253d6149c9565b602002602001018181525050846040015183600481518110612561576125616149c9565b602002602001018181525050846020015183600581518110612585576125856149c9565b60200260200101818152505084606001516001600160801b0316836006815181106125b2576125b26149c9565b602002602001018181525050846080015160000151836007815181106125da576125da6149c9565b6020026020010181815250508460a00151836008815181106125fe576125fe6149c9565b602002602001018181525050846080015160200151606001518360098151811061262a5761262a6149c9565b602002602001018181525050846080015160200151600001516000015183600a8151811061265a5761265a6149c9565b602002602001018181525050846080015160200151600001516020015183600b8151811061268a5761268a6149c9565b602002602001018181525050846080015160200151602001516000015183600c815181106126ba576126ba6149c9565b602002602001018181525050846080015160200151602001516020015183600d815181106126ea576126ea6149c9565b602002602001018181525050846080015160200151604001516000015183600e8151811061271a5761271a6149c9565b602002602001018181525050846080015160200151604001516020015183600f8151811061274a5761274a6149c9565b602002602001018181525050846080015160200151608001516001600160801b03168360108151811061277f5761277f6149c9565b602090810291909101015260e085015151518351849060119081106127a6576127a66149c9565b6020026020010181815250508460e001516000015160200151836012815181106127d2576127d26149c9565b6020908102919091010152601360005b8660e00151602001515181101561284f578660e0015160200151818151811061280d5761280d6149c9565b60200260200101518582846128229190614a2d565b81518110612832576128326149c9565b60209081029190910101528061284781614a5b565b9150506127e2565b50508460c00151915061286a85610100015160400151612fcf565b90509193509193565b61287b6134cf565b6060612885613748565b606073b91F732F69a6a6B0A113ED2DD2685e1FeBf7313763b95a6ecc816322e6017b60028951516020808c015151600754604080516319efb11d60e01b8152905192936001600160a01b03909216926319efb11d926004808401939192918290030181865afa1580156128fc573d6000803e3d6000fd5b505050506040513d601f19601f8201168201806040525081019061292091906150b2565b60405160e086901b7fffffffff0000000000000000000000000000000000000000000000000000000016815260ff9485166004820152928416602484015290831660448301529091166064820152608401602060405180830381865af415801561298e573d6000803e3d6000fd5b505050506040513d601f19601f820116820180604052508101906129b291906148c0565b6040518263ffffffff1660e01b81526004016129d091815260200190565b6104c060405180830381865af41580156129ee573d6000803e3d6000fd5b505050506040513d601f19601f82011682018060405250810190612a129190615105565b60208601515186515191955090612a2a906003614a2d565b612a349190614a2d565b67ffffffffffffffff811115612a4c57612a4c613a16565b604051908082528060200260200182016040528015612a75578160200160208202803683370190505b50925084606001516000015183600081518110612a9457612a946149c9565b602002602001018181525050600183600181518110612ab557612ab56149c9565b6020026020010181815250508460600151602001516001600160801b031683600281518110612ae657612ae66149c9565b6020908102919091010152600360005b865151811015612b56578651805182908110612b1457612b146149c9565b6020026020010151858284612b299190614a2d565b81518110612b3957612b396149c9565b602090810291909101015280612b4e81614a5b565b915050612af6565b50855151612b649082614a2d565b905060005b866020015151811015612bce5786602001518181518110612b8c57612b8c6149c9565b6020026020010151858284612ba19190614a2d565b81518110612bb157612bb16149c9565b602090810291909101015280612bc681614a5b565b915050612b69565b50508460400151915061286a856060015160400151612fcf565b80516080908101510151612bfb81612f7b565b612c475760405162461bcd60e51b815260206004820152600c60248201527f426164206275726e207461670000000000000000000000000000000000000000604482015260640161043b565b612c50826131af565b611be25760405162461bcd60e51b815260206004820152601560248201527f426164207265636f726420636f6d6d69746d656e740000000000000000000000604482015260640161043b565b612ca46134cf565b6060612cae613748565b6060612cbd8560000151611c69565b93509350935093509193509193565b6000612cdf826020015160200151611431565b90506000612cfa83600001516080015160800151600c613209565b905061056082828560200151600001516001600160801b031661327f565b600654815160405167ffffffffffffffff909216917fc34977751f08a257da613aa9db576f9b4edca0aef20e5b401f9c590a4d0c8fed91600891612d5f91906020016152bb565b6040516020818303038152906040528460200151604051602001612d8391906152d2565b6040516020818303038152906040528560400151604051602001612da79190615431565b6040516020818303038152906040528660600151604051602001612dcb91906154c6565b6040516020818303038152906040528760800151604051602001612def91906155b8565b6040516020818303038152906040528860a00151604051602001612e13919061565a565b60408051601f1981840301815290829052612e33979695949392916156d0565b60405180910390a250565b60608360601b8360601b83604051602001612e599190615799565b60408051601f1981840301815290829052612e789392916020016157a8565b60405160208183030381529060405290509392505050565b6000805b8251811015612f2e577f30644e72e131a029b85045b68181585d2833e84879b9709143e1f593f0000001610100830991507f30644e72e131a029b85045b68181585d2833e84879b9709143e1f593f0000001838260018651612ef6919061509b565b612f00919061509b565b81518110612f1057612f106149c9565b016020015160f81c8308915080612f2681614a5b565b915050612e94565b50919050565b60003d82612f4657806000803e806000fd5b8060208114612f5e578015612f6f5760009250612f74565b816000803e60005115159250612f74565b600192505b5050919050565b6000600c82511015612f8f57506000919050565b612fc9612f9f836000600c613325565b6040518060400160405280600c81526020016b22b9a9a1a0a82290313ab93760a11b81525061344d565b92915050565b6060600061300683602001517f30644e72e131a029b85045b68181585d2833e84879b9709143e1f593f000000160019190911b1090565b61302d57507f80000000000000000000000000000000000000000000000000000000000000005b825161303a908217613063565b60405160200161304c91815260200190565b604051602081830303815290604052915050919050565b60008190506008817eff00ff00ff00ff00ff00ff00ff00ff00ff00ff00ff00ff00ff00ff00ff00ff16901b6008827fff00ff00ff00ff00ff00ff00ff00ff00ff00ff00ff00ff00ff00ff00ff00ff0016901c1790506010817dffff0000ffff0000ffff0000ffff0000ffff0000ffff0000ffff0000ffff16901b6010827fffff0000ffff0000ffff0000ffff0000ffff0000ffff0000ffff0000ffff000016901c1790506020817bffffffff00000000ffffffff00000000ffffffff00000000ffffffff16901b6020827fffffffff00000000ffffffff00000000ffffffff00000000ffffffff0000000016901c17905060408177ffffffffffffffff0000000000000000ffffffffffffffff16901b6040827fffffffffffffffff0000000000000000ffffffffffffffff000000000000000016901c179050608081901b608082901c179050919050565b600060028260000151602001515110156131cb57506000919050565b60006131da8360200151611552565b90508260000151602001516001815181106131f7576131f76149c9565b60200260200101518114915050919050565b6000613216826014614a2d565b835110156132665760405162461bcd60e51b815260206004820152601560248201527f746f416464726573735f6f75744f66426f756e64730000000000000000000000604482015260640161043b565b5001602001516c01000000000000000000000000900490565b60006040517fa9059cbb0000000000000000000000000000000000000000000000000000000081526001600160a01b03841660048201528260248201526000806044836000895af19150506132d381612f34565b61331f5760405162461bcd60e51b815260206004820152600f60248201527f5452414e534645525f4641494c45440000000000000000000000000000000000604482015260640161043b565b50505050565b60608161333381601f614a2d565b10156133815760405162461bcd60e51b815260206004820152600e60248201527f736c6963655f6f766572666c6f77000000000000000000000000000000000000604482015260640161043b565b61338b8284614a2d565b845110156133db5760405162461bcd60e51b815260206004820152601160248201527f736c6963655f6f75744f66426f756e6473000000000000000000000000000000604482015260640161043b565b6060821580156133fa5760405191506000825260208201604052613444565b6040519150601f8416801560200281840101858101878315602002848b0101015b8183101561343357805183526020928301920161341b565b5050858452601f01601f1916604052505b50949350505050565b81518151600091600191811480831461346957600092506134a6565b600160208701838101602088015b60028483851001036134a15780518351146134955760009650600093505b60209283019201613477565b505050505b5090949350505050565b6040518060400160405280600081526020016134ca61396b565b905290565b6040518061028001604052806000815260200160008152602001613506604051806040016040528060008152602001600081525090565b8152602001613528604051806040016040528060008152602001600081525090565b815260200161354a604051806040016040528060008152602001600081525090565b815260200161356c604051806040016040528060008152602001600081525090565b815260200161358e604051806040016040528060008152602001600081525090565b81526020016135b0604051806040016040528060008152602001600081525090565b81526020016135d2604051806040016040528060008152602001600081525090565b81526020016135f4604051806040016040528060008152602001600081525090565b8152602001613616604051806040016040528060008152602001600081525090565b8152602001613638604051806040016040528060008152602001600081525090565b815260200161365a604051806040016040528060008152602001600081525090565b815260200161367c604051806040016040528060008152602001600081525090565b815260200161369e604051806040016040528060008152602001600081525090565b81526020016136c0604051806040016040528060008152602001600081525090565b81526020016136e2604051806040016040528060008152602001600081525090565b8152602001613704604051806040016040528060008152602001600081525090565b8152602001613726604051806040016040528060008152602001600081525090565b81526020016134ca604051806040016040528060008152602001600081525090565b60408051610320810190915260006102e082018181526103008301919091528190815260200161378b604051806040016040528060008152602001600081525090565b81526020016137ad604051806040016040528060008152602001600081525090565b81526020016137cf604051806040016040528060008152602001600081525090565b81526020016137f1604051806040016040528060008152602001600081525090565b8152602001613813604051806040016040528060008152602001600081525090565b8152602001613835604051806040016040528060008152602001600081525090565b8152602001613857604051806040016040528060008152602001600081525090565b8152602001613879604051806040016040528060008152602001600081525090565b815260200161389b604051806040016040528060008152602001600081525090565b81526020016138bd604051806040016040528060008152602001600081525090565b81526020016138df604051806040016040528060008152602001600081525090565b8152602001613901604051806040016040528060008152602001600081525090565b8152602001600081526020016000815260200160008152602001600081526020016000815260200160008152602001600081526020016000815260200160008152602001600081525090565b5080546000825590600052602060002090810190611b4191906139e1565b6040805160e08101909152600060a0820181815260c0830191909152819081526020016139ab604051806040016040528060008152602001600081525090565b81526020016139cd604051806040016040528060008152602001600081525090565b815260006020820181905260409091015290565b5b808211156139f657600081556001016139e2565b5090565b80356001600160a01b0381168114613a1157600080fd5b919050565b634e487b7160e01b600052604160045260246000fd5b6040805190810167ffffffffffffffff81118282101715613a4f57613a4f613a16565b60405290565b60405160a0810167ffffffffffffffff81118282101715613a4f57613a4f613a16565b6040516102e0810167ffffffffffffffff81118282101715613a4f57613a4f613a16565b604051610120810167ffffffffffffffff81118282101715613a4f57613a4f613a16565b6040516080810167ffffffffffffffff81118282101715613a4f57613a4f613a16565b60405160c0810167ffffffffffffffff81118282101715613a4f57613a4f613a16565b604051610280810167ffffffffffffffff81118282101715613a4f57613a4f613a16565b604051601f8201601f1916810167ffffffffffffffff81118282101715613b5357613b53613a16565b604052919050565b600060408284031215613b6d57600080fd5b613b75613a2c565b9050813581526020820135602082015292915050565b80356001600160801b0381168114613a1157600080fd5b6000818303610120811215613bb657600080fd5b613bbe613a2c565b91508235825261010080601f1983011215613bd857600080fd5b613be0613a55565b9150613bef8560208601613b5b565b8252613bfe8560608601613b5b565b6020830152613c108560a08601613b5b565b604083015260e08401356060830152613c2a818501613b8b565b608083015250602082015292915050565b6000806101408385031215613c4f57600080fd5b613c58836139fa565b9150613c678460208501613ba2565b90509250929050565b600067ffffffffffffffff821115613c8a57613c8a613a16565b5060051b60200190565b600082601f830112613ca557600080fd5b81356020613cba613cb583613c70565b613b2a565b82815260059290921b84018101918181019086841115613cd957600080fd5b8286015b84811015613d0257803560048110613cf55760008081fd5b8352918301918301613cdd565b509695505050505050565b600082601f830112613d1e57600080fd5b81356020613d2e613cb583613c70565b82815260059290921b84018101918181019086841115613d4d57600080fd5b8286015b84811015613d025780358352918301918301613d51565b60006104808284031215613d7b57600080fd5b613d83613a78565b9050613d8f8383613b5b565b8152613d9e8360408401613b5b565b6020820152613db08360808401613b5b565b6040820152613dc28360c08401613b5b565b6060820152610100613dd684828501613b5b565b6080830152610140613dea85828601613b5b565b60a0840152610180613dfe86828701613b5b565b60c08501526101c0613e1287828801613b5b565b60e0860152610200613e2688828901613b5b565b858701526102409450613e3b88868901613b5b565b610120870152610280613e5089828a01613b5b565b858801526102c09450613e6589868a01613b5b565b610160880152613e79896103008a01613b5b565b848801526103408801356101a0880152610360880135838801526103808801356101e08801526103a0880135828801526103c08801356102208801526103e08801358688015261040088013561026088015261042088013581880152505050506104408401356102a084015261046084013581840152505092915050565b600060608284031215613f0957600080fd5b613f11613a2c565b9050613f1d8383613b5b565b8152604082013567ffffffffffffffff811115613f3957600080fd5b613f4584828501613d0d565b60208301525092915050565b600060c08284031215613f6357600080fd5b613f6b613a55565b9050813581526020613f7e818401613b8b565b81830152604083013567ffffffffffffffff8082168214613f9e57600080fd5b816040850152613fb18660608701613b5b565b606085015260a0850135915080821115613fca57600080fd5b818501915085601f830112613fde57600080fd5b813581811115613ff057613ff0613a16565b614002601f8201601f19168501613b2a565b9150808252868482850101111561401857600080fd5b808484018584013760008482840101525080608085015250505092915050565b6000610500828403121561404b57600080fd5b614053613a55565b9050813567ffffffffffffffff8082111561406d57600080fd5b61407985838601613d0d565b8352602084013591508082111561408f57600080fd5b61409b85838601613d0d565b60208401526140ad8560408601613d68565b60408401526104c08401359150808211156140c757600080fd5b6140d385838601613ef7565b60608401526104e08401359150808211156140ed57600080fd5b506140fa84828501613f51565b60808301525092915050565b600082601f83011261411757600080fd5b81356020614127613cb583613c70565b82815260059290921b8401810191818101908684111561414657600080fd5b8286015b84811015613d0257803567ffffffffffffffff81111561416a5760008081fd5b6141788986838b0101614038565b84525091830191830161414a565b60006080828403121561419857600080fd5b6040516060810181811067ffffffffffffffff821117156141bb576141bb613a16565b604052823581529050806141d160208401613b8b565b60208201526141e38460408501613b5b565b60408201525092915050565b600082601f83011261420057600080fd5b81356020614210613cb583613c70565b82815260059290921b8401810191818101908684111561422f57600080fd5b8286015b84811015613d0257803567ffffffffffffffff808211156142545760008081fd5b908801906106e0828b03601f1901121561426e5760008081fd5b614276613a9c565b86830135815260408084013588830152606080850135828401526080915061429f828601613b8b565b9083015260a06142b18d868301613ba2565b828401526101c08501358184015250506142cf8b6101e08501613d68565b60c0820152610660830135828111156142e85760008081fd5b6142f68c8983870101613ef7565b60e08301525061430a8b6106808501614186565b61010082015285525050918301918301614233565b600082601f83011261433057600080fd5b81356020614340613cb583613c70565b82815260059290921b8401810191818101908684111561435f57600080fd5b8286015b84811015613d0257803567ffffffffffffffff808211156143845760008081fd5b90880190610540828b03601f1901121561439e5760008081fd5b6143a6613ac0565b86830135828111156143b85760008081fd5b6143c68c8983870101613d0d565b825250604080840135838111156143dd5760008081fd5b6143eb8d8a83880101613d0d565b8984015250606092506144008c848601613d68565b908201526144128b6104e08501614186565b91810191909152845250918301918301614363565b8015158114611b4157600080fd5b60006101e0828403121561444857600080fd5b614450613ae3565b905061445b82613b8b565b815261446a8360208401613ba2565b602082015261447d836101408401613b5b565b604082015261018082013560608201526101a082013561449c81614427565b60808201526101c0919091013560a0820152919050565b600082601f8301126144c457600080fd5b813560206144d4613cb583613c70565b82815260059290921b840181019181810190868411156144f357600080fd5b8286015b84811015613d0257803567ffffffffffffffff808211156145185760008081fd5b90880190610200828b03601f190112156145325760008081fd5b61453a613a2c565b868301358281111561454c5760008081fd5b61455a8c8983870101614038565b82525061456a8b60408501614435565b81880152855250509183019183016144f7565b600060e0828403121561458f57600080fd5b614597613ae3565b90506145a38383613b5b565b8152604082013567ffffffffffffffff808211156145c057600080fd5b6145cc85838601613c94565b602084015260608401359150808211156145e557600080fd5b6145f185838601614106565b6040840152608084013591508082111561460a57600080fd5b614616858386016141ef565b606084015260a084013591508082111561462f57600080fd5b61463b8583860161431f565b608084015260c084013591508082111561465457600080fd5b50614661848285016144b3565b60a08301525092915050565b60008060006040848603121561468257600080fd5b833567ffffffffffffffff8082111561469a57600080fd5b6146a68783880161457d565b945060208601359150808211156146bc57600080fd5b818601915086601f8301126146d057600080fd5b8135818111156146df57600080fd5b8760208285010111156146f157600080fd5b6020830194508093505050509250925092565b60005b8381101561471f578181015183820152602001614707565b8381111561331f5750506000910152565b60008151808452614748816020860160208601614704565b601f01601f19169290920160200192915050565b60208152600061476f6020830184614730565b9392505050565b600080610200838503121561478a57600080fd5b6147948484614435565b9150613c676101e084016139fa565b6147b882825180518252602090810151910152565b6020818101518051604085015290810151606084015250604081015180516080840152602081015160a084015250606081015160c0830152608001516001600160801b031660e090910152565b80518252602081015161056060208401826147a3565b6101208101612fc98284614805565b60006020828403121561483c57600080fd5b5035919050565b6000806060838503121561485657600080fd5b6148608484613b5b565b946040939093013593505050565b60006020828403121561488057600080fd5b813567ffffffffffffffff81111561489757600080fd5b61174c8482850161457d565b600061012082840312156148b657600080fd5b61476f8383613ba2565b6000602082840312156148d257600080fd5b5051919050565b6001600160801b03815116825260208101516148f86020840182614805565b5060408101518051610140840152602001516101608301526060810151610180830152608081015115156101a083015260a001516101c090910152565b6101e08101612fc982846148d9565b6060815260006149576060830186614730565b6001600160a01b0394851660208401529290931660409091015292915050565b634e487b7160e01b600052601260045260246000fd5b634e487b7160e01b600052601160045260246000fd5b60006001600160801b03808416806149bd576149bd614977565b92169190910492915050565b634e487b7160e01b600052603260045260246000fd5b600081518084526020808501945080840160005b83811015614a0f578151875295820195908201906001016149f3565b509495945050505050565b60208152600061476f60208301846149df565b60008219821115614a4057614a4061498d565b500190565b634e487b7160e01b600052602160045260246000fd5b600060018201614a6d57614a6d61498d565b5060010190565b600081518084526020808501808196508360051b8101915082860160005b85811015614abc578284038952614aaa8483516149df565b98850198935090840190600101614a92565b5091979650505050505050565b614ade82825180518252602090810151910152565b6020818101518051604085015290810151606084015250604081015180516080840152602081015160a0840152506060810151805160c0840152602081015160e0840152506080810151610100614b418185018380518252602090810151910152565b60a08301519150610140614b618186018480518252602090810151910152565b60c08401519250610180614b818187018580518252602090810151910152565b60e085015193506101c0614ba18188018680518252602090810151910152565b92850151935061020092614bc18785018680518252602090810151910152565b6101208601519450610240614be28189018780518252602090810151910152565b92860151945061028092614c028885018780518252602090810151910152565b61016087015195506102c0614c23818a018880518252602090810151910152565b9287015180516103008a0152602001516103208901526101a0870151610340890152908601516103608801526101e0860151610380880152928501516103a08701526102208501516103c0870152918401516103e08601526102608401516104008601528301516104208501526102a0830151610440850152909101516104609092019190915250565b600081518084526020808501945080840160005b83811015614a0f57614cd4878351614ac9565b610480969096019590820190600101614cc1565b600081518084526020808501808196508360051b8101915082860160005b85811015614abc578284038952614d1e848351614730565b98850198935090840190600101614d06565b608080825285518282018190526000919060a090818501906020808b01865b83811015614f555781518051865283810151848701526040808201518051828901526020810151606089015250506060810151614d988988018280518252602090810151910152565b508781015160c0614db58189018380518252602090810151910152565b888301519150610100614dd4818a018480518252602090810151910152565b90830151915061014090614df48983018480518252602090810151910152565b60e08401519250610180614e14818b018580518252602090810151910152565b9084015192506101c090614e348a83018580518252602090810151910152565b6101208501519350610200614e55818c018680518252602090810151910152565b92850151935061024092614e758b85018680518252602090810151910152565b61016086015180516102808d01526020908101516102a08d01529186015180516102c08d01528201516102e08c01526101a086015180516103008d01528201516103208c01529185015180516103408c01528101516103608b01526101e085015180516103808c01528101516103a08b01529084015180516103c08b01528101516103e08a015261022084015180516104008b01528101516104208a01529083015180516104408a0152810151610460890152610260909201518051610480890152909101516104a0870152506104c09094019390820190600101614d4f565b50508683039087015250614f698189614a74565b925050508281036040840152614f7f8186614cad565b90508281036060840152614f938185614ce8565b979650505050505050565b600060208284031215614fb057600080fd5b815161476f81614427565b600067ffffffffffffffff808316818516808303821115614fde57614fde61498d565b01949350505050565b72ffffffffffffffffffffffffffffffffffffff19831681526000825161501581600d850160208701614704565b91909101600d019392505050565b600081600019048311821515161561503d5761503d61498d565b500290565b6101e08101818360005b600f81101561506b57815183526020928301929091019060010161504c565b50505092915050565b600067ffffffffffffffff8084168061508f5761508f614977565b92169190910692915050565b6000828210156150ad576150ad61498d565b500390565b6000602082840312156150c457600080fd5b815160ff8116811461476f57600080fd5b6000604082840312156150e757600080fd5b6150ef613a2c565b9050815181526020820151602082015292915050565b60006104c0828403121561511857600080fd5b615120613b06565b825181526020830151602082015261513b84604085016150d5565b604082015261514d84608085016150d5565b606082015261515f8460c085016150d5565b6080820152610100615173858286016150d5565b60a0830152610140615187868287016150d5565b60c084015261018061519b878288016150d5565b60e08501526101c06151af888289016150d5565b8486015261020093506151c4888589016150d5565b6101208601526102406151d989828a016150d5565b848701526151eb896102808a016150d5565b6101608701526151ff896102c08a016150d5565b83870152615211896103008a016150d5565b6101a0870152615225896103408a016150d5565b82870152615237896103808a016150d5565b6101e087015261524b896103c08a016150d5565b8587015261525d896104008a016150d5565b610220870152615271896104408a016150d5565b8187015250505050506152888461048085016150d5565b6102608201529392505050565b600083516152a7818460208801614704565b835190830190614fde818360208801614704565b815181526020808301519082015260408101612fc9565b602080825282518282018190526000919084820190604085019084805b82811015614abc578451600480821061531557634e487b7160e01b845260218152602484fd5b50845293850193928501926001016152ef565b61533d82825180518252602090810151910152565b600060208201516060604085015261174c60608501826149df565b6000610500825181855261536e828601826149df565b9150506020830151848203602086015261538882826149df565b915050604083015161539d6040860182614ac9565b5060608301518482036104c08601526153b68282615328565b91505060808301518482036104e0860152805182526001600160801b03602082015116602083015267ffffffffffffffff6040820151166040830152606081015161540e606084018280518252602090810151910152565b506080015160c060a0830181905261542890830182614730565b95945050505050565b6000602080830181845280855180835260408601915060408160051b870101925083870160005b8281101561548657603f19888603018452615474858351615358565b94509285019290850190600101615458565b5092979650505050505050565b805182526001600160801b0360208201511660208301526040810151610560604084018280518252602090810151910152565b60006020808301818452808551808352604092508286019150828160051b87010184880160005b838110156155aa57603f1989840301855281516106e08151855288820151898601528782015188860152606080830151615531828801826001600160801b03169052565b505060808083015161554582880182614805565b505060a08201516101a086015260c08201516155656101c0870182614ac9565b5060e08201518161064087015261557e82870182615328565b9150506101008201519150615597610660860183615493565b95880195935050908601906001016154ed565b509098975050505050505050565b60006020808301818452808551808352604092508286019150828160051b87010184880160005b838110156155aa57603f1989840301855281516105408151818652615606828701826149df565b915050888201518582038a87015261561e82826149df565b9150508782015161563189870182614ac9565b50606082015191506156476104c0860183615493565b95880195935050908601906001016155df565b6000602080830181845280855180835260408601915060408160051b870101925083870160005b8281101561548657603f19888603018452815161020081518188526156a882890182615358565b9150508782015191506156bd888801836148d9565b9550509285019290850190600101615681565b600060e0820160e08352808a54808352610100850191508b600052602092508260002060005b82811015615712578154845292840192600191820191016156f6565b50505083810382850152615726818b614730565b915050828103604084015261573b8189614730565b9050828103606084015261574f8188614730565b905082810360808401526157638187614730565b905082810360a08401526157778186614730565b905082810360c084015261578b8185614730565b9a9950505050505050505050565b6101008101612fc982846147a3565b7f457353434150452045524332300000000000000000000000000000000000000081526bffffffffffffffffffffffff19848116600d8301527f73706f6e736f726564206279000000000000000000000000000000000000000060218301528316602d8201527f706f6c69637900000000000000000000000000000000000000000000000000006041820152815160009061584a816047850160208701614704565b9190910160470194935050505056fea2646970667358221220859879091ff5678ccc23d56bb576d7cdacc7deb5bdf59d1a7401c7ed937c26cc64736f6c634300080d0033",
  "deployedBytecode": "0x608060405234801561001057600080fd5b50600436106101775760003560e01c8063a33ba96c116100d8578063d21e82ab1161008c578063f148fb4a11610066578063f148fb4a14610395578063f44ff712146103a8578063fe3cc3f8146103d557600080fd5b8063d21e82ab1461033c578063d56c1ea11461036f578063d5f394881461038257600080fd5b8063b12f7e7b116100bd578063b12f7e7b1461030e578063b4e28f1a14610321578063cb390b981461032957600080fd5b8063a33ba96c146102bf578063a7932794146102fb57600080fd5b80636868dd1f1161012f57806379cf6f5c1161011457806379cf6f5c1461026e5780639dd584b9146102765780639fda5b661461027e57600080fd5b80636868dd1f146102465780636de840601461025957600080fd5b806311829f931161016057806311829f93146101a45780631db6b253146101e55780636444c8d11461023057600080fd5b80630a2121451461017c57806310b4e3a114610191575b600080fd5b61018f61018a366004613c3b565b6103e9565b005b61018f61019f36600461466d565b610557565b6101cf6040518060400160405280600c81526020016b22b9a9a1a0a82290313ab93760a11b81525081565b6040516101dc919061475c565b60405180910390f35b61020c7f444f4d45535449435f415353455400000000000000000000000000000000000081565b60405171ffffffffffffffffffffffffffffffffffff1990911681526020016101dc565b610238610565565b6040519081526020016101dc565b61018f610254366004614776565b6105f1565b6102616107fd565b6040516101dc919061481b565b610238600181565b610238600a81565b6102a761028c36600461482a565b6003602052600090815260409020546001600160a01b031681565b6040516001600160a01b0390911681526020016101dc565b6102d66c1193d4915251d397d054d4d155609a1b81565b60405172ffffffffffffffffffffffffffffffffffffff1990911681526020016101dc565b61023861030936600461482a565b61082b565b61018f61031c366004614843565b61084c565b610238600c81565b61018f61033736600461486e565b610b0e565b61035f61034a36600461482a565b60056020526000908152604090205460ff1681565b60405190151581526020016101dc565b6102a761037d3660046148a3565b611431565b6009546102a7906001600160a01b031681565b61035f6103a33660046148a3565b61147a565b6006546103bc9067ffffffffffffffff1681565b60405167ffffffffffffffff90911681526020016101dc565b60095461035f90600160a01b900460ff1681565b6001600160a01b0382166104445760405162461bcd60e51b815260206004820152601160248201527f426164206173736574206164647265737300000000000000000000000000000060448201526064015b60405180910390fd5b61044d8161147a565b1561049a5760405162461bcd60e51b815260206004820152601860248201527f417373657420616c726561647920726567697374657265640000000000000000604482015260640161043b565b6104ae816000015183338460200151611497565b6000816040516020016104c1919061481b565b60408051808303601f19018152828252805160209182012060008181526003835283902080547fffffffffffffffffffffffff0000000000000000000000000000000000000000166001600160a01b03891690811790915586519085529184019190915292507f0538524c1d0e6bf3f9f91710406853761e09b531b4fed8629307955608c82611910160405180910390a1505050565b61056083610b0e565b505050565b600754604080517f6444c8d100000000000000000000000000000000000000000000000000000000815290516000926001600160a01b031691636444c8d19160048083019260209291908290030181865afa1580156105c8573d6000803e3d6000fd5b505050506040513d601f19601f820116820180604052508101906105ec91906148c0565b905090565b6002600454036106435760405162461bcd60e51b815260206004820152601f60248201527f5265656e7472616e637947756172643a207265656e7472616e742063616c6c00604482015260640161043b565b600260045560208201516106569061147a565b6106a25760405162461bcd60e51b815260206004820152601f60248201527f417373657420646566696e6974696f6e206e6f74207265676973746572656400604482015260640161043b565b806001600160a01b03166106b98360200151611431565b6001600160a01b03161461070f5760405162461bcd60e51b815260206004820152601360248201527f57726f6e67204552433230206164647265737300000000000000000000000000604482015260640161043b565b600854600a116107615760405162461bcd60e51b815260206004820152601e60248201527f50656e64696e67206465706f736974732071756575652069732066756c6c0000604482015260640161043b565b600861076c83611552565b81546001810183556000928352602090922090910155815161079c908290339030906001600160801b0316611754565b7fe77062441218c146925a31d2ebba4cb3fd6ea3069cdf81c28822c31e3a8ca98e826040516020016107ce9190614935565b60408051601f19818403018152908290526107ec9184903390614944565b60405180910390a150506001600455565b6108056134b0565b600180825260208083018051518201839052805182015182018390525160400151015290565b6008818154811061083b57600080fd5b600091825260209091200154905081565b6009546001600160a01b031633146108a65760405162461bcd60e51b815260206004820152601a60248201527f4f6e6c7920696e766f6361626c65206279206465706c6f796572000000000000604482015260640161043b565b600954600160a01b900460ff16156109005760405162461bcd60e51b815260206004820152601560248201527f46617563657420616c7265616479207365742075700000000000000000000000604482015260640161043b565b60006040518060c0016040528060026001600160801b0361092191906149a3565b6001600160801b031681526020016109376107fd565b815260208101859052604080820185905260006060830181905260809092018290528051600180825281830190925292935090919081602001602082028036833701905050905061098782611552565b8160008151811061099a5761099a6149c9565b602090810291909101015260075460405163330ee6a760e01b81526001600160a01b039091169063330ee6a7906109d5908490600401614a1a565b600060405180830381600087803b1580156109ef57600080fd5b505af1158015610a03573d6000803e3d6000fd5b50505050610a86600760009054906101000a90046001600160a01b03166001600160a01b0316636444c8d16040518163ffffffff1660e01b8152600401602060405180830381865afa158015610a5d573d6000803e3d6000fd5b505050506040513d601f19601f82011682018060405250810190610a8191906148c0565b611803565b7fc27eb5ac1e750e98e913252f09c9b96d224b2ef9117e3a3cd446d5ecdd94aa8c82604051602001610ab89190614935565b60408051601f1981840301815290829052610ad29161475c565b60405180910390a15050600980547fffffffffffffffffffffff00ffffffffffffffffffffffffffffffffffffffff16600160a01b1790555050565b600260045403610b605760405162461bcd60e51b815260206004820152601f60248201527f5265656e7472616e637947756172643a207265656e7472616e742063616c6c00604482015260640161043b565b6002600455600854600090610b8790610b788461194b565b610b829190614a2d565b611a70565b60208301515190915060008167ffffffffffffffff811115610bab57610bab613a16565b604051908082528060200260200182016040528015610be457816020015b610bd16134cf565b815260200190600190039081610bc95790505b50905060008267ffffffffffffffff811115610c0257610c02613a16565b604051908082528060200260200182016040528015610c3557816020015b6060815260200190600190039081610c205790505b50905060008367ffffffffffffffff811115610c5357610c53613a16565b604051908082528060200260200182016040528015610c8c57816020015b610c79613748565b815260200190600190039081610c715790505b50905060008467ffffffffffffffff811115610caa57610caa613a16565b604051908082528060200260200182016040528015610cdd57816020015b6060815260200190600190039081610cc85790505b509050600080808088158015610cf35750600854155b15610d405760405162461bcd60e51b815260206004820152601760248201527f426c6f636b206d757374206265206e6f6e2d656d707479000000000000000000604482015260640161043b565b60005b898110156111c45760008c602001518281518110610d6357610d636149c9565b6020026020010151905060006003811115610d8057610d80614a45565b816003811115610d9257610d92614a45565b03610ee85760008d604001518781518110610daf57610daf6149c9565b60200260200101519050600187610dc69190614a2d565b9650610dd9816080015160000151611ae3565b610de281611b44565b60065460808201516040015167ffffffffffffffff91821691161015610e4a5760405162461bcd60e51b815260206004820152600c60248201527f45787069726564206e6f74650000000000000000000000000000000000000000604482015260640161043b565b8051610e5590611ba2565b6020810151610e65908e90611be6565b610e6e81611c69565b8e8781518110610e8057610e806149c9565b602002602001018e8881518110610e9957610e996149c9565b602002602001018e8981518110610eb257610eb26149c9565b602002602001018e8a81518110610ecb57610ecb6149c9565b6020026020010184905284905284905284905250505050506111b1565b6001816003811115610efc57610efc614a45565b03610f8e5760008d606001518681518110610f1957610f196149c9565b60200260200101519050600186610f309190614a2d565b9550610f4481610100015160000151611ae3565b610f5a8160800151600001518260a00151612150565b8051610f65906121f7565b6020810151610f75908e90612271565b6040810151610f85908e90612271565b610e6e816122ab565b6002816003811115610fa257610fa2614a45565b0361100d5760008d608001518581518110610fbf57610fbf6149c9565b60200260200101519050600185610fd69190614a2d565b9450610fe9816060015160000151611ae3565b8051610ff490611ba2565b6020810151611004908e90611be6565b610e6e81612873565b600381600381111561102157611021614a45565b036111695760008d60a00151848151811061103e5761103e6149c9565b602002602001015190506001846110559190614a2d565b8151608001515190945061106890611ae3565b61107181612be8565b80515161107d90611ba2565b60005b815160200151518110156110dc57806001146110ca576110ca82600001516020015182815181106110b3576110b36149c9565b60200260200101518f61227190919063ffffffff16565b806110d481614a5b565b915050611080565b506110e681612c9c565b8e87815181106110f8576110f86149c9565b602002602001018e8881518110611111576111116149c9565b602002602001018e898151811061112a5761112a6149c9565b602002602001018e8a81518110611143576111436149c9565b602002602001018490528490528490528490525050505061116381612ccc565b506111b1565b60405162461bcd60e51b815260206004820152601260248201527f436170653a20756e726561636861626c65210000000000000000000000000000604482015260640161043b565b50806111bc81614a5b565b915050610d43565b5088156112b2576006546040517f830affd6000000000000000000000000000000000000000000000000000000008152680100000000000000009091046001600160a01b03169063830affd690611225908b908b908b908b90600401614d30565b602060405180830381865afa158015611242573d6000803e3d6000fd5b505050506040513d601f19601f820116820180604052508101906112669190614f9e565b6112b25760405162461bcd60e51b815260206004820152601a60248201527f436170653a20626174636820766572696679206661696c65642e000000000000604482015260640161043b565b60005b600854811015611301576112ef600882815481106112d5576112d56149c9565b90600052602060002001548c61227190919063ffffffff16565b806112f981614a5b565b9150506112b5565b5060208a0151156113c4576007548a5160405163330ee6a760e01b81526001600160a01b039092169163330ee6a79161133c91600401614a1a565b600060405180830381600087803b15801561135657600080fd5b505af115801561136a573d6000803e3d6000fd5b505050506113c4600760009054906101000a90046001600160a01b03166001600160a01b0316636444c8d16040518163ffffffff1660e01b8152600401602060405180830381865afa158015610a5d573d6000803e3d6000fd5b60068054600191906000906113e490849067ffffffffffffffff16614fbb565b92506101000a81548167ffffffffffffffff021916908367ffffffffffffffff1602179055506114138b612d18565b61141f6008600061394d565b50506001600455505050505050505050565b60008082604051602001611445919061481b565b60408051601f198184030181529181528151602092830120600090815260039092529020546001600160a01b03169392505050565b60008061148683611431565b6001600160a01b0316141592915050565b60006114a4848484612e3e565b90506114fd6c1193d4915251d397d054d4d155609a1b826040516020016114cc929190614fe7565b60408051601f1981840301815282825280516020918201209083015201604051602081830303815290604052612e90565b851461154b5760405162461bcd60e51b815260206004820152601860248201527f57726f6e6720666f726569676e20617373657420636f64650000000000000000604482015260640161043b565b5050505050565b600061100082602001516020015160600151106115b15760405162461bcd60e51b815260206004820152601a60248201527f52657665616c206d617020657863656564732031322062697473000000000000604482015260640161043b565b600082608001516115c35760006115c6565b60015b60ff168360200151602001516060015160026115e29190615023565b6115ec9190614a2d565b604080516101e08101825260a080870151825286516001600160801b0390811660208085019190915280890180515185870152898601805151606087015251820151608080870191909152815183015151519486019490945280518201515182015160c086015280518201518201515160e0860152805182015182015182015161010086015280518201518601515161012086015280518201518601518201516101408601526101608501879052510151909101511661018082015260006101a082018190526101c082015290517f8c5480360000000000000000000000000000000000000000000000000000000081529192509073__$2783a64b147d5f689049cabc192a316d9d$__90638c5480369061170b908490600401615042565b602060405180830381865af4158015611728573d6000803e3d6000fd5b505050506040513d601f19601f8201168201806040525081019061174c91906148c0565b949350505050565b60006040517f23b872dd0000000000000000000000000000000000000000000000000000000081526001600160a01b03851660048201526001600160a01b038416602482015282604482015260008060648360008a5af19150506117b781612f34565b61154b5760405162461bcd60e51b815260206004820152601460248201527f5452414e534645525f46524f4d5f4641494c4544000000000000000000000000604482015260640161043b565b60008181526001602052604090205460ff16156118625760405162461bcd60e51b815260206004820152601360248201527f526f6f7420616c72656164792065786973747300000000000000000000000000604482015260640161043b565b6002546000805490916001918391829167ffffffffffffffff90911690811061188d5761188d6149c9565b60009182526020808320919091015483528201929092526040018120805460ff191692151592909217909155600254815483929167ffffffffffffffff169081106118da576118da6149c9565b600091825260208083209091019290925582815260019182905260408120805460ff19168317905554600254909161191c9167ffffffffffffffff1690614fbb565b6119269190615074565b6002805467ffffffffffffffff191667ffffffffffffffff9290921691909117905550565b60008082606001515160026119609190615023565b905060005b8360400151518110156119b45783604001518181518110611988576119886149c9565b60200260200101516020015151826119a09190614a2d565b9150806119ac81614a5b565b915050611965565b5060005b8360a0015151811015611a165760018460a0015182815181106119dd576119dd6149c9565b60200260200101516000015160200151516119f8919061509b565b611a029083614a2d565b915080611a0e81614a5b565b9150506119b8565b5060005b836080015151811015611a695783608001518181518110611a3d57611a3d6149c9565b6020026020010151602001515182611a559190614a2d565b915080611a6181614a5b565b915050611a1a565b5092915050565b60408051808201909152606081526000602082015260405180604001604052808367ffffffffffffffff811115611aa957611aa9613a16565b604051908082528060200260200182016040528015611ad2578160200160208202803683370190505b508152600060209091015292915050565b60008181526001602052604090205460ff16611b415760405162461bcd60e51b815260206004820152600e60248201527f526f6f74206e6f7420666f756e64000000000000000000000000000000000000604482015260640161043b565b50565b611b55816080015160800151612f7b565b15611b415760405162461bcd60e51b815260206004820152601c60248201527f4275726e2070726566697820696e207472616e73666572206e6f746500000000604482015260640161043b565b60005b8151811015611be257611bd0828281518110611bc357611bc36149c9565b60200260200101516121f7565b80611bda81614a5b565b915050611ba5565b5050565b60005b8151811015611c4e57818181518110611c0457611c046149c9565b60200260200101518360000151846020015183611c219190614a2d565b81518110611c3157611c316149c9565b602090810291909101015280611c4681614a5b565b915050611be9565b50805182602001818151611c629190614a2d565b9052505050565b611c716134cf565b6060611c7b613748565b606073__$83dbcae801b35109718c5df795b4aa345f$__63b95a6ecc816322e6017b60008951516020808c015151600754604080516319efb11d60e01b8152905192936001600160a01b03909216926319efb11d926004808401939192918290030181865afa158015611cf2573d6000803e3d6000fd5b505050506040513d601f19601f82011682018060405250810190611d1691906150b2565b60405160e086901b7fffffffff0000000000000000000000000000000000000000000000000000000016815260ff9485166004820152928416602484015290831660448301529091166064820152608401602060405180830381865af4158015611d84573d6000803e3d6000fd5b505050506040513d601f19601f82011682018060405250810190611da891906148c0565b6040518263ffffffff1660e01b8152600401611dc691815260200190565b6104c060405180830381865af4158015611de4573d6000803e3d6000fd5b505050506040513d601f19601f82011682018060405250810190611e089190615105565b9350846060015160200151518560200151518660000151516004611e2c9190614a2d565b611e369190614a2d565b611e41906002614a2d565b611e4b9190614a2d565b67ffffffffffffffff811115611e6357611e63613a16565b604051908082528060200260200182016040528015611e8c578160200160208202803683370190505b50925084608001516000015183600081518110611eab57611eab6149c9565b602002602001018181525050600183600181518110611ecc57611ecc6149c9565b60200260200101818152505084608001516040015167ffffffffffffffff1683600281518110611efe57611efe6149c9565b6020026020010181815250508460800151602001516001600160801b031683600381518110611f2f57611f2f6149c9565b6020908102919091010152600460005b865151811015611f9f578651805182908110611f5d57611f5d6149c9565b6020026020010151858284611f729190614a2d565b81518110611f8257611f826149c9565b602090810291909101015280611f9781614a5b565b915050611f3f565b50855151611fad9082614a2d565b905060005b8660200151518110156120175786602001518181518110611fd557611fd56149c9565b6020026020010151858284611fea9190614a2d565b81518110611ffa57611ffa6149c9565b60209081029190910101528061200f81614a5b565b915050611fb2565b506020860151516120289082614a2d565b905085606001516000015160000151848281518110612049576120496149c9565b60209081029190910181019190915260608701515101518461206c836001614a2d565b8151811061207c5761207c6149c9565b6020908102919091010152612092600282614a2d565b905060005b866060015160200151518110156121045786606001516020015181815181106120c2576120c26149c9565b60200260200101518582846120d79190614a2d565b815181106120e7576120e76149c9565b6020908102919091010152806120fc81614a5b565b915050612097565b50508460400151915061211e856080015160600151612fcf565b856080015160800151604051602001612138929190615295565b60405160208183030381529060405290509193509193565b6121a97f444f4d45535449435f415353455400000000000000000000000000000000000061217d83613063565b60405171ffffffffffffffffffffffffffffffffffff199092166020830152602e820152604e016114cc565b8214611be25760405162461bcd60e51b815260206004820152601960248201527f57726f6e6720646f6d657374696320617373657420636f646500000000000000604482015260640161043b565b60008181526005602052604090205460ff16156122565760405162461bcd60e51b815260206004820152601b60248201527f4e756c6c696669657220616c7265616479207075626c69736865640000000000604482015260640161043b565b6000908152600560205260409020805460ff19166001179055565b80826000015183602001518151811061228c5761228c6149c9565b602002602001018181525050600182602001818151611c629190614a2d565b6122b36134cf565b60606122bd613748565b606073__$83dbcae801b35109718c5df795b4aa345f$__63b95a6ecc816322e6017b6001806002600760009054906101000a90046001600160a01b03166001600160a01b03166319efb11d6040518163ffffffff1660e01b8152600401602060405180830381865afa158015612337573d6000803e3d6000fd5b505050506040513d601f19601f8201168201806040525081019061235b91906150b2565b60405160e086901b7fffffffff0000000000000000000000000000000000000000000000000000000016815260ff9485166004820152928416602484015290831660448301529091166064820152608401602060405180830381865af41580156123c9573d6000803e3d6000fd5b505050506040513d601f19601f820116820180604052508101906123ed91906148c0565b6040518263ffffffff1660e01b815260040161240b91815260200190565b6104c060405180830381865af4158015612429573d6000803e3d6000fd5b505050506040513d601f19601f8201168201806040525081019061244d9190615105565b93508460e00151602001515160136124659190614a2d565b67ffffffffffffffff81111561247d5761247d613a16565b6040519080825280602002602001820160405280156124a6578160200160208202803683370190505b50925084610100015160000151836000815181106124c6576124c66149c9565b6020026020010181815250506001836001815181106124e7576124e76149c9565b60200260200101818152505084600001518360028151811061250b5761250b6149c9565b602002602001018181525050846101000151602001516001600160801b03168360038151811061253d5761253d6149c9565b602002602001018181525050846040015183600481518110612561576125616149c9565b602002602001018181525050846020015183600581518110612585576125856149c9565b60200260200101818152505084606001516001600160801b0316836006815181106125b2576125b26149c9565b602002602001018181525050846080015160000151836007815181106125da576125da6149c9565b6020026020010181815250508460a00151836008815181106125fe576125fe6149c9565b602002602001018181525050846080015160200151606001518360098151811061262a5761262a6149c9565b602002602001018181525050846080015160200151600001516000015183600a8151811061265a5761265a6149c9565b602002602001018181525050846080015160200151600001516020015183600b8151811061268a5761268a6149c9565b602002602001018181525050846080015160200151602001516000015183600c815181106126ba576126ba6149c9565b602002602001018181525050846080015160200151602001516020015183600d815181106126ea576126ea6149c9565b602002602001018181525050846080015160200151604001516000015183600e8151811061271a5761271a6149c9565b602002602001018181525050846080015160200151604001516020015183600f8151811061274a5761274a6149c9565b602002602001018181525050846080015160200151608001516001600160801b03168360108151811061277f5761277f6149c9565b602090810291909101015260e085015151518351849060119081106127a6576127a66149c9565b6020026020010181815250508460e001516000015160200151836012815181106127d2576127d26149c9565b6020908102919091010152601360005b8660e00151602001515181101561284f578660e0015160200151818151811061280d5761280d6149c9565b60200260200101518582846128229190614a2d565b81518110612832576128326149c9565b60209081029190910101528061284781614a5b565b9150506127e2565b50508460c00151915061286a85610100015160400151612fcf565b90509193509193565b61287b6134cf565b6060612885613748565b606073__$83dbcae801b35109718c5df795b4aa345f$__63b95a6ecc816322e6017b60028951516020808c015151600754604080516319efb11d60e01b8152905192936001600160a01b03909216926319efb11d926004808401939192918290030181865afa1580156128fc573d6000803e3d6000fd5b505050506040513d601f19601f8201168201806040525081019061292091906150b2565b60405160e086901b7fffffffff0000000000000000000000000000000000000000000000000000000016815260ff9485166004820152928416602484015290831660448301529091166064820152608401602060405180830381865af415801561298e573d6000803e3d6000fd5b505050506040513d601f19601f820116820180604052508101906129b291906148c0565b6040518263ffffffff1660e01b81526004016129d091815260200190565b6104c060405180830381865af41580156129ee573d6000803e3d6000fd5b505050506040513d601f19601f82011682018060405250810190612a129190615105565b60208601515186515191955090612a2a906003614a2d565b612a349190614a2d565b67ffffffffffffffff811115612a4c57612a4c613a16565b604051908082528060200260200182016040528015612a75578160200160208202803683370190505b50925084606001516000015183600081518110612a9457612a946149c9565b602002602001018181525050600183600181518110612ab557612ab56149c9565b6020026020010181815250508460600151602001516001600160801b031683600281518110612ae657612ae66149c9565b6020908102919091010152600360005b865151811015612b56578651805182908110612b1457612b146149c9565b6020026020010151858284612b299190614a2d565b81518110612b3957612b396149c9565b602090810291909101015280612b4e81614a5b565b915050612af6565b50855151612b649082614a2d565b905060005b866020015151811015612bce5786602001518181518110612b8c57612b8c6149c9565b6020026020010151858284612ba19190614a2d565b81518110612bb157612bb16149c9565b602090810291909101015280612bc681614a5b565b915050612b69565b50508460400151915061286a856060015160400151612fcf565b80516080908101510151612bfb81612f7b565b612c475760405162461bcd60e51b815260206004820152600c60248201527f426164206275726e207461670000000000000000000000000000000000000000604482015260640161043b565b612c50826131af565b611be25760405162461bcd60e51b815260206004820152601560248201527f426164207265636f726420636f6d6d69746d656e740000000000000000000000604482015260640161043b565b612ca46134cf565b6060612cae613748565b6060612cbd8560000151611c69565b93509350935093509193509193565b6000612cdf826020015160200151611431565b90506000612cfa83600001516080015160800151600c613209565b905061056082828560200151600001516001600160801b031661327f565b600654815160405167ffffffffffffffff909216917fc34977751f08a257da613aa9db576f9b4edca0aef20e5b401f9c590a4d0c8fed91600891612d5f91906020016152bb565b6040516020818303038152906040528460200151604051602001612d8391906152d2565b6040516020818303038152906040528560400151604051602001612da79190615431565b6040516020818303038152906040528660600151604051602001612dcb91906154c6565b6040516020818303038152906040528760800151604051602001612def91906155b8565b6040516020818303038152906040528860a00151604051602001612e13919061565a565b60408051601f1981840301815290829052612e33979695949392916156d0565b60405180910390a250565b60608360601b8360601b83604051602001612e599190615799565b60408051601f1981840301815290829052612e789392916020016157a8565b60405160208183030381529060405290509392505050565b6000805b8251811015612f2e577f30644e72e131a029b85045b68181585d2833e84879b9709143e1f593f0000001610100830991507f30644e72e131a029b85045b68181585d2833e84879b9709143e1f593f0000001838260018651612ef6919061509b565b612f00919061509b565b81518110612f1057612f106149c9565b016020015160f81c8308915080612f2681614a5b565b915050612e94565b50919050565b60003d82612f4657806000803e806000fd5b8060208114612f5e578015612f6f5760009250612f74565b816000803e60005115159250612f74565b600192505b5050919050565b6000600c82511015612f8f57506000919050565b612fc9612f9f836000600c613325565b6040518060400160405280600c81526020016b22b9a9a1a0a82290313ab93760a11b81525061344d565b92915050565b6060600061300683602001517f30644e72e131a029b85045b68181585d2833e84879b9709143e1f593f000000160019190911b1090565b61302d57507f80000000000000000000000000000000000000000000000000000000000000005b825161303a908217613063565b60405160200161304c91815260200190565b604051602081830303815290604052915050919050565b60008190506008817eff00ff00ff00ff00ff00ff00ff00ff00ff00ff00ff00ff00ff00ff00ff00ff16901b6008827fff00ff00ff00ff00ff00ff00ff00ff00ff00ff00ff00ff00ff00ff00ff00ff0016901c1790506010817dffff0000ffff0000ffff0000ffff0000ffff0000ffff0000ffff0000ffff16901b6010827fffff0000ffff0000ffff0000ffff0000ffff0000ffff0000ffff0000ffff000016901c1790506020817bffffffff00000000ffffffff00000000ffffffff00000000ffffffff16901b6020827fffffffff00000000ffffffff00000000ffffffff00000000ffffffff0000000016901c17905060408177ffffffffffffffff0000000000000000ffffffffffffffff16901b6040827fffffffffffffffff0000000000000000ffffffffffffffff000000000000000016901c179050608081901b608082901c179050919050565b600060028260000151602001515110156131cb57506000919050565b60006131da8360200151611552565b90508260000151602001516001815181106131f7576131f76149c9565b60200260200101518114915050919050565b6000613216826014614a2d565b835110156132665760405162461bcd60e51b815260206004820152601560248201527f746f416464726573735f6f75744f66426f756e64730000000000000000000000604482015260640161043b565b5001602001516c01000000000000000000000000900490565b60006040517fa9059cbb0000000000000000000000000000000000000000000000000000000081526001600160a01b03841660048201528260248201526000806044836000895af19150506132d381612f34565b61331f5760405162461bcd60e51b815260206004820152600f60248201527f5452414e534645525f4641494c45440000000000000000000000000000000000604482015260640161043b565b50505050565b60608161333381601f614a2d565b10156133815760405162461bcd60e51b815260206004820152600e60248201527f736c6963655f6f766572666c6f77000000000000000000000000000000000000604482015260640161043b565b61338b8284614a2d565b845110156133db5760405162461bcd60e51b815260206004820152601160248201527f736c6963655f6f75744f66426f756e6473000000000000000000000000000000604482015260640161043b565b6060821580156133fa5760405191506000825260208201604052613444565b6040519150601f8416801560200281840101858101878315602002848b0101015b8183101561343357805183526020928301920161341b565b5050858452601f01601f1916604052505b50949350505050565b81518151600091600191811480831461346957600092506134a6565b600160208701838101602088015b60028483851001036134a15780518351146134955760009650600093505b60209283019201613477565b505050505b5090949350505050565b6040518060400160405280600081526020016134ca61396b565b905290565b6040518061028001604052806000815260200160008152602001613506604051806040016040528060008152602001600081525090565b8152602001613528604051806040016040528060008152602001600081525090565b815260200161354a604051806040016040528060008152602001600081525090565b815260200161356c604051806040016040528060008152602001600081525090565b815260200161358e604051806040016040528060008152602001600081525090565b81526020016135b0604051806040016040528060008152602001600081525090565b81526020016135d2604051806040016040528060008152602001600081525090565b81526020016135f4604051806040016040528060008152602001600081525090565b8152602001613616604051806040016040528060008152602001600081525090565b8152602001613638604051806040016040528060008152602001600081525090565b815260200161365a604051806040016040528060008152602001600081525090565b815260200161367c604051806040016040528060008152602001600081525090565b815260200161369e604051806040016040528060008152602001600081525090565b81526020016136c0604051806040016040528060008152602001600081525090565b81526020016136e2604051806040016040528060008152602001600081525090565b8152602001613704604051806040016040528060008152602001600081525090565b8152602001613726604051806040016040528060008152602001600081525090565b81526020016134ca604051806040016040528060008152602001600081525090565b60408051610320810190915260006102e082018181526103008301919091528190815260200161378b604051806040016040528060008152602001600081525090565b81526020016137ad604051806040016040528060008152602001600081525090565b81526020016137cf604051806040016040528060008152602001600081525090565b81526020016137f1604051806040016040528060008152602001600081525090565b8152602001613813604051806040016040528060008152602001600081525090565b8152602001613835604051806040016040528060008152602001600081525090565b8152602001613857604051806040016040528060008152602001600081525090565b8152602001613879604051806040016040528060008152602001600081525090565b815260200161389b604051806040016040528060008152602001600081525090565b81526020016138bd604051806040016040528060008152602001600081525090565b81526020016138df604051806040016040528060008152602001600081525090565b8152602001613901604051806040016040528060008152602001600081525090565b8152602001600081526020016000815260200160008152602001600081526020016000815260200160008152602001600081526020016000815260200160008152602001600081525090565b5080546000825590600052602060002090810190611b4191906139e1565b6040805160e08101909152600060a0820181815260c0830191909152819081526020016139ab604051806040016040528060008152602001600081525090565b81526020016139cd604051806040016040528060008152602001600081525090565b815260006020820181905260409091015290565b5b808211156139f657600081556001016139e2565b5090565b80356001600160a01b0381168114613a1157600080fd5b919050565b634e487b7160e01b600052604160045260246000fd5b6040805190810167ffffffffffffffff81118282101715613a4f57613a4f613a16565b60405290565b60405160a0810167ffffffffffffffff81118282101715613a4f57613a4f613a16565b6040516102e0810167ffffffffffffffff81118282101715613a4f57613a4f613a16565b604051610120810167ffffffffffffffff81118282101715613a4f57613a4f613a16565b6040516080810167ffffffffffffffff81118282101715613a4f57613a4f613a16565b60405160c0810167ffffffffffffffff81118282101715613a4f57613a4f613a16565b604051610280810167ffffffffffffffff81118282101715613a4f57613a4f613a16565b604051601f8201601f1916810167ffffffffffffffff81118282101715613b5357613b53613a16565b604052919050565b600060408284031215613b6d57600080fd5b613b75613a2c565b9050813581526020820135602082015292915050565b80356001600160801b0381168114613a1157600080fd5b6000818303610120811215613bb657600080fd5b613bbe613a2c565b91508235825261010080601f1983011215613bd857600080fd5b613be0613a55565b9150613bef8560208601613b5b565b8252613bfe8560608601613b5b565b6020830152613c108560a08601613b5b565b604083015260e08401356060830152613c2a818501613b8b565b608083015250602082015292915050565b6000806101408385031215613c4f57600080fd5b613c58836139fa565b9150613c678460208501613ba2565b90509250929050565b600067ffffffffffffffff821115613c8a57613c8a613a16565b5060051b60200190565b600082601f830112613ca557600080fd5b81356020613cba613cb583613c70565b613b2a565b82815260059290921b84018101918181019086841115613cd957600080fd5b8286015b84811015613d0257803560048110613cf55760008081fd5b8352918301918301613cdd565b509695505050505050565b600082601f830112613d1e57600080fd5b81356020613d2e613cb583613c70565b82815260059290921b84018101918181019086841115613d4d57600080fd5b8286015b84811015613d025780358352918301918301613d51565b60006104808284031215613d7b57600080fd5b613d83613a78565b9050613d8f8383613b5b565b8152613d9e8360408401613b5b565b6020820152613db08360808401613b5b565b6040820152613dc28360c08401613b5b565b6060820152610100613dd684828501613b5b565b6080830152610140613dea85828601613b5b565b60a0840152610180613dfe86828701613b5b565b60c08501526101c0613e1287828801613b5b565b60e0860152610200613e2688828901613b5b565b858701526102409450613e3b88868901613b5b565b610120870152610280613e5089828a01613b5b565b858801526102c09450613e6589868a01613b5b565b610160880152613e79896103008a01613b5b565b848801526103408801356101a0880152610360880135838801526103808801356101e08801526103a0880135828801526103c08801356102208801526103e08801358688015261040088013561026088015261042088013581880152505050506104408401356102a084015261046084013581840152505092915050565b600060608284031215613f0957600080fd5b613f11613a2c565b9050613f1d8383613b5b565b8152604082013567ffffffffffffffff811115613f3957600080fd5b613f4584828501613d0d565b60208301525092915050565b600060c08284031215613f6357600080fd5b613f6b613a55565b9050813581526020613f7e818401613b8b565b81830152604083013567ffffffffffffffff8082168214613f9e57600080fd5b816040850152613fb18660608701613b5b565b606085015260a0850135915080821115613fca57600080fd5b818501915085601f830112613fde57600080fd5b813581811115613ff057613ff0613a16565b614002601f8201601f19168501613b2a565b9150808252868482850101111561401857600080fd5b808484018584013760008482840101525080608085015250505092915050565b6000610500828403121561404b57600080fd5b614053613a55565b9050813567ffffffffffffffff8082111561406d57600080fd5b61407985838601613d0d565b8352602084013591508082111561408f57600080fd5b61409b85838601613d0d565b60208401526140ad8560408601613d68565b60408401526104c08401359150808211156140c757600080fd5b6140d385838601613ef7565b60608401526104e08401359150808211156140ed57600080fd5b506140fa84828501613f51565b60808301525092915050565b600082601f83011261411757600080fd5b81356020614127613cb583613c70565b82815260059290921b8401810191818101908684111561414657600080fd5b8286015b84811015613d0257803567ffffffffffffffff81111561416a5760008081fd5b6141788986838b0101614038565b84525091830191830161414a565b60006080828403121561419857600080fd5b6040516060810181811067ffffffffffffffff821117156141bb576141bb613a16565b604052823581529050806141d160208401613b8b565b60208201526141e38460408501613b5b565b60408201525092915050565b600082601f83011261420057600080fd5b81356020614210613cb583613c70565b82815260059290921b8401810191818101908684111561422f57600080fd5b8286015b84811015613d0257803567ffffffffffffffff808211156142545760008081fd5b908801906106e0828b03601f1901121561426e5760008081fd5b614276613a9c565b86830135815260408084013588830152606080850135828401526080915061429f828601613b8b565b9083015260a06142b18d868301613ba2565b828401526101c08501358184015250506142cf8b6101e08501613d68565b60c0820152610660830135828111156142e85760008081fd5b6142f68c8983870101613ef7565b60e08301525061430a8b6106808501614186565b61010082015285525050918301918301614233565b600082601f83011261433057600080fd5b81356020614340613cb583613c70565b82815260059290921b8401810191818101908684111561435f57600080fd5b8286015b84811015613d0257803567ffffffffffffffff808211156143845760008081fd5b90880190610540828b03601f1901121561439e5760008081fd5b6143a6613ac0565b86830135828111156143b85760008081fd5b6143c68c8983870101613d0d565b825250604080840135838111156143dd5760008081fd5b6143eb8d8a83880101613d0d565b8984015250606092506144008c848601613d68565b908201526144128b6104e08501614186565b91810191909152845250918301918301614363565b8015158114611b4157600080fd5b60006101e0828403121561444857600080fd5b614450613ae3565b905061445b82613b8b565b815261446a8360208401613ba2565b602082015261447d836101408401613b5b565b604082015261018082013560608201526101a082013561449c81614427565b60808201526101c0919091013560a0820152919050565b600082601f8301126144c457600080fd5b813560206144d4613cb583613c70565b82815260059290921b840181019181810190868411156144f357600080fd5b8286015b84811015613d0257803567ffffffffffffffff808211156145185760008081fd5b90880190610200828b03601f190112156145325760008081fd5b61453a613a2c565b868301358281111561454c5760008081fd5b61455a8c8983870101614038565b82525061456a8b60408501614435565b81880152855250509183019183016144f7565b600060e0828403121561458f57600080fd5b614597613ae3565b90506145a38383613b5b565b8152604082013567ffffffffffffffff808211156145c057600080fd5b6145cc85838601613c94565b602084015260608401359150808211156145e557600080fd5b6145f185838601614106565b6040840152608084013591508082111561460a57600080fd5b614616858386016141ef565b606084015260a084013591508082111561462f57600080fd5b61463b8583860161431f565b608084015260c084013591508082111561465457600080fd5b50614661848285016144b3565b60a08301525092915050565b60008060006040848603121561468257600080fd5b833567ffffffffffffffff8082111561469a57600080fd5b6146a68783880161457d565b945060208601359150808211156146bc57600080fd5b818601915086601f8301126146d057600080fd5b8135818111156146df57600080fd5b8760208285010111156146f157600080fd5b6020830194508093505050509250925092565b60005b8381101561471f578181015183820152602001614707565b8381111561331f5750506000910152565b60008151808452614748816020860160208601614704565b601f01601f19169290920160200192915050565b60208152600061476f6020830184614730565b9392505050565b600080610200838503121561478a57600080fd5b6147948484614435565b9150613c676101e084016139fa565b6147b882825180518252602090810151910152565b6020818101518051604085015290810151606084015250604081015180516080840152602081015160a084015250606081015160c0830152608001516001600160801b031660e090910152565b80518252602081015161056060208401826147a3565b6101208101612fc98284614805565b60006020828403121561483c57600080fd5b5035919050565b6000806060838503121561485657600080fd5b6148608484613b5b565b946040939093013593505050565b60006020828403121561488057600080fd5b813567ffffffffffffffff81111561489757600080fd5b61174c8482850161457d565b600061012082840312156148b657600080fd5b61476f8383613ba2565b6000602082840312156148d257600080fd5b5051919050565b6001600160801b03815116825260208101516148f86020840182614805565b5060408101518051610140840152602001516101608301526060810151610180830152608081015115156101a083015260a001516101c090910152565b6101e08101612fc982846148d9565b6060815260006149576060830186614730565b6001600160a01b0394851660208401529290931660409091015292915050565b634e487b7160e01b600052601260045260246000fd5b634e487b7160e01b600052601160045260246000fd5b60006001600160801b03808416806149bd576149bd614977565b92169190910492915050565b634e487b7160e01b600052603260045260246000fd5b600081518084526020808501945080840160005b83811015614a0f578151875295820195908201906001016149f3565b509495945050505050565b60208152600061476f60208301846149df565b60008219821115614a4057614a4061498d565b500190565b634e487b7160e01b600052602160045260246000fd5b600060018201614a6d57614a6d61498d565b5060010190565b600081518084526020808501808196508360051b8101915082860160005b85811015614abc578284038952614aaa8483516149df565b98850198935090840190600101614a92565b5091979650505050505050565b614ade82825180518252602090810151910152565b6020818101518051604085015290810151606084015250604081015180516080840152602081015160a0840152506060810151805160c0840152602081015160e0840152506080810151610100614b418185018380518252602090810151910152565b60a08301519150610140614b618186018480518252602090810151910152565b60c08401519250610180614b818187018580518252602090810151910152565b60e085015193506101c0614ba18188018680518252602090810151910152565b92850151935061020092614bc18785018680518252602090810151910152565b6101208601519450610240614be28189018780518252602090810151910152565b92860151945061028092614c028885018780518252602090810151910152565b61016087015195506102c0614c23818a018880518252602090810151910152565b9287015180516103008a0152602001516103208901526101a0870151610340890152908601516103608801526101e0860151610380880152928501516103a08701526102208501516103c0870152918401516103e08601526102608401516104008601528301516104208501526102a0830151610440850152909101516104609092019190915250565b600081518084526020808501945080840160005b83811015614a0f57614cd4878351614ac9565b610480969096019590820190600101614cc1565b600081518084526020808501808196508360051b8101915082860160005b85811015614abc578284038952614d1e848351614730565b98850198935090840190600101614d06565b608080825285518282018190526000919060a090818501906020808b01865b83811015614f555781518051865283810151848701526040808201518051828901526020810151606089015250506060810151614d988988018280518252602090810151910152565b508781015160c0614db58189018380518252602090810151910152565b888301519150610100614dd4818a018480518252602090810151910152565b90830151915061014090614df48983018480518252602090810151910152565b60e08401519250610180614e14818b018580518252602090810151910152565b9084015192506101c090614e348a83018580518252602090810151910152565b6101208501519350610200614e55818c018680518252602090810151910152565b92850151935061024092614e758b85018680518252602090810151910152565b61016086015180516102808d01526020908101516102a08d01529186015180516102c08d01528201516102e08c01526101a086015180516103008d01528201516103208c01529185015180516103408c01528101516103608b01526101e085015180516103808c01528101516103a08b01529084015180516103c08b01528101516103e08a015261022084015180516104008b01528101516104208a01529083015180516104408a0152810151610460890152610260909201518051610480890152909101516104a0870152506104c09094019390820190600101614d4f565b50508683039087015250614f698189614a74565b925050508281036040840152614f7f8186614cad565b90508281036060840152614f938185614ce8565b979650505050505050565b600060208284031215614fb057600080fd5b815161476f81614427565b600067ffffffffffffffff808316818516808303821115614fde57614fde61498d565b01949350505050565b72ffffffffffffffffffffffffffffffffffffff19831681526000825161501581600d850160208701614704565b91909101600d019392505050565b600081600019048311821515161561503d5761503d61498d565b500290565b6101e08101818360005b600f81101561506b57815183526020928301929091019060010161504c565b50505092915050565b600067ffffffffffffffff8084168061508f5761508f614977565b92169190910692915050565b6000828210156150ad576150ad61498d565b500390565b6000602082840312156150c457600080fd5b815160ff8116811461476f57600080fd5b6000604082840312156150e757600080fd5b6150ef613a2c565b9050815181526020820151602082015292915050565b60006104c0828403121561511857600080fd5b615120613b06565b825181526020830151602082015261513b84604085016150d5565b604082015261514d84608085016150d5565b606082015261515f8460c085016150d5565b6080820152610100615173858286016150d5565b60a0830152610140615187868287016150d5565b60c084015261018061519b878288016150d5565b60e08501526101c06151af888289016150d5565b8486015261020093506151c4888589016150d5565b6101208601526102406151d989828a016150d5565b848701526151eb896102808a016150d5565b6101608701526151ff896102c08a016150d5565b83870152615211896103008a016150d5565b6101a0870152615225896103408a016150d5565b82870152615237896103808a016150d5565b6101e087015261524b896103c08a016150d5565b8587015261525d896104008a016150d5565b610220870152615271896104408a016150d5565b8187015250505050506152888461048085016150d5565b6102608201529392505050565b600083516152a7818460208801614704565b835190830190614fde818360208801614704565b815181526020808301519082015260408101612fc9565b602080825282518282018190526000919084820190604085019084805b82811015614abc578451600480821061531557634e487b7160e01b845260218152602484fd5b50845293850193928501926001016152ef565b61533d82825180518252602090810151910152565b600060208201516060604085015261174c60608501826149df565b6000610500825181855261536e828601826149df565b9150506020830151848203602086015261538882826149df565b915050604083015161539d6040860182614ac9565b5060608301518482036104c08601526153b68282615328565b91505060808301518482036104e0860152805182526001600160801b03602082015116602083015267ffffffffffffffff6040820151166040830152606081015161540e606084018280518252602090810151910152565b506080015160c060a0830181905261542890830182614730565b95945050505050565b6000602080830181845280855180835260408601915060408160051b870101925083870160005b8281101561548657603f19888603018452615474858351615358565b94509285019290850190600101615458565b5092979650505050505050565b805182526001600160801b0360208201511660208301526040810151610560604084018280518252602090810151910152565b60006020808301818452808551808352604092508286019150828160051b87010184880160005b838110156155aa57603f1989840301855281516106e08151855288820151898601528782015188860152606080830151615531828801826001600160801b03169052565b505060808083015161554582880182614805565b505060a08201516101a086015260c08201516155656101c0870182614ac9565b5060e08201518161064087015261557e82870182615328565b9150506101008201519150615597610660860183615493565b95880195935050908601906001016154ed565b509098975050505050505050565b60006020808301818452808551808352604092508286019150828160051b87010184880160005b838110156155aa57603f1989840301855281516105408151818652615606828701826149df565b915050888201518582038a87015261561e82826149df565b9150508782015161563189870182614ac9565b50606082015191506156476104c0860183615493565b95880195935050908601906001016155df565b6000602080830181845280855180835260408601915060408160051b870101925083870160005b8281101561548657603f19888603018452815161020081518188526156a882890182615358565b9150508782015191506156bd888801836148d9565b9550509285019290850190600101615681565b600060e0820160e08352808a54808352610100850191508b600052602092508260002060005b82811015615712578154845292840192600191820191016156f6565b50505083810382850152615726818b614730565b915050828103604084015261573b8189614730565b9050828103606084015261574f8188614730565b905082810360808401526157638187614730565b905082810360a08401526157778186614730565b905082810360c084015261578b8185614730565b9a9950505050505050505050565b6101008101612fc982846147a3565b7f457353434150452045524332300000000000000000000000000000000000000081526bffffffffffffffffffffffff19848116600d8301527f73706f6e736f726564206279000000000000000000000000000000000000000060218301528316602d8201527f706f6c69637900000000000000000000000000000000000000000000000000006041820152815160009061584a816047850160208701614704565b9190910160470194935050505056fea2646970667358221220859879091ff5678ccc23d56bb576d7cdacc7deb5bdf59d1a7401c7ed937c26cc64736f6c634300080d0033",
  "libraries": {
    "RescueLib": "0x65544E31DDee5CEdBee2D2cbA1eD341F361141bf",
    "VerifyingKeys": "0xb91F732F69a6a6B0A113ED2DD2685e1FeBf73137"
  },
  "devdoc": {
    "kind": "dev",
    "methods": {
      "constructor": {
        "params": {
          "nRoots": "number of the most recent roots of the records merkle tree to be stored",
          "verifierAddr": "address of the Plonk Verifier contract"
        }
      },
      "depositErc20((uint128,(uint256,((uint256,uint256),(uint256,uint256),(uint256,uint256),uint256,uint128)),(uint256,uint256),bytes32,bool,uint256),address)": {
        "params": {
          "erc20Address": "address of the ERC-20 token corresponding to the deposit",
          "ro": "record opening that will be inserted in the records merkle tree once the deposit is validated"
        }
      },
      "faucetSetupForTestnet((uint256,uint256),bytes32)": {
        "params": {
          "faucetManagerAddress": "address of public key of faucet manager for CAP native token (testnet only!)",
          "faucetManagerEncKey": "public key of faucet manager for CAP native token (testnet only!)"
        }
      },
      "isCapeAssetRegistered((uint256,((uint256,uint256),(uint256,uint256),(uint256,uint256),uint256,uint128)))": {
        "params": {
          "assetDefinition": "an asset definition"
        },
        "returns": {
          "_0": "True if the asset type is registered, false otherwise."
        }
      },
      "lookup((uint256,((uint256,uint256),(uint256,uint256),(uint256,uint256),uint256,uint128)))": {
        "params": {
          "assetDefinition": "an asset definition"
        },
        "returns": {
          "_0": "An ERC-20 address"
        }
      },
      "sponsorCapeAsset(address,(uint256,((uint256,uint256),(uint256,uint256),(uint256,uint256),uint256,uint128)))": {
        "params": {
          "erc20Address": "An ERC-20 token address",
          "newAsset": "An asset type to be registered in the contract"
        }
      },
      "submitCapeBlock(((uint256,uint256),uint8[],(uint256[],uint256[],((uint256,uint256),(uint256,uint256),(uint256,uint256),(uint256,uint256),(uint256,uint256),(uint256,uint256),(uint256,uint256),(uint256,uint256),(uint256,uint256),(uint256,uint256),(uint256,uint256),(uint256,uint256),(uint256,uint256),uint256,uint256,uint256,uint256,uint256,uint256,uint256,uint256,uint256,uint256),((uint256,uint256),uint256[]),(uint256,uint128,uint64,(uint256,uint256),bytes))[],(uint256,uint256,uint256,uint128,(uint256,((uint256,uint256),(uint256,uint256),(uint256,uint256),uint256,uint128)),uint256,((uint256,uint256),(uint256,uint256),(uint256,uint256),(uint256,uint256),(uint256,uint256),(uint256,uint256),(uint256,uint256),(uint256,uint256),(uint256,uint256),(uint256,uint256),(uint256,uint256),(uint256,uint256),(uint256,uint256),uint256,uint256,uint256,uint256,uint256,uint256,uint256,uint256,uint256,uint256),((uint256,uint256),uint256[]),(uint256,uint128,(uint256,uint256)))[],(uint256[],uint256[],((uint256,uint256),(uint256,uint256),(uint256,uint256),(uint256,uint256),(uint256,uint256),(uint256,uint256),(uint256,uint256),(uint256,uint256),(uint256,uint256),(uint256,uint256),(uint256,uint256),(uint256,uint256),(uint256,uint256),uint256,uint256,uint256,uint256,uint256,uint256,uint256,uint256,uint256,uint256),(uint256,uint128,(uint256,uint256)))[],((uint256[],uint256[],((uint256,uint256),(uint256,uint256),(uint256,uint256),(uint256,uint256),(uint256,uint256),(uint256,uint256),(uint256,uint256),(uint256,uint256),(uint256,uint256),(uint256,uint256),(uint256,uint256),(uint256,uint256),(uint256,uint256),uint256,uint256,uint256,uint256,uint256,uint256,uint256,uint256,uint256,uint256),((uint256,uint256),uint256[]),(uint256,uint128,uint64,(uint256,uint256),bytes)),(uint128,(uint256,((uint256,uint256),(uint256,uint256),(uint256,uint256),uint256,uint128)),(uint256,uint256),bytes32,bool,uint256))[]))": {
        "details": "Transactions are validated and the blockchain state is updated. Moreover *BURN* transactions trigger the unwrapping of cape asset records into erc20 tokens.",
        "params": {
          "newBlock": "block to be processed by the CAPE contract."
        }
      },
      "submitCapeBlockWithMemos(((uint256,uint256),uint8[],(uint256[],uint256[],((uint256,uint256),(uint256,uint256),(uint256,uint256),(uint256,uint256),(uint256,uint256),(uint256,uint256),(uint256,uint256),(uint256,uint256),(uint256,uint256),(uint256,uint256),(uint256,uint256),(uint256,uint256),(uint256,uint256),uint256,uint256,uint256,uint256,uint256,uint256,uint256,uint256,uint256,uint256),((uint256,uint256),uint256[]),(uint256,uint128,uint64,(uint256,uint256),bytes))[],(uint256,uint256,uint256,uint128,(uint256,((uint256,uint256),(uint256,uint256),(uint256,uint256),uint256,uint128)),uint256,((uint256,uint256),(uint256,uint256),(uint256,uint256),(uint256,uint256),(uint256,uint256),(uint256,uint256),(uint256,uint256),(uint256,uint256),(uint256,uint256),(uint256,uint256),(uint256,uint256),(uint256,uint256),(uint256,uint256),uint256,uint256,uint256,uint256,uint256,uint256,uint256,uint256,uint256,uint256),((uint256,uint256),uint256[]),(uint256,uint128,(uint256,uint256)))[],(uint256[],uint256[],((uint256,uint256),(uint256,uint256),(uint256,uint256),(uint256,uint256),(uint256,uint256),(uint256,uint256),(uint256,uint256),(uint256,uint256),(uint256,uint256),(uint256,uint256),(uint256,uint256),(uint256,uint256),(uint256,uint256),uint256,uint256,uint256,uint256,uint256,uint256,uint256,uint256,uint256,uint256),(uint256,uint128,(uint256,uint256)))[],((uint256[],uint256[],((uint256,uint256),(uint256,uint256),(uint256,uint256),(uint256,uint256),(uint256,uint256),(uint256,uint256),(uint256,uint256),(uint256,uint256),(uint256,uint256),(uint256,uint256),(uint256,uint256),(uint256,uint256),(uint256,uint256),uint256,uint256,uint256,uint256,uint256,uint256,uint256,uint256,uint256,uint256),((uint256,uint256),uint256[]),(uint256,uint128,uint64,(uint256,uint256),bytes)),(uint128,(uint256,((uint256,uint256),(uint256,uint256),(uint256,uint256),uint256,uint128)),(uint256,uint256),bytes32,bool,uint256))[]),bytes)": {
        "params": {
          "": "{bytes} extraData data to be stored in calldata; this data is ignored by the contract function",
          "newBlock": "block to be processed by the CAPE contract"
        }
      }
    },
    "version": 1
  },
  "userdoc": {
    "kind": "user",
    "methods": {
      "constructor": {
        "notice": "CAPE contract constructor method."
      },
      "depositErc20((uint128,(uint256,((uint256,uint256),(uint256,uint256),(uint256,uint256),uint256,uint128)),(uint256,uint256),bytes32,bool,uint256),address)": {
        "notice": "Wraps ERC-20 tokens into a CAPE asset defined in the record opening."
      },
      "faucetSetupForTestnet((uint256,uint256),bytes32)": {
        "notice": "Allocate native token faucet to a manager. For testnet only."
      },
      "isCapeAssetRegistered((uint256,((uint256,uint256),(uint256,uint256),(uint256,uint256),uint256,uint128)))": {
        "notice": "Is the given asset definition registered?"
      },
      "lookup((uint256,((uint256,uint256),(uint256,uint256),(uint256,uint256),uint256,uint128)))": {
        "notice": "Fetch the ERC-20 token address corresponding to the given asset definition."
      },
      "nativeDomesticAsset()": {
        "notice": "Return the CAP-native asset definition."
      },
      "sponsorCapeAsset(address,(uint256,((uint256,uint256),(uint256,uint256),(uint256,uint256),uint256,uint128)))": {
        "notice": "Create and register a new asset type associated with an ERC-20 token. Will revert if the asset type is already registered or the ERC-20 token address is zero."
      },
      "submitCapeBlock(((uint256,uint256),uint8[],(uint256[],uint256[],((uint256,uint256),(uint256,uint256),(uint256,uint256),(uint256,uint256),(uint256,uint256),(uint256,uint256),(uint256,uint256),(uint256,uint256),(uint256,uint256),(uint256,uint256),(uint256,uint256),(uint256,uint256),(uint256,uint256),uint256,uint256,uint256,uint256,uint256,uint256,uint256,uint256,uint256,uint256),((uint256,uint256),uint256[]),(uint256,uint128,uint64,(uint256,uint256),bytes))[],(uint256,uint256,uint256,uint128,(uint256,((uint256,uint256),(uint256,uint256),(uint256,uint256),uint256,uint128)),uint256,((uint256,uint256),(uint256,uint256),(uint256,uint256),(uint256,uint256),(uint256,uint256),(uint256,uint256),(uint256,uint256),(uint256,uint256),(uint256,uint256),(uint256,uint256),(uint256,uint256),(uint256,uint256),(uint256,uint256),uint256,uint256,uint256,uint256,uint256,uint256,uint256,uint256,uint256,uint256),((uint256,uint256),uint256[]),(uint256,uint128,(uint256,uint256)))[],(uint256[],uint256[],((uint256,uint256),(uint256,uint256),(uint256,uint256),(uint256,uint256),(uint256,uint256),(uint256,uint256),(uint256,uint256),(uint256,uint256),(uint256,uint256),(uint256,uint256),(uint256,uint256),(uint256,uint256),(uint256,uint256),uint256,uint256,uint256,uint256,uint256,uint256,uint256,uint256,uint256,uint256),(uint256,uint128,(uint256,uint256)))[],((uint256[],uint256[],((uint256,uint256),(uint256,uint256),(uint256,uint256),(uint256,uint256),(uint256,uint256),(uint256,uint256),(uint256,uint256),(uint256,uint256),(uint256,uint256),(uint256,uint256),(uint256,uint256),(uint256,uint256),(uint256,uint256),uint256,uint256,uint256,uint256,uint256,uint256,uint256,uint256,uint256,uint256),((uint256,uint256),uint256[]),(uint256,uint128,uint64,(uint256,uint256),bytes)),(uint128,(uint256,((uint256,uint256),(uint256,uint256),(uint256,uint256),uint256,uint128)),(uint256,uint256),bytes32,bool,uint256))[]))": {
        "notice": "Submit a new block to the CAPE contract."
      },
      "submitCapeBlockWithMemos(((uint256,uint256),uint8[],(uint256[],uint256[],((uint256,uint256),(uint256,uint256),(uint256,uint256),(uint256,uint256),(uint256,uint256),(uint256,uint256),(uint256,uint256),(uint256,uint256),(uint256,uint256),(uint256,uint256),(uint256,uint256),(uint256,uint256),(uint256,uint256),uint256,uint256,uint256,uint256,uint256,uint256,uint256,uint256,uint256,uint256),((uint256,uint256),uint256[]),(uint256,uint128,uint64,(uint256,uint256),bytes))[],(uint256,uint256,uint256,uint128,(uint256,((uint256,uint256),(uint256,uint256),(uint256,uint256),uint256,uint128)),uint256,((uint256,uint256),(uint256,uint256),(uint256,uint256),(uint256,uint256),(uint256,uint256),(uint256,uint256),(uint256,uint256),(uint256,uint256),(uint256,uint256),(uint256,uint256),(uint256,uint256),(uint256,uint256),(uint256,uint256),uint256,uint256,uint256,uint256,uint256,uint256,uint256,uint256,uint256,uint256),((uint256,uint256),uint256[]),(uint256,uint128,(uint256,uint256)))[],(uint256[],uint256[],((uint256,uint256),(uint256,uint256),(uint256,uint256),(uint256,uint256),(uint256,uint256),(uint256,uint256),(uint256,uint256),(uint256,uint256),(uint256,uint256),(uint256,uint256),(uint256,uint256),(uint256,uint256),(uint256,uint256),uint256,uint256,uint256,uint256,uint256,uint256,uint256,uint256,uint256,uint256),(uint256,uint128,(uint256,uint256)))[],((uint256[],uint256[],((uint256,uint256),(uint256,uint256),(uint256,uint256),(uint256,uint256),(uint256,uint256),(uint256,uint256),(uint256,uint256),(uint256,uint256),(uint256,uint256),(uint256,uint256),(uint256,uint256),(uint256,uint256),(uint256,uint256),uint256,uint256,uint256,uint256,uint256,uint256,uint256,uint256,uint256,uint256),((uint256,uint256),uint256[]),(uint256,uint128,uint64,(uint256,uint256),bytes)),(uint128,(uint256,((uint256,uint256),(uint256,uint256),(uint256,uint256),uint256,uint128)),(uint256,uint256),bytes32,bool,uint256))[]),bytes)": {
        "notice": "Submit a new block with extra data to the CAPE contract."
      }
    },
    "version": 1
  },
  "storageLayout": {
    "storage": [
      {
        "astId": 5655,
        "contract": "contracts/CAPE.sol:CAPE",
        "label": "_roots",
        "offset": 0,
        "slot": "0",
        "type": "t_array(t_uint256)dyn_storage"
      },
      {
        "astId": 5659,
        "contract": "contracts/CAPE.sol:CAPE",
        "label": "_rootsMap",
        "offset": 0,
        "slot": "1",
        "type": "t_mapping(t_uint256,t_bool)"
      },
      {
        "astId": 5661,
        "contract": "contracts/CAPE.sol:CAPE",
        "label": "_writeHead",
        "offset": 0,
        "slot": "2",
        "type": "t_uint64"
      },
      {
        "astId": 1332,
        "contract": "contracts/CAPE.sol:CAPE",
        "label": "assets",
        "offset": 0,
        "slot": "3",
        "type": "t_mapping(t_bytes32,t_address)"
      },
      {
        "astId": 114,
        "contract": "contracts/CAPE.sol:CAPE",
        "label": "_status",
        "offset": 0,
        "slot": "4",
        "type": "t_uint256"
      },
      {
        "astId": 1638,
        "contract": "contracts/CAPE.sol:CAPE",
        "label": "nullifiers",
        "offset": 0,
        "slot": "5",
        "type": "t_mapping(t_uint256,t_bool)"
      },
      {
        "astId": 1640,
        "contract": "contracts/CAPE.sol:CAPE",
        "label": "blockHeight",
        "offset": 0,
        "slot": "6",
        "type": "t_uint64"
      },
      {
        "astId": 1643,
        "contract": "contracts/CAPE.sol:CAPE",
        "label": "_verifier",
        "offset": 8,
        "slot": "6",
        "type": "t_contract(IPlonkVerifier)6034"
      },
      {
        "astId": 1646,
        "contract": "contracts/CAPE.sol:CAPE",
        "label": "_recordsMerkleTree",
        "offset": 0,
        "slot": "7",
        "type": "t_contract(IRecordsMerkleTree)6062"
      },
      {
        "astId": 1649,
        "contract": "contracts/CAPE.sol:CAPE",
        "label": "pendingDeposits",
        "offset": 0,
        "slot": "8",
        "type": "t_array(t_uint256)dyn_storage"
      },
      {
        "astId": 1651,
        "contract": "contracts/CAPE.sol:CAPE",
        "label": "deployer",
        "offset": 0,
        "slot": "9",
        "type": "t_address"
      },
      {
        "astId": 1653,
        "contract": "contracts/CAPE.sol:CAPE",
        "label": "faucetInitialized",
        "offset": 20,
        "slot": "9",
        "type": "t_bool"
      }
    ],
    "types": {
      "t_address": {
        "encoding": "inplace",
        "label": "address",
        "numberOfBytes": "20"
      },
      "t_array(t_uint256)dyn_storage": {
        "base": "t_uint256",
        "encoding": "dynamic_array",
        "label": "uint256[]",
        "numberOfBytes": "32"
      },
      "t_bool": {
        "encoding": "inplace",
        "label": "bool",
        "numberOfBytes": "1"
      },
      "t_bytes32": {
        "encoding": "inplace",
        "label": "bytes32",
        "numberOfBytes": "32"
      },
      "t_contract(IPlonkVerifier)6034": {
        "encoding": "inplace",
        "label": "contract IPlonkVerifier",
        "numberOfBytes": "20"
      },
      "t_contract(IRecordsMerkleTree)6062": {
        "encoding": "inplace",
        "label": "contract IRecordsMerkleTree",
        "numberOfBytes": "20"
      },
      "t_mapping(t_bytes32,t_address)": {
        "encoding": "mapping",
        "key": "t_bytes32",
        "label": "mapping(bytes32 => address)",
        "numberOfBytes": "32",
        "value": "t_address"
      },
      "t_mapping(t_uint256,t_bool)": {
        "encoding": "mapping",
        "key": "t_uint256",
        "label": "mapping(uint256 => bool)",
        "numberOfBytes": "32",
        "value": "t_bool"
      },
      "t_uint256": {
        "encoding": "inplace",
        "label": "uint256",
        "numberOfBytes": "32"
      },
      "t_uint64": {
        "encoding": "inplace",
        "label": "uint64",
        "numberOfBytes": "8"
      }
    }
  }
}