{
  "address": "0x2978AB8E662396CBBDC5D201388178faEBAbD716",
  "abi": [
    {
      "inputs": [],
      "stateMutability": "nonpayable",
      "type": "constructor"
    },
    {
      "anonymous": false,
      "inputs": [
        {
          "indexed": true,
          "internalType": "address",
          "name": "owner",
          "type": "address"
        },
        {
          "indexed": true,
          "internalType": "address",
          "name": "spender",
          "type": "address"
        },
        {
          "indexed": false,
          "internalType": "uint256",
          "name": "value",
          "type": "uint256"
        }
      ],
      "name": "Approval",
      "type": "event"
    },
    {
      "anonymous": false,
      "inputs": [
        {
          "indexed": true,
          "internalType": "address",
          "name": "from",
          "type": "address"
        },
        {
          "indexed": true,
          "internalType": "address",
          "name": "to",
          "type": "address"
        },
        {
          "indexed": false,
          "internalType": "uint256",
          "name": "value",
          "type": "uint256"
        }
      ],
      "name": "Transfer",
      "type": "event"
    },
    {
      "inputs": [
        {
          "internalType": "address",
          "name": "owner",
          "type": "address"
        },
        {
          "internalType": "address",
          "name": "spender",
          "type": "address"
        }
      ],
      "name": "allowance",
      "outputs": [
        {
          "internalType": "uint256",
          "name": "",
          "type": "uint256"
        }
      ],
      "stateMutability": "view",
      "type": "function"
    },
    {
      "inputs": [
        {
          "internalType": "address",
          "name": "spender",
          "type": "address"
        },
        {
          "internalType": "uint256",
          "name": "amount",
          "type": "uint256"
        }
      ],
      "name": "approve",
      "outputs": [
        {
          "internalType": "bool",
          "name": "",
          "type": "bool"
        }
      ],
      "stateMutability": "nonpayable",
      "type": "function"
    },
    {
      "inputs": [
        {
          "internalType": "address",
          "name": "account",
          "type": "address"
        }
      ],
      "name": "balanceOf",
      "outputs": [
        {
          "internalType": "uint256",
          "name": "",
          "type": "uint256"
        }
      ],
      "stateMutability": "view",
      "type": "function"
    },
    {
      "inputs": [],
      "name": "decimals",
      "outputs": [
        {
          "internalType": "uint8",
          "name": "",
          "type": "uint8"
        }
      ],
      "stateMutability": "view",
      "type": "function"
    },
    {
      "inputs": [
        {
          "internalType": "address",
          "name": "spender",
          "type": "address"
        },
        {
          "internalType": "uint256",
          "name": "subtractedValue",
          "type": "uint256"
        }
      ],
      "name": "decreaseAllowance",
      "outputs": [
        {
          "internalType": "bool",
          "name": "",
          "type": "bool"
        }
      ],
      "stateMutability": "nonpayable",
      "type": "function"
    },
    {
      "inputs": [
        {
          "internalType": "address",
          "name": "spender",
          "type": "address"
        },
        {
          "internalType": "uint256",
          "name": "addedValue",
          "type": "uint256"
        }
      ],
      "name": "increaseAllowance",
      "outputs": [
        {
          "internalType": "bool",
          "name": "",
          "type": "bool"
        }
      ],
      "stateMutability": "nonpayable",
      "type": "function"
    },
    {
      "inputs": [],
      "name": "name",
      "outputs": [
        {
          "internalType": "string",
          "name": "",
          "type": "string"
        }
      ],
      "stateMutability": "view",
      "type": "function"
    },
    {
      "inputs": [],
      "name": "selectDepositAttack",
      "outputs": [],
      "stateMutability": "nonpayable",
      "type": "function"
    },
    {
      "inputs": [],
      "name": "selectSubmitBlockAttack",
      "outputs": [],
      "stateMutability": "nonpayable",
      "type": "function"
    },
    {
      "inputs": [
        {
          "internalType": "address",
          "name": "targetContractAddress",
          "type": "address"
        }
      ],
      "name": "setTargetContractAddress",
      "outputs": [],
      "stateMutability": "nonpayable",
      "type": "function"
    },
    {
      "inputs": [],
      "name": "symbol",
      "outputs": [
        {
          "internalType": "string",
          "name": "",
          "type": "string"
        }
      ],
      "stateMutability": "view",
      "type": "function"
    },
    {
      "inputs": [],
      "name": "totalSupply",
      "outputs": [
        {
          "internalType": "uint256",
          "name": "",
          "type": "uint256"
        }
      ],
      "stateMutability": "view",
      "type": "function"
    },
    {
      "inputs": [
        {
          "internalType": "address",
          "name": "recipient",
          "type": "address"
        },
        {
          "internalType": "uint256",
          "name": "amount",
          "type": "uint256"
        }
      ],
      "name": "transfer",
      "outputs": [
        {
          "internalType": "bool",
          "name": "",
          "type": "bool"
        }
      ],
      "stateMutability": "nonpayable",
      "type": "function"
    },
    {
      "inputs": [
        {
          "internalType": "address",
          "name": "",
          "type": "address"
        },
        {
          "internalType": "address",
          "name": "",
          "type": "address"
        },
        {
          "internalType": "uint256",
          "name": "",
          "type": "uint256"
        }
      ],
      "name": "transferFrom",
      "outputs": [
        {
          "internalType": "bool",
          "name": "",
          "type": "bool"
        }
      ],
      "stateMutability": "nonpayable",
      "type": "function"
    }
  ],
  "transactionHash": "0xa582319a84bf8b01875e944d2a0477adebe9c4dc788276a0454ff9a07bcedfa4",
  "args": [],
  "solcInputHash": "4562b65aed9d47b1fb3c1971213274b0",
  "bytecode": "0x60806040523480156200001157600080fd5b506040518060400160405280600f81526020016e26b0b634b1b4b7bab9902a37b5b2b760891b8152506040518060400160405280600381526020016213505560ea1b81525081600390805190602001906200006e9291906200009b565b508051620000849060049060208401906200009b565b50506005805461ffff60a01b19169055506200017e565b828054620000a99062000141565b90600052602060002090601f016020900481019282620000cd576000855562000118565b82601f10620000e857805160ff191683800117855562000118565b8280016001018555821562000118579182015b8281111562000118578251825591602001919060010190620000fb565b50620001269291506200012a565b5090565b5b808211156200012657600081556001016200012b565b600181811c908216806200015657607f821691505b602082108114156200017857634e487b7160e01b600052602260045260246000fd5b50919050565b61119f806200018e6000396000f3fe608060405234801561001057600080fd5b50600436106100ba5760003560e01c806306fdde03146100bf578063095ea7b3146100dd57806318160ddd1461010057806323b872dd14610112578063313ce5671461012557806339509351146101345780634fd153861461014757806370a082311461017957806395d89b41146101a25780639a94498d146101aa578063a457c2d7146101c3578063a9059cbb146101d6578063dd62ed3e146101e9578063e19a714a14610222575b600080fd5b6100c761023b565b6040516100d49190610932565b60405180910390f35b6100f06100eb366004610968565b6102cd565b60405190151581526020016100d4565b6002545b6040519081526020016100d4565b6100f0610120366004610992565b6102e3565b604051601281526020016100d4565b6100f0610142366004610968565b6103f6565b6101776101553660046109ce565b600580546001600160a01b0319166001600160a01b0392909216919091179055565b005b6101046101873660046109ce565b6001600160a01b031660009081526020819052604090205490565b6100c7610432565b6101776005805461ffff60a01b1916600160a81b179055565b6100f06101d1366004610968565b610441565b6100f06101e4366004610968565b6104df565b6101046101f73660046109e9565b6001600160a01b03918216600090815260016020908152604080832093909416825291909152205490565b6101776005805461ffff60a01b1916600160a01b179055565b60606003805461024a90610a1c565b80601f016020809104026020016040519081016040528092919081815260200182805461027690610a1c565b80156102c35780601f10610298576101008083540402835291602001916102c3565b820191906000526020600020905b8154815290600101906020018083116102a657829003601f168201915b5050505050905090565b60006102da3384846104ec565b50600192915050565b6005546000906001600160a01b03811690600160a01b900460ff16156103715761030b6107e4565b604051637c307c8360e01b81526000906001600160a01b03841690637c307c839061033c9085908590600401610b1f565b600060405180830381600087803b15801561035657600080fd5b505af115801561036a573d6000803e3d6000fd5b5050505050505b600554600160a81b900460ff16156103eb5761038b61082f565b604051633a79729360e21b81526001600160a01b0383169063e9e5ca4c906103b7908490600401611051565b600060405180830381600087803b1580156103d157600080fd5b505af11580156103e5573d6000803e3d6000fd5b50505050505b506001949350505050565b3360008181526001602090815260408083206001600160a01b038716845290915281205490916102da91859061042d908690611143565b6104ec565b60606004805461024a90610a1c565b3360009081526001602090815260408083206001600160a01b0386168452909152812054828110156104c85760405162461bcd60e51b815260206004820152602560248201527f45524332303a2064656372656173656420616c6c6f77616e63652062656c6f77604482015264207a65726f60d81b60648201526084015b60405180910390fd5b6104d533858584036104ec565b5060019392505050565b60006102da338484610610565b6001600160a01b03831661054e5760405162461bcd60e51b8152602060048201526024808201527f45524332303a20617070726f76652066726f6d20746865207a65726f206164646044820152637265737360e01b60648201526084016104bf565b6001600160a01b0382166105af5760405162461bcd60e51b815260206004820152602260248201527f45524332303a20617070726f766520746f20746865207a65726f206164647265604482015261737360f01b60648201526084016104bf565b6001600160a01b0383811660008181526001602090815260408083209487168084529482529182902085905590518481527f8c5be1e5ebec7d5bd14f71427d1e84f3dd0314c0f7b2291e5b200ac8c7c3b925910160405180910390a3505050565b6001600160a01b0383166106745760405162461bcd60e51b815260206004820152602560248201527f45524332303a207472616e736665722066726f6d20746865207a65726f206164604482015264647265737360d81b60648201526084016104bf565b6001600160a01b0382166106d65760405162461bcd60e51b815260206004820152602360248201527f45524332303a207472616e7366657220746f20746865207a65726f206164647260448201526265737360e81b60648201526084016104bf565b6001600160a01b0383166000908152602081905260409020548181101561074e5760405162461bcd60e51b815260206004820152602660248201527f45524332303a207472616e7366657220616d6f756e7420657863656564732062604482015265616c616e636560d01b60648201526084016104bf565b6001600160a01b03808516600090815260208190526040808220858503905591851681529081208054849290610785908490611143565b92505081905550826001600160a01b0316846001600160a01b03167fddf252ad1be2c89b69c2b068fc378daa952ba7f163c4a11628f55a4df523b3ef846040516107d191815260200190565b60405180910390a350505050565b505050565b6040518060c0016040528060006001600160401b0316815260200161080761086b565b815260200161081461088a565b81526000602082018190526040820181905260609091015290565b6040518060c0016040528061084261088a565b815260200160608152602001606081526020016060815260200160608152602001606081525090565b6040518060400160405280600081526020016108856108a4565b905290565b604051806040016040528060008152602001600081525090565b6040518060a001604052806108b761088a565b81526020016108c461088a565b81526020016108d161088a565b815260006020820181905260409091015290565b6000815180845260005b8181101561090b576020818501810151868301820152016108ef565b8181111561091d576000602083870101525b50601f01601f19169290920160200192915050565b60208152600061094560208301846108e5565b9392505050565b80356001600160a01b038116811461096357600080fd5b919050565b6000806040838503121561097b57600080fd5b6109848361094c565b946020939093013593505050565b6000806000606084860312156109a757600080fd5b6109b08461094c565b92506109be6020850161094c565b9150604084013590509250925092565b6000602082840312156109e057600080fd5b6109458261094c565b600080604083850312156109fc57600080fd5b610a058361094c565b9150610a136020840161094c565b90509250929050565b600181811c90821680610a3057607f821691505b60208210811415610a5157634e487b7160e01b600052602260045260246000fd5b50919050565b80518252602090810151910152565b805182526020810151610a7d602084018251610a57565b6020810151610a8f6060850182610a57565b506040810151610aa260a0850182610a57565b50606081015160e08401526001600160401b03608082015116610100840152505050565b6001600160401b0381511682526020810151610ae56020840182610a66565b506040810151610af9610140840182610a57565b506060810151610180830152608081015115156101a083015260a001516101c090910152565b6102008101610b2e8285610ac6565b6001600160a01b03929092166101e09190910152919050565b600081518084526020808501945080840160005b83811015610b7757815187529582019590820190600101610b5b565b509495945050505050565b610b8d828251610a57565b6020810151610b9f6040840182610a57565b506040810151610bb26080840182610a57565b506060810151610bc560c0840182610a57565b506080810151610100610bda81850183610a57565b60a08301519150610140610bf081860184610a57565b60c08401519250610180610c0681870185610a57565b60e085015193506101c0610c1c81880186610a57565b92850151935061020092610c3287850186610a57565b6101208601519450610240610c4981890187610a57565b92860151945061028092610c5f88850187610a57565b61016087015195506102c0610c76818a0188610a57565b838801519650610c8a6103008a0188610a57565b6101a08801516103408a0152918701516103608901526101e0870151610380890152938601516103a08801526102208601516103c0880152928501516103e0870152506102608401516104008601528301516104208501526102a0830151610440850152909101516104609092019190915250565b610d0a828251610a57565b6000602082015160606040850152610d256060850182610b47565b949350505050565b60006105008251818552610d4382860182610b47565b91505060208301518482036020860152610d5d8282610b47565b9150506040830151610d726040860182610b82565b5060608301518482036104c0860152610d8b8282610cff565b91505060808301518482036104e08601528051825260208101516001600160401b03808216602085015280604084015116604085015250506060810151610dd56060840182610a57565b506080015160c060a08301819052610def908301826108e5565b95945050505050565b600081518084526020808501808196508360051b8101915082860160005b85811015610e40578284038952610e2e848351610d2d565b98850198935090840190600101610e16565b5091979650505050505050565b805182526001600160401b03602082015116602083015260408101516107df6040840182610a57565b600081518084526020808501808196508360051b8101915082860160005b85811015610e4057828403895281516106e08151865286820151878701526040808301518188015250606080830151610ed7828901826001600160401b03169052565b5050608080830151610eeb82890182610a66565b505060a08201516101a087015260c0820151610f0b6101c0880182610b82565b5060e082015181610640880152610f2482880182610cff565b9150506101008201519150610f3d610660870183610e4d565b9986019994505090840190600101610e94565b600081518084526020808501808196508360051b8101915082860160005b85811015610e4057828403895281516105408151818752610f9182880182610b47565b9150508682015186820388880152610fa98282610b47565b915050604080830151610fbe82890182610b82565b505060608201519150610fd56104c0870183610e4d565b9986019994505090840190600101610f6e565b600081518084526020808501808196508360051b8101915082860160005b85811015610e405782840389528151610200815181875261102982880182610d2d565b91505086820151915061103e87870183610ac6565b9986019994505090840190600101611006565b60006020808352610100830161106a8285018651610a57565b8482015160e06060860152805191829052820190600090610120860190825b818110156110c257845160048082106110af57634e487b7160e01b865260218152602486fd5b5083529385019391850191600101611089565b505060408701519350601f199250828682030160808701526110e48185610df8565b935050506060850151818584030160a08601526111018382610e76565b9250506080850151818584030160c086015261111d8382610f50565b92505060a0850151818584030160e08601526111398382610fe8565b9695505050505050565b6000821982111561116457634e487b7160e01b600052601160045260246000fd5b50019056fea264697066735822122048f95dda6f9b93ca4575a207ee306c8b60b0cfefeb915ff4006aa4a102ccf3c564736f6c634300080a0033",
  "devdoc": {
    "kind": "dev",
    "methods": {
      "allowance(address,address)": {
        "details": "See {IERC20-allowance}."
      },
      "approve(address,uint256)": {
        "details": "See {IERC20-approve}. Requirements: - `spender` cannot be the zero address."
      },
      "balanceOf(address)": {
        "details": "See {IERC20-balanceOf}."
      },
      "decimals()": {
        "details": "Returns the number of decimals used to get its user representation. For example, if `decimals` equals `2`, a balance of `505` tokens should be displayed to a user as `5.05` (`505 / 10 ** 2`). Tokens usually opt for a value of 18, imitating the relationship between Ether and Wei. This is the value {ERC20} uses, unless this function is overridden; NOTE: This information is only used for _display_ purposes: it in no way affects any of the arithmetic of the contract, including {IERC20-balanceOf} and {IERC20-transfer}."
      },
      "decreaseAllowance(address,uint256)": {
        "details": "Atomically decreases the allowance granted to `spender` by the caller. This is an alternative to {approve} that can be used as a mitigation for problems described in {IERC20-approve}. Emits an {Approval} event indicating the updated allowance. Requirements: - `spender` cannot be the zero address. - `spender` must have allowance for the caller of at least `subtractedValue`."
      },
      "increaseAllowance(address,uint256)": {
        "details": "Atomically increases the allowance granted to `spender` by the caller. This is an alternative to {approve} that can be used as a mitigation for problems described in {IERC20-approve}. Emits an {Approval} event indicating the updated allowance. Requirements: - `spender` cannot be the zero address."
      },
      "name()": {
        "details": "Returns the name of the token."
      },
      "selectDepositAttack()": {
        "details": "pick the depositErc20 function when calling back the CAPE contract"
      },
      "selectSubmitBlockAttack()": {
        "details": "pick the submitBlock function when calling back the CAPE contract"
      },
      "setTargetContractAddress(address)": {
        "details": "Sets the address for performing the reentrancy attack."
      },
      "symbol()": {
        "details": "Returns the symbol of the token, usually a shorter version of the name."
      },
      "totalSupply()": {
        "details": "See {IERC20-totalSupply}."
      },
      "transfer(address,uint256)": {
        "details": "See {IERC20-transfer}. Requirements: - `recipient` cannot be the zero address. - the caller must have a balance of at least `amount`."
      }
    },
    "version": 1
  },
  "userdoc": {
    "kind": "user",
    "methods": {
      "constructor": {
        "notice": "MaliciousToken contract constructor."
      },
      "transferFrom(address,address,uint256)": {
        "notice": "Malicious implementation of transferFrom"
      }
    },
    "version": 1
  },
  "storageLayout": {
    "storage": [
      {
        "astId": 55,
        "contract": "contracts/MaliciousToken.sol:MaliciousToken",
        "label": "_balances",
        "offset": 0,
        "slot": "0",
        "type": "t_mapping(t_address,t_uint256)"
      },
      {
        "astId": 61,
        "contract": "contracts/MaliciousToken.sol:MaliciousToken",
        "label": "_allowances",
        "offset": 0,
        "slot": "1",
        "type": "t_mapping(t_address,t_mapping(t_address,t_uint256))"
      },
      {
        "astId": 63,
        "contract": "contracts/MaliciousToken.sol:MaliciousToken",
        "label": "_totalSupply",
        "offset": 0,
        "slot": "2",
        "type": "t_uint256"
      },
      {
        "astId": 65,
        "contract": "contracts/MaliciousToken.sol:MaliciousToken",
        "label": "_name",
        "offset": 0,
        "slot": "3",
        "type": "t_string_storage"
      },
      {
        "astId": 67,
        "contract": "contracts/MaliciousToken.sol:MaliciousToken",
        "label": "_symbol",
        "offset": 0,
        "slot": "4",
        "type": "t_string_storage"
      },
      {
        "astId": 3501,
        "contract": "contracts/MaliciousToken.sol:MaliciousToken",
        "label": "_targetContractAddress",
        "offset": 0,
        "slot": "5",
        "type": "t_address"
      },
      {
        "astId": 3503,
        "contract": "contracts/MaliciousToken.sol:MaliciousToken",
        "label": "_runDeposit",
        "offset": 20,
        "slot": "5",
        "type": "t_bool"
      },
      {
        "astId": 3505,
        "contract": "contracts/MaliciousToken.sol:MaliciousToken",
        "label": "_runSubmitBlock",
        "offset": 21,
        "slot": "5",
        "type": "t_bool"
      }
    ],
    "types": {
      "t_address": {
        "encoding": "inplace",
        "label": "address",
        "numberOfBytes": "20"
      },
      "t_bool": {
        "encoding": "inplace",
        "label": "bool",
        "numberOfBytes": "1"
      },
      "t_mapping(t_address,t_mapping(t_address,t_uint256))": {
        "encoding": "mapping",
        "key": "t_address",
        "label": "mapping(address => mapping(address => uint256))",
        "numberOfBytes": "32",
        "value": "t_mapping(t_address,t_uint256)"
      },
      "t_mapping(t_address,t_uint256)": {
        "encoding": "mapping",
        "key": "t_address",
        "label": "mapping(address => uint256)",
        "numberOfBytes": "32",
        "value": "t_uint256"
      },
      "t_string_storage": {
        "encoding": "bytes",
        "label": "string",
        "numberOfBytes": "32"
      },
      "t_uint256": {
        "encoding": "inplace",
        "label": "uint256",
        "numberOfBytes": "32"
      }
    }
  }
}