{
  "address": "0x4a2cA664e080d5d513EceFDf6b62386A6C5140f6",
  "abi": [
    {
      "inputs": [
        {
          "components": [
            {
              "internalType": "uint256",
              "name": "domainSize",
              "type": "uint256"
            },
            {
              "internalType": "uint256",
              "name": "numInputs",
              "type": "uint256"
            },
            {
              "components": [
                {
                  "internalType": "uint256",
                  "name": "x",
                  "type": "uint256"
                },
                {
                  "internalType": "uint256",
                  "name": "y",
                  "type": "uint256"
                }
              ],
              "internalType": "struct BN254.G1Point",
              "name": "sigma0",
              "type": "tuple"
            },
            {
              "components": [
                {
                  "internalType": "uint256",
                  "name": "x",
                  "type": "uint256"
                },
                {
                  "internalType": "uint256",
                  "name": "y",
                  "type": "uint256"
                }
              ],
              "internalType": "struct BN254.G1Point",
              "name": "sigma1",
              "type": "tuple"
            },
            {
              "components": [
                {
                  "internalType": "uint256",
                  "name": "x",
                  "type": "uint256"
                },
                {
                  "internalType": "uint256",
                  "name": "y",
                  "type": "uint256"
                }
              ],
              "internalType": "struct BN254.G1Point",
              "name": "sigma2",
              "type": "tuple"
            },
            {
              "components": [
                {
                  "internalType": "uint256",
                  "name": "x",
                  "type": "uint256"
                },
                {
                  "internalType": "uint256",
                  "name": "y",
                  "type": "uint256"
                }
              ],
              "internalType": "struct BN254.G1Point",
              "name": "sigma3",
              "type": "tuple"
            },
            {
              "components": [
                {
                  "internalType": "uint256",
                  "name": "x",
                  "type": "uint256"
                },
                {
                  "internalType": "uint256",
                  "name": "y",
                  "type": "uint256"
                }
              ],
              "internalType": "struct BN254.G1Point",
              "name": "sigma4",
              "type": "tuple"
            },
            {
              "components": [
                {
                  "internalType": "uint256",
                  "name": "x",
                  "type": "uint256"
                },
                {
                  "internalType": "uint256",
                  "name": "y",
                  "type": "uint256"
                }
              ],
              "internalType": "struct BN254.G1Point",
              "name": "q1",
              "type": "tuple"
            },
            {
              "components": [
                {
                  "internalType": "uint256",
                  "name": "x",
                  "type": "uint256"
                },
                {
                  "internalType": "uint256",
                  "name": "y",
                  "type": "uint256"
                }
              ],
              "internalType": "struct BN254.G1Point",
              "name": "q2",
              "type": "tuple"
            },
            {
              "components": [
                {
                  "internalType": "uint256",
                  "name": "x",
                  "type": "uint256"
                },
                {
                  "internalType": "uint256",
                  "name": "y",
                  "type": "uint256"
                }
              ],
              "internalType": "struct BN254.G1Point",
              "name": "q3",
              "type": "tuple"
            },
            {
              "components": [
                {
                  "internalType": "uint256",
                  "name": "x",
                  "type": "uint256"
                },
                {
                  "internalType": "uint256",
                  "name": "y",
                  "type": "uint256"
                }
              ],
              "internalType": "struct BN254.G1Point",
              "name": "q4",
              "type": "tuple"
            },
            {
              "components": [
                {
                  "internalType": "uint256",
                  "name": "x",
                  "type": "uint256"
                },
                {
                  "internalType": "uint256",
                  "name": "y",
                  "type": "uint256"
                }
              ],
              "internalType": "struct BN254.G1Point",
              "name": "qM12",
              "type": "tuple"
            },
            {
              "components": [
                {
                  "internalType": "uint256",
                  "name": "x",
                  "type": "uint256"
                },
                {
                  "internalType": "uint256",
                  "name": "y",
                  "type": "uint256"
                }
              ],
              "internalType": "struct BN254.G1Point",
              "name": "qM34",
              "type": "tuple"
            },
            {
              "components": [
                {
                  "internalType": "uint256",
                  "name": "x",
                  "type": "uint256"
                },
                {
                  "internalType": "uint256",
                  "name": "y",
                  "type": "uint256"
                }
              ],
              "internalType": "struct BN254.G1Point",
              "name": "qO",
              "type": "tuple"
            },
            {
              "components": [
                {
                  "internalType": "uint256",
                  "name": "x",
                  "type": "uint256"
                },
                {
                  "internalType": "uint256",
                  "name": "y",
                  "type": "uint256"
                }
              ],
              "internalType": "struct BN254.G1Point",
              "name": "qC",
              "type": "tuple"
            },
            {
              "components": [
                {
                  "internalType": "uint256",
                  "name": "x",
                  "type": "uint256"
                },
                {
                  "internalType": "uint256",
                  "name": "y",
                  "type": "uint256"
                }
              ],
              "internalType": "struct BN254.G1Point",
              "name": "qH1",
              "type": "tuple"
            },
            {
              "components": [
                {
                  "internalType": "uint256",
                  "name": "x",
                  "type": "uint256"
                },
                {
                  "internalType": "uint256",
                  "name": "y",
                  "type": "uint256"
                }
              ],
              "internalType": "struct BN254.G1Point",
              "name": "qH2",
              "type": "tuple"
            },
            {
              "components": [
                {
                  "internalType": "uint256",
                  "name": "x",
                  "type": "uint256"
                },
                {
                  "internalType": "uint256",
                  "name": "y",
                  "type": "uint256"
                }
              ],
              "internalType": "struct BN254.G1Point",
              "name": "qH3",
              "type": "tuple"
            },
            {
              "components": [
                {
                  "internalType": "uint256",
                  "name": "x",
                  "type": "uint256"
                },
                {
                  "internalType": "uint256",
                  "name": "y",
                  "type": "uint256"
                }
              ],
              "internalType": "struct BN254.G1Point",
              "name": "qH4",
              "type": "tuple"
            },
            {
              "components": [
                {
                  "internalType": "uint256",
                  "name": "x",
                  "type": "uint256"
                },
                {
                  "internalType": "uint256",
                  "name": "y",
                  "type": "uint256"
                }
              ],
              "internalType": "struct BN254.G1Point",
              "name": "qEcc",
              "type": "tuple"
            }
          ],
          "internalType": "struct IPlonkVerifier.VerifyingKey[]",
          "name": "verifyingKeys",
          "type": "tuple[]"
        },
        {
          "internalType": "uint256[][]",
          "name": "publicInputs",
          "type": "uint256[][]"
        },
        {
          "components": [
            {
              "components": [
                {
                  "internalType": "uint256",
                  "name": "x",
                  "type": "uint256"
                },
                {
                  "internalType": "uint256",
                  "name": "y",
                  "type": "uint256"
                }
              ],
              "internalType": "struct BN254.G1Point",
              "name": "wire0",
              "type": "tuple"
            },
            {
              "components": [
                {
                  "internalType": "uint256",
                  "name": "x",
                  "type": "uint256"
                },
                {
                  "internalType": "uint256",
                  "name": "y",
                  "type": "uint256"
                }
              ],
              "internalType": "struct BN254.G1Point",
              "name": "wire1",
              "type": "tuple"
            },
            {
              "components": [
                {
                  "internalType": "uint256",
                  "name": "x",
                  "type": "uint256"
                },
                {
                  "internalType": "uint256",
                  "name": "y",
                  "type": "uint256"
                }
              ],
              "internalType": "struct BN254.G1Point",
              "name": "wire2",
              "type": "tuple"
            },
            {
              "components": [
                {
                  "internalType": "uint256",
                  "name": "x",
                  "type": "uint256"
                },
                {
                  "internalType": "uint256",
                  "name": "y",
                  "type": "uint256"
                }
              ],
              "internalType": "struct BN254.G1Point",
              "name": "wire3",
              "type": "tuple"
            },
            {
              "components": [
                {
                  "internalType": "uint256",
                  "name": "x",
                  "type": "uint256"
                },
                {
                  "internalType": "uint256",
                  "name": "y",
                  "type": "uint256"
                }
              ],
              "internalType": "struct BN254.G1Point",
              "name": "wire4",
              "type": "tuple"
            },
            {
              "components": [
                {
                  "internalType": "uint256",
                  "name": "x",
                  "type": "uint256"
                },
                {
                  "internalType": "uint256",
                  "name": "y",
                  "type": "uint256"
                }
              ],
              "internalType": "struct BN254.G1Point",
              "name": "prodPerm",
              "type": "tuple"
            },
            {
              "components": [
                {
                  "internalType": "uint256",
                  "name": "x",
                  "type": "uint256"
                },
                {
                  "internalType": "uint256",
                  "name": "y",
                  "type": "uint256"
                }
              ],
              "internalType": "struct BN254.G1Point",
              "name": "split0",
              "type": "tuple"
            },
            {
              "components": [
                {
                  "internalType": "uint256",
                  "name": "x",
                  "type": "uint256"
                },
                {
                  "internalType": "uint256",
                  "name": "y",
                  "type": "uint256"
                }
              ],
              "internalType": "struct BN254.G1Point",
              "name": "split1",
              "type": "tuple"
            },
            {
              "components": [
                {
                  "internalType": "uint256",
                  "name": "x",
                  "type": "uint256"
                },
                {
                  "internalType": "uint256",
                  "name": "y",
                  "type": "uint256"
                }
              ],
              "internalType": "struct BN254.G1Point",
              "name": "split2",
              "type": "tuple"
            },
            {
              "components": [
                {
                  "internalType": "uint256",
                  "name": "x",
                  "type": "uint256"
                },
                {
                  "internalType": "uint256",
                  "name": "y",
                  "type": "uint256"
                }
              ],
              "internalType": "struct BN254.G1Point",
              "name": "split3",
              "type": "tuple"
            },
            {
              "components": [
                {
                  "internalType": "uint256",
                  "name": "x",
                  "type": "uint256"
                },
                {
                  "internalType": "uint256",
                  "name": "y",
                  "type": "uint256"
                }
              ],
              "internalType": "struct BN254.G1Point",
              "name": "split4",
              "type": "tuple"
            },
            {
              "components": [
                {
                  "internalType": "uint256",
                  "name": "x",
                  "type": "uint256"
                },
                {
                  "internalType": "uint256",
                  "name": "y",
                  "type": "uint256"
                }
              ],
              "internalType": "struct BN254.G1Point",
              "name": "zeta",
              "type": "tuple"
            },
            {
              "components": [
                {
                  "internalType": "uint256",
                  "name": "x",
                  "type": "uint256"
                },
                {
                  "internalType": "uint256",
                  "name": "y",
                  "type": "uint256"
                }
              ],
              "internalType": "struct BN254.G1Point",
              "name": "zetaOmega",
              "type": "tuple"
            },
            {
              "internalType": "uint256",
              "name": "wireEval0",
              "type": "uint256"
            },
            {
              "internalType": "uint256",
              "name": "wireEval1",
              "type": "uint256"
            },
            {
              "internalType": "uint256",
              "name": "wireEval2",
              "type": "uint256"
            },
            {
              "internalType": "uint256",
              "name": "wireEval3",
              "type": "uint256"
            },
            {
              "internalType": "uint256",
              "name": "wireEval4",
              "type": "uint256"
            },
            {
              "internalType": "uint256",
              "name": "sigmaEval0",
              "type": "uint256"
            },
            {
              "internalType": "uint256",
              "name": "sigmaEval1",
              "type": "uint256"
            },
            {
              "internalType": "uint256",
              "name": "sigmaEval2",
              "type": "uint256"
            },
            {
              "internalType": "uint256",
              "name": "sigmaEval3",
              "type": "uint256"
            },
            {
              "internalType": "uint256",
              "name": "prodPermZetaOmegaEval",
              "type": "uint256"
            }
          ],
          "internalType": "struct IPlonkVerifier.PlonkProof[]",
          "name": "proofs",
          "type": "tuple[]"
        },
        {
          "internalType": "bytes[]",
          "name": "extraTranscriptInitMsgs",
          "type": "bytes[]"
        }
      ],
      "name": "batchVerify",
      "outputs": [
        {
          "internalType": "bool",
          "name": "",
          "type": "bool"
        }
      ],
      "stateMutability": "view",
      "type": "function"
    }
  ],
  "transactionHash": "0xb5b13e8b5206b2f4a20cefbfdc76b81ca095ef775d5d2b76f95674489c08df7e",
  "args": [],
  "solcInputHash": "4562b65aed9d47b1fb3c1971213274b0",
  "bytecode": "0x6101006040527f260e01b251f6f1c7e7ff4e580791dee8ea51d87a358e038b4efe30fac09383c160808190527f0118c4d5b837bcc2bc89b5b398b5974e9f5944073b32078b7e231fec938883b060a08190527f04fc6369f7110fe3d25156c1bb9a72859cf2a04641f99ba4ee413c80da6a5fe460c08190527f22febda3c0c0632a56475b4214e5615e11e6dd3f96e6cea2854a87d4dacc5e5560e08190526000939093556001919091556002556003553480156100bb57600080fd5b50613906806100cb6000396000f3fe608060405234801561001057600080fd5b506004361061002b5760003560e01c8063830affd614610030575b600080fd5b61004361003e3660046134d1565b610057565b604051901515815260200160405180910390f35b60008251855114801561006b575082518451145b8015610078575082518251145b6100c65760405162461bcd60e51b815260206004820152601a602482015279506c6f6e6b3a20696e76616c696420696e70757420706172616d60301b60448201526064015b60405180910390fd5b60008351116101165760405162461bcd60e51b815260206004820152601c60248201527b283637b7359d103732b2b21030ba103632b0b9ba101890383937b7b360211b60448201526064016100bd565b600083516001600160401b038111156101315761013161300c565b60405190808252806020026020018201604052801561016a57816020015b610157612f2e565b81526020019060019003908161014f5790505b50905060005b84518110156102ae5761019b85828151811061018e5761018e613753565b60200260200101516102c4565b60005b8682815181106101b0576101b0613753565b60200260200101515181101561020d576101fb8783815181106101d5576101d5613753565b602002602001015182815181106101ee576101ee613753565b60200260200101516103f1565b806102058161377f565b91505061019e565b5061027e87828151811061022357610223613753565b602002602001015187838151811061023d5761023d613753565b602002602001015187848151811061025757610257613753565b602002602001015187858151811061027157610271613753565b6020026020010151610451565b82828151811061029057610290613753565b602002602001018190525080806102a69061377f565b915050610170565b506102b8816105c9565b9150505b949350505050565b80516102cf90610ca0565b6102dc8160200151610ca0565b6102e98160400151610ca0565b6102f68160600151610ca0565b6103038160800151610ca0565b6103108160a00151610ca0565b61031d8160c00151610ca0565b61032a8160e00151610ca0565b610338816101000151610ca0565b610346816101200151610ca0565b610354816101400151610ca0565b610362816101600151610ca0565b610370816101a001516103f1565b61037e816101c001516103f1565b61038c816101e001516103f1565b61039a8161020001516103f1565b6103a88161022001516103f1565b6103b68161024001516103f1565b6103c48161026001516103f1565b6103d28161028001516103f1565b6103e0816102a001516103f1565b6103ee816102c001516103f1565b50565b6000805160206138b183398151915281108061044d5760405162461bcd60e51b815260206004820152601b60248201527a109b8c8d4d0e881a5b9d985b1a59081cd8d85b185c88199a595b19602a1b60448201526064016100bd565b5050565b610459612f2e565b84602001518451146104aa5760405162461bcd60e51b815260206004820152601a602482015279506c6f6e6b3a2077726f6e6720766572696679696e67206b657960301b60448201526064016100bd565b60006104b886868686610d29565b905060006104c98760000151610ef7565b905060006104dc828460a00151896111c5565b60408051601e8082526103e0820190925291925060009190602082016103c080368337505060408051601e8082526103e082019092529293506000929150602082015b610527612f7e565b81526020019060019003908161051f579050509050600061054c8b858b898787611225565b60a08701516060870151919250906000805160206138b1833981519152600081838509604080516101008101825260e09c8d0151815260208101969096528501525050506060810191909152608081019290925260a082015261016087015160c08201526101809096015192860192909252509295945050505050565b80516000906000805160206138b183398151915260018083111561064a576105ef612f98565b60005b8481101561063c5761062a87828151811061060f5761060f613753565b6020026020010151600001518361125a90919063ffffffff16565b806106348161377f565b9150506105f2565b5061064681611264565b9150505b610652612f7e565b61065a612f7e565b600061066786600261379a565b6001600160401b0381111561067e5761067e61300c565b6040519080825280602002602001820160405280156106a7578160200160208202803683370190505b50905060006106b787600261379a565b6001600160401b038111156106ce576106ce61300c565b60405190808252806020026020018201604052801561070757816020015b6106f4612f7e565b8152602001906001900390816106ec5790505b509050600160005b8881101561085057818461072483600261379a565b8151811061073457610734613753565b6020026020010181815250508a818151811061075257610752613753565b602002602001015160c001518382600261076c919061379a565b8151811061077c5761077c613753565b60200260200101819052506000808c838151811061079c5761079c613753565b602002602001015160000151905089818509915081866107bd85600261379a565b6107c89060016137b9565b815181106107d8576107d8613753565b60200260200101818152505050508a81815181106107f8576107f8613753565b602002602001015160e0015183826002610812919061379a565b61081d9060016137b9565b8151811061082d5761082d613753565b6020026020010181905250878783099150806108488161377f565b91505061070f565b5061085b8284611391565b945050505060608060008960008151811061087857610878613753565b60200260200101516080015151905060008a5182600261089891906137b9565b6108a2919061379a565b6108ad9060016137b9565b9050806001600160401b038111156108c7576108c761300c565b6040519080825280602002602001820160405280156108f0578160200160208202803683370190505b509350806001600160401b0381111561090b5761090b61300c565b60405190808252806020026020018201604052801561094457816020015b610931612f7e565b8152602001906001900390816109295790505b509250600091508190506001815b8c51811015610bee5760005b8d60008151811061097157610971613753565b60200260200101516080015151811015610a5c5760008e838151811061099957610999613753565b60200260200101516080015182815181106109b6576109b6613753565b6020026020010151905060008c8286099050808987815181106109db576109db613753565b60200260200101818152505050508d82815181106109fb576109fb613753565b602002602001015160a001518181518110610a1857610a18613753565b6020026020010151868581518110610a3257610a32613753565b6020908102919091010152610a486001856137b9565b935080610a548161377f565b91505061095e565b5060008d8281518110610a7157610a71613753565b602002602001015160200151905060008b828509905080888681518110610a9a57610a9a613753565b60200260200101818152505050508c8181518110610aba57610aba613753565b602002602001015160c00151858481518110610ad857610ad8613753565b6020908102919091010152610aee6001846137b9565b925060008d8281518110610b0457610b04613753565b602002602001015160000151905060008e8381518110610b2657610b26613753565b602002602001015160400151905060008c8d8385098609905080898781518110610b5257610b52613753565b6020026020010181815250505050508c8181518110610b7357610b73613753565b602002602001015160e00151858481518110610b9157610b91613753565b6020908102919091010152610ba76001846137b9565b925060008d8281518110610bbd57610bbd613753565b60200260200101516060015190508a8b828509860894508a8a84099250508080610be69061377f565b915050610952565b50610bf883611489565b858381518110610c0a57610c0a613753565b602002602001018181525050610c1e6114c1565b848381518110610c3057610c30613753565b6020026020010181905250610c4d610c488587611391565b6114e2565b6040805160808101825260005481526001546020820152600254918101919091526003546060820152909650610c9595508794509250859150610c909050611551565b611622565b979650505050505050565b8051602082015160009160008051602061389183398151915291826003818085800985090883828309148115831517198483108585101616169350505081610d245760405162461bcd60e51b8152602060048201526017602482015276109b8c8d4d0e881a5b9d985b1a590811cc481c1bda5b9d604a1b60448201526064016100bd565b505050565b610d7160405180610100016040528060008152602001600081526020016000815260200160008152602001600081526020016000815260200160008152602001600081525090565b610d79612f98565b6000805160206138b1833981519152610d928285611703565b610d9d82888861172d565b8451610daa908390611999565b6020850151610dba908390611999565b6040850151610dca908390611999565b6060850151610dda908390611999565b6080850151610dea908390611999565b610df382611264565b50610dfd82611264565b6060840152610e0b82611264565b608084015260a0850151610e20908390611999565b610e2982611264565b835260c0850151610e3b908390611999565b60e0850151610e4b908390611999565b610100850151610e5c908390611999565b610120850151610e6d908390611999565b610140850151610e7e908390611999565b610e8782611264565b60a0840152610e9682866119b0565b610e9f82611264565b60c0840152610160850151610eb5908390611999565b610180850151610ec6908390611999565b610ecf82611264565b60e0840152825181818009828282096020860191909152604085015250919695505050505050565b610f296040518060a0016040528060008152602001600081526020016000815260200160008152602001600081525090565b816140001415610fbe57506040805160a081018252600e815260208101929092527f30638ce1a7661b6337a964756aa75257c6bf4778d89789ab819ce60c19b04001908201527f2d965651cdd9e4811f4e51b80ddca8a8b4a93ee17420aae6adaa01c2617c6e8560608201527f281c036f06e7e9e911680d42558e6e8cf40976b0677771c0f8eee934641c8410608082015290565b81618000141561105357506040805160a081018252600f815260208101929092527f3063edaa444bddc677fcd515f614555a777997e0a9287d1e62bf6dd004d82001908201527f2d1ba66f5941dc91017171fa69ec2bd0022a2a2d4115a009a93458fd4e26ecfb60608201527f05d33766e4590b3722701b6f2fa43d0dc3f028424d384e68c92a742fb2dbc0b4608082015290565b816201000014156110e857506040805160a0810182526010815260208101929092527f30641e0e92bebef818268d663bcad6dbcfd6c0149170f6d7d350b1b1fa6c1001908201527eeeb2cb5981ed45649abebde081dcff16c8601de4347e7dd1628ba2daac43b760608201527f0b5d56b77fe704e8e92338c0082f37e091126414c830e4c6922d5ac802d842d4608082015290565b8162020000141561117e57506040805160a0810182526011815260208101929092527f30643640b9f82f90e83b698e5ea6179c7c05542e859533b48b9953a2f5360801908201527f1bf82deba7d74902c3708cc6e70e61f30512eca95655210e276e5858ce8f58e560608201527f244cf010c43ca87237d8b00bf9dd50c4c01c7f086bd4e8c920e75251d96f0d22608082015290565b60405162461bcd60e51b815260206004820152601c60248201527b506f6c793a2073697a65206d75737420696e20325e7b31347e31377d60201b60448201526064016100bd565b6111e960405180606001604052806000815260200160008152602001600081525090565b6111f38484611a46565b8082526112039085908590611a9a565b6020820152805161121990859084908690611afd565b60408201529392505050565b600080611233858789611c50565b9050611243888689898888611d3c565b61124e818786612048565b98975050505050505050565b61044d8282612098565b6020818101518051908201518351604051600094859461128c9490939092909186910161380c565b604051602081830303815290604052805190602001209050600083602001516000600281106112bd576112bd613753565b602002015184602001516001600281106112d9576112d9613753565b6020020151856000015160016040516020016112f8949392919061380c565b60405160208183030381529060405280519060200120905081846020015160006002811061132857611328613753565b60200201818152505080846020015160016002811061134957611349613753565b6020020181815250506102bc61138c8383604051602001611374929190918252602082015260400190565b604051602081830303815290604052600060306120cb565b6121d8565b611399612f7e565b82518251146113ea5760405162461bcd60e51b815260206004820181905260248201527f4d534d206572726f723a206c656e67746820646f6573206e6f74206d6174636860448201526064016100bd565b6114288360008151811061140057611400613753565b60200260200101518360008151811061141b5761141b613753565b6020026020010151612258565b905060015b82518110156114825761146e8261146986848151811061144f5761144f613753565b602002602001015186858151811061141b5761141b613753565b6122e8565b91508061147a8161377f565b91505061142d565b5092915050565b60006114a36000805160206138b183398151915283613842565b6114bb906000805160206138b1833981519152613864565b92915050565b6114c9612f7e565b5060408051808201909152600181526002602082015290565b6114ea612f7e565b8151602083015115901516156114fe575090565b60405180604001604052808360000151815260200160008051602061389183398151915284602001516115319190613842565b61154990600080516020613891833981519152613864565b905292915050565b61157c6040518060800160405280600081526020016000815260200160008152602001600081525090565b60405180608001604052807f198e9393920d483a7260bfb731fb5d25f1aa493335a9e71297e485b7aef312c281526020017f1800deef121f1e76426a00665e5c4479674322d4f75edadd46debd5cd992f6ed81526020017f090689d0585ff075ec9e99ad690c3395bc4b313370b38ef355acdadcd122975b81526020017f12c85ea5db8c6deb4aab71808dcb408fe3d1e7690c43d37b4ce6cc0166fa7daa815250905090565b60008060006040518751815260208801516020820152865160408201526020870151606082015260408701516080820152606087015160a0820152855160c0820152602086015160e08201528451610100820152602085015161012082015260408501516101408201526060850151610160820152602060006101808360085afa9150506000519150806116f75760405162461bcd60e51b815260206004820152601c60248201527b426e3235343a2050616972696e6720636865636b206661696c65642160201b60448201526064016100bd565b50151595945050505050565b81516040516117179190839060200161387b565b60408051601f1981840301815291905290915250565b60fe61176e8461176961173f8461237f565b60405160200161175191815260200190565b604051602081830303815290604052600060086120cb565b611703565b6117828461176961173f866000015161237f565b6117968461176961173f866020015161237f565b6117a1846001612098565b6117cb847f2f8dd1f1a7583c42c4e12a44e110404c73ca6c94813f85835da4fb7bb1301d4a612098565b6117f5847f1ee678a0470a75a6eaa8fe837060498ba828a3703b311d0f77f010424afeb025612098565b61181f847f2042a587a90c187b0a087c03e29c968b950b1db26d5c82d666905a6895790c0a612098565b611849847f2e2b91456103698adf57b799969dea1c8f739da5d8d40dd3eb9222db7c81e881612098565b611857848460e00151611999565b61186684846101000151611999565b61187584846101200151611999565b61188484846101400151611999565b61189384846101600151611999565b6118a284846101800151611999565b6118b184846101e00151611999565b6118c084846102000151611999565b6118cf84846102200151611999565b6118de84846102400151611999565b6118ed84846101a00151611999565b6118fc84846101c00151611999565b61190b84846102600151611999565b611919848460400151611999565b611927848460600151611999565b611935848460800151611999565b611943848460a00151611999565b611951848460c00151611999565b60005b8251811015611992576119808584838151811061197357611973613753565b6020026020010151612098565b8061198a8161377f565b915050611954565b5050505050565b60006119a4826124ba565b9050610d248382611703565b6119bf82826101a00151612098565b6119ce82826101c00151612098565b6119dd82826101e00151612098565b6119ec82826102000151612098565b6119fb82826102200151612098565b611a0a82826102400151612098565b611a1982826102600151612098565b611a2882826102800151612098565b611a3782826102a00151612098565b61044d82826102c00151612098565b81516000906000805160206138b183398151915290838015611a8a5784935060005b82811015611a7e57838586099450600101611a68565b50600184039350611a91565b6001830393505b50505092915050565b600081611aa957506000611af6565b60408401516000805160206138b183398151915290600090828186099050858015611ad957600187039250611ae0565b6001840392505b50611aea82612533565b91508282820993505050505b9392505050565b600081611b0c575060006102bc565b835160408601516000805160206138b18339815191529190600090819081908180611b378d886125d9565b90506000876001600160401b03811115611b5357611b5361300c565b604051908082528060200260200182016040528015611b7c578160200160208202803683370190505b509050888b850993506001925060005b88811015611bc157602081026020840101519550898d878c030896508987850960208281028401018890529350600101611b8c565b50611bcb83612533565b925060005b88811015611c3e5760208102602084010151955089868609975089848909975060005b89811015611c1d57808214611c15576020810260208401015197508a888a0998505b600101611bf3565b506020810260208f010151955089868909975089888c089a50600101611bd0565b50505050505050505050949350505050565b6000806000805160206138b18339815191529050600083602001519050600084604001519050600060019050606088015160808901516101a08901516102408a0151878889838709858501088609945050506101c08901516102608a0151878889838709858501088609945050506101e08901516102808a0151878889838709858501088609945050506102008901516102a08a01518788898387098585010886099450505061022089015191506102c0890151868782898587080985099350505050875160208901518586868309870385089650508485838309860387089998505050505050505050565b611d4a868686868587612678565b60c085015182516000805160206138b183398151915291908190819086906014908110611d7957611d79613753565b602002602001018181525050856000015184601481518110611d9d57611d9d613753565b60200260200101819052508282820990508085601581518110611dc257611dc2613753565b602002602001018181525050856020015184601581518110611de657611de6613753565b60200260200101819052508282820990508085601681518110611e0b57611e0b613753565b602002602001018181525050856040015184601681518110611e2f57611e2f613753565b60200260200101819052508282820990508085601781518110611e5457611e54613753565b602002602001018181525050856060015184601781518110611e7857611e78613753565b60200260200101819052508282820990508085601881518110611e9d57611e9d613753565b602002602001018181525050856080015184601881518110611ec157611ec1613753565b60200260200101819052508282820990508085601981518110611ee657611ee6613753565b602002602001018181525050886040015184601981518110611f0a57611f0a613753565b60200260200101819052508282820990508085601a81518110611f2f57611f2f613753565b602002602001018181525050886060015184601a81518110611f5357611f53613753565b60200260200101819052508282820990508085601b81518110611f7857611f78613753565b602002602001018181525050886080015184601b81518110611f9c57611f9c613753565b60200260200101819052508282820990508085601c81518110611fc157611fc1613753565b6020026020010181815250508860a0015184601c81518110611fe557611fe5613753565b60200260200101819052508282820990508760e0015185601d8151811061200e5761200e613753565b6020026020010181815250508560a0015184601d8151811061203257612032613753565b6020026020010181905250505050505050505050565b6000805160206138b18339815191528381039060005b600a81101561208f5760206015820102840151602082026101a001860151838482840986089450505060010161205e565b50509392505050565b61044d826120a58361237f565b6040516020016120b791815260200190565b604051602081830303815290604052611703565b6060816120d981601f6137b9565b10156121185760405162461bcd60e51b815260206004820152600e60248201526d736c6963655f6f766572666c6f7760901b60448201526064016100bd565b61212282846137b9565b845110156121665760405162461bcd60e51b8152602060048201526011602482015270736c6963655f6f75744f66426f756e647360781b60448201526064016100bd565b60608215801561218557604051915060008252602082016040526121cf565b6040519150601f8416801560200281840101858101878315602002848b0101015b818310156121be5780518352602092830192016121a6565b5050858452601f01601f1916604052505b50949350505050565b6000805b8251811015612252576000805160206138b1833981519152610100830991506000805160206138b183398151915283826001865161221a9190613864565b6122249190613864565b8151811061223457612234613753565b016020015160f81c830891508061224a8161377f565b9150506121dc565b50919050565b612260612f7e565b612268612fb2565b835181526020808501519082015260408101839052600060608360808460076107d05a03fa905080801561002b5750806122e05760405162461bcd60e51b8152602060048201526019602482015278426e3235343a207363616c6172206d756c206661696c65642160381b60448201526064016100bd565b505092915050565b6122f0612f7e565b6122f8612fd0565b8351815260208085015181830152835160408301528301516060808301919091526000908360c08460066107d05a03fa905080801561002b5750806122e05760405162461bcd60e51b815260206004820152601d60248201527f426e3235343a2067726f7570206164646974696f6e206661696c65642100000060448201526064016100bd565b60008190506008817eff00ff00ff00ff00ff00ff00ff00ff00ff00ff00ff00ff00ff00ff00ff00ff16901b6008827fff00ff00ff00ff00ff00ff00ff00ff00ff00ff00ff00ff00ff00ff00ff00ff0016901c1790506010817dffff0000ffff0000ffff0000ffff0000ffff0000ffff0000ffff0000ffff16901b6010827dffff0000ffff0000ffff0000ffff0000ffff0000ffff0000ffff0000ffff1916901c1790506020817bffffffff00000000ffffffff00000000ffffffff00000000ffffffff16901b6020827bffffffff00000000ffffffff00000000ffffffff00000000ffffffff1916901c17905060408167ffffffffffffffff67ffffffffffffffff60801b0116901b60408267ffffffffffffffff67ffffffffffffffff60801b011916901c179050608081901b608082901c179050919050565b8051602082015160609160009115901516156124d757600160fe1b175b602083015160008051602061389183398151915260019190911b106124fd5750600160ff1b5b825161250a90821761237f565b60405160200161251c91815260200190565b604051602081830303815290604052915050919050565b60008060006000805160206138b1833981519152905060405160208152602080820152602060408201528460608201526002820360808201528160a08201526020600060c08360055afa9250506000519250816125d25760405162461bcd60e51b815260206004820152601d60248201527f426e3235343a20706f7720707265636f6d70696c65206661696c65642100000060448201526064016100bd565b5050919050565b60608281015160016000805160206138b1833981519152846001600160401b038111156126085761260861300c565b604051908082528060200260200182016040528015612631578160200160208202803683370190505b50935084151915611a915760208401856020028101600182526020820191505b8082101561266d57828585099350838252602082019150612651565b505050505092915050565b6000806000806000806000805160206138b183398151915290508060208b015160208d01510995508a5193508060a08c015160608d0151099250806101a08a0151840891508060808c015183089150808483099350807f2f8dd1f1a7583c42c4e12a44e110404c73ca6c94813f85835da4fb7bb1301d4a84099150806101c08a0151830891508060808c015183089150808483099350807f1ee678a0470a75a6eaa8fe837060498ba828a3703b311d0f77f010424afeb02584099150806101e08a0151830891508060808c015183089150808483099350807f2042a587a90c187b0a087c03e29c968b950b1db26d5c82d666905a6895790c0a84099150806102008a0151830891508060808c015183089150808483099350807f2e2b91456103698adf57b799969dea1c8f739da5d8d40dd3eb9222db7c81e88184099150806102208a0151830891508060808c0151830891508084830993508084870895508860a00151886000815181106127ef576127ef613753565b6020026020010181905250858760008151811061280e5761280e613753565b6020026020010181815250508060608c01518c51099450806102c08a015186099450806102408a015160608d0151099250806101a08a0151840892508060808c015184089250808386099450806102608a015160608d0151099250806101c08a0151840892508060808c015184089250808386099450806102808a015160608d0151099250806101e08a0151840892508060808c015184089250808386099450806102a08a015160608d0151099250806102008a0151840892508060808c0151840892508083860994508b60c00151886001815181106128f0576128f0613753565b60209081029190910101526129058582613864565b8760018151811061291857612918613753565b602002602001018181525050886101a001518760028151811061293d5761293d613753565b602002602001018181525050886101c001518760038151811061296257612962613753565b602002602001018181525050886101e001518760048151811061298757612987613753565b602002602001018181525050886102000151876005815181106129ac576129ac613753565b6020026020010181815250508b60e00151886002815181106129d0576129d0613753565b60200260200101819052508b6101000151886003815181106129f4576129f4613753565b60200260200101819052508b610120015188600481518110612a1857612a18613753565b60200260200101819052508b610140015188600581518110612a3c57612a3c613753565b6020026020010181905250806101c08a01516101a08b01510992508287600681518110612a6b57612a6b613753565b6020026020010181815250508b610160015188600681518110612a9057612a90613753565b6020026020010181905250806102008a01516101e08b01510992508287600781518110612abf57612abf613753565b6020026020010181815250508b610180015188600781518110612ae457612ae4613753565b60200260200101819052506101a089015192508083840991508082830991508082840992508287600881518110612b1d57612b1d613753565b6020026020010181815250508b6101e0015188600881518110612b4257612b42613753565b60200260200101819052506101c089015192508083840991508082830991508082840992508287600981518110612b7b57612b7b613753565b6020026020010181815250508b610200015188600981518110612ba057612ba0613753565b60200260200101819052506101e089015192508083840991508082830991508082840992508287600a81518110612bd957612bd9613753565b6020026020010181815250508b610220015188600a81518110612bfe57612bfe613753565b602002602001018190525061020089015192508083840991508082830991508082840992508287600b81518110612c3757612c37613753565b6020026020010181815250508b610240015188600b81518110612c5c57612c5c613753565b602002602001018190525088610220015181612c789190613864565b87600c81518110612c8b57612c8b613753565b6020026020010181815250508b6101a0015188600c81518110612cb057612cb0613753565b6020026020010181905250600187600d81518110612cd057612cd0613753565b6020026020010181815250508b6101c0015188600d81518110612cf557612cf5613753565b6020026020010181905250806101c08a01516101a08b0151099250806101e08a015184099250806102008a015184099250806102208a0151840992508287600e81518110612d4557612d45613753565b6020026020010181815250508b610260015188600e81518110612d6a57612d6a613753565b60209081029190910101528951612d819082613864565b87600f81518110612d9457612d94613753565b6020026020010181815250508860c0015188600f81518110612db857612db8613753565b60200260200101819052508060018b510860a08c0151909350819080099150808284099250808360206010028901510991508187601081518110612dfe57612dfe613753565b6020026020010181815250508860e0015188601081518110612e2257612e22613753565b6020026020010181905250808360206011028901510991508187601181518110612e4e57612e4e613753565b60200260200101818152505088610100015188601181518110612e7357612e73613753565b6020026020010181905250808360206012028901510991508187601281518110612e9f57612e9f613753565b60200260200101818152505088610120015188601281518110612ec457612ec4613753565b6020026020010181905250808360206013028901510991508187601381518110612ef057612ef0613753565b60200260200101818152505088610140015188601381518110612f1557612f15613753565b6020026020010181905250505050505050505050505050565b604051806101000160405280600081526020016000815260200160008152602001600081526020016060815260200160608152602001612f6c612f7e565b8152602001612f79612f7e565b905290565b604051806040016040528060008152602001600081525090565b604051806040016040528060608152602001612f79612fee565b60405180606001604052806003906020820280368337509192915050565b60405180608001604052806004906020820280368337509192915050565b60405180604001604052806002906020820280368337509192915050565b634e487b7160e01b600052604160045260246000fd5b6040516102e081016001600160401b03811182821017156130455761304561300c565b60405290565b60405161028081016001600160401b03811182821017156130455761304561300c565b604051601f8201601f191681016001600160401b03811182821017156130965761309661300c565b604052919050565b60006001600160401b038211156130b7576130b761300c565b5060051b60200190565b6000604082840312156130d357600080fd5b604051604081018181106001600160401b03821117156130f5576130f561300c565b604052823581526020928301359281019290925250919050565b600082601f83011261312057600080fd5b813560206131356131308361309e565b61306e565b828152600592831b850182019282820191908785111561315457600080fd5b8387015b858110156131e75780356001600160401b038111156131775760008081fd5b8801603f81018a136131895760008081fd5b85810135604061319b6131308361309e565b82815291851b8301810191888101908d8411156131b85760008081fd5b938201935b838510156131d6578435825293890193908901906131bd565b885250505093850193508401613158565b5090979650505050505050565b600082601f83011261320557600080fd5b81356132136131308261309e565b80828252602082019150610480602081850287010193508684111561323757600080fd5b602086015b848110156133e2578181890312156132545760008081fd5b61325c613022565b61326689836130c1565b815260406132768a8285016130c1565b602083015260806132898b8286016130c1565b8284015260c0915061329d8b8386016130c1565b60608401526101006132b18c8287016130c1565b8285015261014091506132c68c8387016130c1565b60a08501526101806132da8d8288016130c1565b848601526101c093506132ef8d8588016130c1565b60e08601526102006133038e8289016130c1565b8387015261024092506133188e8489016130c1565b61012087015261028061332d8f828a016130c1565b858801526102c094506133428f868a016130c1565b6101608801526133568f6103008a016130c1565b838801526103408801356101a0880152610360880135868801526103808801356101e08801526103a0880135828801526103c08801356102208801526103e08801358488015261040088013561026088015261042088013581880152505050506104408401356102a084015261046084013581840152505080855250602084019350818101905061323c565b50909695505050505050565b6000601f838184011261340057600080fd5b823560206134106131308361309e565b82815260059290921b8501810191818101908784111561342f57600080fd5b8287015b848110156134c55780356001600160401b03808211156134535760008081fd5b818a0191508a603f8301126134685760008081fd5b8582013560408282111561347e5761347e61300c565b61348f828b01601f1916890161306e565b92508183528c818386010111156134a65760008081fd5b8181850189850137506000908201870152845250918301918301613433565b50979650505050505050565b600080600080608085870312156134e757600080fd5b84356001600160401b03808211156134fe57600080fd5b818701915087601f83011261351257600080fd5b813560206135226131308361309e565b8281526104c0928302850182019282820191908c85111561354257600080fd5b958301955b848710156136df5780878e03121561355e57600080fd5b61356661304b565b87358152848801358582015261357f8e60408a016130c1565b60408201526135918e60808a016130c1565b60608201526135a38e60c08a016130c1565b60808201526135b68e6101008a016130c1565b60a08201526135c98e6101408a016130c1565b60c08201526135dc8e6101808a016130c1565b60e08201526135ef8e6101c08a016130c1565b6101008201526136038e6102008a016130c1565b6101208201526102406136188f828b016130c1565b61014083015261362c8f6102808b016130c1565b6101608301526136408f6102c08b016130c1565b6101808301526136548f6103008b016130c1565b6101a08301526136688f6103408b016130c1565b6101c083015261367c8f6103808b016130c1565b6101e08301526136908f6103c08b016130c1565b6102008301526136a48f6104008b016130c1565b6102208301526136b88f6104408b016130c1565b908201526136ca8e6104808a016130c1565b61026082015283529586019591830191613547565b50985050880135925050808211156136f657600080fd5b6137028883890161310f565b9450604087013591508082111561371857600080fd5b613724888389016131f4565b9350606087013591508082111561373a57600080fd5b50613747878288016133ee565b91505092959194509250565b634e487b7160e01b600052603260045260246000fd5b634e487b7160e01b600052601160045260246000fd5b600060001982141561379357613793613769565b5060010190565b60008160001904831182151516156137b4576137b4613769565b500290565b600082198211156137cc576137cc613769565b500190565b6000815160005b818110156137f257602081850181015186830152016137d8565b81811115613801576000828601525b509290920192915050565b848152836020820152600061382460408301856137d1565b60f89390931b6001600160f81b031916835250506001019392505050565b60008261385f57634e487b7160e01b600052601260045260246000fd5b500690565b60008282101561387657613876613769565b500390565b60006102bc61388a83866137d1565b846137d156fe30644e72e131a029b85045b68181585d97816a916871ca8d3c208c16d87cfd4730644e72e131a029b85045b68181585d2833e84879b9709143e1f593f0000001a2646970667358221220e2c3014eba58a65b33e9433c6a0e7d5e4b930de442ea32d147e02df2f4d9d0b664736f6c634300080a0033",
  "devdoc": {
    "kind": "dev",
    "methods": {
      "batchVerify((uint256,uint256,(uint256,uint256),(uint256,uint256),(uint256,uint256),(uint256,uint256),(uint256,uint256),(uint256,uint256),(uint256,uint256),(uint256,uint256),(uint256,uint256),(uint256,uint256),(uint256,uint256),(uint256,uint256),(uint256,uint256),(uint256,uint256),(uint256,uint256),(uint256,uint256),(uint256,uint256),(uint256,uint256))[],uint256[][],((uint256,uint256),(uint256,uint256),(uint256,uint256),(uint256,uint256),(uint256,uint256),(uint256,uint256),(uint256,uint256),(uint256,uint256),(uint256,uint256),(uint256,uint256),(uint256,uint256),(uint256,uint256),(uint256,uint256),uint256,uint256,uint256,uint256,uint256,uint256,uint256,uint256,uint256,uint256)[],bytes[])": {
        "details": "Batch verify multiple TurboPlonk proofs.",
        "params": {
          "extraTranscriptInitMsgs": "An array of bytes from transcript initialization messages",
          "proofs": "An array of Plonk proofs",
          "publicInputs": "A two-dimensional array of public inputs.",
          "verifyingKeys": "An array of verifier keys"
        }
      }
    },
    "version": 1
  },
  "userdoc": {
    "kind": "user",
    "methods": {},
    "version": 1
  },
  "storageLayout": {
    "storage": [
      {
        "astId": 11591,
        "contract": "contracts/verifier/PlonkVerifier.sol:PlonkVerifier",
        "label": "_betaH",
        "offset": 0,
        "slot": "0",
        "type": "t_struct(G2Point)5868_storage"
      }
    ],
    "types": {
      "t_struct(G2Point)5868_storage": {
        "encoding": "inplace",
        "label": "struct BN254.G2Point",
        "members": [
          {
            "astId": 5861,
            "contract": "contracts/verifier/PlonkVerifier.sol:PlonkVerifier",
            "label": "x0",
            "offset": 0,
            "slot": "0",
            "type": "t_uint256"
          },
          {
            "astId": 5863,
            "contract": "contracts/verifier/PlonkVerifier.sol:PlonkVerifier",
            "label": "x1",
            "offset": 0,
            "slot": "1",
            "type": "t_uint256"
          },
          {
            "astId": 5865,
            "contract": "contracts/verifier/PlonkVerifier.sol:PlonkVerifier",
            "label": "y0",
            "offset": 0,
            "slot": "2",
            "type": "t_uint256"
          },
          {
            "astId": 5867,
            "contract": "contracts/verifier/PlonkVerifier.sol:PlonkVerifier",
            "label": "y1",
            "offset": 0,
            "slot": "3",
            "type": "t_uint256"
          }
        ],
        "numberOfBytes": "128"
      },
      "t_uint256": {
        "encoding": "inplace",
        "label": "uint256",
        "numberOfBytes": "32"
      }
    }
  }
}