{
  "address": "0x8b5eC2ABCBa46AdDe084224F6706c12fB1F6896d",
  "abi": [
    {
      "inputs": [
        {
          "components": [
            {
              "internalType": "uint256",
              "name": "domainSize",
              "type": "uint256"
            },
            {
              "internalType": "uint256",
              "name": "numInputs",
              "type": "uint256"
            },
            {
              "components": [
                {
                  "internalType": "uint256",
                  "name": "x",
                  "type": "uint256"
                },
                {
                  "internalType": "uint256",
                  "name": "y",
                  "type": "uint256"
                }
              ],
              "internalType": "struct BN254.G1Point",
              "name": "sigma0",
              "type": "tuple"
            },
            {
              "components": [
                {
                  "internalType": "uint256",
                  "name": "x",
                  "type": "uint256"
                },
                {
                  "internalType": "uint256",
                  "name": "y",
                  "type": "uint256"
                }
              ],
              "internalType": "struct BN254.G1Point",
              "name": "sigma1",
              "type": "tuple"
            },
            {
              "components": [
                {
                  "internalType": "uint256",
                  "name": "x",
                  "type": "uint256"
                },
                {
                  "internalType": "uint256",
                  "name": "y",
                  "type": "uint256"
                }
              ],
              "internalType": "struct BN254.G1Point",
              "name": "sigma2",
              "type": "tuple"
            },
            {
              "components": [
                {
                  "internalType": "uint256",
                  "name": "x",
                  "type": "uint256"
                },
                {
                  "internalType": "uint256",
                  "name": "y",
                  "type": "uint256"
                }
              ],
              "internalType": "struct BN254.G1Point",
              "name": "sigma3",
              "type": "tuple"
            },
            {
              "components": [
                {
                  "internalType": "uint256",
                  "name": "x",
                  "type": "uint256"
                },
                {
                  "internalType": "uint256",
                  "name": "y",
                  "type": "uint256"
                }
              ],
              "internalType": "struct BN254.G1Point",
              "name": "sigma4",
              "type": "tuple"
            },
            {
              "components": [
                {
                  "internalType": "uint256",
                  "name": "x",
                  "type": "uint256"
                },
                {
                  "internalType": "uint256",
                  "name": "y",
                  "type": "uint256"
                }
              ],
              "internalType": "struct BN254.G1Point",
              "name": "q1",
              "type": "tuple"
            },
            {
              "components": [
                {
                  "internalType": "uint256",
                  "name": "x",
                  "type": "uint256"
                },
                {
                  "internalType": "uint256",
                  "name": "y",
                  "type": "uint256"
                }
              ],
              "internalType": "struct BN254.G1Point",
              "name": "q2",
              "type": "tuple"
            },
            {
              "components": [
                {
                  "internalType": "uint256",
                  "name": "x",
                  "type": "uint256"
                },
                {
                  "internalType": "uint256",
                  "name": "y",
                  "type": "uint256"
                }
              ],
              "internalType": "struct BN254.G1Point",
              "name": "q3",
              "type": "tuple"
            },
            {
              "components": [
                {
                  "internalType": "uint256",
                  "name": "x",
                  "type": "uint256"
                },
                {
                  "internalType": "uint256",
                  "name": "y",
                  "type": "uint256"
                }
              ],
              "internalType": "struct BN254.G1Point",
              "name": "q4",
              "type": "tuple"
            },
            {
              "components": [
                {
                  "internalType": "uint256",
                  "name": "x",
                  "type": "uint256"
                },
                {
                  "internalType": "uint256",
                  "name": "y",
                  "type": "uint256"
                }
              ],
              "internalType": "struct BN254.G1Point",
              "name": "qM12",
              "type": "tuple"
            },
            {
              "components": [
                {
                  "internalType": "uint256",
                  "name": "x",
                  "type": "uint256"
                },
                {
                  "internalType": "uint256",
                  "name": "y",
                  "type": "uint256"
                }
              ],
              "internalType": "struct BN254.G1Point",
              "name": "qM34",
              "type": "tuple"
            },
            {
              "components": [
                {
                  "internalType": "uint256",
                  "name": "x",
                  "type": "uint256"
                },
                {
                  "internalType": "uint256",
                  "name": "y",
                  "type": "uint256"
                }
              ],
              "internalType": "struct BN254.G1Point",
              "name": "qO",
              "type": "tuple"
            },
            {
              "components": [
                {
                  "internalType": "uint256",
                  "name": "x",
                  "type": "uint256"
                },
                {
                  "internalType": "uint256",
                  "name": "y",
                  "type": "uint256"
                }
              ],
              "internalType": "struct BN254.G1Point",
              "name": "qC",
              "type": "tuple"
            },
            {
              "components": [
                {
                  "internalType": "uint256",
                  "name": "x",
                  "type": "uint256"
                },
                {
                  "internalType": "uint256",
                  "name": "y",
                  "type": "uint256"
                }
              ],
              "internalType": "struct BN254.G1Point",
              "name": "qH1",
              "type": "tuple"
            },
            {
              "components": [
                {
                  "internalType": "uint256",
                  "name": "x",
                  "type": "uint256"
                },
                {
                  "internalType": "uint256",
                  "name": "y",
                  "type": "uint256"
                }
              ],
              "internalType": "struct BN254.G1Point",
              "name": "qH2",
              "type": "tuple"
            },
            {
              "components": [
                {
                  "internalType": "uint256",
                  "name": "x",
                  "type": "uint256"
                },
                {
                  "internalType": "uint256",
                  "name": "y",
                  "type": "uint256"
                }
              ],
              "internalType": "struct BN254.G1Point",
              "name": "qH3",
              "type": "tuple"
            },
            {
              "components": [
                {
                  "internalType": "uint256",
                  "name": "x",
                  "type": "uint256"
                },
                {
                  "internalType": "uint256",
                  "name": "y",
                  "type": "uint256"
                }
              ],
              "internalType": "struct BN254.G1Point",
              "name": "qH4",
              "type": "tuple"
            },
            {
              "components": [
                {
                  "internalType": "uint256",
                  "name": "x",
                  "type": "uint256"
                },
                {
                  "internalType": "uint256",
                  "name": "y",
                  "type": "uint256"
                }
              ],
              "internalType": "struct BN254.G1Point",
              "name": "qEcc",
              "type": "tuple"
            }
          ],
          "internalType": "struct IPlonkVerifier.VerifyingKey[]",
          "name": "verifyingKeys",
          "type": "tuple[]"
        },
        {
          "internalType": "uint256[][]",
          "name": "publicInputs",
          "type": "uint256[][]"
        },
        {
          "components": [
            {
              "components": [
                {
                  "internalType": "uint256",
                  "name": "x",
                  "type": "uint256"
                },
                {
                  "internalType": "uint256",
                  "name": "y",
                  "type": "uint256"
                }
              ],
              "internalType": "struct BN254.G1Point",
              "name": "wire0",
              "type": "tuple"
            },
            {
              "components": [
                {
                  "internalType": "uint256",
                  "name": "x",
                  "type": "uint256"
                },
                {
                  "internalType": "uint256",
                  "name": "y",
                  "type": "uint256"
                }
              ],
              "internalType": "struct BN254.G1Point",
              "name": "wire1",
              "type": "tuple"
            },
            {
              "components": [
                {
                  "internalType": "uint256",
                  "name": "x",
                  "type": "uint256"
                },
                {
                  "internalType": "uint256",
                  "name": "y",
                  "type": "uint256"
                }
              ],
              "internalType": "struct BN254.G1Point",
              "name": "wire2",
              "type": "tuple"
            },
            {
              "components": [
                {
                  "internalType": "uint256",
                  "name": "x",
                  "type": "uint256"
                },
                {
                  "internalType": "uint256",
                  "name": "y",
                  "type": "uint256"
                }
              ],
              "internalType": "struct BN254.G1Point",
              "name": "wire3",
              "type": "tuple"
            },
            {
              "components": [
                {
                  "internalType": "uint256",
                  "name": "x",
                  "type": "uint256"
                },
                {
                  "internalType": "uint256",
                  "name": "y",
                  "type": "uint256"
                }
              ],
              "internalType": "struct BN254.G1Point",
              "name": "wire4",
              "type": "tuple"
            },
            {
              "components": [
                {
                  "internalType": "uint256",
                  "name": "x",
                  "type": "uint256"
                },
                {
                  "internalType": "uint256",
                  "name": "y",
                  "type": "uint256"
                }
              ],
              "internalType": "struct BN254.G1Point",
              "name": "prodPerm",
              "type": "tuple"
            },
            {
              "components": [
                {
                  "internalType": "uint256",
                  "name": "x",
                  "type": "uint256"
                },
                {
                  "internalType": "uint256",
                  "name": "y",
                  "type": "uint256"
                }
              ],
              "internalType": "struct BN254.G1Point",
              "name": "split0",
              "type": "tuple"
            },
            {
              "components": [
                {
                  "internalType": "uint256",
                  "name": "x",
                  "type": "uint256"
                },
                {
                  "internalType": "uint256",
                  "name": "y",
                  "type": "uint256"
                }
              ],
              "internalType": "struct BN254.G1Point",
              "name": "split1",
              "type": "tuple"
            },
            {
              "components": [
                {
                  "internalType": "uint256",
                  "name": "x",
                  "type": "uint256"
                },
                {
                  "internalType": "uint256",
                  "name": "y",
                  "type": "uint256"
                }
              ],
              "internalType": "struct BN254.G1Point",
              "name": "split2",
              "type": "tuple"
            },
            {
              "components": [
                {
                  "internalType": "uint256",
                  "name": "x",
                  "type": "uint256"
                },
                {
                  "internalType": "uint256",
                  "name": "y",
                  "type": "uint256"
                }
              ],
              "internalType": "struct BN254.G1Point",
              "name": "split3",
              "type": "tuple"
            },
            {
              "components": [
                {
                  "internalType": "uint256",
                  "name": "x",
                  "type": "uint256"
                },
                {
                  "internalType": "uint256",
                  "name": "y",
                  "type": "uint256"
                }
              ],
              "internalType": "struct BN254.G1Point",
              "name": "split4",
              "type": "tuple"
            },
            {
              "components": [
                {
                  "internalType": "uint256",
                  "name": "x",
                  "type": "uint256"
                },
                {
                  "internalType": "uint256",
                  "name": "y",
                  "type": "uint256"
                }
              ],
              "internalType": "struct BN254.G1Point",
              "name": "zeta",
              "type": "tuple"
            },
            {
              "components": [
                {
                  "internalType": "uint256",
                  "name": "x",
                  "type": "uint256"
                },
                {
                  "internalType": "uint256",
                  "name": "y",
                  "type": "uint256"
                }
              ],
              "internalType": "struct BN254.G1Point",
              "name": "zetaOmega",
              "type": "tuple"
            },
            {
              "internalType": "uint256",
              "name": "wireEval0",
              "type": "uint256"
            },
            {
              "internalType": "uint256",
              "name": "wireEval1",
              "type": "uint256"
            },
            {
              "internalType": "uint256",
              "name": "wireEval2",
              "type": "uint256"
            },
            {
              "internalType": "uint256",
              "name": "wireEval3",
              "type": "uint256"
            },
            {
              "internalType": "uint256",
              "name": "wireEval4",
              "type": "uint256"
            },
            {
              "internalType": "uint256",
              "name": "sigmaEval0",
              "type": "uint256"
            },
            {
              "internalType": "uint256",
              "name": "sigmaEval1",
              "type": "uint256"
            },
            {
              "internalType": "uint256",
              "name": "sigmaEval2",
              "type": "uint256"
            },
            {
              "internalType": "uint256",
              "name": "sigmaEval3",
              "type": "uint256"
            },
            {
              "internalType": "uint256",
              "name": "prodPermZetaOmegaEval",
              "type": "uint256"
            }
          ],
          "internalType": "struct IPlonkVerifier.PlonkProof[]",
          "name": "proofs",
          "type": "tuple[]"
        },
        {
          "internalType": "bytes[]",
          "name": "extraTranscriptInitMsgs",
          "type": "bytes[]"
        }
      ],
      "name": "batchVerify",
      "outputs": [
        {
          "internalType": "bool",
          "name": "",
          "type": "bool"
        }
      ],
      "stateMutability": "view",
      "type": "function"
    }
  ],
  "transactionHash": "0xff74b288c5da8ae585a7712fb60189e0ee6b45e7806da2706996aa5e36895ccf",
  "args": [],
  "solcInputHash": "a2a06204e48e5b061a7d8a091eecad05",
  "bytecode": "0x6101006040527f260e01b251f6f1c7e7ff4e580791dee8ea51d87a358e038b4efe30fac09383c160808190527f0118c4d5b837bcc2bc89b5b398b5974e9f5944073b32078b7e231fec938883b060a08190527f04fc6369f7110fe3d25156c1bb9a72859cf2a04641f99ba4ee413c80da6a5fe460c08190527f22febda3c0c0632a56475b4214e5615e11e6dd3f96e6cea2854a87d4dacc5e5560e08190526000939093556001919091556002556003553480156100bb57600080fd5b50613a55806100cb6000396000f3fe608060405234801561001057600080fd5b506004361061002b5760003560e01c8063830affd614610030575b600080fd5b61004361003e366004613629565b610057565b604051901515815260200160405180910390f35b60008251855114801561006b575082518451145b8015610078575082518251145b6100c95760405162461bcd60e51b815260206004820152601a60248201527f506c6f6e6b3a20696e76616c696420696e70757420706172616d00000000000060448201526064015b60405180910390fd5b600083511161011a5760405162461bcd60e51b815260206004820152601c60248201527f506c6f6e6b3a206e656564206174206c6561737420312070726f6f660000000060448201526064016100c0565b6000835167ffffffffffffffff8111156101365761013661315d565b60405190808252806020026020018201604052801561016f57816020015b61015c61306f565b8152602001906001900390816101545790505b50905060005b84518110156102b3576101a0858281518110610193576101936138ac565b60200260200101516102c9565b60005b8682815181106101b5576101b56138ac565b602002602001015151811015610212576102008783815181106101da576101da6138ac565b602002602001015182815181106101f3576101f36138ac565b60200260200101516103f6565b8061020a816138d8565b9150506101a3565b50610283878281518110610228576102286138ac565b6020026020010151878381518110610242576102426138ac565b602002602001015187848151811061025c5761025c6138ac565b6020026020010151878581518110610276576102766138ac565b6020026020010151610458565b828281518110610295576102956138ac565b602002602001018190525080806102ab906138d8565b915050610175565b506102bd816105df565b9150505b949350505050565b80516102d490610d0e565b6102e18160200151610d0e565b6102ee8160400151610d0e565b6102fb8160600151610d0e565b6103088160800151610d0e565b6103158160a00151610d0e565b6103228160c00151610d0e565b61032f8160e00151610d0e565b61033d816101000151610d0e565b61034b816101200151610d0e565b610359816101400151610d0e565b610367816101600151610d0e565b610375816101a001516103f6565b610383816101c001516103f6565b610391816101e001516103f6565b61039f8161020001516103f6565b6103ad8161022001516103f6565b6103bb8161024001516103f6565b6103c98161026001516103f6565b6103d78161028001516103f6565b6103e5816102a001516103f6565b6103f3816102c001516103f6565b50565b600080516020613a008339815191528110806104545760405162461bcd60e51b815260206004820152601b60248201527f426e3235343a20696e76616c6964207363616c6172206669656c64000000000060448201526064016100c0565b5050565b61046061306f565b84602001518451146104b45760405162461bcd60e51b815260206004820152601a60248201527f506c6f6e6b3a2077726f6e6720766572696679696e67206b657900000000000060448201526064016100c0565b60006104c286868686610daf565b905060006104d38760000151610f7d565b905060006104e6828460a0015189611248565b60408051601e8082526103e0820190925291925060009190602082016103c080368337505060408051601e8082526103e082019092529293506000929150602082015b604080518082019091526000808252602082015281526020019060019003908161052957905050905060006105628b858b8987876112a8565b60a0870151606087015191925090600080516020613a00833981519152600081838509604080516101008101825260e09c8d0151815260208101969096528501525050506060810191909152608081019290925260a082015261016087015160c08201526101809096015192860192909252509295945050505050565b8051600090600080516020613a00833981519152600180831115610660576106056130e9565b60005b8481101561065257610640878281518110610625576106256138ac565b602002602001015160000151836112dd90919063ffffffff16565b8061064a816138d8565b915050610608565b5061065c816112e7565b9150505b6040805180820190915260008082526020820152604080518082019091526000808252602082015260006106958660026138f1565b67ffffffffffffffff8111156106ad576106ad61315d565b6040519080825280602002602001820160405280156106d6578160200160208202803683370190505b50905060006106e68760026138f1565b67ffffffffffffffff8111156106fe576106fe61315d565b60405190808252806020026020018201604052801561074357816020015b604080518082019091526000808252602082015281526020019060019003908161071c5790505b509050600160005b8881101561088c5781846107608360026138f1565b81518110610770576107706138ac565b6020026020010181815250508a818151811061078e5761078e6138ac565b602002602001015160c00151838260026107a891906138f1565b815181106107b8576107b86138ac565b60200260200101819052506000808c83815181106107d8576107d86138ac565b602002602001015160000151905089818509915081866107f98560026138f1565b610804906001613910565b81518110610814576108146138ac565b60200260200101818152505050508a8181518110610834576108346138ac565b602002602001015160e001518382600261084e91906138f1565b610859906001613910565b81518110610869576108696138ac565b602002602001018190525087878309915080610884816138d8565b91505061074b565b506108978284611414565b94505050506060806000896000815181106108b4576108b46138ac565b60200260200101516080015151905060008a518260026108d49190613910565b6108de91906138f1565b6108e9906001613910565b90508067ffffffffffffffff8111156109045761090461315d565b60405190808252806020026020018201604052801561092d578160200160208202803683370190505b5093508067ffffffffffffffff8111156109495761094961315d565b60405190808252806020026020018201604052801561098e57816020015b60408051808201909152600080825260208201528152602001906001900390816109675790505b509250600091508190506001815b8c51811015610c385760005b8d6000815181106109bb576109bb6138ac565b60200260200101516080015151811015610aa65760008e83815181106109e3576109e36138ac565b6020026020010151608001518281518110610a0057610a006138ac565b6020026020010151905060008c828609905080898781518110610a2557610a256138ac565b60200260200101818152505050508d8281518110610a4557610a456138ac565b602002602001015160a001518181518110610a6257610a626138ac565b6020026020010151868581518110610a7c57610a7c6138ac565b6020908102919091010152610a92600185613910565b935080610a9e816138d8565b9150506109a8565b5060008d8281518110610abb57610abb6138ac565b602002602001015160200151905060008b828509905080888681518110610ae457610ae46138ac565b60200260200101818152505050508c8181518110610b0457610b046138ac565b602002602001015160c00151858481518110610b2257610b226138ac565b6020908102919091010152610b38600184613910565b925060008d8281518110610b4e57610b4e6138ac565b602002602001015160000151905060008e8381518110610b7057610b706138ac565b602002602001015160400151905060008c8d8385098609905080898781518110610b9c57610b9c6138ac565b6020026020010181815250505050508c8181518110610bbd57610bbd6138ac565b602002602001015160e00151858481518110610bdb57610bdb6138ac565b6020908102919091010152610bf1600184613910565b925060008d8281518110610c0757610c076138ac565b60200260200101516060015190508a8b828509860894508a8a84099250508080610c30906138d8565b91505061099c565b50610c4283611518565b858381518110610c5457610c546138ac565b602002602001018181525050610c8c604080518082018252600080825260209182015281518083019092526001825260029082015290565b848381518110610c9e57610c9e6138ac565b6020026020010181905250610cbb610cb68587611414565b611550565b6040805160808101825260005481526001546020820152600254918101919091526003546060820152909650610d0395508794509250859150610cfe90506115ef565b6116c0565b979650505050505050565b805160208201516000917f30644e72e131a029b85045b68181585d97816a916871ca8d3c208c16d87cfd4791826003818085800985090883828309148115831517198483108585101616169350505081610daa5760405162461bcd60e51b815260206004820152601760248201527f426e3235343a20696e76616c696420473120706f696e7400000000000000000060448201526064016100c0565b505050565b610df760405180610100016040528060008152602001600081526020016000815260200160008152602001600081526020016000815260200160008152602001600081525090565b610dff6130e9565b600080516020613a00833981519152610e1882856117a2565b610e238288886117cc565b8451610e30908390611a38565b6020850151610e40908390611a38565b6040850151610e50908390611a38565b6060850151610e60908390611a38565b6080850151610e70908390611a38565b610e79826112e7565b50610e83826112e7565b6060840152610e91826112e7565b608084015260a0850151610ea6908390611a38565b610eaf826112e7565b835260c0850151610ec1908390611a38565b60e0850151610ed1908390611a38565b610100850151610ee2908390611a38565b610120850151610ef3908390611a38565b610140850151610f04908390611a38565b610f0d826112e7565b60a0840152610f1c8286611a4f565b610f25826112e7565b60c0840152610160850151610f3b908390611a38565b610180850151610f4c908390611a38565b610f55826112e7565b60e0840152825181818009828282096020860191909152604085015250919695505050505050565b610faf6040518060a0016040528060008152602001600081526020016000815260200160008152602001600081525090565b816140000361104357506040805160a081018252600e815260208101929092527f30638ce1a7661b6337a964756aa75257c6bf4778d89789ab819ce60c19b04001908201527f2d965651cdd9e4811f4e51b80ddca8a8b4a93ee17420aae6adaa01c2617c6e8560608201527f281c036f06e7e9e911680d42558e6e8cf40976b0677771c0f8eee934641c8410608082015290565b81618000036110d757506040805160a081018252600f815260208101929092527f3063edaa444bddc677fcd515f614555a777997e0a9287d1e62bf6dd004d82001908201527f2d1ba66f5941dc91017171fa69ec2bd0022a2a2d4115a009a93458fd4e26ecfb60608201527f05d33766e4590b3722701b6f2fa43d0dc3f028424d384e68c92a742fb2dbc0b4608082015290565b81620100000361116b57506040805160a0810182526010815260208101929092527f30641e0e92bebef818268d663bcad6dbcfd6c0149170f6d7d350b1b1fa6c1001908201527eeeb2cb5981ed45649abebde081dcff16c8601de4347e7dd1628ba2daac43b760608201527f0b5d56b77fe704e8e92338c0082f37e091126414c830e4c6922d5ac802d842d4608082015290565b81620200000361120057506040805160a0810182526011815260208101929092527f30643640b9f82f90e83b698e5ea6179c7c05542e859533b48b9953a2f5360801908201527f1bf82deba7d74902c3708cc6e70e61f30512eca95655210e276e5858ce8f58e560608201527f244cf010c43ca87237d8b00bf9dd50c4c01c7f086bd4e8c920e75251d96f0d22608082015290565b60405162461bcd60e51b815260206004820152601c60248201527f506f6c793a2073697a65206d75737420696e20325e7b31347e31377d0000000060448201526064016100c0565b61126c60405180606001604052806000815260200160008152602001600081525090565b6112768484611ae5565b8082526112869085908590611b39565b6020820152805161129c90859084908690611b9f565b60408201529392505050565b6000806112b6858789611cf6565b90506112c6888689898888611de2565b6112d18187866120ee565b98975050505050505050565b610454828261213e565b6020818101518051908201518351604051600094859461130f94909390929091869101613963565b60405160208183030381529060405280519060200120905060008360200151600060028110611340576113406138ac565b6020020151846020015160016002811061135c5761135c6138ac565b60200201518560000151600160405160200161137b9493929190613963565b6040516020818303038152906040528051906020012090508184602001516000600281106113ab576113ab6138ac565b6020020181815250508084602001516001600281106113cc576113cc6138ac565b6020020181815250506102c161140f83836040516020016113f7929190918252602082015260400190565b60405160208183030381529060405260006030612171565b612299565b604080518082019091526000808252602082015282518251146114795760405162461bcd60e51b815260206004820181905260248201527f4d534d206572726f723a206c656e67746820646f6573206e6f74206d6174636860448201526064016100c0565b6114b78360008151811061148f5761148f6138ac565b6020026020010151836000815181106114aa576114aa6138ac565b6020026020010151612319565b905060015b8251811015611511576114fd826114f88684815181106114de576114de6138ac565b60200260200101518685815181106114aa576114aa6138ac565b6123bd565b915080611509816138d8565b9150506114bc565b5092915050565b6000611532600080516020613a00833981519152836139b1565b61154a90600080516020613a008339815191526139d3565b92915050565b6040805180820190915260008082526020820152815160208301511590151615611578575090565b6040518060400160405280836000015181526020017f30644e72e131a029b85045b68181585d97816a916871ca8d3c208c16d87cfd4784602001516115bd91906139b1565b6115e7907f30644e72e131a029b85045b68181585d97816a916871ca8d3c208c16d87cfd476139d3565b905292915050565b61161a6040518060800160405280600081526020016000815260200160008152602001600081525090565b60405180608001604052807f198e9393920d483a7260bfb731fb5d25f1aa493335a9e71297e485b7aef312c281526020017f1800deef121f1e76426a00665e5c4479674322d4f75edadd46debd5cd992f6ed81526020017f090689d0585ff075ec9e99ad690c3395bc4b313370b38ef355acdadcd122975b81526020017f12c85ea5db8c6deb4aab71808dcb408fe3d1e7690c43d37b4ce6cc0166fa7daa815250905090565b60008060006040518751815260208801516020820152865160408201526020870151606082015260408701516080820152606087015160a0820152855160c0820152602086015160e08201528451610100820152602085015161012082015260408501516101408201526060850151610160820152602060006101808360085afa9150506000519150806117965760405162461bcd60e51b815260206004820152601c60248201527f426e3235343a2050616972696e6720636865636b206661696c6564210000000060448201526064016100c0565b50151595945050505050565b81516040516117b6919083906020016139ea565b60408051601f1981840301815291905290915250565b60fe61180d846118086117de84612464565b6040516020016117f091815260200190565b60405160208183030381529060405260006008612171565b6117a2565b611821846118086117de8660000151612464565b611835846118086117de8660200151612464565b61184084600161213e565b61186a847f2f8dd1f1a7583c42c4e12a44e110404c73ca6c94813f85835da4fb7bb1301d4a61213e565b611894847f1ee678a0470a75a6eaa8fe837060498ba828a3703b311d0f77f010424afeb02561213e565b6118be847f2042a587a90c187b0a087c03e29c968b950b1db26d5c82d666905a6895790c0a61213e565b6118e8847f2e2b91456103698adf57b799969dea1c8f739da5d8d40dd3eb9222db7c81e88161213e565b6118f6848460e00151611a38565b61190584846101000151611a38565b61191484846101200151611a38565b61192384846101400151611a38565b61193284846101600151611a38565b61194184846101800151611a38565b61195084846101e00151611a38565b61195f84846102000151611a38565b61196e84846102200151611a38565b61197d84846102400151611a38565b61198c84846101a00151611a38565b61199b84846101c00151611a38565b6119aa84846102600151611a38565b6119b8848460400151611a38565b6119c6848460600151611a38565b6119d4848460800151611a38565b6119e2848460a00151611a38565b6119f0848460c00151611a38565b60005b8251811015611a3157611a1f85848381518110611a1257611a126138ac565b602002602001015161213e565b80611a29816138d8565b9150506119f3565b5050505050565b6000611a43826125b0565b9050610daa83826117a2565b611a5e82826101a0015161213e565b611a6d82826101c0015161213e565b611a7c82826101e0015161213e565b611a8b8282610200015161213e565b611a9a8282610220015161213e565b611aa98282610240015161213e565b611ab88282610260015161213e565b611ac78282610280015161213e565b611ad682826102a0015161213e565b61045482826102c0015161213e565b8151600090600080516020613a0083398151915290838015611b295784935060005b82811015611b1d57838586099450600101611b07565b50600184039350611b30565b6001830393505b50505092915050565b600081600003611b4b57506000611b98565b6040840151600080516020613a0083398151915290600090828186099050858015611b7b57600187039250611b82565b6001840392505b50611b8c82612673565b91508282820993505050505b9392505050565b600081600003611bb1575060006102c1565b83516040860151600080516020613a008339815191529190600090819081908180611bdc8d88612719565b905060008767ffffffffffffffff811115611bf957611bf961315d565b604051908082528060200260200182016040528015611c22578160200160208202803683370190505b509050888b850993506001925060005b88811015611c6757602081026020840101519550898d878c030896508987850960208281028401018890529350600101611c32565b50611c7183612673565b925060005b88811015611ce45760208102602084010151955089868609975089848909975060005b89811015611cc357808214611cbb576020810260208401015197508a888a0998505b600101611c99565b506020810260208f010151955089868909975089888c089a50600101611c76565b50505050505050505050949350505050565b600080600080516020613a008339815191529050600083602001519050600084604001519050600060019050606088015160808901516101a08901516102408a0151878889838709858501088609945050506101c08901516102608a0151878889838709858501088609945050506101e08901516102808a0151878889838709858501088609945050506102008901516102a08a01518788898387098585010886099450505061022089015191506102c0890151868782898587080985099350505050875160208901518586868309870385089650508485838309860387089998505050505050505050565b611df08686868685876127b9565b60c08501518251600080516020613a0083398151915291908190819086906014908110611e1f57611e1f6138ac565b602002602001018181525050856000015184601481518110611e4357611e436138ac565b60200260200101819052508282820990508085601581518110611e6857611e686138ac565b602002602001018181525050856020015184601581518110611e8c57611e8c6138ac565b60200260200101819052508282820990508085601681518110611eb157611eb16138ac565b602002602001018181525050856040015184601681518110611ed557611ed56138ac565b60200260200101819052508282820990508085601781518110611efa57611efa6138ac565b602002602001018181525050856060015184601781518110611f1e57611f1e6138ac565b60200260200101819052508282820990508085601881518110611f4357611f436138ac565b602002602001018181525050856080015184601881518110611f6757611f676138ac565b60200260200101819052508282820990508085601981518110611f8c57611f8c6138ac565b602002602001018181525050886040015184601981518110611fb057611fb06138ac565b60200260200101819052508282820990508085601a81518110611fd557611fd56138ac565b602002602001018181525050886060015184601a81518110611ff957611ff96138ac565b60200260200101819052508282820990508085601b8151811061201e5761201e6138ac565b602002602001018181525050886080015184601b81518110612042576120426138ac565b60200260200101819052508282820990508085601c81518110612067576120676138ac565b6020026020010181815250508860a0015184601c8151811061208b5761208b6138ac565b60200260200101819052508282820990508760e0015185601d815181106120b4576120b46138ac565b6020026020010181815250508560a0015184601d815181106120d8576120d86138ac565b6020026020010181905250505050505050505050565b600080516020613a008339815191528381039060005b600a8110156121355760206015820102840151602082026101a0018601518384828409860894505050600101612104565b50509392505050565b6104548261214b83612464565b60405160200161215d91815260200190565b6040516020818303038152906040526117a2565b60608161217f81601f613910565b10156121cd5760405162461bcd60e51b815260206004820152600e60248201527f736c6963655f6f766572666c6f7700000000000000000000000000000000000060448201526064016100c0565b6121d78284613910565b845110156122275760405162461bcd60e51b815260206004820152601160248201527f736c6963655f6f75744f66426f756e647300000000000000000000000000000060448201526064016100c0565b6060821580156122465760405191506000825260208201604052612290565b6040519150601f8416801560200281840101858101878315602002848b0101015b8183101561227f578051835260209283019201612267565b5050858452601f01601f1916604052505b50949350505050565b6000805b825181101561231357600080516020613a0083398151915261010083099150600080516020613a008339815191528382600186516122db91906139d3565b6122e591906139d3565b815181106122f5576122f56138ac565b016020015160f81c830891508061230b816138d8565b91505061229d565b50919050565b6040805180820190915260008082526020820152612335613103565b835181526020808501519082015260408101839052600060608360808460076107d05a03fa9050808061236757600080fd5b50806123b55760405162461bcd60e51b815260206004820152601960248201527f426e3235343a207363616c6172206d756c206661696c6564210000000000000060448201526064016100c0565b505092915050565b60408051808201909152600080825260208201526123d9613121565b8351815260208085015181830152835160408301528301516060808301919091526000908360c08460066107d05a03fa9050808061241657600080fd5b50806123b55760405162461bcd60e51b815260206004820152601d60248201527f426e3235343a2067726f7570206164646974696f6e206661696c65642100000060448201526064016100c0565b60008190506008817eff00ff00ff00ff00ff00ff00ff00ff00ff00ff00ff00ff00ff00ff00ff00ff16901b6008827fff00ff00ff00ff00ff00ff00ff00ff00ff00ff00ff00ff00ff00ff00ff00ff0016901c1790506010817dffff0000ffff0000ffff0000ffff0000ffff0000ffff0000ffff0000ffff16901b6010827fffff0000ffff0000ffff0000ffff0000ffff0000ffff0000ffff0000ffff000016901c1790506020817bffffffff00000000ffffffff00000000ffffffff00000000ffffffff16901b6020827fffffffff00000000ffffffff00000000ffffffff00000000ffffffff0000000016901c17905060408177ffffffffffffffff0000000000000000ffffffffffffffff16901b6040827fffffffffffffffff0000000000000000ffffffffffffffff000000000000000016901c179050608081901b608082901c179050919050565b8051602082015160609160009115901516156125e9577f4000000000000000000000000000000000000000000000000000000000000000175b60208301517f30644e72e131a029b85045b68181585d97816a916871ca8d3c208c16d87cfd4760019190911b1061263d57507f80000000000000000000000000000000000000000000000000000000000000005b825161264a908217612464565b60405160200161265c91815260200190565b604051602081830303815290604052915050919050565b6000806000600080516020613a00833981519152905060405160208152602080820152602060408201528460608201526002820360808201528160a08201526020600060c08360055afa9250506000519250816127125760405162461bcd60e51b815260206004820152601d60248201527f426e3235343a20706f7720707265636f6d70696c65206661696c65642100000060448201526064016100c0565b5050919050565b6060828101516001600080516020613a008339815191528467ffffffffffffffff8111156127495761274961315d565b604051908082528060200260200182016040528015612772578160200160208202803683370190505b50935084151915611b305760208401856020028101600182526020820191505b808210156127ae57828585099350838252602082019150612792565b505050505092915050565b600080600080600080600080516020613a0083398151915290508060208b015160208d01510995508a5193508060a08c015160608d0151099250806101a08a0151840891508060808c015183089150808483099350807f2f8dd1f1a7583c42c4e12a44e110404c73ca6c94813f85835da4fb7bb1301d4a84099150806101c08a0151830891508060808c015183089150808483099350807f1ee678a0470a75a6eaa8fe837060498ba828a3703b311d0f77f010424afeb02584099150806101e08a0151830891508060808c015183089150808483099350807f2042a587a90c187b0a087c03e29c968b950b1db26d5c82d666905a6895790c0a84099150806102008a0151830891508060808c015183089150808483099350807f2e2b91456103698adf57b799969dea1c8f739da5d8d40dd3eb9222db7c81e88184099150806102208a0151830891508060808c0151830891508084830993508084870895508860a0015188600081518110612930576129306138ac565b6020026020010181905250858760008151811061294f5761294f6138ac565b6020026020010181815250508060608c01518c51099450806102c08a015186099450806102408a015160608d0151099250806101a08a0151840892508060808c015184089250808386099450806102608a015160608d0151099250806101c08a0151840892508060808c015184089250808386099450806102808a015160608d0151099250806101e08a0151840892508060808c015184089250808386099450806102a08a015160608d0151099250806102008a0151840892508060808c0151840892508083860994508b60c0015188600181518110612a3157612a316138ac565b6020908102919091010152612a4685826139d3565b87600181518110612a5957612a596138ac565b602002602001018181525050886101a0015187600281518110612a7e57612a7e6138ac565b602002602001018181525050886101c0015187600381518110612aa357612aa36138ac565b602002602001018181525050886101e0015187600481518110612ac857612ac86138ac565b60200260200101818152505088610200015187600581518110612aed57612aed6138ac565b6020026020010181815250508b60e0015188600281518110612b1157612b116138ac565b60200260200101819052508b610100015188600381518110612b3557612b356138ac565b60200260200101819052508b610120015188600481518110612b5957612b596138ac565b60200260200101819052508b610140015188600581518110612b7d57612b7d6138ac565b6020026020010181905250806101c08a01516101a08b01510992508287600681518110612bac57612bac6138ac565b6020026020010181815250508b610160015188600681518110612bd157612bd16138ac565b6020026020010181905250806102008a01516101e08b01510992508287600781518110612c0057612c006138ac565b6020026020010181815250508b610180015188600781518110612c2557612c256138ac565b60200260200101819052506101a089015192508083840991508082830991508082840992508287600881518110612c5e57612c5e6138ac565b6020026020010181815250508b6101e0015188600881518110612c8357612c836138ac565b60200260200101819052506101c089015192508083840991508082830991508082840992508287600981518110612cbc57612cbc6138ac565b6020026020010181815250508b610200015188600981518110612ce157612ce16138ac565b60200260200101819052506101e089015192508083840991508082830991508082840992508287600a81518110612d1a57612d1a6138ac565b6020026020010181815250508b610220015188600a81518110612d3f57612d3f6138ac565b602002602001018190525061020089015192508083840991508082830991508082840992508287600b81518110612d7857612d786138ac565b6020026020010181815250508b610240015188600b81518110612d9d57612d9d6138ac565b602002602001018190525088610220015181612db991906139d3565b87600c81518110612dcc57612dcc6138ac565b6020026020010181815250508b6101a0015188600c81518110612df157612df16138ac565b6020026020010181905250600187600d81518110612e1157612e116138ac565b6020026020010181815250508b6101c0015188600d81518110612e3657612e366138ac565b6020026020010181905250806101c08a01516101a08b0151099250806101e08a015184099250806102008a015184099250806102208a0151840992508287600e81518110612e8657612e866138ac565b6020026020010181815250508b610260015188600e81518110612eab57612eab6138ac565b60209081029190910101528951612ec290826139d3565b87600f81518110612ed557612ed56138ac565b6020026020010181815250508860c0015188600f81518110612ef957612ef96138ac565b60200260200101819052508060018b510860a08c0151909350819080099150808284099250808360206010028901510991508187601081518110612f3f57612f3f6138ac565b6020026020010181815250508860e0015188601081518110612f6357612f636138ac565b6020026020010181905250808360206011028901510991508187601181518110612f8f57612f8f6138ac565b60200260200101818152505088610100015188601181518110612fb457612fb46138ac565b6020026020010181905250808360206012028901510991508187601281518110612fe057612fe06138ac565b60200260200101818152505088610120015188601281518110613005576130056138ac565b6020026020010181905250808360206013028901510991508187601381518110613031576130316138ac565b60200260200101818152505088610140015188601381518110613056576130566138ac565b6020026020010181905250505050505050505050505050565b6040518061010001604052806000815260200160008152602001600081526020016000815260200160608152602001606081526020016130c2604051806040016040528060008152602001600081525090565b81526020016130e4604051806040016040528060008152602001600081525090565b905290565b6040518060400160405280606081526020016130e461313f565b60405180606001604052806003906020820280368337509192915050565b60405180608001604052806004906020820280368337509192915050565b60405180604001604052806002906020820280368337509192915050565b634e487b7160e01b600052604160045260246000fd5b6040516102e0810167ffffffffffffffff811182821017156131975761319761315d565b60405290565b604051610280810167ffffffffffffffff811182821017156131975761319761315d565b604051601f8201601f1916810167ffffffffffffffff811182821017156131ea576131ea61315d565b604052919050565b600067ffffffffffffffff82111561320c5761320c61315d565b5060051b60200190565b60006040828403121561322857600080fd5b6040516040810181811067ffffffffffffffff8211171561324b5761324b61315d565b604052823581526020928301359281019290925250919050565b600082601f83011261327657600080fd5b8135602061328b613286836131f2565b6131c1565b828152600592831b85018201928282019190878511156132aa57600080fd5b8387015b8581101561333e57803567ffffffffffffffff8111156132ce5760008081fd5b8801603f81018a136132e05760008081fd5b8581013560406132f2613286836131f2565b82815291851b8301810191888101908d84111561330f5760008081fd5b938201935b8385101561332d57843582529389019390890190613314565b8852505050938501935084016132ae565b5090979650505050505050565b600082601f83011261335c57600080fd5b813561336a613286826131f2565b80828252602082019150610480602081850287010193508684111561338e57600080fd5b602086015b84811015613539578181890312156133ab5760008081fd5b6133b3613173565b6133bd8983613216565b815260406133cd8a828501613216565b602083015260806133e08b828601613216565b8284015260c091506133f48b838601613216565b60608401526101006134088c828701613216565b82850152610140915061341d8c838701613216565b60a08501526101806134318d828801613216565b848601526101c093506134468d858801613216565b60e086015261020061345a8e828901613216565b83870152610240925061346f8e848901613216565b6101208701526102806134848f828a01613216565b858801526102c094506134998f868a01613216565b6101608801526134ad8f6103008a01613216565b838801526103408801356101a0880152610360880135868801526103808801356101e08801526103a0880135828801526103c08801356102208801526103e08801358488015261040088013561026088015261042088013581880152505050506104408401356102a0840152610460840135818401525050808552506020840193508181019050613393565b50909695505050505050565b6000601f838184011261355757600080fd5b82356020613567613286836131f2565b82815260059290921b8501810191818101908784111561358657600080fd5b8287015b8481101561361d57803567ffffffffffffffff808211156135ab5760008081fd5b818a0191508a603f8301126135c05760008081fd5b858201356040828211156135d6576135d661315d565b6135e7828b01601f191689016131c1565b92508183528c818386010111156135fe5760008081fd5b818185018985013750600090820187015284525091830191830161358a565b50979650505050505050565b6000806000806080858703121561363f57600080fd5b843567ffffffffffffffff8082111561365757600080fd5b818701915087601f83011261366b57600080fd5b8135602061367b613286836131f2565b8281526104c0928302850182019282820191908c85111561369b57600080fd5b958301955b848710156138385780878e0312156136b757600080fd5b6136bf61319d565b8735815284880135858201526136d88e60408a01613216565b60408201526136ea8e60808a01613216565b60608201526136fc8e60c08a01613216565b608082015261370f8e6101008a01613216565b60a08201526137228e6101408a01613216565b60c08201526137358e6101808a01613216565b60e08201526137488e6101c08a01613216565b61010082015261375c8e6102008a01613216565b6101208201526102406137718f828b01613216565b6101408301526137858f6102808b01613216565b6101608301526137998f6102c08b01613216565b6101808301526137ad8f6103008b01613216565b6101a08301526137c18f6103408b01613216565b6101c08301526137d58f6103808b01613216565b6101e08301526137e98f6103c08b01613216565b6102008301526137fd8f6104008b01613216565b6102208301526138118f6104408b01613216565b908201526138238e6104808a01613216565b610260820152835295860195918301916136a0565b509850508801359250508082111561384f57600080fd5b61385b88838901613265565b9450604087013591508082111561387157600080fd5b61387d8883890161334b565b9350606087013591508082111561389357600080fd5b506138a087828801613545565b91505092959194509250565b634e487b7160e01b600052603260045260246000fd5b634e487b7160e01b600052601160045260246000fd5b6000600182016138ea576138ea6138c2565b5060010190565b600081600019048311821515161561390b5761390b6138c2565b500290565b60008219821115613923576139236138c2565b500190565b6000815160005b81811015613949576020818501810151868301520161392f565b81811115613958576000828601525b509290920192915050565b848152836020820152600061397b6040830185613928565b60f89390931b7fff0000000000000000000000000000000000000000000000000000000000000016835250506001019392505050565b6000826139ce57634e487b7160e01b600052601260045260246000fd5b500690565b6000828210156139e5576139e56138c2565b500390565b60006102c16139f98386613928565b8461392856fe30644e72e131a029b85045b68181585d2833e84879b9709143e1f593f0000001a26469706673582212207bbde0d57a098da74f02de527b4760ca35d3285227b9dca7e0f6b0dd8ebb70f964736f6c634300080d0033",
  "devdoc": {
    "kind": "dev",
    "methods": {
      "batchVerify((uint256,uint256,(uint256,uint256),(uint256,uint256),(uint256,uint256),(uint256,uint256),(uint256,uint256),(uint256,uint256),(uint256,uint256),(uint256,uint256),(uint256,uint256),(uint256,uint256),(uint256,uint256),(uint256,uint256),(uint256,uint256),(uint256,uint256),(uint256,uint256),(uint256,uint256),(uint256,uint256),(uint256,uint256))[],uint256[][],((uint256,uint256),(uint256,uint256),(uint256,uint256),(uint256,uint256),(uint256,uint256),(uint256,uint256),(uint256,uint256),(uint256,uint256),(uint256,uint256),(uint256,uint256),(uint256,uint256),(uint256,uint256),(uint256,uint256),uint256,uint256,uint256,uint256,uint256,uint256,uint256,uint256,uint256,uint256)[],bytes[])": {
        "details": "Batch verify multiple TurboPlonk proofs.",
        "params": {
          "extraTranscriptInitMsgs": "An array of bytes from transcript initialization messages",
          "proofs": "An array of Plonk proofs",
          "publicInputs": "A two-dimensional array of public inputs.",
          "verifyingKeys": "An array of verifier keys"
        }
      }
    },
    "version": 1
  },
  "userdoc": {
    "kind": "user",
    "methods": {},
    "version": 1
  },
  "storageLayout": {
    "storage": [
      {
        "astId": 11911,
        "contract": "contracts/verifier/PlonkVerifier.sol:PlonkVerifier",
        "label": "_betaH",
        "offset": 0,
        "slot": "0",
        "type": "t_struct(G2Point)6183_storage"
      }
    ],
    "types": {
      "t_struct(G2Point)6183_storage": {
        "encoding": "inplace",
        "label": "struct BN254.G2Point",
        "members": [
          {
            "astId": 6176,
            "contract": "contracts/verifier/PlonkVerifier.sol:PlonkVerifier",
            "label": "x0",
            "offset": 0,
            "slot": "0",
            "type": "t_uint256"
          },
          {
            "astId": 6178,
            "contract": "contracts/verifier/PlonkVerifier.sol:PlonkVerifier",
            "label": "x1",
            "offset": 0,
            "slot": "1",
            "type": "t_uint256"
          },
          {
            "astId": 6180,
            "contract": "contracts/verifier/PlonkVerifier.sol:PlonkVerifier",
            "label": "y0",
            "offset": 0,
            "slot": "2",
            "type": "t_uint256"
          },
          {
            "astId": 6182,
            "contract": "contracts/verifier/PlonkVerifier.sol:PlonkVerifier",
            "label": "y1",
            "offset": 0,
            "slot": "3",
            "type": "t_uint256"
          }
        ],
        "numberOfBytes": "128"
      },
      "t_uint256": {
        "encoding": "inplace",
        "label": "uint256",
        "numberOfBytes": "32"
      }
    }
  }
}