{
  "address": "0xB7d24abE99536c56B0Cd44ee7F4aa5d1ac848cf7",
  "abi": [
    {
      "inputs": [
        {
          "internalType": "uint8",
          "name": "merkleTreeHeight",
          "type": "uint8"
        }
      ],
      "stateMutability": "nonpayable",
      "type": "constructor"
    },
    {
      "anonymous": false,
      "inputs": [
        {
          "indexed": true,
          "internalType": "address",
          "name": "previousOwner",
          "type": "address"
        },
        {
          "indexed": true,
          "internalType": "address",
          "name": "newOwner",
          "type": "address"
        }
      ],
      "name": "OwnershipTransferred",
      "type": "event"
    },
    {
      "inputs": [],
      "name": "getHeight",
      "outputs": [
        {
          "internalType": "uint8",
          "name": "",
          "type": "uint8"
        }
      ],
      "stateMutability": "view",
      "type": "function"
    },
    {
      "inputs": [],
      "name": "getNumLeaves",
      "outputs": [
        {
          "internalType": "uint64",
          "name": "",
          "type": "uint64"
        }
      ],
      "stateMutability": "view",
      "type": "function"
    },
    {
      "inputs": [],
      "name": "getRootValue",
      "outputs": [
        {
          "internalType": "uint256",
          "name": "",
          "type": "uint256"
        }
      ],
      "stateMutability": "view",
      "type": "function"
    },
    {
      "inputs": [],
      "name": "owner",
      "outputs": [
        {
          "internalType": "address",
          "name": "",
          "type": "address"
        }
      ],
      "stateMutability": "view",
      "type": "function"
    },
    {
      "inputs": [],
      "name": "renounceOwnership",
      "outputs": [],
      "stateMutability": "nonpayable",
      "type": "function"
    },
    {
      "inputs": [
        {
          "internalType": "address",
          "name": "newOwner",
          "type": "address"
        }
      ],
      "name": "transferOwnership",
      "outputs": [],
      "stateMutability": "nonpayable",
      "type": "function"
    },
    {
      "inputs": [
        {
          "internalType": "uint256[]",
          "name": "elements",
          "type": "uint256[]"
        }
      ],
      "name": "updateRecordsMerkleTree",
      "outputs": [],
      "stateMutability": "nonpayable",
      "type": "function"
    }
  ],
  "transactionHash": "0xc3cbb81e4f5233eb5239d6d69cddd94756732319dca322872c44eb1ee3f959e9",
  "args": [
    24
  ],
  "solcInputHash": "4a99db4ddaafbf2631dbdabb6b2fb17e",
  "bytecode": "0x608060405234801561001057600080fd5b5060405161192538038061192583398101604081905261002f916100b8565b61003833610068565b60006001556002805460ff90921668010000000000000000026001600160481b03199092169190911790556100e2565b600080546001600160a01b038381166001600160a01b0319831681178455604051919092169283917f8be0079c531659141344cd1fd0a4f28419497f9722a3daafe3b4186f6b6457e09190a35050565b6000602082840312156100ca57600080fd5b815160ff811681146100db57600080fd5b9392505050565b611834806100f16000396000f3fe608060405234801561001057600080fd5b506004361061007d5760003560e01c8063715018a61161005b578063715018a6146100cc5780638da5cb5b146100d4578063927d52ab146100ef578063f2fde38b1461010a57600080fd5b806319efb11d14610082578063330ee6a7146100a65780636444c8d1146100bb575b600080fd5b600254600160401b900460ff1660405160ff90911681526020015b60405180910390f35b6100b96100b436600461140d565b61011d565b005b60015460405190815260200161009d565b6100b96102ac565b6000546040516001600160a01b03909116815260200161009d565b6002546040516001600160401b03909116815260200161009d565b6100b96101183660046114ca565b610312565b6000546001600160a01b0316331461017c5760405162461bcd60e51b815260206004820181905260248201527f4f776e61626c653a2063616c6c6572206973206e6f7420746865206f776e657260448201526064015b60405180910390fd5b8051600254600090600160401b900460ff16610199836001611509565b6101a4906003611521565b6101ae9190611521565b6101b9906002611509565b6001600160401b038111156101d0576101d06113f7565b60405190808252806020026020018201604052801561022257816020015b6040805160808101825260008082526020808301829052928201819052606082015282526000199092019101816101ee5790505b5090506000610230826103f4565b90508060005b85518163ffffffff16101561028457610270848484898563ffffffff168151811061026357610263611540565b6020026020010151610856565b91508061027c81611556565b915050610236565b5061029883836001600160401b0316610c1c565b6001556102a58383610dbd565b5050505050565b6000546001600160a01b031633146103065760405162461bcd60e51b815260206004820181905260248201527f4f776e61626c653a2063616c6c6572206973206e6f7420746865206f776e65726044820152606401610173565b6103106000610fe2565b565b6000546001600160a01b0316331461036c5760405162461bcd60e51b815260206004820181905260248201527f4f776e61626c653a2063616c6c6572206973206e6f7420746865206f776e65726044820152606401610173565b6001600160a01b0381166103e85760405162461bcd60e51b815260206004820152602660248201527f4f776e61626c653a206e6577206f776e657220697320746865207a65726f206160448201527f64647265737300000000000000000000000000000000000000000000000000006064820152608401610173565b6103f181610fe2565b50565b6002546000906001600160401b031681036104b057604080516080810182526000808252602082018190529181018290526060810182905283519091849161043e5761043e611540565b602002602001018190525060405180608001604052806000815260200160006001600160401b0316815260200160006001600160401b0316815260200160006001600160401b03168152508260018151811061049c5761049c611540565b602002602001018190525060019050919050565b60408051608081018252600080825260208201819052918101829052606081018290528351909184916104e5576104e5611540565b602090810291909101810191909152604080516080810182526000808052600384527f3617319a054d772f909f7c479a2cebe5066e836a939412e32403c99029b92eff548252928101839052908101829052606081019190915282518390600190811061055457610554611540565b6020908102919091018101919091526040805160808101825260016000908152600384527fa15bc60c955c405d20d9149c709e2460f1c2d9a497496a7f46004d1772c3054c54825292810183905290810182905260608101919091528251839060029081106105c5576105c5611540565b60200260200101819052506040518060800160405280600360006002815260200190815260200160002054815260200160006001600160401b0316815260200160006001600160401b0316815260200160006001600160401b03168152508260038151811061063657610636611540565b602090810291909101015260025460009061065c906001906001600160401b0316611579565b9050600061066b6003836115b7565b9050600460035b60025461068a90600160401b900460ff1660036115dd565b610695906001611606565b60ff16826001600160401b0316101561080e576106c6828460ff1660028111156106c1576106c161162b565b61104a565b86836001600160401b0316815181106106e1576106e1611540565b602090810291909101810191909152604080516080810182526001600160401b038416600090815260038452828120548252928101839052908101829052606081019190915286610733846001611641565b6001600160401b03168151811061074c5761074c611540565b60200260200101819052506040518060800160405280600360008460016107739190611641565b6001600160401b03168152602080820192909252604090810160009081205484529183018290528201819052606090910152866107b1846002611641565b6001600160401b0316815181106107ca576107ca611540565b60209081029190910101526107e060038561166c565b93506107ed6003856115b7565b92506107fa600383611641565b9150610807600282611641565b9050610672565b610827828460ff1660028111156106c1576106c161162b565b86836001600160401b03168151811061084257610842611540565b602090810291909101015250949350505050565b60025460009061087190600160401b900460ff16600361176e565b6002546001600160401b0316106108ca5760405162461bcd60e51b815260206004820152601160248201527f54686520747265652069732066756c6c2e0000000000000000000000000000006044820152606401610173565b6002546001600160401b03166000858083835b6109088b856001600160401b0316815181106108fb576108fb611540565b60200260200101516111de565b6109575761091682866111f4565b85945090925090506109438b846001600160401b038416600281111561093e5761093e61162b565b611253565b9350610950600186611641565b94506108dd565b60006109648a6001611641565b90506001600160401b0386161561098357610980600187611579565b95505b60025461099c90600190600160401b900460ff1661177d565b60ff16866001600160401b03161015610a8d5760405180608001604052806000815260200160006001600160401b0316815260200160006001600160401b0316815260200160006001600160401b03168152508c826001600160401b031681518110610a0a57610a0a611540565b6020026020010181905250610a5c8c856001600160401b031681518110610a3357610a33611540565b602002602001015182846001600160401b03166002811115610a5757610a5761162b565b61132e565b925082610a6a600182611641565b9050610a77600187611641565b9550610a8383876111f4565b9093509150610983565b600254604051631c0b758d60e31b81526000600482018190526001600160401b039092166024820152604481018b9052739A3066C189A8E4C6B8e8d45BA2c1C90BF8F117319063e05bac6890606401602060405180830381865af4158015610af9573d6000803e3d6000fd5b505050506040513d601f19601f82011682018060405250810190610b1d91906117a0565b9050604051806080016040528082815260200160006001600160401b0316815260200160006001600160401b0316815260200160006001600160401b03168152508d836001600160401b031681518110610b7957610b79611540565b6020026020010181905250610bc68d866001600160401b031681518110610ba257610ba2611540565b602002602001015183856001600160401b03166002811115610a5757610a5761162b565b6002805460019190600090610be59084906001600160401b0316611641565b92506101000a8154816001600160401b0302191690836001600160401b031602179055508198505050505050505050949350505050565b600080838381518110610c3157610c31611540565b60200260200101519050610c44816113b4565b15610c5157519050610db7565b6000610c6a8583602001516001600160401b0316610c1c565b90506000610c858684604001516001600160401b0316610c1c565b90506000610ca08785606001516001600160401b0316610c1c565b9050828785602001516001600160401b031681518110610cc257610cc2611540565b60200260200101516000018181525050818785604001516001600160401b031681518110610cf257610cf2611540565b60200260200101516000018181525050808785606001516001600160401b031681518110610d2257610d22611540565b602090810291909101015152604051631c0b758d60e31b8152600481018490526024810183905260448101829052739A3066C189A8E4C6B8e8d45BA2c1C90BF8F117319063e05bac6890606401602060405180830381865af4158015610d8c573d6000803e3d6000fd5b505050506040513d601f19601f82011682018060405250810190610db091906117a0565b9450505050505b92915050565b60028054600091610dd891600160401b900460ff16906115dd565b610de3906001611606565b60ff16905081600080805b600254600160401b900460ff16811015610f8657600087856001600160401b031681518110610e1f57610e1f611540565b60200260200101519050610e4b8882606001516001600160401b0316815181106108fb576108fb611540565b610e6957806060015194508060200151935080604001519250610ebf565b610e8b8882604001516001600160401b0316815181106108fb576108fb611540565b610ea957806040015194508060200151935080606001519250610ebf565b8060200151945080604001519350806060015192505b6000610ecc836002611521565b610ed7600189611579565b6001600160401b0316610eea91906117b9565b90506000610ef96001836117b9565b905089856001600160401b031681518110610f1657610f16611540565b602002602001015160000151600360008481526020019081526020016000208190555089866001600160401b031681518110610f5457610f54611540565b602090810291909101810151516000928352600390915260409091205550819050610f7e816117d0565b915050610dee565b5085836001600160401b031681518110610fa257610fa2611540565b602090810291909101810151516000805260039091527f3617319a054d772f909f7c479a2cebe5066e836a939412e32403c99029b92eff55505050505050565b600080546001600160a01b038381167fffffffffffffffffffffffff0000000000000000000000000000000000000000831681178455604051919092169283917f8be0079c531659141344cd1fd0a4f28419497f9722a3daafe3b4186f6b6457e09190a35050565b60408051608081018252600080825260208201819052918101829052606081019190915260408051608081018252600080825260208201819052918101829052606081019190915260008360028111156110a6576110a661162b565b0361110e576040518060800160405280600081526020016003866110ca9190611579565b6001600160401b031681526020016110e3600287611579565b6001600160401b031681526020016110fc600187611579565b6001600160401b0316905290506111d7565b60018360028111156111225761112261162b565b0361115f576040518060800160405280600081526020016002866111469190611579565b6001600160401b031681526020016110e3600387611579565b60028360028111156111735761117361162b565b036111d7576040518060800160405280600081526020016002866111979190611579565b6001600160401b031681526020016111b0600187611579565b6001600160401b031681526020016111c9600387611579565b6001600160401b0316905290505b9392505050565b8051600090158015610db75750610db7826113b4565b600080600080600185600260089054906101000a900460ff1660ff1661121a9190611579565b6112249190611579565b61122f9060036117e9565b905061123b818761166c565b915061124781876115b7565b96919550909350505050565b600080808360028111156112695761126961162b565b0361129c5784846001600160401b03168151811061128957611289611540565b6020026020010151602001519050611326565b60018360028111156112b0576112b061162b565b036112e35784846001600160401b0316815181106112d0576112d0611540565b6020026020010151604001519050611326565b60028360028111156112f7576112f761162b565b036113265784846001600160401b03168151811061131757611317611540565b60200260200101516060015190505b949350505050565b60008160028111156113425761134261162b565b0361135a57506001600160401b031660209190910152565b600181600281111561136e5761136e61162b565b0361138657506001600160401b031660409190910152565b600281600281111561139a5761139a61162b565b036113af576001600160401b03821660608401525b505050565b600081602001516001600160401b031660001480156113de575060408201516001600160401b0316155b8015610db7575050606001516001600160401b03161590565b634e487b7160e01b600052604160045260246000fd5b6000602080838503121561142057600080fd5b82356001600160401b038082111561143757600080fd5b818501915085601f83011261144b57600080fd5b81358181111561145d5761145d6113f7565b8060051b604051601f19603f83011681018181108582111715611482576114826113f7565b6040529182528482019250838101850191888311156114a057600080fd5b938501935b828510156114be578435845293850193928501926114a5565b98975050505050505050565b6000602082840312156114dc57600080fd5b81356001600160a01b03811681146111d757600080fd5b634e487b7160e01b600052601160045260246000fd5b6000821982111561151c5761151c6114f3565b500190565b600081600019048311821515161561153b5761153b6114f3565b500290565b634e487b7160e01b600052603260045260246000fd5b600063ffffffff80831681810361156f5761156f6114f3565b6001019392505050565b60006001600160401b0383811690831681811015611599576115996114f3565b039392505050565b634e487b7160e01b600052601260045260246000fd5b60006001600160401b03808416806115d1576115d16115a1565b92169190910692915050565b600060ff821660ff84168160ff04811182151516156115fe576115fe6114f3565b029392505050565b600060ff821660ff84168060ff03821115611623576116236114f3565b019392505050565b634e487b7160e01b600052602160045260246000fd5b60006001600160401b03808316818516808303821115611663576116636114f3565b01949350505050565b60006001600160401b0380841680611686576116866115a1565b92169190910492915050565b600181815b808511156116cd5781600019048211156116b3576116b36114f3565b808516156116c057918102915b93841c9390800290611697565b509250929050565b6000826116e457506001610db7565b816116f157506000610db7565b816001811461170757600281146117115761172d565b6001915050610db7565b60ff841115611722576117226114f3565b50506001821b610db7565b5060208310610133831016604e8410600b8410161715611750575081810a610db7565b61175a8383611692565b80600019048211156115fe576115fe6114f3565b60006111d760ff8416836116d5565b600060ff821660ff841680821015611797576117976114f3565b90039392505050565b6000602082840312156117b257600080fd5b5051919050565b6000828210156117cb576117cb6114f3565b500390565b6000600182016117e2576117e26114f3565b5060010190565b60006111d76001600160401b038416836116d556fea26469706673582212209533d5a47cbf3a51888806c0113a53563b60cb852cc4c3059b45e98b5a60467864736f6c634300080d0033",
  "deployedBytecode": "0x608060405234801561001057600080fd5b506004361061007d5760003560e01c8063715018a61161005b578063715018a6146100cc5780638da5cb5b146100d4578063927d52ab146100ef578063f2fde38b1461010a57600080fd5b806319efb11d14610082578063330ee6a7146100a65780636444c8d1146100bb575b600080fd5b600254600160401b900460ff1660405160ff90911681526020015b60405180910390f35b6100b96100b436600461140d565b61011d565b005b60015460405190815260200161009d565b6100b96102ac565b6000546040516001600160a01b03909116815260200161009d565b6002546040516001600160401b03909116815260200161009d565b6100b96101183660046114ca565b610312565b6000546001600160a01b0316331461017c5760405162461bcd60e51b815260206004820181905260248201527f4f776e61626c653a2063616c6c6572206973206e6f7420746865206f776e657260448201526064015b60405180910390fd5b8051600254600090600160401b900460ff16610199836001611509565b6101a4906003611521565b6101ae9190611521565b6101b9906002611509565b6001600160401b038111156101d0576101d06113f7565b60405190808252806020026020018201604052801561022257816020015b6040805160808101825260008082526020808301829052928201819052606082015282526000199092019101816101ee5790505b5090506000610230826103f4565b90508060005b85518163ffffffff16101561028457610270848484898563ffffffff168151811061026357610263611540565b6020026020010151610856565b91508061027c81611556565b915050610236565b5061029883836001600160401b0316610c1c565b6001556102a58383610dbd565b5050505050565b6000546001600160a01b031633146103065760405162461bcd60e51b815260206004820181905260248201527f4f776e61626c653a2063616c6c6572206973206e6f7420746865206f776e65726044820152606401610173565b6103106000610fe2565b565b6000546001600160a01b0316331461036c5760405162461bcd60e51b815260206004820181905260248201527f4f776e61626c653a2063616c6c6572206973206e6f7420746865206f776e65726044820152606401610173565b6001600160a01b0381166103e85760405162461bcd60e51b815260206004820152602660248201527f4f776e61626c653a206e6577206f776e657220697320746865207a65726f206160448201527f64647265737300000000000000000000000000000000000000000000000000006064820152608401610173565b6103f181610fe2565b50565b6002546000906001600160401b031681036104b057604080516080810182526000808252602082018190529181018290526060810182905283519091849161043e5761043e611540565b602002602001018190525060405180608001604052806000815260200160006001600160401b0316815260200160006001600160401b0316815260200160006001600160401b03168152508260018151811061049c5761049c611540565b602002602001018190525060019050919050565b60408051608081018252600080825260208201819052918101829052606081018290528351909184916104e5576104e5611540565b602090810291909101810191909152604080516080810182526000808052600384527f3617319a054d772f909f7c479a2cebe5066e836a939412e32403c99029b92eff548252928101839052908101829052606081019190915282518390600190811061055457610554611540565b6020908102919091018101919091526040805160808101825260016000908152600384527fa15bc60c955c405d20d9149c709e2460f1c2d9a497496a7f46004d1772c3054c54825292810183905290810182905260608101919091528251839060029081106105c5576105c5611540565b60200260200101819052506040518060800160405280600360006002815260200190815260200160002054815260200160006001600160401b0316815260200160006001600160401b0316815260200160006001600160401b03168152508260038151811061063657610636611540565b602090810291909101015260025460009061065c906001906001600160401b0316611579565b9050600061066b6003836115b7565b9050600460035b60025461068a90600160401b900460ff1660036115dd565b610695906001611606565b60ff16826001600160401b0316101561080e576106c6828460ff1660028111156106c1576106c161162b565b61104a565b86836001600160401b0316815181106106e1576106e1611540565b602090810291909101810191909152604080516080810182526001600160401b038416600090815260038452828120548252928101839052908101829052606081019190915286610733846001611641565b6001600160401b03168151811061074c5761074c611540565b60200260200101819052506040518060800160405280600360008460016107739190611641565b6001600160401b03168152602080820192909252604090810160009081205484529183018290528201819052606090910152866107b1846002611641565b6001600160401b0316815181106107ca576107ca611540565b60209081029190910101526107e060038561166c565b93506107ed6003856115b7565b92506107fa600383611641565b9150610807600282611641565b9050610672565b610827828460ff1660028111156106c1576106c161162b565b86836001600160401b03168151811061084257610842611540565b602090810291909101015250949350505050565b60025460009061087190600160401b900460ff16600361176e565b6002546001600160401b0316106108ca5760405162461bcd60e51b815260206004820152601160248201527f54686520747265652069732066756c6c2e0000000000000000000000000000006044820152606401610173565b6002546001600160401b03166000858083835b6109088b856001600160401b0316815181106108fb576108fb611540565b60200260200101516111de565b6109575761091682866111f4565b85945090925090506109438b846001600160401b038416600281111561093e5761093e61162b565b611253565b9350610950600186611641565b94506108dd565b60006109648a6001611641565b90506001600160401b0386161561098357610980600187611579565b95505b60025461099c90600190600160401b900460ff1661177d565b60ff16866001600160401b03161015610a8d5760405180608001604052806000815260200160006001600160401b0316815260200160006001600160401b0316815260200160006001600160401b03168152508c826001600160401b031681518110610a0a57610a0a611540565b6020026020010181905250610a5c8c856001600160401b031681518110610a3357610a33611540565b602002602001015182846001600160401b03166002811115610a5757610a5761162b565b61132e565b925082610a6a600182611641565b9050610a77600187611641565b9550610a8383876111f4565b9093509150610983565b600254604051631c0b758d60e31b81526000600482018190526001600160401b039092166024820152604481018b905273__$2783a64b147d5f689049cabc192a316d9d$__9063e05bac6890606401602060405180830381865af4158015610af9573d6000803e3d6000fd5b505050506040513d601f19601f82011682018060405250810190610b1d91906117a0565b9050604051806080016040528082815260200160006001600160401b0316815260200160006001600160401b0316815260200160006001600160401b03168152508d836001600160401b031681518110610b7957610b79611540565b6020026020010181905250610bc68d866001600160401b031681518110610ba257610ba2611540565b602002602001015183856001600160401b03166002811115610a5757610a5761162b565b6002805460019190600090610be59084906001600160401b0316611641565b92506101000a8154816001600160401b0302191690836001600160401b031602179055508198505050505050505050949350505050565b600080838381518110610c3157610c31611540565b60200260200101519050610c44816113b4565b15610c5157519050610db7565b6000610c6a8583602001516001600160401b0316610c1c565b90506000610c858684604001516001600160401b0316610c1c565b90506000610ca08785606001516001600160401b0316610c1c565b9050828785602001516001600160401b031681518110610cc257610cc2611540565b60200260200101516000018181525050818785604001516001600160401b031681518110610cf257610cf2611540565b60200260200101516000018181525050808785606001516001600160401b031681518110610d2257610d22611540565b602090810291909101015152604051631c0b758d60e31b815260048101849052602481018390526044810182905273__$2783a64b147d5f689049cabc192a316d9d$__9063e05bac6890606401602060405180830381865af4158015610d8c573d6000803e3d6000fd5b505050506040513d601f19601f82011682018060405250810190610db091906117a0565b9450505050505b92915050565b60028054600091610dd891600160401b900460ff16906115dd565b610de3906001611606565b60ff16905081600080805b600254600160401b900460ff16811015610f8657600087856001600160401b031681518110610e1f57610e1f611540565b60200260200101519050610e4b8882606001516001600160401b0316815181106108fb576108fb611540565b610e6957806060015194508060200151935080604001519250610ebf565b610e8b8882604001516001600160401b0316815181106108fb576108fb611540565b610ea957806040015194508060200151935080606001519250610ebf565b8060200151945080604001519350806060015192505b6000610ecc836002611521565b610ed7600189611579565b6001600160401b0316610eea91906117b9565b90506000610ef96001836117b9565b905089856001600160401b031681518110610f1657610f16611540565b602002602001015160000151600360008481526020019081526020016000208190555089866001600160401b031681518110610f5457610f54611540565b602090810291909101810151516000928352600390915260409091205550819050610f7e816117d0565b915050610dee565b5085836001600160401b031681518110610fa257610fa2611540565b602090810291909101810151516000805260039091527f3617319a054d772f909f7c479a2cebe5066e836a939412e32403c99029b92eff55505050505050565b600080546001600160a01b038381167fffffffffffffffffffffffff0000000000000000000000000000000000000000831681178455604051919092169283917f8be0079c531659141344cd1fd0a4f28419497f9722a3daafe3b4186f6b6457e09190a35050565b60408051608081018252600080825260208201819052918101829052606081019190915260408051608081018252600080825260208201819052918101829052606081019190915260008360028111156110a6576110a661162b565b0361110e576040518060800160405280600081526020016003866110ca9190611579565b6001600160401b031681526020016110e3600287611579565b6001600160401b031681526020016110fc600187611579565b6001600160401b0316905290506111d7565b60018360028111156111225761112261162b565b0361115f576040518060800160405280600081526020016002866111469190611579565b6001600160401b031681526020016110e3600387611579565b60028360028111156111735761117361162b565b036111d7576040518060800160405280600081526020016002866111979190611579565b6001600160401b031681526020016111b0600187611579565b6001600160401b031681526020016111c9600387611579565b6001600160401b0316905290505b9392505050565b8051600090158015610db75750610db7826113b4565b600080600080600185600260089054906101000a900460ff1660ff1661121a9190611579565b6112249190611579565b61122f9060036117e9565b905061123b818761166c565b915061124781876115b7565b96919550909350505050565b600080808360028111156112695761126961162b565b0361129c5784846001600160401b03168151811061128957611289611540565b6020026020010151602001519050611326565b60018360028111156112b0576112b061162b565b036112e35784846001600160401b0316815181106112d0576112d0611540565b6020026020010151604001519050611326565b60028360028111156112f7576112f761162b565b036113265784846001600160401b03168151811061131757611317611540565b60200260200101516060015190505b949350505050565b60008160028111156113425761134261162b565b0361135a57506001600160401b031660209190910152565b600181600281111561136e5761136e61162b565b0361138657506001600160401b031660409190910152565b600281600281111561139a5761139a61162b565b036113af576001600160401b03821660608401525b505050565b600081602001516001600160401b031660001480156113de575060408201516001600160401b0316155b8015610db7575050606001516001600160401b03161590565b634e487b7160e01b600052604160045260246000fd5b6000602080838503121561142057600080fd5b82356001600160401b038082111561143757600080fd5b818501915085601f83011261144b57600080fd5b81358181111561145d5761145d6113f7565b8060051b604051601f19603f83011681018181108582111715611482576114826113f7565b6040529182528482019250838101850191888311156114a057600080fd5b938501935b828510156114be578435845293850193928501926114a5565b98975050505050505050565b6000602082840312156114dc57600080fd5b81356001600160a01b03811681146111d757600080fd5b634e487b7160e01b600052601160045260246000fd5b6000821982111561151c5761151c6114f3565b500190565b600081600019048311821515161561153b5761153b6114f3565b500290565b634e487b7160e01b600052603260045260246000fd5b600063ffffffff80831681810361156f5761156f6114f3565b6001019392505050565b60006001600160401b0383811690831681811015611599576115996114f3565b039392505050565b634e487b7160e01b600052601260045260246000fd5b60006001600160401b03808416806115d1576115d16115a1565b92169190910692915050565b600060ff821660ff84168160ff04811182151516156115fe576115fe6114f3565b029392505050565b600060ff821660ff84168060ff03821115611623576116236114f3565b019392505050565b634e487b7160e01b600052602160045260246000fd5b60006001600160401b03808316818516808303821115611663576116636114f3565b01949350505050565b60006001600160401b0380841680611686576116866115a1565b92169190910492915050565b600181815b808511156116cd5781600019048211156116b3576116b36114f3565b808516156116c057918102915b93841c9390800290611697565b509250929050565b6000826116e457506001610db7565b816116f157506000610db7565b816001811461170757600281146117115761172d565b6001915050610db7565b60ff841115611722576117226114f3565b50506001821b610db7565b5060208310610133831016604e8410600b8410161715611750575081810a610db7565b61175a8383611692565b80600019048211156115fe576115fe6114f3565b60006111d760ff8416836116d5565b600060ff821660ff841680821015611797576117976114f3565b90039392505050565b6000602082840312156117b257600080fd5b5051919050565b6000828210156117cb576117cb6114f3565b500390565b6000600182016117e2576117e26114f3565b5060010190565b60006111d76001600160401b038416836116d556fea26469706673582212209533d5a47cbf3a51888806c0113a53563b60cb852cc4c3059b45e98b5a60467864736f6c634300080d0033",
  "libraries": {
    "RescueLib": "0x9A3066C189A8E4C6B8e8d45BA2c1C90BF8F11731"
  },
  "devdoc": {
    "kind": "dev",
    "methods": {
      "constructor": {
        "details": "Create a records Merkle tree of the given height.",
        "params": {
          "merkleTreeHeight": "The height"
        }
      },
      "owner()": {
        "details": "Returns the address of the current owner."
      },
      "renounceOwnership()": {
        "details": "Leaves the contract without owner. It will not be possible to call `onlyOwner` functions anymore. Can only be called by the current owner. NOTE: Renouncing ownership will leave the contract without an owner, thereby removing any functionality that is only available to the owner."
      },
      "transferOwnership(address)": {
        "details": "Transfers ownership of the contract to a new account (`newOwner`). Can only be called by the current owner."
      },
      "updateRecordsMerkleTree(uint256[])": {
        "details": "Update the state of the record merkle tree by inserting new elements.",
        "params": {
          "elements": "The list of elements to be appended to the current merkle tree described by the frontier."
        }
      }
    },
    "version": 1
  },
  "userdoc": {
    "kind": "user",
    "methods": {
      "getHeight()": {
        "notice": "Returns the height of the Merkle tree."
      },
      "getNumLeaves()": {
        "notice": "Returns the number of leaves of the Merkle tree."
      },
      "getRootValue()": {
        "notice": "Returns the root value of the Merkle tree."
      }
    },
    "version": 1
  },
  "storageLayout": {
    "storage": [
      {
        "astId": 7,
        "contract": "contracts/RecordsMerkleTree.sol:RecordsMerkleTree",
        "label": "_owner",
        "offset": 0,
        "slot": "0",
        "type": "t_address"
      },
      {
        "astId": 3875,
        "contract": "contracts/RecordsMerkleTree.sol:RecordsMerkleTree",
        "label": "_rootValue",
        "offset": 0,
        "slot": "1",
        "type": "t_uint256"
      },
      {
        "astId": 3877,
        "contract": "contracts/RecordsMerkleTree.sol:RecordsMerkleTree",
        "label": "_numLeaves",
        "offset": 0,
        "slot": "2",
        "type": "t_uint64"
      },
      {
        "astId": 3879,
        "contract": "contracts/RecordsMerkleTree.sol:RecordsMerkleTree",
        "label": "_merkleTreeHeight",
        "offset": 8,
        "slot": "2",
        "type": "t_uint8"
      },
      {
        "astId": 3883,
        "contract": "contracts/RecordsMerkleTree.sol:RecordsMerkleTree",
        "label": "_flattenedFrontier",
        "offset": 0,
        "slot": "3",
        "type": "t_mapping(t_uint256,t_uint256)"
      }
    ],
    "types": {
      "t_address": {
        "encoding": "inplace",
        "label": "address",
        "numberOfBytes": "20"
      },
      "t_mapping(t_uint256,t_uint256)": {
        "encoding": "mapping",
        "key": "t_uint256",
        "label": "mapping(uint256 => uint256)",
        "numberOfBytes": "32",
        "value": "t_uint256"
      },
      "t_uint256": {
        "encoding": "inplace",
        "label": "uint256",
        "numberOfBytes": "32"
      },
      "t_uint64": {
        "encoding": "inplace",
        "label": "uint64",
        "numberOfBytes": "8"
      },
      "t_uint8": {
        "encoding": "inplace",
        "label": "uint8",
        "numberOfBytes": "1"
      }
    }
  }
}