{
  "address": "0x1D2ff68996F22Ed63406E6d954a635757abd3a75",
  "abi": [
    {
      "inputs": [
        {
          "internalType": "uint8",
          "name": "merkleTreeHeight",
          "type": "uint8"
        }
      ],
      "stateMutability": "nonpayable",
      "type": "constructor"
    },
    {
      "anonymous": false,
      "inputs": [
        {
          "indexed": true,
          "internalType": "address",
          "name": "previousOwner",
          "type": "address"
        },
        {
          "indexed": true,
          "internalType": "address",
          "name": "newOwner",
          "type": "address"
        }
      ],
      "name": "OwnershipTransferred",
      "type": "event"
    },
    {
      "inputs": [],
      "name": "getHeight",
      "outputs": [
        {
          "internalType": "uint8",
          "name": "",
          "type": "uint8"
        }
      ],
      "stateMutability": "view",
      "type": "function"
    },
    {
      "inputs": [],
      "name": "getNumLeaves",
      "outputs": [
        {
          "internalType": "uint64",
          "name": "",
          "type": "uint64"
        }
      ],
      "stateMutability": "view",
      "type": "function"
    },
    {
      "inputs": [],
      "name": "getRootValue",
      "outputs": [
        {
          "internalType": "uint256",
          "name": "",
          "type": "uint256"
        }
      ],
      "stateMutability": "view",
      "type": "function"
    },
    {
      "inputs": [],
      "name": "owner",
      "outputs": [
        {
          "internalType": "address",
          "name": "",
          "type": "address"
        }
      ],
      "stateMutability": "view",
      "type": "function"
    },
    {
      "inputs": [],
      "name": "renounceOwnership",
      "outputs": [],
      "stateMutability": "nonpayable",
      "type": "function"
    },
    {
      "inputs": [
        {
          "internalType": "address",
          "name": "newOwner",
          "type": "address"
        }
      ],
      "name": "transferOwnership",
      "outputs": [],
      "stateMutability": "nonpayable",
      "type": "function"
    },
    {
      "inputs": [
        {
          "internalType": "uint256[]",
          "name": "elements",
          "type": "uint256[]"
        }
      ],
      "name": "updateRecordsMerkleTree",
      "outputs": [],
      "stateMutability": "nonpayable",
      "type": "function"
    }
  ],
  "transactionHash": "0x119a53243d581d278f5aefb564313c205296dad9d808255acd893a0618320c2e",
  "args": [
    24
  ],
  "solcInputHash": "a2a06204e48e5b061a7d8a091eecad05",
  "bytecode": "0x608060405234801561001057600080fd5b5060405161193038038061193083398101604081905261002f916100b8565b61003833610068565b60006001556002805460ff90921668010000000000000000026001600160481b03199092169190911790556100e2565b600080546001600160a01b038381166001600160a01b0319831681178455604051919092169283917f8be0079c531659141344cd1fd0a4f28419497f9722a3daafe3b4186f6b6457e09190a35050565b6000602082840312156100ca57600080fd5b815160ff811681146100db57600080fd5b9392505050565b61183f806100f16000396000f3fe608060405234801561001057600080fd5b506004361061007d5760003560e01c8063715018a61161005b578063715018a6146100cc5780638da5cb5b146100d4578063927d52ab146100ef578063f2fde38b1461010a57600080fd5b806319efb11d14610082578063330ee6a7146100a65780636444c8d1146100bb575b600080fd5b600254600160401b900460ff1660405160ff90911681526020015b60405180910390f35b6100b96100b4366004611418565b61011d565b005b60015460405190815260200161009d565b6100b96102ac565b6000546040516001600160a01b03909116815260200161009d565b6002546040516001600160401b03909116815260200161009d565b6100b96101183660046114d5565b610312565b6000546001600160a01b0316331461017c5760405162461bcd60e51b815260206004820181905260248201527f4f776e61626c653a2063616c6c6572206973206e6f7420746865206f776e657260448201526064015b60405180910390fd5b8051600254600090600160401b900460ff16610199836001611514565b6101a490600361152c565b6101ae919061152c565b6101b9906002611514565b6001600160401b038111156101d0576101d0611402565b60405190808252806020026020018201604052801561022257816020015b6040805160808101825260008082526020808301829052928201819052606082015282526000199092019101816101ee5790505b5090506000610230826103f4565b90508060005b85518163ffffffff16101561028457610270848484898563ffffffff16815181106102635761026361154b565b6020026020010151610856565b91508061027c81611561565b915050610236565b5061029883836001600160401b0316610c1c565b6001556102a58383610dbd565b5050505050565b6000546001600160a01b031633146103065760405162461bcd60e51b815260206004820181905260248201527f4f776e61626c653a2063616c6c6572206973206e6f7420746865206f776e65726044820152606401610173565b6103106000610fe2565b565b6000546001600160a01b0316331461036c5760405162461bcd60e51b815260206004820181905260248201527f4f776e61626c653a2063616c6c6572206973206e6f7420746865206f776e65726044820152606401610173565b6001600160a01b0381166103e85760405162461bcd60e51b815260206004820152602660248201527f4f776e61626c653a206e6577206f776e657220697320746865207a65726f206160448201527f64647265737300000000000000000000000000000000000000000000000000006064820152608401610173565b6103f181610fe2565b50565b6002546000906001600160401b031681036104b057604080516080810182526000808252602082018190529181018290526060810182905283519091849161043e5761043e61154b565b602002602001018190525060405180608001604052806000815260200160006001600160401b0316815260200160006001600160401b0316815260200160006001600160401b03168152508260018151811061049c5761049c61154b565b602002602001018190525060019050919050565b60408051608081018252600080825260208201819052918101829052606081018290528351909184916104e5576104e561154b565b602090810291909101810191909152604080516080810182526000808052600384527f3617319a054d772f909f7c479a2cebe5066e836a939412e32403c99029b92eff54825292810183905290810182905260608101919091528251839060019081106105545761055461154b565b6020908102919091018101919091526040805160808101825260016000908152600384527fa15bc60c955c405d20d9149c709e2460f1c2d9a497496a7f46004d1772c3054c54825292810183905290810182905260608101919091528251839060029081106105c5576105c561154b565b60200260200101819052506040518060800160405280600360006002815260200190815260200160002054815260200160006001600160401b0316815260200160006001600160401b0316815260200160006001600160401b0316815250826003815181106106365761063661154b565b602090810291909101015260025460009061065c906001906001600160401b0316611584565b9050600061066b6003836115c2565b9050600460035b60025461068a90600160401b900460ff1660036115e8565b610695906001611611565b60ff16826001600160401b0316101561080e576106c6828460ff1660028111156106c1576106c1611636565b61104a565b86836001600160401b0316815181106106e1576106e161154b565b602090810291909101810191909152604080516080810182526001600160401b03841660009081526003845282812054825292810183905290810182905260608101919091528661073384600161164c565b6001600160401b03168151811061074c5761074c61154b565b6020026020010181905250604051806080016040528060036000846001610773919061164c565b6001600160401b03168152602080820192909252604090810160009081205484529183018290528201819052606090910152866107b184600261164c565b6001600160401b0316815181106107ca576107ca61154b565b60209081029190910101526107e0600385611677565b93506107ed6003856115c2565b92506107fa60038361164c565b915061080760028261164c565b9050610672565b610827828460ff1660028111156106c1576106c1611636565b86836001600160401b0316815181106108425761084261154b565b602090810291909101015250949350505050565b60025460009061087190600160401b900460ff166003611779565b6002546001600160401b0316106108ca5760405162461bcd60e51b815260206004820152601160248201527f54686520747265652069732066756c6c2e0000000000000000000000000000006044820152606401610173565b6002546001600160401b03166000858083835b6109088b856001600160401b0316815181106108fb576108fb61154b565b60200260200101516111eb565b610957576109168286611201565b85945090925090506109438b846001600160401b038416600281111561093e5761093e611636565b611260565b935061095060018661164c565b94506108dd565b60006109648a600161164c565b90506001600160401b0386161561098357610980600187611584565b95505b60025461099c90600190600160401b900460ff16611788565b60ff16866001600160401b03161015610a8d5760405180608001604052806000815260200160006001600160401b0316815260200160006001600160401b0316815260200160006001600160401b03168152508c826001600160401b031681518110610a0a57610a0a61154b565b6020026020010181905250610a5c8c856001600160401b031681518110610a3357610a3361154b565b602002602001015182846001600160401b03166002811115610a5757610a57611636565b611339565b925082610a6a60018261164c565b9050610a7760018761164c565b9550610a838387611201565b9093509150610983565b600254604051631c0b758d60e31b81526000600482018190526001600160401b039092166024820152604481018b905273D7Cc25389f8ea6C9E30Ea2c5c9fB681Fb898C8399063e05bac6890606401602060405180830381865af4158015610af9573d6000803e3d6000fd5b505050506040513d601f19601f82011682018060405250810190610b1d91906117ab565b9050604051806080016040528082815260200160006001600160401b0316815260200160006001600160401b0316815260200160006001600160401b03168152508d836001600160401b031681518110610b7957610b7961154b565b6020026020010181905250610bc68d866001600160401b031681518110610ba257610ba261154b565b602002602001015183856001600160401b03166002811115610a5757610a57611636565b6002805460019190600090610be59084906001600160401b031661164c565b92506101000a8154816001600160401b0302191690836001600160401b031602179055508198505050505050505050949350505050565b600080838381518110610c3157610c3161154b565b60200260200101519050610c44816113bf565b15610c5157519050610db7565b6000610c6a8583602001516001600160401b0316610c1c565b90506000610c858684604001516001600160401b0316610c1c565b90506000610ca08785606001516001600160401b0316610c1c565b9050828785602001516001600160401b031681518110610cc257610cc261154b565b60200260200101516000018181525050818785604001516001600160401b031681518110610cf257610cf261154b565b60200260200101516000018181525050808785606001516001600160401b031681518110610d2257610d2261154b565b602090810291909101015152604051631c0b758d60e31b815260048101849052602481018390526044810182905273D7Cc25389f8ea6C9E30Ea2c5c9fB681Fb898C8399063e05bac6890606401602060405180830381865af4158015610d8c573d6000803e3d6000fd5b505050506040513d601f19601f82011682018060405250810190610db091906117ab565b9450505050505b92915050565b60028054600091610dd891600160401b900460ff16906115e8565b610de3906001611611565b60ff16905081600080805b600254600160401b900460ff16811015610f8657600087856001600160401b031681518110610e1f57610e1f61154b565b60200260200101519050610e4b8882606001516001600160401b0316815181106108fb576108fb61154b565b610e6957806060015194508060200151935080604001519250610ebf565b610e8b8882604001516001600160401b0316815181106108fb576108fb61154b565b610ea957806040015194508060200151935080606001519250610ebf565b8060200151945080604001519350806060015192505b6000610ecc83600261152c565b610ed7600189611584565b6001600160401b0316610eea91906117c4565b90506000610ef96001836117c4565b905089856001600160401b031681518110610f1657610f1661154b565b602002602001015160000151600360008481526020019081526020016000208190555089866001600160401b031681518110610f5457610f5461154b565b602090810291909101810151516000928352600390915260409091205550819050610f7e816117db565b915050610dee565b5085836001600160401b031681518110610fa257610fa261154b565b602090810291909101810151516000805260039091527f3617319a054d772f909f7c479a2cebe5066e836a939412e32403c99029b92eff55505050505050565b600080546001600160a01b038381167fffffffffffffffffffffffff0000000000000000000000000000000000000000831681178455604051919092169283917f8be0079c531659141344cd1fd0a4f28419497f9722a3daafe3b4186f6b6457e09190a35050565b60408051608081018252600080825260208201819052918101829052606081018290529082600281111561108057611080611636565b036110e8576040518060800160405280600081526020016003856110a49190611584565b6001600160401b031681526020016110bd600286611584565b6001600160401b031681526020016110d6600186611584565b6001600160401b031690529050610db7565b60018260028111156110fc576110fc611636565b03611139576040518060800160405280600081526020016002856111209190611584565b6001600160401b031681526020016110bd600386611584565b600282600281111561114d5761114d611636565b036111a3576040518060800160405280600081526020016002856111719190611584565b6001600160401b0316815260200161118a600186611584565b6001600160401b031681526020016110d6600386611584565b60405162461bcd60e51b815260206004820152600b60248201527f756e726561636861626c650000000000000000000000000000000000000000006044820152606401610173565b8051600090158015610db75750610db7826113bf565b600080600080600185600260089054906101000a900460ff1660ff166112279190611584565b6112319190611584565b61123c9060036117f4565b90506112488187611677565b915061125481876115c2565b96919550909350505050565b60008082600281111561127557611275611636565b036112a85783836001600160401b0316815181106112955761129561154b565b6020026020010151602001519050611332565b60018260028111156112bc576112bc611636565b036112ef5783836001600160401b0316815181106112dc576112dc61154b565b6020026020010151604001519050611332565b600282600281111561130357611303611636565b036111a35783836001600160401b0316815181106113235761132361154b565b60200260200101516060015190505b9392505050565b600081600281111561134d5761134d611636565b0361136557506001600160401b031660209190910152565b600181600281111561137957611379611636565b0361139157506001600160401b031660409190910152565b60028160028111156113a5576113a5611636565b036113ba576001600160401b03821660608401525b505050565b600081602001516001600160401b031660001480156113e9575060408201516001600160401b0316155b8015610db7575050606001516001600160401b03161590565b634e487b7160e01b600052604160045260246000fd5b6000602080838503121561142b57600080fd5b82356001600160401b038082111561144257600080fd5b818501915085601f83011261145657600080fd5b81358181111561146857611468611402565b8060051b604051601f19603f8301168101818110858211171561148d5761148d611402565b6040529182528482019250838101850191888311156114ab57600080fd5b938501935b828510156114c9578435845293850193928501926114b0565b98975050505050505050565b6000602082840312156114e757600080fd5b81356001600160a01b038116811461133257600080fd5b634e487b7160e01b600052601160045260246000fd5b60008219821115611527576115276114fe565b500190565b6000816000190483118215151615611546576115466114fe565b500290565b634e487b7160e01b600052603260045260246000fd5b600063ffffffff80831681810361157a5761157a6114fe565b6001019392505050565b60006001600160401b03838116908316818110156115a4576115a46114fe565b039392505050565b634e487b7160e01b600052601260045260246000fd5b60006001600160401b03808416806115dc576115dc6115ac565b92169190910692915050565b600060ff821660ff84168160ff0481118215151615611609576116096114fe565b029392505050565b600060ff821660ff84168060ff0382111561162e5761162e6114fe565b019392505050565b634e487b7160e01b600052602160045260246000fd5b60006001600160401b0380831681851680830382111561166e5761166e6114fe565b01949350505050565b60006001600160401b0380841680611691576116916115ac565b92169190910492915050565b600181815b808511156116d85781600019048211156116be576116be6114fe565b808516156116cb57918102915b93841c93908002906116a2565b509250929050565b6000826116ef57506001610db7565b816116fc57506000610db7565b8160018114611712576002811461171c57611738565b6001915050610db7565b60ff84111561172d5761172d6114fe565b50506001821b610db7565b5060208310610133831016604e8410600b841016171561175b575081810a610db7565b611765838361169d565b8060001904821115611609576116096114fe565b600061133260ff8416836116e0565b600060ff821660ff8416808210156117a2576117a26114fe565b90039392505050565b6000602082840312156117bd57600080fd5b5051919050565b6000828210156117d6576117d66114fe565b500390565b6000600182016117ed576117ed6114fe565b5060010190565b60006113326001600160401b038416836116e056fea2646970667358221220dadafd98d7aaeed8045089408beb8396497221d819acc51c010796abc5d5d35e64736f6c634300080d0033",
  "deployedBytecode": "0x608060405234801561001057600080fd5b506004361061007d5760003560e01c8063715018a61161005b578063715018a6146100cc5780638da5cb5b146100d4578063927d52ab146100ef578063f2fde38b1461010a57600080fd5b806319efb11d14610082578063330ee6a7146100a65780636444c8d1146100bb575b600080fd5b600254600160401b900460ff1660405160ff90911681526020015b60405180910390f35b6100b96100b4366004611418565b61011d565b005b60015460405190815260200161009d565b6100b96102ac565b6000546040516001600160a01b03909116815260200161009d565b6002546040516001600160401b03909116815260200161009d565b6100b96101183660046114d5565b610312565b6000546001600160a01b0316331461017c5760405162461bcd60e51b815260206004820181905260248201527f4f776e61626c653a2063616c6c6572206973206e6f7420746865206f776e657260448201526064015b60405180910390fd5b8051600254600090600160401b900460ff16610199836001611514565b6101a490600361152c565b6101ae919061152c565b6101b9906002611514565b6001600160401b038111156101d0576101d0611402565b60405190808252806020026020018201604052801561022257816020015b6040805160808101825260008082526020808301829052928201819052606082015282526000199092019101816101ee5790505b5090506000610230826103f4565b90508060005b85518163ffffffff16101561028457610270848484898563ffffffff16815181106102635761026361154b565b6020026020010151610856565b91508061027c81611561565b915050610236565b5061029883836001600160401b0316610c1c565b6001556102a58383610dbd565b5050505050565b6000546001600160a01b031633146103065760405162461bcd60e51b815260206004820181905260248201527f4f776e61626c653a2063616c6c6572206973206e6f7420746865206f776e65726044820152606401610173565b6103106000610fe2565b565b6000546001600160a01b0316331461036c5760405162461bcd60e51b815260206004820181905260248201527f4f776e61626c653a2063616c6c6572206973206e6f7420746865206f776e65726044820152606401610173565b6001600160a01b0381166103e85760405162461bcd60e51b815260206004820152602660248201527f4f776e61626c653a206e6577206f776e657220697320746865207a65726f206160448201527f64647265737300000000000000000000000000000000000000000000000000006064820152608401610173565b6103f181610fe2565b50565b6002546000906001600160401b031681036104b057604080516080810182526000808252602082018190529181018290526060810182905283519091849161043e5761043e61154b565b602002602001018190525060405180608001604052806000815260200160006001600160401b0316815260200160006001600160401b0316815260200160006001600160401b03168152508260018151811061049c5761049c61154b565b602002602001018190525060019050919050565b60408051608081018252600080825260208201819052918101829052606081018290528351909184916104e5576104e561154b565b602090810291909101810191909152604080516080810182526000808052600384527f3617319a054d772f909f7c479a2cebe5066e836a939412e32403c99029b92eff54825292810183905290810182905260608101919091528251839060019081106105545761055461154b565b6020908102919091018101919091526040805160808101825260016000908152600384527fa15bc60c955c405d20d9149c709e2460f1c2d9a497496a7f46004d1772c3054c54825292810183905290810182905260608101919091528251839060029081106105c5576105c561154b565b60200260200101819052506040518060800160405280600360006002815260200190815260200160002054815260200160006001600160401b0316815260200160006001600160401b0316815260200160006001600160401b0316815250826003815181106106365761063661154b565b602090810291909101015260025460009061065c906001906001600160401b0316611584565b9050600061066b6003836115c2565b9050600460035b60025461068a90600160401b900460ff1660036115e8565b610695906001611611565b60ff16826001600160401b0316101561080e576106c6828460ff1660028111156106c1576106c1611636565b61104a565b86836001600160401b0316815181106106e1576106e161154b565b602090810291909101810191909152604080516080810182526001600160401b03841660009081526003845282812054825292810183905290810182905260608101919091528661073384600161164c565b6001600160401b03168151811061074c5761074c61154b565b6020026020010181905250604051806080016040528060036000846001610773919061164c565b6001600160401b03168152602080820192909252604090810160009081205484529183018290528201819052606090910152866107b184600261164c565b6001600160401b0316815181106107ca576107ca61154b565b60209081029190910101526107e0600385611677565b93506107ed6003856115c2565b92506107fa60038361164c565b915061080760028261164c565b9050610672565b610827828460ff1660028111156106c1576106c1611636565b86836001600160401b0316815181106108425761084261154b565b602090810291909101015250949350505050565b60025460009061087190600160401b900460ff166003611779565b6002546001600160401b0316106108ca5760405162461bcd60e51b815260206004820152601160248201527f54686520747265652069732066756c6c2e0000000000000000000000000000006044820152606401610173565b6002546001600160401b03166000858083835b6109088b856001600160401b0316815181106108fb576108fb61154b565b60200260200101516111eb565b610957576109168286611201565b85945090925090506109438b846001600160401b038416600281111561093e5761093e611636565b611260565b935061095060018661164c565b94506108dd565b60006109648a600161164c565b90506001600160401b0386161561098357610980600187611584565b95505b60025461099c90600190600160401b900460ff16611788565b60ff16866001600160401b03161015610a8d5760405180608001604052806000815260200160006001600160401b0316815260200160006001600160401b0316815260200160006001600160401b03168152508c826001600160401b031681518110610a0a57610a0a61154b565b6020026020010181905250610a5c8c856001600160401b031681518110610a3357610a3361154b565b602002602001015182846001600160401b03166002811115610a5757610a57611636565b611339565b925082610a6a60018261164c565b9050610a7760018761164c565b9550610a838387611201565b9093509150610983565b600254604051631c0b758d60e31b81526000600482018190526001600160401b039092166024820152604481018b905273__$2783a64b147d5f689049cabc192a316d9d$__9063e05bac6890606401602060405180830381865af4158015610af9573d6000803e3d6000fd5b505050506040513d601f19601f82011682018060405250810190610b1d91906117ab565b9050604051806080016040528082815260200160006001600160401b0316815260200160006001600160401b0316815260200160006001600160401b03168152508d836001600160401b031681518110610b7957610b7961154b565b6020026020010181905250610bc68d866001600160401b031681518110610ba257610ba261154b565b602002602001015183856001600160401b03166002811115610a5757610a57611636565b6002805460019190600090610be59084906001600160401b031661164c565b92506101000a8154816001600160401b0302191690836001600160401b031602179055508198505050505050505050949350505050565b600080838381518110610c3157610c3161154b565b60200260200101519050610c44816113bf565b15610c5157519050610db7565b6000610c6a8583602001516001600160401b0316610c1c565b90506000610c858684604001516001600160401b0316610c1c565b90506000610ca08785606001516001600160401b0316610c1c565b9050828785602001516001600160401b031681518110610cc257610cc261154b565b60200260200101516000018181525050818785604001516001600160401b031681518110610cf257610cf261154b565b60200260200101516000018181525050808785606001516001600160401b031681518110610d2257610d2261154b565b602090810291909101015152604051631c0b758d60e31b815260048101849052602481018390526044810182905273__$2783a64b147d5f689049cabc192a316d9d$__9063e05bac6890606401602060405180830381865af4158015610d8c573d6000803e3d6000fd5b505050506040513d601f19601f82011682018060405250810190610db091906117ab565b9450505050505b92915050565b60028054600091610dd891600160401b900460ff16906115e8565b610de3906001611611565b60ff16905081600080805b600254600160401b900460ff16811015610f8657600087856001600160401b031681518110610e1f57610e1f61154b565b60200260200101519050610e4b8882606001516001600160401b0316815181106108fb576108fb61154b565b610e6957806060015194508060200151935080604001519250610ebf565b610e8b8882604001516001600160401b0316815181106108fb576108fb61154b565b610ea957806040015194508060200151935080606001519250610ebf565b8060200151945080604001519350806060015192505b6000610ecc83600261152c565b610ed7600189611584565b6001600160401b0316610eea91906117c4565b90506000610ef96001836117c4565b905089856001600160401b031681518110610f1657610f1661154b565b602002602001015160000151600360008481526020019081526020016000208190555089866001600160401b031681518110610f5457610f5461154b565b602090810291909101810151516000928352600390915260409091205550819050610f7e816117db565b915050610dee565b5085836001600160401b031681518110610fa257610fa261154b565b602090810291909101810151516000805260039091527f3617319a054d772f909f7c479a2cebe5066e836a939412e32403c99029b92eff55505050505050565b600080546001600160a01b038381167fffffffffffffffffffffffff0000000000000000000000000000000000000000831681178455604051919092169283917f8be0079c531659141344cd1fd0a4f28419497f9722a3daafe3b4186f6b6457e09190a35050565b60408051608081018252600080825260208201819052918101829052606081018290529082600281111561108057611080611636565b036110e8576040518060800160405280600081526020016003856110a49190611584565b6001600160401b031681526020016110bd600286611584565b6001600160401b031681526020016110d6600186611584565b6001600160401b031690529050610db7565b60018260028111156110fc576110fc611636565b03611139576040518060800160405280600081526020016002856111209190611584565b6001600160401b031681526020016110bd600386611584565b600282600281111561114d5761114d611636565b036111a3576040518060800160405280600081526020016002856111719190611584565b6001600160401b0316815260200161118a600186611584565b6001600160401b031681526020016110d6600386611584565b60405162461bcd60e51b815260206004820152600b60248201527f756e726561636861626c650000000000000000000000000000000000000000006044820152606401610173565b8051600090158015610db75750610db7826113bf565b600080600080600185600260089054906101000a900460ff1660ff166112279190611584565b6112319190611584565b61123c9060036117f4565b90506112488187611677565b915061125481876115c2565b96919550909350505050565b60008082600281111561127557611275611636565b036112a85783836001600160401b0316815181106112955761129561154b565b6020026020010151602001519050611332565b60018260028111156112bc576112bc611636565b036112ef5783836001600160401b0316815181106112dc576112dc61154b565b6020026020010151604001519050611332565b600282600281111561130357611303611636565b036111a35783836001600160401b0316815181106113235761132361154b565b60200260200101516060015190505b9392505050565b600081600281111561134d5761134d611636565b0361136557506001600160401b031660209190910152565b600181600281111561137957611379611636565b0361139157506001600160401b031660409190910152565b60028160028111156113a5576113a5611636565b036113ba576001600160401b03821660608401525b505050565b600081602001516001600160401b031660001480156113e9575060408201516001600160401b0316155b8015610db7575050606001516001600160401b03161590565b634e487b7160e01b600052604160045260246000fd5b6000602080838503121561142b57600080fd5b82356001600160401b038082111561144257600080fd5b818501915085601f83011261145657600080fd5b81358181111561146857611468611402565b8060051b604051601f19603f8301168101818110858211171561148d5761148d611402565b6040529182528482019250838101850191888311156114ab57600080fd5b938501935b828510156114c9578435845293850193928501926114b0565b98975050505050505050565b6000602082840312156114e757600080fd5b81356001600160a01b038116811461133257600080fd5b634e487b7160e01b600052601160045260246000fd5b60008219821115611527576115276114fe565b500190565b6000816000190483118215151615611546576115466114fe565b500290565b634e487b7160e01b600052603260045260246000fd5b600063ffffffff80831681810361157a5761157a6114fe565b6001019392505050565b60006001600160401b03838116908316818110156115a4576115a46114fe565b039392505050565b634e487b7160e01b600052601260045260246000fd5b60006001600160401b03808416806115dc576115dc6115ac565b92169190910692915050565b600060ff821660ff84168160ff0481118215151615611609576116096114fe565b029392505050565b600060ff821660ff84168060ff0382111561162e5761162e6114fe565b019392505050565b634e487b7160e01b600052602160045260246000fd5b60006001600160401b0380831681851680830382111561166e5761166e6114fe565b01949350505050565b60006001600160401b0380841680611691576116916115ac565b92169190910492915050565b600181815b808511156116d85781600019048211156116be576116be6114fe565b808516156116cb57918102915b93841c93908002906116a2565b509250929050565b6000826116ef57506001610db7565b816116fc57506000610db7565b8160018114611712576002811461171c57611738565b6001915050610db7565b60ff84111561172d5761172d6114fe565b50506001821b610db7565b5060208310610133831016604e8410600b841016171561175b575081810a610db7565b611765838361169d565b8060001904821115611609576116096114fe565b600061133260ff8416836116e0565b600060ff821660ff8416808210156117a2576117a26114fe565b90039392505050565b6000602082840312156117bd57600080fd5b5051919050565b6000828210156117d6576117d66114fe565b500390565b6000600182016117ed576117ed6114fe565b5060010190565b60006113326001600160401b038416836116e056fea2646970667358221220dadafd98d7aaeed8045089408beb8396497221d819acc51c010796abc5d5d35e64736f6c634300080d0033",
  "libraries": {
    "RescueLib": "0xD7Cc25389f8ea6C9E30Ea2c5c9fB681Fb898C839"
  },
  "devdoc": {
    "kind": "dev",
    "methods": {
      "constructor": {
        "details": "Create a records Merkle tree of the given height.",
        "params": {
          "merkleTreeHeight": "The height"
        }
      },
      "owner()": {
        "details": "Returns the address of the current owner."
      },
      "renounceOwnership()": {
        "details": "Leaves the contract without owner. It will not be possible to call `onlyOwner` functions anymore. Can only be called by the current owner. NOTE: Renouncing ownership will leave the contract without an owner, thereby removing any functionality that is only available to the owner."
      },
      "transferOwnership(address)": {
        "details": "Transfers ownership of the contract to a new account (`newOwner`). Can only be called by the current owner."
      },
      "updateRecordsMerkleTree(uint256[])": {
        "details": "Update the state of the record merkle tree by inserting new elements.",
        "params": {
          "elements": "The list of elements to be appended to the current merkle tree described by the frontier."
        }
      }
    },
    "version": 1
  },
  "userdoc": {
    "kind": "user",
    "methods": {
      "getHeight()": {
        "notice": "Returns the height of the Merkle tree."
      },
      "getNumLeaves()": {
        "notice": "Returns the number of leaves of the Merkle tree."
      },
      "getRootValue()": {
        "notice": "Returns the root value of the Merkle tree."
      }
    },
    "version": 1
  },
  "storageLayout": {
    "storage": [
      {
        "astId": 7,
        "contract": "contracts/RecordsMerkleTree.sol:RecordsMerkleTree",
        "label": "_owner",
        "offset": 0,
        "slot": "0",
        "type": "t_address"
      },
      {
        "astId": 3824,
        "contract": "contracts/RecordsMerkleTree.sol:RecordsMerkleTree",
        "label": "_rootValue",
        "offset": 0,
        "slot": "1",
        "type": "t_uint256"
      },
      {
        "astId": 3826,
        "contract": "contracts/RecordsMerkleTree.sol:RecordsMerkleTree",
        "label": "_numLeaves",
        "offset": 0,
        "slot": "2",
        "type": "t_uint64"
      },
      {
        "astId": 3828,
        "contract": "contracts/RecordsMerkleTree.sol:RecordsMerkleTree",
        "label": "_merkleTreeHeight",
        "offset": 8,
        "slot": "2",
        "type": "t_uint8"
      },
      {
        "astId": 3832,
        "contract": "contracts/RecordsMerkleTree.sol:RecordsMerkleTree",
        "label": "_flattenedFrontier",
        "offset": 0,
        "slot": "3",
        "type": "t_mapping(t_uint256,t_uint256)"
      }
    ],
    "types": {
      "t_address": {
        "encoding": "inplace",
        "label": "address",
        "numberOfBytes": "20"
      },
      "t_mapping(t_uint256,t_uint256)": {
        "encoding": "mapping",
        "key": "t_uint256",
        "label": "mapping(uint256 => uint256)",
        "numberOfBytes": "32",
        "value": "t_uint256"
      },
      "t_uint256": {
        "encoding": "inplace",
        "label": "uint256",
        "numberOfBytes": "32"
      },
      "t_uint64": {
        "encoding": "inplace",
        "label": "uint64",
        "numberOfBytes": "8"
      },
      "t_uint8": {
        "encoding": "inplace",
        "label": "uint8",
        "numberOfBytes": "1"
      }
    }
  }
}