{
  "address": "0xd4693168f855dc9095C6C2b43D82Ded36C9Eb283",
  "abi": [
    {
      "inputs": [
        {
          "internalType": "uint256[15]",
          "name": "inputs",
          "type": "uint256[15]"
        }
      ],
      "name": "commit",
      "outputs": [
        {
          "internalType": "uint256",
          "name": "",
          "type": "uint256"
        }
      ],
      "stateMutability": "view",
      "type": "function"
    },
    {
      "inputs": [
        {
          "internalType": "uint256",
          "name": "a",
          "type": "uint256"
        },
        {
          "internalType": "uint256",
          "name": "b",
          "type": "uint256"
        },
        {
          "internalType": "uint256",
          "name": "c",
          "type": "uint256"
        }
      ],
      "name": "hash",
      "outputs": [
        {
          "internalType": "uint256",
          "name": "o",
          "type": "uint256"
        }
      ],
      "stateMutability": "view",
      "type": "function"
    }
  ],
  "transactionHash": "0x817534e50f7c2fea5d3043d79a5f260cfae5becf35f66becf2cba83f8973ac7c",
  "args": [],
  "solcInputHash": "4562b65aed9d47b1fb3c1971213274b0",
  "bytecode": "0x61238461003a600b82828239805160001a60731461002d57634e487b7160e01b600052600060045260246000fd5b30600052607381538281f3fe73000000000000000000000000000000000000000030146080604052600436106100405760003560e01c80638c54803614610045578063e05bac681461006a575b600080fd5b6100586100533660046121fe565b61007d565b60405190815260200160405180910390f35b61005861007836600461228b565b610194565b600061008882610211565b60008060008060005b60058110156101895761015460008051602061232f8339815191528860038402600f81106100c1576100c16122b7565b60200201518701816100d5576100d56122cd565b0660008051602061232f8339815191528984600302600101600f81106100fd576100fd6122b7565b6020020151870181610111576101116122cd565b0660008051602061232f8339815191528a85600302600201600f8110610139576101396122b7565b602002015187018161014d5761014d6122cd565b06856102a6565b60008051602061232f833981519152938490069850918390069650829006945006915080610181816122e3565b915050610091565b509295945050505050565b60006101e86101b160008051602061232f8339815191528661230c565b6101c960008051602061232f8339815191528661230c565b6101e160008051602061232f8339815191528661230c565b60006102a6565b91965094509250905061020960008051602061232f8339815191528261230c565b949350505050565b60005b600f8110156102a25760008051602061232f8339815191528282600f811061023e5761023e6122b7565b6020020151106102925760405162461bcd60e51b815260206004820152601b60248201527a696e70757473206d7573742062652062656c6f77205f5052494d4560281b604482015260640160405180910390fd5b61029b816122e3565b9050610214565b5050565b6000806000806102b46121e0565b602080825280820181905260408201527f26b6a528b427b35493736af8679aad17535cb9d394945a0dcfe7f7a98ccccccd608082015260008051602061232f83398151915260a0820152610392818a7f204ef5195a249af9f0ecafa3e5d186d6318a5af08a0ceb9731351045082151d3018a7ed525fbb687d48648b6a0ffbf1c9e97be39cff22d46aa165c3278a5dd953d6f018a7f10b1159c4fdead8c4e6ba55d1bc8338364a6c05eef88185f72da1f178b613ea4018a7f0823fa86ed409e6816795278dac56b0e475e16c412fb04ee260bb3b55db8173601611f13565b929b50909950975095506103a889898989611f84565b929b50909950975095507f293fc7d601bacd3c0284df170b21dddab70c60c3de919e3799cba305354a593a890160008051602061232f833981519152818209995060008051602061232f8339815191528a8b09995060008051602061232f833981519152818b099950507f1151c53f7f7ff7413e04d66c516cc3faaa38b3b59efe62cdd16bb9a48380b13f880160008051602061232f833981519152818209985060008051602061232f833981519152898a09985060008051602061232f833981519152818a099850507f2f198a2c4615ac524e724bc229fc8f4ffb57ac86812ccc8f4608f9d08de22d1c870160008051602061232f833981519152818209975060008051602061232f833981519152888909975060008051602061232f8339815191528189099750507f177034f8dd1f6da5c3fcd25f4cce79e082153dba89a1587c2190c9ef287616b2860160008051602061232f833981519152818209965060008051602061232f833981519152878809965060008051602061232f83398151915281880996505061053e89898989611f84565b929b50909950975095506105dd817f07814ed3eb736d73804ada7bc25507db0d7e374369c010c691dd65386c4efa8d8b017f28c30510d747a6a641cd7c81c2b8273c3deefa3366af02e482bfeb806232d5f68b017f14854753e3c7e4e50b1e0e518e99f0e54afe1c82088c1935bcacc286fb64f5b58b017f1047bd5f58c7bc8e500fcd4038744a6f8fcf114448526c6ae4abbcf0f390957e8b01611f13565b929b50909950975095506105f389898989611f84565b929b50909950975095507eadcf20cdefe156d31f685c92c4c754fb216b09eab182e5750f53a1df6add2d890160008051602061232f833981519152818209995060008051602061232f8339815191528a8b09995060008051602061232f833981519152818b099950507f2dfdabf83e149f597560ff354951c0a0da6ab955b50e6cdf8d45210b6ba3b539880160008051602061232f833981519152818209985060008051602061232f833981519152898a09985060008051602061232f833981519152818a099850507f2bacb2154e2fd046d124f23427e218f60cfdd290877fd80e89e81223d92d2fea870160008051602061232f833981519152818209975060008051602061232f833981519152888909975060008051602061232f8339815191528189099750507f080030fe806bd9e4c2fc56dd2064b48020f3743a02d5d5ef735c19d7f5351ec3860160008051602061232f833981519152818209965060008051602061232f833981519152878809965060008051602061232f83398151915281880996505061078889898989611f84565b929b5090995097509550610827817f05c1e7e3b39cea62ed567bbdd4af6aa3172b0ace17480b7631dec55d26f2ae218b017f2f36e6aa6047766aa0ab108a0d9c608c7abcb7e1c36edadd813267aa61eef5038b017f0117010f3e7be4bad697cb596ded269bdce41cb5e4f5df321fc36b8297c8def88b017f12c88ae9e997682f6e64358d6bc2b98f14b22570ffad3896c6ee610c0d9bf8728b01611f13565b929b509099509750955061083d89898989611f84565b929b50909950975095507f2281e9c8494480ec1144c41f401bc42c6993cb1c244c3ec2d55079c8d1d3f5f3890160008051602061232f833981519152818209995060008051602061232f8339815191528a8b09995060008051602061232f833981519152818b099950507f242399fd277ec35ab303f398fb09b832828c0b7dadfc004ceb0fba84331a4383880160008051602061232f833981519152818209985060008051602061232f833981519152898a09985060008051602061232f833981519152818a099850507f2e9e0e672cc6a26e6bfd72800937d17f84aafc14fe34f2e117210fe16216a014870160008051602061232f833981519152818209975060008051602061232f833981519152888909975060008051602061232f8339815191528189099750507f2da20060d27da3c2b99f4baf512e53ce5d3223fd13cb3286d141b29eed7e113f860160008051602061232f833981519152818209965060008051602061232f833981519152878809965060008051602061232f8339815191528188099650506109d389898989611f84565b929b5090995097509550610a72817f0d4cb3eee3996ba8f6793bb402e88d4405aa1081b0a37b78c7779c3d340f19608b017f1ba1db73659b3b23bd6a6af953113676161828012c3ac346002de9e0dcf0c43d8b017f17d86473dd04a5f188819b5c7f2fd37fec9547a3501c5bc5fd24a02ee30bc0b08b017f0c4ca620d3fd1b4131f3a8b69ac3d5372523f2bf156a0de7ee6265f1ddac69798b01611f13565b929b5090995097509550610a8889898989611f84565b929b50909950975095507f0a2392ae4051fe491d971e19a1b2065625c2a352be8e1122f28f647445a632f0890160008051602061232f833981519152818209995060008051602061232f8339815191528a8b09995060008051602061232f833981519152818b099950507f11fcad5e34183c64e5b30f231a984c9a2d4d2f1ad82952c694c3c705049f7816880160008051602061232f833981519152818209985060008051602061232f833981519152898a09985060008051602061232f833981519152818a099850507f0a0176d71d3b0c7ac238ca77529fa7b933a086fa3bfdcb414ffa5e2da9df4b00870160008051602061232f833981519152818209975060008051602061232f833981519152888909975060008051602061232f8339815191528189099750507f059c2c2688d5d8ada8ff683cffd98a228b6a1b195b53640501b1c21237f3854f860160008051602061232f833981519152818209965060008051602061232f833981519152878809965060008051602061232f833981519152818809965050610c1e89898989611f84565b929b5090995097509550610cbd817f0f61f39a3558851cb791332e7dbebec12b7a43aea2f998b6db4600a80374b6ed8b017f25e1a9d62bab29bb8fb5909517f1d47859f5673f8a2b2cc9dd7c870eda7b0fc58b017f2e3c03dee44661150db8756977960cf0424c8722adbdd647fd468136fd5bb40f8b017f235fd01177ea0b664dda5a1c09278f4160369efc76234c42fab4e27796b8ebcd8b01611f13565b929b5090995097509550610cd389898989611f84565b929b50909950975095507f169bd072a166986e826d5173764c5830cf0df28a54fac9efb8b14d14e4ab44cc890160008051602061232f833981519152818209995060008051602061232f8339815191528a8b09995060008051602061232f833981519152818b099950507f29165dfde70c541233d7779bffe5e4a5d51ce188051c8b4219176836c89c8032880160008051602061232f833981519152818209985060008051602061232f833981519152898a09985060008051602061232f833981519152818a099850507f147b071502d5ab6d5c36c904aad61596425648bd04b59041c9467d1c997d40ca870160008051602061232f833981519152818209975060008051602061232f833981519152888909975060008051602061232f8339815191528189099750507f2ea3e4df1eb00b56b191c888aae9df7a27b1aaf7f42c07d7fdf4c429f3222c90860160008051602061232f833981519152818209965060008051602061232f833981519152878809965060008051602061232f833981519152818809965050610e6989898989611f84565b929b5090995097509550610f08817f05e7d24cc9bead53442604076a931ff1141eeac9df9612665aaf279fefc56def8b017f2ad3fdab692f986698dcbf75bad7997c69656bfaa12c3d018dbd9756f93b2e7f8b017f0c11aaa440c3e58f338902cec6f8d69bdd72af59c2af99023a5997c5a68e97df8b017f10383793760804678052e5585308fdebe58eb196ca0b8cda4d232c4f5dd206e28b01611f13565b929b5090995097509550610f1e89898989611f84565b929b50909950975095507f16e2b4a08b6639f2a3ab1db440ac11c96ac7d6a6b622145f9966759785f58918890160008051602061232f833981519152818209995060008051602061232f8339815191528a8b09995060008051602061232f833981519152818b099950507f1768b6d0bbabd43b4d8933e7983893b17544bfb5bc859064bd7cfd84a395e838880160008051602061232f833981519152818209985060008051602061232f833981519152898a09985060008051602061232f833981519152818a099850507f1faea6415e680069d5206a3c67464d7f69eb518f1b1dfd2cb33012d65c91e313870160008051602061232f833981519152818209975060008051602061232f833981519152888909975060008051602061232f8339815191528189099750507f2de153e0b9e0dd03eff09c7968c5731799e5160093602b927b352d54059471ec860160008051602061232f833981519152818209965060008051602061232f833981519152878809965060008051602061232f8339815191528188099650506110b489898989611f84565b929b5090995097509550611153817f2ade9a93522e2e0d9bf61dd2b88f64cc1df63a68121c07506bdeea0e6098c5368b017f0938220a701623e1fd7a5f533a663d90ac5a51825c8bed809125d24ebdd8fd108b017f06aa537ace0534e58d88ce2046010a57eeb22544b8a4697483d60c4638d8cb728b017f1f9541c705b95ef90255b1a5fb64051ab1909f23a3dce6b659e9969523d34fc58b01611f13565b929b509099509750955061116989898989611f84565b929b50909950975095507f23debb8c003021369a7969a8282a71c305565849020582efcd3e892446e50ff9890160008051602061232f833981519152818209995060008051602061232f8339815191528a8b09995060008051602061232f833981519152818b099950507f0bf2ca96451cbb14a262b0e915fff1aec62d2accd7c3c6c5944c281af35d6377880160008051602061232f833981519152818209985060008051602061232f833981519152898a09985060008051602061232f833981519152818a099850507f2c7f9809cace0068afc0de88a31764989d1911b8565be322cce2613812b4358e870160008051602061232f833981519152818209975060008051602061232f833981519152888909975060008051602061232f8339815191528189099750507f210771d9375a0643b6570ac88f3652e77f0e7203b9a7e574821b5f63dfd10eec860160008051602061232f833981519152818209965060008051602061232f833981519152878809965060008051602061232f8339815191528188099650506112ff89898989611f84565b929b509099509750955061139d817e67fe55293c933f98e59faf05eaf3eaa1af21626cfc1f96a21b85234752f4768b017f21f8f1341f5053b5439cdce11d696fbec69d44a348535ea782cc5c2171b9ac8b8b017f16419ac8f54dc6d18476d752bbffcafcf180418089ddf8212092d96ef069aea58b017f0aaa4ea3d4a62822c9d5cf275c43975bf683708c78b9c093bb43c5f6f17949e68b01611f13565b929b50909950975095506113b389898989611f84565b929b50909950975095507f0c37d733050f604f2b0e395a3ebb3784f55ee9710e9a0c5e06b4667fbc8bc42a890160008051602061232f833981519152818209995060008051602061232f8339815191528a8b09995060008051602061232f833981519152818b099950507f2824f5b6c26e8477a10dd00bd2f0cde0b1b6a4a491cfc97563001805317ea6c3880160008051602061232f833981519152818209985060008051602061232f833981519152898a09985060008051602061232f833981519152818a099850507f01b25bf1e4df63b5bf06b83d2c3e2ba06ed0597bee28c9db9122cc31650fa397870160008051602061232f833981519152818209975060008051602061232f833981519152888909975060008051602061232f8339815191528189099750507f240b67813effbb5f06110957159335241f5dcfea620e4fce7b2b9a3760408d39860160008051602061232f833981519152818209965060008051602061232f833981519152878809965060008051602061232f83398151915281880996505061154989898989611f84565b929b50909950975095506115e8817f2236cd86c8d65cb72aa00bcf7296c58a28b849a690e31165d2302f8466caff048b017f20390ed18182dcb8daea043b93aa2b98ca95ab429ff2ca7027db4a27350fbf368b017f1e643cdb387382849957ecf0d99f3115a5c208e59446b7de803478245ed6eae28b017f1e854ba31f89059506f766b129793d5a134296516d3f88b841155468f4c294c78b01611f13565b929b50909950975095506115fe89898989611f84565b929b50909950975095507f07ca4952be421a53c307f49858f7f2e1c6cba4b3f6f87acb7f6f291dd59091c2890160008051602061232f833981519152818209995060008051602061232f8339815191528a8b09995060008051602061232f833981519152818b099950507f131591c541dd94f41e2b7754a4109b4d2eaa0c934e9030c8bb1285e7f26e8f06880160008051602061232f833981519152818209985060008051602061232f833981519152898a09985060008051602061232f833981519152818a099850507f2cdd8e8a6c5a6cfcab40087c5546dca55d52e0fa92fd5f8968682bd8a4ed0584870160008051602061232f833981519152818209975060008051602061232f833981519152888909975060008051602061232f8339815191528189099750507f10c3f10b28beb6599e5b8ee9b2226ea9a25c796bd0630c9540bc864727ea6c5c860160008051602061232f833981519152818209965060008051602061232f833981519152878809965060008051602061232f83398151915281880996505061179489898989611f84565b929b5090995097509550611833817f10b8439f8b5fd9c23e18ec554dc0909d73d488407e6ce9461b2366e600e9cb898b017f1c0e2dd3e1e31ba125d58c9393862f6c234bdb81fa1f7069176c8666a14af97b8b017f305ebc67b8583cc608ddb46561c6573315855a1f8dbd93f9b8c54c61a0972ebd8b017f079496612e6a96e6e973da23508e0ff256bb0b67ee984b3a2c637d85ce84cde78b01611f13565b929b509099509750955061184989898989611f84565b929b50909950975095507f05a4cd4d2576ac3bac78003e9b0d75d77781162f562525954a8f1f9cab7ed4b3890160008051602061232f833981519152818209995060008051602061232f8339815191528a8b09995060008051602061232f833981519152818b099950507f1e4dbb96d44d70abc545b8b41d65772d4989fd6d0b1d9cc7b68830127e00167e880160008051602061232f833981519152818209985060008051602061232f833981519152898a09985060008051602061232f833981519152818a099850507f2bbea759cbe13e9047b344becb11fee7d54f9445a4bfb6cf460ee55c85117bae870160008051602061232f833981519152818209975060008051602061232f833981519152888909975060008051602061232f8339815191528189099750507f1a03ee9282492493002d081bd9fdfbfab2fce79e734c285aaf3b600d72894c12860160008051602061232f833981519152818209965060008051602061232f833981519152878809965060008051602061232f8339815191528188099650506119df89898989611f84565b929b5090995097509550611a7e817f02d0ac662607bf9e018a13d43da00f1c17a80223e53011ca97fe54fe7023bd288b017f2cb74b97aa5a0461e4a0a6e288d99c0905aee732c9cecabe4615ebd5a104b3338b017f1cfacccb910a37fbfd67b2996ec2424a9cb2e2a1d7870a61a806c7b6ee7386f58b017f1760b5a3dec431d5011334c195de57558119f457fb5dbfd6fb88a3a52c5573888b01611f13565b929b5090995097509550611a9489898989611f84565b929b50909950975095507f2f483362e91e5828ff12621aca5ae5874ae430a3ebd86da588f90d30a96a5f0f890160008051602061232f833981519152818209995060008051602061232f8339815191528a8b09995060008051602061232f833981519152818b099950507f22ce5efa27f62c09d2bcd85ebd23d78840a5d6b68d2633417053edc66cc1af4d880160008051602061232f833981519152818209985060008051602061232f833981519152898a09985060008051602061232f833981519152818a099850507f23edd1de61c495e392254d4992eec9b59a5d4598684e6db46d0e0e4f7e0f28b6870160008051602061232f833981519152818209975060008051602061232f833981519152888909975060008051602061232f8339815191528189099750507f0bfbb36d010f34c54891c925a46b5a9b1d0acc7bfe443050bfd0dcbaa3c816c7860160008051602061232f833981519152818209965060008051602061232f833981519152878809965060008051602061232f833981519152818809965050611c2a89898989611f84565b929b5090995097509550611cc9817f202e297f6ede5f8859f39a8cd0c7f0e97f5443821f0261de729ebd5828d167d78b017f21aeabf98b919a79acb5a61da8b0ce8eafddaa6264da67a7f93d0f5278b545da8b017f2b3e91f8c87544d3bffae1237b88f932946be37354eb3fe75ff3f94d07c15d528b017f304f9ec93c84cb215401077e145ffc7ed63be01dae7c8244ba1824025eab80168b01611f13565b929b5090995097509550611cdf89898989611f84565b929b50909950975095507f2a2ce6212084c0fd8257c35b7dcf4866c93b17928d4febead535e36bd3e24c85890160008051602061232f833981519152818209995060008051602061232f8339815191528a8b09995060008051602061232f833981519152818b099950507f2a4c632e0c6bfd734e93b4ef7aff2765e15abebd4a7a1981aec2b485d700cb49880160008051602061232f833981519152818209985060008051602061232f833981519152898a09985060008051602061232f833981519152818a099850507f0e9af43ab6258d55f5b9ba7a5c1b17068735e8b1d0f5bc2a6c5c99711b2b1958870160008051602061232f833981519152818209975060008051602061232f833981519152888909975060008051602061232f8339815191528189099750507f1db849552bec3e70b8447baee23d2897e81f8a3afccf5f91f66bf9781be322b2860160008051602061232f833981519152818209965060008051602061232f833981519152878809965060008051602061232f833981519152818809965050611e7589898989611f84565b7f1a7a09d8d34387e13b9b5d786cc715e568b6ca39baae0e2d246f33c5ed47b1949093019c7f175f2f49ecddc770f15e33c5f1eabf0f798fccdb47d0cff6bf25490619812c049092019b507f0bf35ceb455df243c98978a7d1c37e180bdcda8c6ad39435574cce62aee910b70199507f29442c39d376d983c64b08829f211c64a89cca2cb7eb49509c3201093e137d80909101975095505050505050565b600080600080886060810189815260208160c08460056107d05a03fa508051955088815260208160c08460056107d05a03fa508051945087815260208160c08460056107d05a03fa508051935086815260208160c08460056107d05a03fa5080519250505095509550955095915050565b600080808060008051602061232f833981519152857f30644e72e131a029b85045b68181585d2833e84879b9709143e1f58aa128b6c50960008051602061232f833981519152877f30644e72e131a029b85045b68181585d2833e84879b9709143e1f593dd16ac1f0960008051602061232f833981519152897f30644e72e131a029b85045b68181585d2833e84879b9709143e1f593efdace850960008051602061232f8339815191528b7f30644e72e131a029b85045b68181585d2833e84879b9709143e1f593efffc2f80901010160008051602061232f83398151915286640b8adfc3ee0960008051602061232f83398151915288631774c89c0960008051602061232f8339815191528a622e2dc70960008051602061232f8339815191528c614c2c0901010160008051602061232f833981519152877f30644e72e131a029b85045b68181585d2833e84879b9709143e1f591a0dfb4550960008051602061232f833981519152897f30644e72e131a029b85045b68181585d2833e84879b9709143e1f593eb4d80ec0960008051602061232f8339815191528b7f30644e72e131a029b85045b68181585d2833e84879b9709143e1f593eff6b4650960008051602061232f8339815191528d7f30644e72e131a029b85045b68181585d2833e84879b9709143e1f593effff0430901010160008051602061232f83398151915288631317d0fb0960008051602061232f8339815191528a62270a5c0960008051602061232f8339815191528c614f520960008051602061232f8339815191528e609c090101019350935093509350945094509450949050565b6040518060c001604052806006906020820280368337509192915050565b60006101e080838503121561221257600080fd5b83601f84011261222157600080fd5b60405181810181811067ffffffffffffffff8211171561225157634e487b7160e01b600052604160045260246000fd5b60405290830190808583111561226657600080fd5b845b83811015612280578035825260209182019101612268565b509095945050505050565b6000806000606084860312156122a057600080fd5b505081359360208301359350604090920135919050565b634e487b7160e01b600052603260045260246000fd5b634e487b7160e01b600052601260045260246000fd5b600060001982141561230557634e487b7160e01b600052601160045260246000fd5b5060010190565b60008261232957634e487b7160e01b600052601260045260246000fd5b50069056fe30644e72e131a029b85045b68181585d2833e84879b9709143e1f593f0000001a2646970667358221220690b021f4e8de0d4a2dd2debe534c91cf47ec74fe8a99d66f8963c62426a7aae64736f6c634300080a0033",
  "devdoc": {
    "kind": "dev",
    "methods": {},
    "version": 1
  },
  "userdoc": {
    "kind": "user",
    "methods": {},
    "version": 1
  },
  "storageLayout": {
    "storage": [],
    "types": null
  }
}