{
  "address": "0x6A3D04C49A058E23dB67b61Dcf3736f21a9Eea07",
  "abi": [
    {
      "inputs": [
        {
          "internalType": "uint8",
          "name": "noteType",
          "type": "uint8"
        },
        {
          "internalType": "uint8",
          "name": "numInput",
          "type": "uint8"
        },
        {
          "internalType": "uint8",
          "name": "numOutput",
          "type": "uint8"
        },
        {
          "internalType": "uint8",
          "name": "treeDepth",
          "type": "uint8"
        }
      ],
      "name": "getEncodedId",
      "outputs": [
        {
          "internalType": "uint256",
          "name": "encodedId",
          "type": "uint256"
        }
      ],
      "stateMutability": "pure",
      "type": "function"
    },
    {
      "inputs": [
        {
          "internalType": "uint256",
          "name": "encodedId",
          "type": "uint256"
        }
      ],
      "name": "getVkById",
      "outputs": [
        {
          "components": [
            {
              "internalType": "uint256",
              "name": "domainSize",
              "type": "uint256"
            },
            {
              "internalType": "uint256",
              "name": "numInputs",
              "type": "uint256"
            },
            {
              "components": [
                {
                  "internalType": "uint256",
                  "name": "x",
                  "type": "uint256"
                },
                {
                  "internalType": "uint256",
                  "name": "y",
                  "type": "uint256"
                }
              ],
              "internalType": "struct BN254.G1Point",
              "name": "sigma0",
              "type": "tuple"
            },
            {
              "components": [
                {
                  "internalType": "uint256",
                  "name": "x",
                  "type": "uint256"
                },
                {
                  "internalType": "uint256",
                  "name": "y",
                  "type": "uint256"
                }
              ],
              "internalType": "struct BN254.G1Point",
              "name": "sigma1",
              "type": "tuple"
            },
            {
              "components": [
                {
                  "internalType": "uint256",
                  "name": "x",
                  "type": "uint256"
                },
                {
                  "internalType": "uint256",
                  "name": "y",
                  "type": "uint256"
                }
              ],
              "internalType": "struct BN254.G1Point",
              "name": "sigma2",
              "type": "tuple"
            },
            {
              "components": [
                {
                  "internalType": "uint256",
                  "name": "x",
                  "type": "uint256"
                },
                {
                  "internalType": "uint256",
                  "name": "y",
                  "type": "uint256"
                }
              ],
              "internalType": "struct BN254.G1Point",
              "name": "sigma3",
              "type": "tuple"
            },
            {
              "components": [
                {
                  "internalType": "uint256",
                  "name": "x",
                  "type": "uint256"
                },
                {
                  "internalType": "uint256",
                  "name": "y",
                  "type": "uint256"
                }
              ],
              "internalType": "struct BN254.G1Point",
              "name": "sigma4",
              "type": "tuple"
            },
            {
              "components": [
                {
                  "internalType": "uint256",
                  "name": "x",
                  "type": "uint256"
                },
                {
                  "internalType": "uint256",
                  "name": "y",
                  "type": "uint256"
                }
              ],
              "internalType": "struct BN254.G1Point",
              "name": "q1",
              "type": "tuple"
            },
            {
              "components": [
                {
                  "internalType": "uint256",
                  "name": "x",
                  "type": "uint256"
                },
                {
                  "internalType": "uint256",
                  "name": "y",
                  "type": "uint256"
                }
              ],
              "internalType": "struct BN254.G1Point",
              "name": "q2",
              "type": "tuple"
            },
            {
              "components": [
                {
                  "internalType": "uint256",
                  "name": "x",
                  "type": "uint256"
                },
                {
                  "internalType": "uint256",
                  "name": "y",
                  "type": "uint256"
                }
              ],
              "internalType": "struct BN254.G1Point",
              "name": "q3",
              "type": "tuple"
            },
            {
              "components": [
                {
                  "internalType": "uint256",
                  "name": "x",
                  "type": "uint256"
                },
                {
                  "internalType": "uint256",
                  "name": "y",
                  "type": "uint256"
                }
              ],
              "internalType": "struct BN254.G1Point",
              "name": "q4",
              "type": "tuple"
            },
            {
              "components": [
                {
                  "internalType": "uint256",
                  "name": "x",
                  "type": "uint256"
                },
                {
                  "internalType": "uint256",
                  "name": "y",
                  "type": "uint256"
                }
              ],
              "internalType": "struct BN254.G1Point",
              "name": "qM12",
              "type": "tuple"
            },
            {
              "components": [
                {
                  "internalType": "uint256",
                  "name": "x",
                  "type": "uint256"
                },
                {
                  "internalType": "uint256",
                  "name": "y",
                  "type": "uint256"
                }
              ],
              "internalType": "struct BN254.G1Point",
              "name": "qM34",
              "type": "tuple"
            },
            {
              "components": [
                {
                  "internalType": "uint256",
                  "name": "x",
                  "type": "uint256"
                },
                {
                  "internalType": "uint256",
                  "name": "y",
                  "type": "uint256"
                }
              ],
              "internalType": "struct BN254.G1Point",
              "name": "qO",
              "type": "tuple"
            },
            {
              "components": [
                {
                  "internalType": "uint256",
                  "name": "x",
                  "type": "uint256"
                },
                {
                  "internalType": "uint256",
                  "name": "y",
                  "type": "uint256"
                }
              ],
              "internalType": "struct BN254.G1Point",
              "name": "qC",
              "type": "tuple"
            },
            {
              "components": [
                {
                  "internalType": "uint256",
                  "name": "x",
                  "type": "uint256"
                },
                {
                  "internalType": "uint256",
                  "name": "y",
                  "type": "uint256"
                }
              ],
              "internalType": "struct BN254.G1Point",
              "name": "qH1",
              "type": "tuple"
            },
            {
              "components": [
                {
                  "internalType": "uint256",
                  "name": "x",
                  "type": "uint256"
                },
                {
                  "internalType": "uint256",
                  "name": "y",
                  "type": "uint256"
                }
              ],
              "internalType": "struct BN254.G1Point",
              "name": "qH2",
              "type": "tuple"
            },
            {
              "components": [
                {
                  "internalType": "uint256",
                  "name": "x",
                  "type": "uint256"
                },
                {
                  "internalType": "uint256",
                  "name": "y",
                  "type": "uint256"
                }
              ],
              "internalType": "struct BN254.G1Point",
              "name": "qH3",
              "type": "tuple"
            },
            {
              "components": [
                {
                  "internalType": "uint256",
                  "name": "x",
                  "type": "uint256"
                },
                {
                  "internalType": "uint256",
                  "name": "y",
                  "type": "uint256"
                }
              ],
              "internalType": "struct BN254.G1Point",
              "name": "qH4",
              "type": "tuple"
            },
            {
              "components": [
                {
                  "internalType": "uint256",
                  "name": "x",
                  "type": "uint256"
                },
                {
                  "internalType": "uint256",
                  "name": "y",
                  "type": "uint256"
                }
              ],
              "internalType": "struct BN254.G1Point",
              "name": "qEcc",
              "type": "tuple"
            }
          ],
          "internalType": "struct IPlonkVerifier.VerifyingKey",
          "name": "",
          "type": "tuple"
        }
      ],
      "stateMutability": "pure",
      "type": "function"
    }
  ],
  "transactionHash": "0x09584737c3e6a3b21d9f2cdedecbd6248ed7daa853228504bc9201b387851708",
  "args": [],
  "solcInputHash": "4562b65aed9d47b1fb3c1971213274b0",
  "bytecode": "0x61286761003a600b82828239805160001a60731461002d57634e487b7160e01b600052600060045260246000fd5b30600052607381538281f3fe73000000000000000000000000000000000000000030146080604052600436106100405760003560e01c806322e6017b14610045578063b95a6ecc1461006b575b600080fd5b61005861005336600461261c565b61008b565b6040519081526020015b60405180910390f35b61007e610079366004612670565b6100a7565b6040516100629190612698565b6000818360081b018460101b018560181b019050949350505050565b6100af6124ed565b6100bf600060016002601861008b565b8214156100d4576100ce6101ac565b92915050565b6100e36000600280601861008b565b8214156100f2576100ce61078d565b610102600060026003601861008b565b821415610111576100ce610d6d565b6101206001806002601861008b565b82141561012f576100ce61134d565b61013e6002806002601861008b565b82141561014d576100ce61192d565b61015c6002600380601861008b565b82141561016b576100ce611f0d565b60405162461bcd60e51b815260206004820152600d60248201526c155b9adb9bdddb881d9ac81251609a1b604482015260640160405180910390fd5b919050565b6101b46124ed565b6180008152600e60208201527f05c02ddd42bf45f217058e85006ddc4e2516f4ac28ac516bd4a5664bc6333fe96040820151527f2f4902cddc086c3b318a36986a6c1fbb4c80a4f798b41b8a460ef0468a12e99f6020604083015101527f28006483a7323c3652fb9232abc870e0ebb3a972c6f1429fe83ec8a3891024cf6060820151527f224838cdae3a4b434f06d83d6326702760cac0f574ba29e5c1497998fd9002836020606083015101527f261474b5b5c87bae35214144fc428fcc13dcc2d632663e804abfb263b99631156080820151527f15d34b12c84f57ddb6abe446fd027ddfabb730dc9f76c55f9f4419531b6dfcce6020608083015101527f03a7cdf5691c07b0743d8beebb4293651182b66d20a8205101b97920aeccccf560a0820151527f28fd82f7d1b562e9e13d1559882948bb9cced8948cfc9b7a3d7b6c309fd9a827602060a083015101527f0dab1e149e709546c6c07b45318f28a9a03b4fc38447bc3bca0eb2b86ce4227560c0820151527f0defbb4a23b209c1092e6e9090ec9d934fbd9e0bff0058c1b6a8236f52265487602060c083015101527f28934518f515ab1677f3ae996cf8e52f609edb47fe7d93ff0243815c749430f260e0820151527f28fa80f6dcc96425bf2ed400d51105bc23a515e96c641a521bead95e7d7bae88602060e083015101527f15e7e03017f6fd905ef6d670fb00bc2f2e9f96efad28968f98ef2a96d0e3e357610100820151527f0b8c0539ba44c5cbc79b1e4efb5f8b358e2c7cb6d89c8236dcbf2733fafdc1da602061010083015101527f0f58bff6104c95a0ecf0adf9ce5bd6d9b093eed174f6097a92bff38853a9f064610120820151527f21efbb5dda69f42867ace3823f4d2a071e3a7a9fd129d67de49727e9785c488c602061012083015101527f2eccde97056d2aced757927a75989b415d4274bddcd8057471329b07b09123d9610140820151527f24d5528ff7c5acff29c12356037166990ce267b46f75c6d18904f396155bb795602061014083015101527f1451e51ec78c6c1d7f9079649f27e224e650b8f027b7321c5f90a5f8b2a757f1610160820151527f299fc8fbc471bf5afbf8118f315d268097269e450293d44a0610c57648ce90a8602061016083015101527f06d38730bdb4bfd739e18d27e5626cb649fe2e8e1e8731da9aca678fa4148c73610180820151527f25481ccc8e16087a519f26c0b0d868608e06c1924185772dbd9545a75e9fb723602061018083015101527f1575cefc4d9d60b17ebd9ad3a645e73ffc6626d031a46f4b68a970d14f9a17f46101a0820151527f0dc9cdcc1c9fcdddc7052b4cdff3a5e9fdf9a0f723f6945f8842f45d729f6b8c60206101a083015101527f031ecfed0063bdab22eabbb2a95dab11f3ed67bec16a04017ffd29447edb06a46101c0820151527f08d408e8a26fca088a01b670ee74e1c36c45e64e2453e6fa94b0472ca6d1b15c60206101c083015101527f15c4ed99781a3356bcc53191a1261cface5696c82a8e503c52f2c672d3af3f456101e0820151527f0681b0f5a7859b335091a0718581a7a376bbd9624d4b4a7da9a0fb8a71a556aa60206101e083015101527f0f57570e5cf178312284fe2c38cce31380674ca3ddd82731d8bbe5f6730d9bbf610200820151527f03db60365dd4af65f9dc616c900a0717b435468eb68a153e6f200ac7bd167f3b602061020083015101527f12e84dbec9297152b12752cf1a39b8370c44404c81328827957b1e9fbca75c17610220820151527f152d92b72750aa202a9930b039d8cd11b23e978b6c6da316a24666daa100bd8e602061022083015101527f200e96a399cd4927e132d48cdbc70618b265e2de614f7661caedb6548a3b202f610240820151527f1c36d375f867cbabc4394732b937beac10a2b926df5e010a8dffd2f4152f2eee602061024083015101527f1a391be109f38279187374745717841179730c5d74288dc26c7e540987b7255c610260820151527f1062d801272599c813669b64bd5d7a3111b89a8d33bbc3bd66b0d72da501d5346020610260830151015290565b6107956124ed565b6180008152601b60208201527f10dd4ed74e999e49ce3cb9699fa574476474407421f1ea7781db4de8e26a3a836040820151527f02f19db4500c853972353814da1e8b260d00819ff8a024c3c11da65325669bd26020604083015101527f192bf3359db9efbf7437ba8dc127777e5a667dd5bb91914712164937b8b80ad66060820151527f20981868bb06242579ef2881613d7781bf067416bd6e9d2181c45157dc08717e6020606083015101527f24d31f5c4056950f663e0f867878497154da32d23781c478c0ab63819523c8b56080820151527f1d75d0537642ff0da8929fe8d4ba95d19eda403edc80330cce5ad45e4dc2e8526020608083015101527f14513cd088d106d18338d158f728c9e2f85c70f6408bc034489d5310e77fd14b60a0820151527f20cfb7f7154f180cf34a7cda36cb9029e0cd8677851a80fa763f2b557851e155602060a083015101527f0510dfa9790ee814c693264d395b2441849df7252a2201d5a250112018b4042f60c0820151527f02e0ea16e94060ba9d2fdd910793ac2d31e0d7b1c8572a3886471a648c7e7d85602060c083015101527f2e07eaf7281421bfb41dffbe12672d94f0a3b7241fc7b86d7857ee4df768824a60e0820151527f2fbd5f8fa4380a9b7049705f690d8a65de8349990d894c8c36637d035ae201b0602060e083015101527f296e4e8d53e2b44c84bc8a3a525c911d213969515f43c4423d95b504a7d67867610100820151527f2ffc70d42c671f35bb18a16ea8969f375fa40efd9b9a1e3991f4a54be8b6e8ce602061010083015101527f205ed8e571d6bcbcfda7393fee2644cd4fd394a3fdc2fa5370bb4af769e79520610120820151527f1143fc972aefe2c4881f0d9969bda1d23d442c0db415d91e0a92417b81523a7d602061012083015101527f1c5b282ba9cfd9617d8e1a861e0fe2cb3e131efff185d5d4eb0a0717e29ee8c3610140820151527f021bccce74b4f7b0f1b67fdab6cbdc16d9d417de8543c0bb0e07b3f4ba604b7e602061014083015101527f1c69b4931ccba9731f34e47ab883f6c6ba955e5c6b10a8bacdde1e7621d3f170610160820151527e9bda659ef3512f01356860bfa85c15c5bd7342dc7efe97153e34c6bb70f2d2602061016083015101527f0b8ae5fb0e03a220838190348d1c49e2d1bac11d5e1cb5b6f403d17c25775e0e610180820151527f14e4fee241c073f18a55dc7e4e6c89b8257461bb55442d41caceb63c02842298602061018083015101527f02421275a806b8c240fd47347918bdcb2433cf233ac35f45e8990f5bf0053fec6101a0820151527f191d7ed89713c7ba13c113f7357fc1b03ddb288122e2025ef20a64be43bfd45760206101a083015101527f1dc4b7e1c2fa9afd5e8894addbc2c503ab36161b8c41768b786cb3db5242bf016101c0820151527f16dbf17128e6049b7f02f6533bc93f1ad4995e169176f7ad99898ca05d786bd660206101c083015101527f153a642bcb4a3a61ce14af8d6cff56e933f8424fdea7f66a565e42c176dea5766101e0820151527f2aac15ebcbb3bb5dac42ab63297bafd13ad07b865f47aa9b6859d61f2a9000de60206101e083015101527f2e9a5c7abea2fa7752eb723eee1bf3dd860958b8a71df8129418c711cd59a79c610200820151527f12d15324b9e5b9de87cb084b852a81d4580b008eeba8a3ce5cecdb2d6e66d567602061020083015101527f21d5b4bc1398bbb1ad6f98f8df336a7b5bedf456bd8c50a5b6c56cee1633c998610220820151527f282c0ea35bbbd0456ad65c141dfe96fcbce9adab404fd8c54c20d9bf027d2a42602061022083015101527f096fbc1a3c8d44dc08852100abf9a0cc466881b5b49b56b537c725f16da986c8610240820151527f29f374c19e0f93576c62278bd8306a6eb604767e0358a0fe78a8b88a5d4bd4b0602061024083015101527f206937d67e1d26d4bc0f5db3952e8c63626a24b4049d65bd6aa5cfda9417965e610260820151527f048dced6bb8fe5012a4c59f5d9bb4ac1a9124d9e16d8cc8fdad1e6f8a9db2bb06020610260830151015290565b610d756124ed565b61800081526020808201527f0e3ec4cd1781818f68b4d37016cf0902fdb0ab4f496f2e7ad31b747c55762c8b6040820151527f22b3ad2b6ea75c8ce222c5530fe735e8cb147f95379540c909dd8d6700f0a37e6020604083015101527f19d39546c83529c00ce24945554416011ab29d8792efe610cba6519a8d08049b6060820151527f171ad572c67511a3250cb0c0ac1b6f5559e0f99f74be9ec5891cd864e4039aa96020606083015101527f210d544203dce23d6c08b60b16598f361e5fa1f807aa99e2030b9b30a391d9106080820151527f061746af53c072c8675d53641c69ff6d58ddcd1140890404f7bf14ee11621cc46020608083015101527f2ee32ec93a5649e6fa41b06db04e3c41f4e3ff16a3a5f7044195345418748adc60a0820151527f2cf7b61de09e60e5dcc0f4395f2cc0fcc2360e83f7447564b6cc9ef5fe6a9604602060a083015101527f29310d40d0ba191b8084e88650fc9eef21d1a852724be4e412cce348cd544e0460c0820151527f0f1fdc9b26dd07d79e175edca4d54937fd085ef8eb097f047d0213726c05a69c602060c083015101527f23c4cacf0621b3d5d6dc1b564cf36abe863dbd28575fdb6a5bd2a833c123ab2060e0820151527f0d3315611bf17f52c44f14537ed3bb1441b12f9fd314fd3df859f6f8c01e0484602060e083015101527f2f817301301ca749ed23a38d5e998d6a285c0d436bfe43feb4e5972df3d6edd5610100820151527f1f07bafcb803f9cbc6f0c30bdc20210f933e71b6600598ab8be9f9f2e2f7b799602061010083015101527f151ac09a6102db81a719b4a0e0f1ab4b1ae774121b7f1bb6ca63f6c85093eb3e610120820151527f234207b3b09ebb08dcfc8ad9a356c2abadcb40d0151ead75417c41b7a4e4c424602061012083015101527f1ab516e9d9d8e3193b732ee4163ec3426bd25fd65af84bf632c5b565ac4bce79610140820151527f268e830c33668431dc8c75dfd932560d63524218a4e69efb8c3b41c4b528f002602061014083015101527f0c9b3088ae96bec61c77ca2ffde405523d8a7ee0bf62bbf69dc54fec00bfe279610160820151527f126c1e51062b8be31311ace94cadc20a19c8bf83f6a0b28137456a9d85563dcd602061016083015101527f1d4d7b11756b9adb0d1e12d930733884ccacc46bb4925bc6341613e3557e6212610180820151527f236529ee36100b5f3f9c5e7e3cbc9d054969573a0385d2e63cdcdd51a08f7c17602061018083015101527f0c543526035e3858d199b9f60009f9760001e38ebf5cfb5e7c7af2d8c7bebfea6101a0820151527f19ed04f9e1dcd4f7cd17b581c0a438dbb44f45db3db1497d1a3359582d39fae260206101a083015101527f0bf36f0dffb5489a747614613fc29ca565590b7682c5e23e8cf634801d59399d6101c0820151527f0117cf066fffabbf9ef99a7a29cb60467b68fe353b6a9f3877abed5fa21af0a460206101c083015101527f2dc627a5145e05822ccaa89918ec47113b9ad3973bdc1a0a714473095837870e6101e0820151527f03c869f1668547c0fdfc38453599593b4caa89b65b49c56e351db7241365a23b60206101e083015101527f299d68df507bba51c105a50c9cc415c13fdfffac838fdc2cf35b96d8a7f24743610200820151527f1f4999958a1bf1be6546f7f9e0723a394b17c5eb3c3101e94eee721cfb419fe2602061020083015101527f05472aa2cf59ad822b4ca9ac2572f49c5670914d7d97d57fe12280ff657f9439610220820151527f10fd9f042ecf2f29d4ba510fa2f5b496cb5926c0cdf8fe2c1ac1d80fde9ec4ee602061022083015101527f2455e41c1a1955963f270c7e2c530afb2381318b332f0704e5544a2d0f60b7b6610240820151527f0480c50947e33b4bb4fc5fd555e888a7941dbd5dcd79c01b8fd8eee3dad576cc602061024083015101527f0efd57426a4300770a8ea564eca953621f5fd0ca48aa31e38d50e88433c2f11e610260820151527f1cedb3d16bde37a7667db7123c93a9ad0e0b9ccf44d88fcf14176a3dd30b19616020610260830151015290565b6113556124ed565b6140008152601660208201527f208474dccfe40360f090560c32a7b5085716680a2000ac13e08ba55e61e51d356040820151527f06165d3d427bbecbc04c3fdc3cc877f0e74e234f72dd004fcf44a7c04777215d6020604083015101527f08429f741e43c7ba27821eb66fba1b0446782784da41cd5ff4d1c1142b7a091a6060820151527f1b28c40307c5122d933d3b9b70f440bc3882ceeaaaa7c300dac3444b7adf226b6020606083015101527f1a6a6a5c8d81e3a08f923594ac0f31d92897af609ceaf5ba54195a9d2ffb28a06080820151527f0b99ca7dc457ba82c39fd21294bb30c219369c4c1e377a4c362b84f3c52a522b6020608083015101527f25fe3ddf956b0a24034ff17fe70eb83a5b10b894ed30ae8e064c3b85f37d0a0c60a0820151527f03bfa588bfe5e326a43276e675f967a99b389d9130a77fc469a2f7aa3f1daf0b602060a083015101527f09f3945df89fc1f737d3b4fb61e9ac26ac0b9ede32fd7e9e901c800c0c3bd2ba60c0820151527f25fb7d6925c0826e9fec11787a672b116b1576216844c171762a7aed5c8821f6602060c083015101527f123416c9e989666da80f154380e07bb858570e6ced2a73e701e2f518d913df6860e0820151527f2321b07057bdc84ee5f6cf296d15dbfae67783d937f8431667d77bd8ea992ff9602060e083015101527f20d0cb35ffb5236ace730a71556ad2354d01f5067f705610e67753499b8ebb2d610100820151527f245d2615891df83baa6863b27c5917dff02efe521c303a08454abd36fde84c14602061010083015101527f14f1d717a4a90522d0f40d93efd1b8b0e69c8bfda833c1caff254c6cfc6ec6ff610120820151527f1903bb92c0ac1df2a027ab3691337bb90b073930e8094800dd86890a90a2528e602061012083015101527f0842bb7d5fdd5ce8630def0ac022b33ea0685adc8ee22b54c76236e966ccbbb0610140820151527f146baadea0f7cb6c7ee4490a26b66046da2436efce03c20c65b26d04ab6d0a03602061014083015101527f1f2d98a8edd313fe9f444753c173a182d5f0de24aeadb829fd72fc0bd8cc47c6610160820151527f26c437c631eb6ea1a46c9ea2f35f76ed98916216598c0443cd3fd20a308784b0602061016083015101527f143923e0805c997c1e79037a288a707251b42d376ea9de43015f98d4b57e8bfb610180820151527f0314124712eeb0e7fb5c8691a6fac38c38aa325ceb2dc5853b8bfd2c1c414f8b602061018083015101527f181c2935a3b542ebab0863e40c92a18a6526b795d1a9f26a899e6c9b452313f36101a0820151527f25e445fa3afa9ea3501f5235c61867b5c3cdeb659e105a8793a0481864377faf60206101a083015101527f24a42516e1474805237436ae35d37c5665c4496f01358f8edf288ee5a11845e36101c0820151527f0a1d9c78d0f363a97dd4e40fb77c75e71ad12f2bfdcd395b5aa0e8d7316c950760206101c083015101527f14189cb02a48bfd0f19165e580e6ce307ff83324d1a5f626c5798609924564456101e0820151527f189d31117b2fa92e36b34118aff35c17c1edf4a9d30cc70f6f5a800d5fa8fb2060206101e083015101527f162129ce54ce62998f22c402b72eb6264d9e21f913191c5efbe557ea5821c5d7610200820151527f0529911cdca58434fa18f07dc945145ead877673ddf4d396152f96edd9dc672a602061020083015101527e73ca2246f57f115963349e89ead7f9d0314590eb0bf488be8f75e4fa0dac23610220820151527f08e1af79398bfe231d758ac53dc771a1211516c5516a9708e3fda15e11230e16602061022083015101527f081f8e158c16bdfd2db09e61691dc5082f27c67441cac8d1e158720ab754192e610240820151527f2089a01019ee574bd650e6931fb62820c1275845756eda8970914765ac5983aa602061024083015101527f1af437a3965895623d906c87d292464c583dc3b748f0c8ec6c81f04e5a55237e610260820151527f1d6a7bc61976db814f2b73e7ecc78e634d92994985ad636b55c4ce8007ddaeaa6020610260830151015290565b6119356124ed565b6180008152600760208201527f0b50c36923c6944a1fd8b9d260fc6786910299e5cd838b082a5d4b959c5369d86040820151527f2f6929bc105c2e4941e799e34147419a7f1e1e4d7d39bc84772d77203340c5ce6020604083015101527f13765dbb447c8ea8d3c358686bc464642b658c768d7b7d5c52d24090aa3120bc6060820151527f0561337e6621272cf83f4be0bd99d884f88724b1056e75d2231eaf34f3d804ad6020606083015101527f07358c9dccb7c0836af2ba0d84da7e125cb0e22f81ae70e8da68096d2f3066ed6080820151527f07fd263887d67d02c6997ac3385d290fe95a30133ab6c42c47a8354e30d55e056020608083015101527f0669063c49e18373adb984bbe5c4d448001c0ae449b68b03dcd130d6e1a4492360a0820151527f12866290a8990a143b6d6d7e3329183b1c4ad82ee250f57a8e1f615ef67480e8602060a083015101527f19f089ba3858226bac8a3053cc4486250d544430f238ca1542bc27497d9f9c4260c0820151527f1d1c0f1cda207c95080375a6863553ada605e24b80d9357e11e037f7a87ed73d602060c083015101527f07b7e66feeda9acbabe16f98ddd329f47a8860e2aae0addf0a16c66f881c4b9b60e0820151527f15ba6adb189f8d6cd44f9042bfbb7952409c3b2f0672940978440f52b66bd2e6602060e083015101527f1db45b81750780476089df0ef4ee6e1fa97c25b40706be930349c27de04d8980610100820151527f27c17411029c4cbd0e6a2d50bca1ad65466295a2ce33e408958ecaf4f4604ccc602061010083015101527f14d3c7e4a751138c29243664e5053dcd9a9ec44989c247894a8e586e6a6d94c9610120820151527f1f112a8320a2c479f950604f0504fbb37d30a9633e77543c758d7089b406ff92602061012083015101527f0d405e091ca140684368ee442484b1e8b973c621f4cf1ee8adccc9d7febed1ae610140820151527f1189e58196d34f3615ea805405e60b9581018f619000791d69d36a26177e7ffd602061014083015101527f2d2aa260acf145ec8ecd374a1d31515887737b2b95b7325decd82191ae3fe40a610160820151527f2b89b57f056713d19aac051d2b5c08f236835c77b33f890751b6c2cdd570aeec602061016083015101527f0b4f9e7c5cec4c89df8d1aa6ba509d027260a677d417a1e57764efbf98b66ae1610180820151527f2bde8594d8bf90d47542af98857a6a39ad4b13190e190a424ec6b3b0a29b2254602061018083015101527f071fde310bde93132ebc32f5feab394d5996ead1274d1afd18a88a0649dd9cff6101a0820151527f0830200a720e589651bcc1dd20a71e3712866f0636b1b7704e5a5949f768950060206101a083015101527f1fd0b7edc94f5166e68e5e52348eb514fe688626149ad57616aedd7ed1af233d6101c0820151527f1b1b83855b78e077da0d8dc06560314a9e20a8c7d52a76667cb2d44e36c94cff60206101c083015101527e7810407438091255399e5ec6e09b3792600687cf33b75811c285455afcd8ce6101e0820151527f048cf15864a37e55e19e326830010346a2624a4cce2e27e203cf30ab95481ad260206101e083015101527f1099393bb6c289d29cf9ae8d964f85399a0a233655d53ee01b5a54daa97f51a8610200820151527f22da9db142456e54f6c0792a4e0ab59cd7cda9db011349b499993b1eb2019328602061020083015101527f2876d88cba11d74ce75506378ba17971ba6b0ad5c558bb2074efbb2ccf2b227b610220820151527f12522bed77d00f4e9b6cfb7ee67f7aee83e4a234b94d17e81fde44c17c9ca13a602061022083015101527f07ac1f7330524e548ca80d43b5adbc60ef3358dbe26c0a6f34f95e33c6da53f8610240820151527f155bdf24d80bd533d322b67aeac75a62889fb0e0dfbfd1e62b284f7767385438602061024083015101527f068dbe6e8cf3d48579fba32c6f10d5b9b2d392a9f1ec35c2beea28feb596099f610260820151527f1c5312119a55f63257c803b4ce1657007f27129c2caefd028d4ae140643a895e6020610260830151015290565b611f156124ed565b6180008152600960208201527f1edd7e8380fa133b1caaf53e19bbb36e4f67e6fa317f6c0923ebdd406181c3756040820151527f2347e3ab0314a024f6f41faade3c0a97d3c4573c10a9ba5d5aab5e24a8ee3a2d6020604083015101527f1644e1e336c01d9de5b481f81522fcaef5cef40e319fe07f2bc376e648932d4d6060820151527f22827063aa139c74a19f16936a01b44d555a22a90c3d57fd7b15967bc45403626020606083015101527f0e840efe2c1615d356b2b2f467f7f49f0cc6b75db5dc73b5591124dcfc0b16006080820151527f1540096182590988e27101f66661809800bfee896d5230f59381632c350b89546020608083015101527f2a46e5174dc5d55be95f6f451b089f2b3b792478d411e6313d85505ca516d5d160a0820151527f12dc6ab5a4a2bef6fd1972faa6aa6be0efb94eb8c59e46687149ff9678c5ed81602060a083015101527f29d1539594e7b749f9eb84c7da6b2f9e91d4a976ea856819f95bdf2b4955080760c0820151527f12d706c75de12ebc0fe0bf0a72e84a7cd6a3217eee90331dded2ba12810b91d0602060c083015101527f20587a04ac2c473abdea8a7eb923d2d19e48aaba464f594034c5494df99719bd60e0820151527f1a5ecd9b9d63611e9a4ccedc8eafdef1a85961406b180e43859ce1f3abceee5a602060e083015101527f1c220bd0f159e539302773922e23c0abfa5bdc4667b423a0a08d1d7eb316cf2a610100820151527f0797380c9433b8481a319aada22999d0bee4823c75fbb447d16e0cb9d8e43091602061010083015101527f152695e50f8d7f189c67af3300f448b9140d65ab361f404fe055fe8f74cc994c610120820151527e932a307c4ae6e70d89b73e7edca162fec708fd4f15f19944139d97c6178f71602061012083015101527f2970199168a67327b37350a8b5bae9dbc9a02718dd6f00274945d3f179b54728610140820151527f2973a64d7b98c27f60ec6c96e4fcb63bcd39d247031d04513873bad8c3a061d4602061014083015101527f2ded3bbfc595e96ac35de63c912c713d3c9af7b56a08bda4ddb3a2d581fed18f610160820151527f1de5065a0cd9a3f5f70bfbe4353d9c02ff142e652d129233be149c327f2c9dcd602061016083015101527f1791e6fe9df2f1afd69622868dcb1e65f0ad57cbac90bd57a26647366195ce8b610180820151527f21789ab824cfae26033c42fa151b3f0e0e40ad8f61679731a5a4ca26e3a0cda5602061018083015101527f262378469faedbe48fe5052bc079852e6d951097a728bd85f91463163668a7ce6101a0820151527f18e40a1137e63ff15e99c7d56382d255aea3bebcd0e3693315655f2779b9212460206101a083015101527f29e67f1e1d585638a82e01f00bf8f11e3b6be7b88d9d22ca9f6b6ca4a7470cc96101c0820151527f2602e8811f78f7aa4a9f38b6b1a2930ae66182183cbd84fb014b3a9abdbc0b4760206101c083015101527f202751a50df1526007632280f56285499e2f3af307ef74f4a98c483001909d556101e0820151527f27e9075da78fb1345d429966c80d5418f67aa25eaeb88b924fb40318a8184eb160206101e083015101527f25fd490d4c3a7bf6f5c9ebfdfd92b3e27491db705ef86f50c3cb04f528431804610200820151527f09ed7a29b8555d0f94d6fb108ac8f142488076c24f9d5e239ecc048f05053ecc602061020083015101527f02b37d0d38042045bcf65eab3d9cee1c05d89b2331786f7fc59e60a9907a793b610220820151527f0cf03ac0b56e935b8f0beeb42919771651ea29f49036be6397378f306c9450f4602061022083015101527f233ef9f6cdb1b60f174a71d16995cdf2223b3657a127b73671cfae10ab917ee5610240820151527f1ecdbf35c77e6a976548cf263c7f6f2fe1d290e0628fc8f4d029d46818b9551f602061024083015101527f18e17e60f5b3cbf99034e926d3b01a7834433239040f172d435e7ba1a63654a6610260820151527f2f9e8a016bd92a9e13329c9de40d1a26317d3f7517f3cecfa325f8c2eeb5316c6020610260830151015290565b604051806102800160405280600081526020016000815260200161250f6125f1565b815260200161251c6125f1565b81526020016125296125f1565b81526020016125366125f1565b81526020016125436125f1565b81526020016125506125f1565b815260200161255d6125f1565b815260200161256a6125f1565b81526020016125776125f1565b81526020016125846125f1565b81526020016125916125f1565b815260200161259e6125f1565b81526020016125ab6125f1565b81526020016125b86125f1565b81526020016125c56125f1565b81526020016125d26125f1565b81526020016125df6125f1565b81526020016125ec6125f1565b905290565b604051806040016040528060008152602001600081525090565b803560ff811681146101a757600080fd5b6000806000806080858703121561263257600080fd5b61263b8561260b565b93506126496020860161260b565b92506126576040860161260b565b91506126656060860161260b565b905092959194509250565b60006020828403121561268257600080fd5b5035919050565b80518252602090810151910152565b60006104c082019050825182526020830151602083015260408301516126c16040840182612689565b5060608301516126d46080840182612689565b5060808301516126e760c0840182612689565b5060a08301516101006126fc81850183612689565b60c0850151915061014061271281860184612689565b60e0860151925061018061272881870185612689565b9186015192506101c09161273e86840185612689565b610120870151935061020061275581880186612689565b9187015193506102409161276b87840186612689565b6101608801519450612781610280880186612689565b8188015194506127956102c0880186612689565b6101a088015194506127ab610300880186612689565b8388015194506127bf610340880186612689565b6101e088015194506127d5610380880186612689565b87015193506127ea90506103c0860184612689565b6102208601519250612800610400860184612689565b85015191506128159050610440840182612689565b5061026083015161282a610480840182612689565b509291505056fea26469706673582212207ef92a8ad649c37d1c7cf9d7241cb88fb1537808599ccd93fdd00cf45f25518164736f6c634300080a0033",
  "devdoc": {
    "kind": "dev",
    "methods": {},
    "version": 1
  },
  "userdoc": {
    "kind": "user",
    "methods": {},
    "version": 1
  },
  "storageLayout": {
    "storage": [],
    "types": null
  }
}