{
  "address": "0x2435dFdF0256a8697a0f30Ec06c46157d74135F3",
  "abi": [
    {
      "inputs": [
        {
          "internalType": "uint8",
          "name": "noteType",
          "type": "uint8"
        },
        {
          "internalType": "uint8",
          "name": "numInput",
          "type": "uint8"
        },
        {
          "internalType": "uint8",
          "name": "numOutput",
          "type": "uint8"
        },
        {
          "internalType": "uint8",
          "name": "treeDepth",
          "type": "uint8"
        }
      ],
      "name": "getEncodedId",
      "outputs": [
        {
          "internalType": "uint256",
          "name": "encodedId",
          "type": "uint256"
        }
      ],
      "stateMutability": "pure",
      "type": "function"
    },
    {
      "inputs": [
        {
          "internalType": "uint256",
          "name": "encodedId",
          "type": "uint256"
        }
      ],
      "name": "getVkById",
      "outputs": [
        {
          "components": [
            {
              "internalType": "uint256",
              "name": "domainSize",
              "type": "uint256"
            },
            {
              "internalType": "uint256",
              "name": "numInputs",
              "type": "uint256"
            },
            {
              "components": [
                {
                  "internalType": "uint256",
                  "name": "x",
                  "type": "uint256"
                },
                {
                  "internalType": "uint256",
                  "name": "y",
                  "type": "uint256"
                }
              ],
              "internalType": "struct BN254.G1Point",
              "name": "sigma0",
              "type": "tuple"
            },
            {
              "components": [
                {
                  "internalType": "uint256",
                  "name": "x",
                  "type": "uint256"
                },
                {
                  "internalType": "uint256",
                  "name": "y",
                  "type": "uint256"
                }
              ],
              "internalType": "struct BN254.G1Point",
              "name": "sigma1",
              "type": "tuple"
            },
            {
              "components": [
                {
                  "internalType": "uint256",
                  "name": "x",
                  "type": "uint256"
                },
                {
                  "internalType": "uint256",
                  "name": "y",
                  "type": "uint256"
                }
              ],
              "internalType": "struct BN254.G1Point",
              "name": "sigma2",
              "type": "tuple"
            },
            {
              "components": [
                {
                  "internalType": "uint256",
                  "name": "x",
                  "type": "uint256"
                },
                {
                  "internalType": "uint256",
                  "name": "y",
                  "type": "uint256"
                }
              ],
              "internalType": "struct BN254.G1Point",
              "name": "sigma3",
              "type": "tuple"
            },
            {
              "components": [
                {
                  "internalType": "uint256",
                  "name": "x",
                  "type": "uint256"
                },
                {
                  "internalType": "uint256",
                  "name": "y",
                  "type": "uint256"
                }
              ],
              "internalType": "struct BN254.G1Point",
              "name": "sigma4",
              "type": "tuple"
            },
            {
              "components": [
                {
                  "internalType": "uint256",
                  "name": "x",
                  "type": "uint256"
                },
                {
                  "internalType": "uint256",
                  "name": "y",
                  "type": "uint256"
                }
              ],
              "internalType": "struct BN254.G1Point",
              "name": "q1",
              "type": "tuple"
            },
            {
              "components": [
                {
                  "internalType": "uint256",
                  "name": "x",
                  "type": "uint256"
                },
                {
                  "internalType": "uint256",
                  "name": "y",
                  "type": "uint256"
                }
              ],
              "internalType": "struct BN254.G1Point",
              "name": "q2",
              "type": "tuple"
            },
            {
              "components": [
                {
                  "internalType": "uint256",
                  "name": "x",
                  "type": "uint256"
                },
                {
                  "internalType": "uint256",
                  "name": "y",
                  "type": "uint256"
                }
              ],
              "internalType": "struct BN254.G1Point",
              "name": "q3",
              "type": "tuple"
            },
            {
              "components": [
                {
                  "internalType": "uint256",
                  "name": "x",
                  "type": "uint256"
                },
                {
                  "internalType": "uint256",
                  "name": "y",
                  "type": "uint256"
                }
              ],
              "internalType": "struct BN254.G1Point",
              "name": "q4",
              "type": "tuple"
            },
            {
              "components": [
                {
                  "internalType": "uint256",
                  "name": "x",
                  "type": "uint256"
                },
                {
                  "internalType": "uint256",
                  "name": "y",
                  "type": "uint256"
                }
              ],
              "internalType": "struct BN254.G1Point",
              "name": "qM12",
              "type": "tuple"
            },
            {
              "components": [
                {
                  "internalType": "uint256",
                  "name": "x",
                  "type": "uint256"
                },
                {
                  "internalType": "uint256",
                  "name": "y",
                  "type": "uint256"
                }
              ],
              "internalType": "struct BN254.G1Point",
              "name": "qM34",
              "type": "tuple"
            },
            {
              "components": [
                {
                  "internalType": "uint256",
                  "name": "x",
                  "type": "uint256"
                },
                {
                  "internalType": "uint256",
                  "name": "y",
                  "type": "uint256"
                }
              ],
              "internalType": "struct BN254.G1Point",
              "name": "qO",
              "type": "tuple"
            },
            {
              "components": [
                {
                  "internalType": "uint256",
                  "name": "x",
                  "type": "uint256"
                },
                {
                  "internalType": "uint256",
                  "name": "y",
                  "type": "uint256"
                }
              ],
              "internalType": "struct BN254.G1Point",
              "name": "qC",
              "type": "tuple"
            },
            {
              "components": [
                {
                  "internalType": "uint256",
                  "name": "x",
                  "type": "uint256"
                },
                {
                  "internalType": "uint256",
                  "name": "y",
                  "type": "uint256"
                }
              ],
              "internalType": "struct BN254.G1Point",
              "name": "qH1",
              "type": "tuple"
            },
            {
              "components": [
                {
                  "internalType": "uint256",
                  "name": "x",
                  "type": "uint256"
                },
                {
                  "internalType": "uint256",
                  "name": "y",
                  "type": "uint256"
                }
              ],
              "internalType": "struct BN254.G1Point",
              "name": "qH2",
              "type": "tuple"
            },
            {
              "components": [
                {
                  "internalType": "uint256",
                  "name": "x",
                  "type": "uint256"
                },
                {
                  "internalType": "uint256",
                  "name": "y",
                  "type": "uint256"
                }
              ],
              "internalType": "struct BN254.G1Point",
              "name": "qH3",
              "type": "tuple"
            },
            {
              "components": [
                {
                  "internalType": "uint256",
                  "name": "x",
                  "type": "uint256"
                },
                {
                  "internalType": "uint256",
                  "name": "y",
                  "type": "uint256"
                }
              ],
              "internalType": "struct BN254.G1Point",
              "name": "qH4",
              "type": "tuple"
            },
            {
              "components": [
                {
                  "internalType": "uint256",
                  "name": "x",
                  "type": "uint256"
                },
                {
                  "internalType": "uint256",
                  "name": "y",
                  "type": "uint256"
                }
              ],
              "internalType": "struct BN254.G1Point",
              "name": "qEcc",
              "type": "tuple"
            }
          ],
          "internalType": "struct IPlonkVerifier.VerifyingKey",
          "name": "",
          "type": "tuple"
        }
      ],
      "stateMutability": "pure",
      "type": "function"
    }
  ],
  "transactionHash": "0x83d0e75da4be5bded066ad7bc963d9a583e9211a2196eca3b05ce32116a85ef3",
  "args": [],
  "numDeployments": 1,
  "solcInputHash": "a2a06204e48e5b061a7d8a091eecad05",
  "bytecode": "0x612fe561003a600b82828239805160001a60731461002d57634e487b7160e01b600052600060045260246000fd5b30600052607381538281f3fe73000000000000000000000000000000000000000030146080604052600436106100405760003560e01c806322e6017b14610045578063b95a6ecc14610082575b600080fd5b61006f610053366004612d4d565b6000818360081b018460101b018560181b019050949350505050565b6040519081526020015b60405180910390f35b610095610090366004612da1565b6100a2565b6040516100799190612dba565b6100aa612abe565b6201021882036100c2576100bc61019c565b92915050565b6202021882036100d4576100bc61077d565b6202031882036100e6576100bc610d5d565b6203031882036100f8576100bc61133c565b6301010218820361010b576100bc61191d565b6302020218820361011e576100bc611efe565b63020303188203610131576100bc6124de565b6040517f08c379a000000000000000000000000000000000000000000000000000000000815260206004820152600d60248201527f556e6b6e6f776e20766b20494400000000000000000000000000000000000000604482015260640160405180910390fd5b919050565b6101a4612abe565b6180008152600e60208201527f0e43a9c1f84504b3e9d9d66bba090d86342a6927ccb0831b4ad3e4314f1c650c6040820151527f22fc59364ac3ff6f432fbc0d99d55fd380644b90aedff62d7960d7abcd321dcd6020604083015101527f24a11ffd2dbff2c12e1b8d84449d8b8ce99cb171433e9f4660ba1a1e0a6a07a16060820151527f201278ccefb9424277a1cc6056c21188e47664b65867aa34d82f5a80b4ec469e6020606083015101527f25620b682e4b0c96b8e1a099b6662a4a8376d44ff983890173699f49d37b467a6080820151527f1d8fa991f3321b7560caf532d1e11e8c483b058f3b851d4bed59a9a4d57747736020608083015101527f192bec85ee4ae39d80938b36091b59b6dc1ed3fa9fde9ae7345ab160571975f360a0820151527f29decce2ba198a55fb8ded11be1c98a3944b4bdf2a16d88c3ddf41b5d4ec45fd602060a083015101527f1007d3e8d1bf392cdf90615060efe25b8498079e1c3f68a21d2843b9f27dfddb60c0820151527f159c28997f8a4aa650a8ea6cb3d8008b1d34a571f4ca3b1ce1a7d23df79024d3602060c083015101527f04c927b524846a12c4efed83946a39c74ab734ce958c4f71637e60b62f26836f60e0820151527f11abecd8cccbc86e924da099abe68dea35049684da97ee319fc0ef242ea61b49602060e083015101527f2784e8245e065a1f85ec2c85c65a9fd941373173a83e298243c014008c161811610100820151527f1b241276d42c90d21f71bead44a208fe5ad33ff0cb8e4ad27847d24936327f3c602061010083015101527f0f4e4e047e518774413e6edc7ed13b627f26722c73aefd695ad4f119f0042e4c610120820151527f16c41dbe8e8d78fd49a53850b0c169eeaabc76b461640a8f73af0d01b62fe5e3602061012083015101527f1dfe29ce2bea4467598d6e4a9c6bbf7ccd4fc743319c1f42bc51b0cea74868fe610140820151527f0996a9a7d69959d5f386951568429e50ec2360b7689c697b923df0c4c08d05ac602061014083015101527f2b36479b3f382fbc5a658c11947ef42700fccf3b60844e1dc11821c8b7d2115c610160820151527f08a24dc1195aa7a6f4e36a1755660fe66496c21eb7238ae1e609db2d8d39baf5602061016083015101527f08087ef47b82c20ef42a961ef6b65b860899ada0c6f2d8fb43b4b5d949f44da8610180820151527f16e13e860ba010b267637fa2e9f6b735c0063c782a84fc3c34b2eab30d258d9c602061018083015101527f173f59689c7dae0f41cbeae0f99c3dfe81de21fe5eee07817745c4e68fc66f156101a0820151527f2e10bcd2451be7affab48e365c6535ddfaf7f3af3141b3604ec5b388e2276d5960206101a083015101527f16e177e89964bb6637a4e504e7049c1b770163ea82ec10fd14aa87d887785d286101c0820151527f02dd7bfae0527e1b790de929718f48c5c7f1b4483645848526db85c73ba5bfa460206101c083015101527f291cd0a86c4775c29b7ff9071a039d1e2ab8cf7d56aa3ac3fa9364bc4fed2f6d6101e0820151527f0c9ef43e68125deb4e99c31f86bfe34d3e9161afc12cfaaf72f53afc5c43036f60206101e083015101527f11ebbedcb714f6c9a0cee61c167ef543bd45c4666861a282e1c2a3e2bbc48911610200820151527f1e704c699ae47d76c15f4b698e95e15605d9f6c3b0cf3a0fb9c28ea58fbfae73602061020083015101527f1ee6b2f1f34c55943ce4ec685db554f9fead0650bb9d70a40465dab0b6c5a1aa610220820151527f136a786164ad5fce4dab8c390193939ec940bd30a8704be668bbdc46cdffcb14602061022083015101527f170b5ae67c6bbb0f4f6db8a8a89a3254dfaa415ba7c0931a51e03c091b5e4739610240820151527f1c1ac9ae0b2799d5b7c79ddac85be419663b55f16550bf383cf69088ed130439602061024083015101527f079f782a6032ff962a379d098b66fb9845271c675bdad2fab3ac95e2b5be44e0610260820151527f0a4abfac66665570e746c1e589de2638c14b60bd37552a2172450d3b729bff856020610260830151015290565b610785612abe565b6180008152601b60208201527f0533f22f45fcaaf2072440bbef87e5b4617c2c007a0240df1ccc8738195823826040820151527f158c694c9dbb17304780263f0d5c14098ea97f1978d8c0eb5848bbdd750c1fb86020604083015101527f222b73a03dc4512969c7e8d04bb5605a67c4e332ff960643e05be3a3318f42986060820151527f287bdfaa69ae372c2b73c8e882eba0d65e1bbc16336c2b669aaf6e8f951d1be36020606083015101527f07f2c18596554958b7abc6f42fa238b56576e7357cf70ad371062f7a54d42a676080820151527f0d33f51fc3b7e708aac18a0776fa694c0b226b45595f19b127de0e4fb8f62c206020608083015101527f1b82a6ff4fabd0ff22f78ba31ddab995474b4dec926f722decd808387bba164a60a0820151527f1f3158096cf9912974ba9cc5824a1707a5d009a90ff71c644a1c1cfceeef5113602060a083015101527f2b824a8f4979f7260dd49adc72fc401c1443d1465fdeb0987fdbd23f96e4ec0c60c0820151527f25d6380fdc7910fb7e88160f15619a6ef0a18406ca8504b12a9ad1cabcf08066602060c083015101527f09fee964b4e39c6573d1e3d883dc7c9c618eb1d08d8c24c1ee55656a95dbdf6960e0820151527f239bed6762dd8411fbe02ec642b41ab26bc19419e26822f9c7f18d320b66a695602060e083015101527f2265b4fb0fcd978ef617f13812dcd45a43f269001340752a8cfb175cfe87ead2610100820151527e5763bb9460e8da53ce7de4e8572544032dda53316d9b9870072bac5fa4d328602061010083015101527f183fd8a9fcabcd560e33e1ae46cd6ac648da8017e4ad433374f146b89fd55889610120820151527f221baabb1d7503be0c28c1a432723b6edd7d2eff2c51af0f4c6761fff1900575602061012083015101527f290420cd26cf81afc3721aa6b968f2bf825efdf92b0bae59a81ad16059231de8610140820151527f084efd98329c65d96b873323ed9245dae7adf215c37f28d1f5c35e840a068f3e602061014083015101527f226d7fda2a5fe36ad573c7761cd2605e2d9830066a9b51debbb83de004846384610160820151527f0d4fbde67608d8127cfc9f2510139e3b607d175d71c8e35ad60b1eb1b862803f602061016083015101527f0ff7ec85d8de88b01dd268fae3f0af7993427c3dbdb3f907bd99a9d37881638e610180820151527f07170041c62ea422b4cac07bf3463d74a88f70c9e7ac674d3041b2e150b3c487602061018083015101527f076aa1a859adc2862a3d83990ebcf051a323fddd8905c8cbd3d132297a11c4d06101a0820151527f2c230924b521438db0a3678cf358b81bd314afd7865edfc898efc28a1bedf7af60206101a083015101527f27bd6161f8cd7c118efa6794d5aa8682a548f5a0c257f2875f30aa0ad828d2156101c0820151527f1aa537713dec1a7f8f5f08385d68aeee0cbf4d234f6069a4f9b5654edd4b75fa60206101c083015101527f0ae134f5cea42657316905d0465c12ce8f10e81e509a27c924f8bdbbac31ac156101e0820151527f1684bc44b9547ef8843431f84a42b371e0d7bd92d35520d6b96a28932c691fac60206101e083015101527f0cfee21bfb400da57fab05206bac008411f2d84723d4e90f4136823b70d55e17610200820151527f21bcca7789fd18c025c13a33c6d6c71d7ac01e89a11948d2cc373708565f93aa602061020083015101527f2b6dec496743634994859199d3f936a7a707db95901aa14fbafc0a10b8fc8838610220820151527f1b070572c6041e1747f95986d98c6392f2ae8b34cb39a6824fd2c79ac231e97a602061022083015101527f0eaf37d42fdf1125af20a36209fb86cf5db52079f4aa3af6073bf60c46f4ab27610240820151527f07efbeb9310ae16ce44d5d62c702aa8f0fee562fad18a711a3dc8463e0634d89602061024083015101527f1b42cedcee61d05323fedca0519afe4949f20720a84fc1322cf433d40270f624610260820151527f2d57f7cb3ad82fb7b95dfd7e5bd5696e10e61331d67e0025c0035faf72ec61de6020610260830151015290565b610d65612abe565b61800081526020808201527f18d9008ff369bcced7cd6754a30b877215c141c8b04d41655f225b96bcbe49bd6040820151527f16ccb04741387cd2bcec081b4c97ef72a2af284bd374dcc87b884523aecf09cd6020604083015101527f06c928fbd22b9db901950614fcafcf8d3f281683f4879dde67f96fe26d69bba76060820151527f1767276e1d70214a444944c44c4abf3ec92c367a342117476b9f1d2ca199a7df6020606083015101527e1c2efcae58bcb22af73dd0fe1eda780496cf27d4dbd9be663da308b1bac0806080820151527f2aeec0b635a098722ff71443a011b72e9de34ccaefdf14ac509ed71d5477f4896020608083015101527f0b17d51d75d42924b9fc927cc4826e2b6a546a7be14ee8370903680aa911781960a0820151527f0f43c92594950deaae35efa1485e8f3379c38e4339a3afb0702c73c5db88f96d602060a083015101527f21d04b103ec44a6b112f9f7464ea0e18720c227fa3c485bb9fce52212b265ff560c0820151527f0e01be2b123dc742b88c5370bd6a6c3bfe0b0813b8f5bc7b745cc2573dec5c80602060c083015101527f079f588fd5f3dabaddfbef8bda97aa4ec301fac78b72dd238a1b8edf59a0e56f60e0820151527f16f99ebdb7bf17291ee254cf830a8a4d47d877fb4f358c7cb65dc00e7c043771602060e083015101527f2f28f07a5b1814470bea772a8f1ef3efd7b5ea6e55cd7ad8c59da0e99ff69fa1610100820151527f2722663eff7d2170b427f857aabea8a5d9c93cfbcc58c76c987cf568333a7e75602061010083015101527f2a8489e5cb999c94662a738eca14c8a57d853bc63557e47281230d2eb675b7f2610120820151527f03f36103e63eaa846647052721eec6e910ce1bcaf9f5694baeb6ee058e05aff3602061012083015101527f01f877dfb2305eac19a42e8cc2c897e5c93784a6c2ffb3740ccf24855d64725f610140820151527f2a2eebe723c834ce42ded9b187173193dc50ef74a66c3f4c7de54911df669d88602061014083015101527f1303eab5c3dd3b94a20d43e1962c86961bb8df59e2ee946abac269749663d8b0610160820151527f24e858254b75f8560135086d6e56a62a4b5924269282c24cd67475b2f1c3a99a602061016083015101527f143f106b6b9fab414a725e381d2d329cef77f58bd635230288a4687816fdde48610180820151527f11c13f76a86f631dcf8f986deca4d8aa6b364bce7d60d14d5c06814aed09bd51602061018083015101527f1e287dbe7f1530200f3561e3b75c7443c7334135db9952f03ba69876a8631f976101a0820151527f0f419a8b33c8ce164129d232bc7fa21450f11e0decd961c1506b0451ecf8306560206101a083015101527f0b9cf2ec3428af666ed3244d66346bb88962b2e2475c82b38b12509b483740306101c0820151527f1454429b1ac5f2a8e70937b80962fd5428fb973fc1bd2b49276a11e61f8172fe60206101c083015101527f211d0c158778541083dc84fb5dfb83fa6f3e0110f3827158229538063d76ed556101e0820151527f0b44668f586037d69d8e7ba7411352b6503dec8a885251e2be45e8fa9ad8e38560206101e083015101527f07d6b84c45fa960b89c8a0c0b8a4b1cbf00b4e98515d39e8dce218e807bb0dcd610200820151527f044add0f763d8e78c49467e8ad19c3ccd1f9124191cbae5251ceb431b1782d20602061020083015101527f2975625a3cb953129efffdf246dd1afc27118addc8baa8e31a3e589cea7eadd4610220820151527f18692d641c182409ae193fdbb8acbfe8f4cb4a4005cdfa7d1173ca44e60e9da0602061022083015101527f204220ef3bb60d1b617758293b440a2fd23510ab1ad836b14077d678127ed242610240820151527f291998714fb82bce0860e2ed473ec019d0b0666996cc7689ff2bb5ca6675e63b602061024083015101527f2ffc5cec2fcb693854bbc6b76dc9e182739c518287698ad8fc4e3ddbab17f66a610260820151527f2e3047816681474370f0a73f7b2078c0bed0fd0ae08e013cae949ba5168f42de6020610260830151015290565b611344612abe565b620100008152602d60208201527f0ee9db604936e0b1e77ed5081cb6386d75797088cf2b97e4049841c28f9be6f06040820151527f22a75f79e7a4f15a403c7194653d1ac00bc9758a16ccc90fdc6c5db0ffaaa9ad6020604083015101527f08952948eda2cbde138abd644a34cbd46c1e3cdb8992f9a3446d036f6e3745c36060820151527f10dee4433d114dea7180d068a6ffd0f9896a6610daf22442e8c66d5c69b69adb6020606083015101527f2eed0d2c5dea737bdfed99ccd0d22525c13b16052dc1ecd7a54ed162594c258d6080820151527f242ec9babc61d1959256d7e1f942870450465529d064d09996bf65ee6d7675266020608083015101527f29997ea86edbc6a227b048c46f54dde90acf46c87729b77ef1185351be9c758760a0820151527f1a455be906e3af30d0932628eccb25ac63934759d4cc22da166f6bcf40718728602060a083015101527f2f8e4896af3325c41a0127b1fc73580e81cfd37c790f093dcb61c790fddec94260c0820151527f07955e8e3ad08d1202478bcbf8019864cbf88095b4683518c0204c9f9fcfb349602060c083015101527f2bedcb2cbf50eb062802d6a9528c27d50015c8fb07188d4d5de58779b690b84860e0820151527f0fced1d0f52d3ae1d9c352cb56d5f37d5a6310337a629a69e7415cb723dac3d2602060e083015101527f2184d15f3d8a639220414e70e297ff4b2aeaae29dfbc2e2807d8c4a4755f1d34610100820151527f206867ce15238c6d6d57fdb7b71dfb138f088ef95cfca740a9ee4f35ad801965602061010083015101527f1234f5d9dd9e6fd062b538d3e81a795757a7ed2945ca04e44991534993dadf60610120820151527f02e8b4e01521b2481e6bb1f28d260fe01b96332c6fb725d930f22c2d801301d2602061012083015101527f0f85ca72bcccb58ec088b37767100e478cfc1c84f91193b569ebcfa844ebffca610140820151527f0e8eb0ee40d2ac89cc9bda611eac915eb0f5bcca36caa8e0f56b400d742ca732602061014083015101527f2a72ab666854284c4db7b49917d0c08c0bc94549b34804196632adbf3fcfcd77610160820151527f20ce6f2ef30257e84b7afbd63e996b5facb05233073b3445c1dedf9b4746fb88602061016083015101527f16a84f2bc78f5de42849ba39b01a62d5d46297c4b41a5a0bec2b3193081f303b610180820151527f07876d6ac372c528f50629d14cebe6016c90b1e4b2f1bcabab26ba227cca85d3602061018083015101527f1478dd951d6bfe3868f0cf3a2eb95ed340fe47c0f6d11bb2e9d960854e5524956101a0820151527f099ddde683662eb763546ca9bdf762792cb51c9e3772c117d35ca554d43d15b860206101a083015101527e6ee3b355c1d3f7a3c7c759550f88937f5f882099238e7bdee8b62c1227dfeb6101c0820151527f06094324093967c2811537678ce7ffff947e5f29bd715f2ccff7a911e0e38e4360206101c083015101527f2cb3c484e36265190711c6cddc5030aab4770b6efe5b110f3c04af12d604e4d36101e0820151527f0a6b6897ac3ae3cacb9916a8ac7965f21b1d8c98cf902f40c06e94b1c857b33660206101e083015101527f2d8e97da0a7bcb965970198941a0762947c3cf494bad6fcbab54828c77f5b0c4610200820151527f07962e2e2760e20506058bce20bca54c270b15e97d2132e1c6e6d19b32f09d5c602061020083015101527f256c3b17f2c9d4d96a6cd1c3aa9a2a3d3a2f4d82f737302c7d717ad2a991de70610220820151527f27c19554c1f87fd43b19bf44b5539873234c24c41556a6d44c93e67b49bf7ea3602061022083015101527f061f427c839bb22f0d9f1d6f0b5b6c27058d6c8fe0dd1f78ee0f578a31474d27610240820151527f02b80ab4ee786884d840e634a684dfb605f1b6fe50df1d184c5cf02e28d652f0602061024083015101527f0aa453e221c951b1deeaeb50bcf594ea778cc1516fb3fac9937d78804fe6ebe2610260820151527f0d1210627c2faf65c31d1a32ebd6d61f86a79b14c8c98f0cb3c8112be8bbf5f76020610260830151015290565b611925612abe565b6140008152601660208201527f2960ccbfa831a793352828ed96d1bdd8bb2641a95baf9fb57edb83f2cca50f456040820151527f1aa7d3d401d969fa5991bc2632cdd9662376b73d711da7dac798add1a71af5ba6020604083015101527f20c63270d438c7a1d5f2efa6fc8433880b20b0d5e8a5a8f0007dc717d21f16e06060820151527f225e5d18c26d8fb7f3b40486988726a589f7d287760c5cda3d56b02ee8b885fa6020606083015101527f1c25749f104c4c40bb85df869a45c24db6100a94d15c00272f06c12df488687d6080820151527f1ec81f81dc7db4bcdda5b8df435b0cf41ff63d2a4f07c7acecfe7f76fae18dcf6020608083015101527f18c618ce1b1e3ad035d7095b05552e02d3ae458a8e09ff4566b631e565be2a3260a0820151527f2fd002e84c76c7b0965a8d760b939a359e1e4335208372002ec024387d536258602060a083015101527f02de94c4a1f57b5649a43fa5af3ab5a16515c87115e202d6847550b705abc99560c0820151527f0b287ff4c028444fa5db9da160d292b93fa6bb42fd5d4517b44957b0c1d27acb602060c083015101527f078d7586574326613d2fb3fa445b97a597b714e990ddd239df94fb31a3399b6d60e0820151527f1dc0b27e9a7acd6fd3dadae3aa6e0b399e263e45856d2b24ed0fee99eb5fb401602060e083015101527f2031141beab16ef28e125b9f5dfac68b76653fe6b84517f54680ccf9df6bc78d610100820151527f0218f2e0d088f3484260384fa109ae07933f88dd91914c2ec2420e0dee3f7de5602061010083015101527f08064480d001be521821d062356588eda5f261272033a191e4a2d6d4357f2e91610120820151527f19fd20b1228ef31c7f5894581eda8a6bc76d8b63ce53e8c7b01a4935cb25a775602061012083015101527f18546a166f8d6c476d8a7d67acac1708df0147e8f1414e2cf9c917cac2689ab9610140820151527f06cc6ff643d568ae6ca2ba7ae4d62e534850d1a4def63d81b41d01042666035c602061014083015101527f0b4faccf5dc34066b8c1f8f35854050a7874d0a2818c74fe1adeb59e7ec2c6bf610160820151527f0cf6211dcca044fbe21e36a09ed22a39e0628221cd3b890167a3e15e8213b6ba602061016083015101527f26e43e5e6b83059e5c7de162cbeb6ff59b2a131f3c19cb8e24bfaa29369b37b3610180820151527f303fde21c1632dd69563ef7f34c003ebf7eff104aabdba74e602d07db9a9f996602061018083015101527f0970ed4d40373e01ba957d0ffbdec21cedcf141cbeef56fdd60db26481e6682c6101a0820151527f079509aa4eb8f12b9cebeab63f99b3c675fa24ec587a104a91da2f928d0dd83e60206101a083015101527f281b216a2154f4b3a41ebcf4a1661ecea487ecfeffb10a3af1c95e646cf9067c6101c0820151527f14ff18a5a0a146561af17c7e25e1e7aedca96f63e0e45e6db06e6fda83a017f660206101c083015101527f05ec99c9a5750e772e09b59c2900a27e133c89e37e53dbeb8e25aeaf71ca5d8d6101e0820151527f11eab6996efe30a8d9060d724aca0b8f1039d78f2bb3fa80866678a5c2ff5e7660206101e083015101527f21f55defa3da3d5cb88371ec2e3cf363e946e56ccc6e5d9521817596609250a3610200820151527f2475e54f88b4653c0c2ad0a68d81c9fd036236afde52118e681ae3bf8cad6e23602061020083015101527f1ac0e2768b54bc5994bb1224cc1b418e961b5d78298c4f0a3b8ff84cf60f3309610220820151527f01beea794b532e5f28169b659ca8942272ef94b4173aa265c75e8f58f47b8484602061022083015101527f14b8a58d9a83070b9412f50ffe8303ef7a9635202eba89f81ad07e14db58ed84610240820151527f0b364323368f55e1034dd161810931cbdc0af799e8ec0f730e829e0ebdd423ea602061024083015101527f1e523d197e5d7c2f0c2552e6f07966c391a25410c770ffb2597825e45827d99d610260820151527f0407d96a0a3a4123a33c4f08dcfc5b095dff98909bb5f7408fdd7f9d08468eed6020610260830151015290565b611f06612abe565b6180008152600760208201527f0b50c36923c6944a1fd8b9d260fc6786910299e5cd838b082a5d4b959c5369d86040820151527f2f6929bc105c2e4941e799e34147419a7f1e1e4d7d39bc84772d77203340c5ce6020604083015101527f13765dbb447c8ea8d3c358686bc464642b658c768d7b7d5c52d24090aa3120bc6060820151527f0561337e6621272cf83f4be0bd99d884f88724b1056e75d2231eaf34f3d804ad6020606083015101527f07358c9dccb7c0836af2ba0d84da7e125cb0e22f81ae70e8da68096d2f3066ed6080820151527f07fd263887d67d02c6997ac3385d290fe95a30133ab6c42c47a8354e30d55e056020608083015101527f0669063c49e18373adb984bbe5c4d448001c0ae449b68b03dcd130d6e1a4492360a0820151527f12866290a8990a143b6d6d7e3329183b1c4ad82ee250f57a8e1f615ef67480e8602060a083015101527f19f089ba3858226bac8a3053cc4486250d544430f238ca1542bc27497d9f9c4260c0820151527f1d1c0f1cda207c95080375a6863553ada605e24b80d9357e11e037f7a87ed73d602060c083015101527f07b7e66feeda9acbabe16f98ddd329f47a8860e2aae0addf0a16c66f881c4b9b60e0820151527f15ba6adb189f8d6cd44f9042bfbb7952409c3b2f0672940978440f52b66bd2e6602060e083015101527f1db45b81750780476089df0ef4ee6e1fa97c25b40706be930349c27de04d8980610100820151527f27c17411029c4cbd0e6a2d50bca1ad65466295a2ce33e408958ecaf4f4604ccc602061010083015101527f14d3c7e4a751138c29243664e5053dcd9a9ec44989c247894a8e586e6a6d94c9610120820151527f1f112a8320a2c479f950604f0504fbb37d30a9633e77543c758d7089b406ff92602061012083015101527f0d405e091ca140684368ee442484b1e8b973c621f4cf1ee8adccc9d7febed1ae610140820151527f1189e58196d34f3615ea805405e60b9581018f619000791d69d36a26177e7ffd602061014083015101527f2d2aa260acf145ec8ecd374a1d31515887737b2b95b7325decd82191ae3fe40a610160820151527f2b89b57f056713d19aac051d2b5c08f236835c77b33f890751b6c2cdd570aeec602061016083015101527f0b4f9e7c5cec4c89df8d1aa6ba509d027260a677d417a1e57764efbf98b66ae1610180820151527f2bde8594d8bf90d47542af98857a6a39ad4b13190e190a424ec6b3b0a29b2254602061018083015101527f071fde310bde93132ebc32f5feab394d5996ead1274d1afd18a88a0649dd9cff6101a0820151527f0830200a720e589651bcc1dd20a71e3712866f0636b1b7704e5a5949f768950060206101a083015101527f1fd0b7edc94f5166e68e5e52348eb514fe688626149ad57616aedd7ed1af233d6101c0820151527f1b1b83855b78e077da0d8dc06560314a9e20a8c7d52a76667cb2d44e36c94cff60206101c083015101527e7810407438091255399e5ec6e09b3792600687cf33b75811c285455afcd8ce6101e0820151527f048cf15864a37e55e19e326830010346a2624a4cce2e27e203cf30ab95481ad260206101e083015101527f1099393bb6c289d29cf9ae8d964f85399a0a233655d53ee01b5a54daa97f51a8610200820151527f22da9db142456e54f6c0792a4e0ab59cd7cda9db011349b499993b1eb2019328602061020083015101527f2876d88cba11d74ce75506378ba17971ba6b0ad5c558bb2074efbb2ccf2b227b610220820151527f12522bed77d00f4e9b6cfb7ee67f7aee83e4a234b94d17e81fde44c17c9ca13a602061022083015101527f07ac1f7330524e548ca80d43b5adbc60ef3358dbe26c0a6f34f95e33c6da53f8610240820151527f155bdf24d80bd533d322b67aeac75a62889fb0e0dfbfd1e62b284f7767385438602061024083015101527f068dbe6e8cf3d48579fba32c6f10d5b9b2d392a9f1ec35c2beea28feb596099f610260820151527f1c5312119a55f63257c803b4ce1657007f27129c2caefd028d4ae140643a895e6020610260830151015290565b6124e6612abe565b6180008152600960208201527f1edd7e8380fa133b1caaf53e19bbb36e4f67e6fa317f6c0923ebdd406181c3756040820151527f2347e3ab0314a024f6f41faade3c0a97d3c4573c10a9ba5d5aab5e24a8ee3a2d6020604083015101527f1644e1e336c01d9de5b481f81522fcaef5cef40e319fe07f2bc376e648932d4d6060820151527f22827063aa139c74a19f16936a01b44d555a22a90c3d57fd7b15967bc45403626020606083015101527f0e840efe2c1615d356b2b2f467f7f49f0cc6b75db5dc73b5591124dcfc0b16006080820151527f1540096182590988e27101f66661809800bfee896d5230f59381632c350b89546020608083015101527f2a46e5174dc5d55be95f6f451b089f2b3b792478d411e6313d85505ca516d5d160a0820151527f12dc6ab5a4a2bef6fd1972faa6aa6be0efb94eb8c59e46687149ff9678c5ed81602060a083015101527f29d1539594e7b749f9eb84c7da6b2f9e91d4a976ea856819f95bdf2b4955080760c0820151527f12d706c75de12ebc0fe0bf0a72e84a7cd6a3217eee90331dded2ba12810b91d0602060c083015101527f20587a04ac2c473abdea8a7eb923d2d19e48aaba464f594034c5494df99719bd60e0820151527f1a5ecd9b9d63611e9a4ccedc8eafdef1a85961406b180e43859ce1f3abceee5a602060e083015101527f1c220bd0f159e539302773922e23c0abfa5bdc4667b423a0a08d1d7eb316cf2a610100820151527f0797380c9433b8481a319aada22999d0bee4823c75fbb447d16e0cb9d8e43091602061010083015101527f152695e50f8d7f189c67af3300f448b9140d65ab361f404fe055fe8f74cc994c610120820151527e932a307c4ae6e70d89b73e7edca162fec708fd4f15f19944139d97c6178f71602061012083015101527f2970199168a67327b37350a8b5bae9dbc9a02718dd6f00274945d3f179b54728610140820151527f2973a64d7b98c27f60ec6c96e4fcb63bcd39d247031d04513873bad8c3a061d4602061014083015101527f2ded3bbfc595e96ac35de63c912c713d3c9af7b56a08bda4ddb3a2d581fed18f610160820151527f1de5065a0cd9a3f5f70bfbe4353d9c02ff142e652d129233be149c327f2c9dcd602061016083015101527f1791e6fe9df2f1afd69622868dcb1e65f0ad57cbac90bd57a26647366195ce8b610180820151527f21789ab824cfae26033c42fa151b3f0e0e40ad8f61679731a5a4ca26e3a0cda5602061018083015101527f262378469faedbe48fe5052bc079852e6d951097a728bd85f91463163668a7ce6101a0820151527f18e40a1137e63ff15e99c7d56382d255aea3bebcd0e3693315655f2779b9212460206101a083015101527f29e67f1e1d585638a82e01f00bf8f11e3b6be7b88d9d22ca9f6b6ca4a7470cc96101c0820151527f2602e8811f78f7aa4a9f38b6b1a2930ae66182183cbd84fb014b3a9abdbc0b4760206101c083015101527f202751a50df1526007632280f56285499e2f3af307ef74f4a98c483001909d556101e0820151527f27e9075da78fb1345d429966c80d5418f67aa25eaeb88b924fb40318a8184eb160206101e083015101527f25fd490d4c3a7bf6f5c9ebfdfd92b3e27491db705ef86f50c3cb04f528431804610200820151527f09ed7a29b8555d0f94d6fb108ac8f142488076c24f9d5e239ecc048f05053ecc602061020083015101527f02b37d0d38042045bcf65eab3d9cee1c05d89b2331786f7fc59e60a9907a793b610220820151527f0cf03ac0b56e935b8f0beeb42919771651ea29f49036be6397378f306c9450f4602061022083015101527f233ef9f6cdb1b60f174a71d16995cdf2223b3657a127b73671cfae10ab917ee5610240820151527f1ecdbf35c77e6a976548cf263c7f6f2fe1d290e0628fc8f4d029d46818b9551f602061024083015101527f18e17e60f5b3cbf99034e926d3b01a7834433239040f172d435e7ba1a63654a6610260820151527f2f9e8a016bd92a9e13329c9de40d1a26317d3f7517f3cecfa325f8c2eeb5316c6020610260830151015290565b6040518061028001604052806000815260200160008152602001612af5604051806040016040528060008152602001600081525090565b8152602001612b17604051806040016040528060008152602001600081525090565b8152602001612b39604051806040016040528060008152602001600081525090565b8152602001612b5b604051806040016040528060008152602001600081525090565b8152602001612b7d604051806040016040528060008152602001600081525090565b8152602001612b9f604051806040016040528060008152602001600081525090565b8152602001612bc1604051806040016040528060008152602001600081525090565b8152602001612be3604051806040016040528060008152602001600081525090565b8152602001612c05604051806040016040528060008152602001600081525090565b8152602001612c27604051806040016040528060008152602001600081525090565b8152602001612c49604051806040016040528060008152602001600081525090565b8152602001612c6b604051806040016040528060008152602001600081525090565b8152602001612c8d604051806040016040528060008152602001600081525090565b8152602001612caf604051806040016040528060008152602001600081525090565b8152602001612cd1604051806040016040528060008152602001600081525090565b8152602001612cf3604051806040016040528060008152602001600081525090565b8152602001612d15604051806040016040528060008152602001600081525090565b8152602001612d37604051806040016040528060008152602001600081525090565b905290565b803560ff8116811461019757600080fd5b60008060008060808587031215612d6357600080fd5b612d6c85612d3c565b9350612d7a60208601612d3c565b9250612d8860408601612d3c565b9150612d9660608601612d3c565b905092959194509250565b600060208284031215612db357600080fd5b5035919050565b60006104c08201905082518252602083015160208301526040830151612ded604084018280518252602090810151910152565b50606083015180516080840152602081015160a0840152506080830151805160c0840152602081015160e08401525060a0830151610100612e3a8185018380518252602090810151910152565b60c08501519150610140612e5a8186018480518252602090810151910152565b60e08601519250610180612e7a8187018580518252602090810151910152565b9186015192506101c091612e9a8684018580518252602090810151910152565b6101208701519350610200612ebb8188018680518252602090810151910152565b91870151935061024091612edb8784018680518252602090810151910152565b61016088015180516102808901526020908101516102a08901529188015180516102c08901528201516102e08801526101a088015180516103008901528201516103208801529287015180516103408801528101516103608701526101e087015180516103808801528101516103a08701529186015180516103c08701528201516103e0860152610220860151805161040087015282015161042086015285015180516104408601529081015161046085015290505061026092909201518051610480830152602001516104a0909101529056fea264697066735822122001744a823532336746c68b1ac624f1978215eddb05a58dd61de7d93eefd43c6a64736f6c634300080d0033",
  "devdoc": {
    "kind": "dev",
    "methods": {},
    "version": 1
  },
  "userdoc": {
    "kind": "user",
    "methods": {},
    "version": 1
  },
  "storageLayout": {
    "storage": [],
    "types": null
  }
}